{
  "transactions": [
    {
      "hash": "0x5b87c4ad1c06889352b0c78037ca8899e7a88d53de1b51760cce43c798eff42e",
      "transactionType": "CALL",
      "contractName": "EndpointV2",
      "contractAddress": "0x6EDCE65403992e310A62460808c4b910D972f10f",
      "function": "lzReceive((uint32,bytes32,uint64),address,bytes32,bytes,bytes)",
      "arguments": [
        "(40161, 0x0000000000000000000000004114eccadf3b248da9eee7d8df2d3ba6bb02cbcd, 6)",
        "0x8BB305DF680edA14E6b25b975Bf1a8831AcF69ab",
        "0xaa5f422924adc24f93e271f308c82160aca11da7d5e34aafb559ad39705248d8",
        "0x000000000000000000000000de05a1abb121113a33eed248bd91ddc254d5e9db00000000000f4240",
        "0x3078"
      ],
      "transaction": {
        "type": "0x02",
        "from": "0xde05a1abb121113a33eed248bd91ddc254d5e9db",
        "to": "0x6edce65403992e310a62460808c4b910d972f10f",
        "gas": "0x162a9",
        "value": "0x0",
        "data": "0x0c0c389e0000000000000000000000000000000000000000000000000000000000009ce10000000000000000000000004114eccadf3b248da9eee7d8df2d3ba6bb02cbcd00000000000000000000000000000000000000000000000000000000000000060000000000000000000000008bb305df680eda14e6b25b975bf1a8831acf69abaa5f422924adc24f93e271f308c82160aca11da7d5e34aafb559ad39705248d800000000000000000000000000000000000000000000000000000000000000e000000000000000000000000000000000000000000000000000000000000001400000000000000000000000000000000000000000000000000000000000000028000000000000000000000000de05a1abb121113a33eed248bd91ddc254d5e9db00000000000f424000000000000000000000000000000000000000000000000000000000000000000000000000000000000000000000000000000000000000023078000000000000000000000000000000000000000000000000000000000000",
        "nonce": "0x22",
        "accessList": []
      },
      "additionalContracts": [],
      "isFixedGasLimit": false
    }
  ],
  "receipts": [],
  "libraries": [],
  "pending": [
    "0x5b87c4ad1c06889352b0c78037ca8899e7a88d53de1b51760cce43c798eff42e"
  ],
  "returns": {},
  "timestamp": 1709625276,
  "chain": 80001,
  "multi": false,
  "commit": "49c9362"
}