{
  "transactions": [
    {
      "hash": "0xa8cd82bdea24fede4f857185cd3b4ce928aeb74915476b7c513d4f8a25799cbc",
      "transactionType": "CALL",
      "contractName": "MocaOFT",
      "contractAddress": "0x8BB305DF680edA14E6b25b975Bf1a8831AcF69ab",
      "function": "setPeer(uint32,bytes32)",
      "arguments": [
        "40161",
        "0x0000000000000000000000004114eccadf3b248da9eee7d8df2d3ba6bb02cbcd"
      ],
      "transaction": {
        "type": "0x02",
        "from": "0xde05a1abb121113a33eed248bd91ddc254d5e9db",
        "to": "0x8bb305df680eda14e6b25b975bf1a8831acf69ab",
        "gas": "0x1104f",
        "value": "0x0",
        "data": "0x3400288b0000000000000000000000000000000000000000000000000000000000009ce10000000000000000000000004114eccadf3b248da9eee7d8df2d3ba6bb02cbcd",
        "nonce": "0x21",
        "accessList": []
      },
      "additionalContracts": [],
      "isFixedGasLimit": false
    }
  ],
  "receipts": [
    {
      "transactionHash": "0xa8cd82bdea24fede4f857185cd3b4ce928aeb74915476b7c513d4f8a25799cbc",
      "transactionIndex": "0x0",
      "blockHash": "0x7d2e2fe74594c56e095f7389ac435407755769495e9b5b6d33649864a1465b32",
      "blockNumber": "0x2c84933",
      "from": "0xdE05a1Abb121113a33eeD248BD91ddC254d5E9Db",
      "to": "0x8BB305DF680edA14E6b25b975Bf1a8831AcF69ab",
      "cumulativeGasUsed": "0xba32",
      "gasUsed": "0xba32",
      "contractAddress": null,
      "logs": [
        {
          "address": "0x8BB305DF680edA14E6b25b975Bf1a8831AcF69ab",
          "topics": [
            "0x238399d427b947898edb290f5ff0f9109849b1c3ba196a42e35f00c50a54b98b"
          ],
          "data": "0x0000000000000000000000000000000000000000000000000000000000009ce10000000000000000000000004114eccadf3b248da9eee7d8df2d3ba6bb02cbcd",
          "blockHash": "0x7d2e2fe74594c56e095f7389ac435407755769495e9b5b6d33649864a1465b32",
          "blockNumber": "0x2c84933",
          "transactionHash": "0xa8cd82bdea24fede4f857185cd3b4ce928aeb74915476b7c513d4f8a25799cbc",
          "transactionIndex": "0x0",
          "logIndex": "0x0",
          "removed": false
        },
        {
          "address": "0x0000000000000000000000000000000000001010",
          "topics": [
            "0x4dfe1bbbcf077ddc3e01291eea2d5c70c2b422b415d95645b9adcfd678cb1d63",
            "0x0000000000000000000000000000000000000000000000000000000000001010",
            "0x000000000000000000000000de05a1abb121113a33eed248bd91ddc254d5e9db",
            "0x0000000000000000000000005082f249cdb2f2c1ee035e4f423c46ea2dab3ab1"
          ],
          "data": "0x0000000000000000000000000000000000000000000000000005148f29ef980000000000000000000000000000000000000000000000000008b31bdd390592de0000000000000000000000000000000000000000000007153abcc1cd96d08e0700000000000000000000000000000000000000000000000008ae074e0f15fade0000000000000000000000000000000000000000000007153ac1d65cc0c02607",
          "blockHash": "0x7d2e2fe74594c56e095f7389ac435407755769495e9b5b6d33649864a1465b32",
          "blockNumber": "0x2c84933",
          "transactionHash": "0xa8cd82bdea24fede4f857185cd3b4ce928aeb74915476b7c513d4f8a25799cbc",
          "transactionIndex": "0x0",
          "logIndex": "0x1",
          "removed": false
        }
      ],
      "status": "0x1",
      "logsBloom": "0x00000000000000000000000000000000000000000000000000100000020000000000000002000000000000000000000000008000200000000800000000000000000000000000000000000000000000800000800000000000000100000000000000000000000000000000000000000000000000000000004080000000000000000000000000000020000000000000000000000000000000000000000000000000200000000000000000000000000000000010000000000000000002000000004000000000000000000001000000000000000000000000000000140000000000000000000000000080000000000000000000000000000000000000000000100000",
      "type": "0x2",
      "effectiveGasPrice": "0x6fc23ac10"
    }
  ],
  "libraries": [],
  "pending": [],
  "returns": {},
  "timestamp": 1709625219,
  "chain": 80001,
  "multi": false,
  "commit": "49c9362"
}