{
  "transactions": [
    {
      "hash": "0x5b87c4ad1c06889352b0c78037ca8899e7a88d53de1b51760cce43c798eff42e",
      "transactionType": "CALL",
      "contractName": "EndpointV2",
      "contractAddress": "0x6EDCE65403992e310A62460808c4b910D972f10f",
      "function": "lzReceive((uint32,bytes32,uint64),address,bytes32,bytes,bytes)",
      "arguments": [
        "(40161, 0x0000000000000000000000004114eccadf3b248da9eee7d8df2d3ba6bb02cbcd, 6)",
        "0x8BB305DF680edA14E6b25b975Bf1a8831AcF69ab",
        "0xaa5f422924adc24f93e271f308c82160aca11da7d5e34aafb559ad39705248d8",
        "0x000000000000000000000000de05a1abb121113a33eed248bd91ddc254d5e9db00000000000f4240",
        "0x3078"
      ],
      "transaction": {
        "type": "0x02",
        "from": "0xde05a1abb121113a33eed248bd91ddc254d5e9db",
        "to": "0x6edce65403992e310a62460808c4b910d972f10f",
        "gas": "0x162a9",
        "value": "0x0",
        "data": "0x0c0c389e0000000000000000000000000000000000000000000000000000000000009ce10000000000000000000000004114eccadf3b248da9eee7d8df2d3ba6bb02cbcd00000000000000000000000000000000000000000000000000000000000000060000000000000000000000008bb305df680eda14e6b25b975bf1a8831acf69abaa5f422924adc24f93e271f308c82160aca11da7d5e34aafb559ad39705248d800000000000000000000000000000000000000000000000000000000000000e000000000000000000000000000000000000000000000000000000000000001400000000000000000000000000000000000000000000000000000000000000028000000000000000000000000de05a1abb121113a33eed248bd91ddc254d5e9db00000000000f424000000000000000000000000000000000000000000000000000000000000000000000000000000000000000000000000000000000000000023078000000000000000000000000000000000000000000000000000000000000",
        "nonce": "0x22",
        "accessList": []
      },
      "additionalContracts": [],
      "isFixedGasLimit": false
    }
  ],
  "receipts": [
    {
      "transactionHash": "0x5b87c4ad1c06889352b0c78037ca8899e7a88d53de1b51760cce43c798eff42e",
      "transactionIndex": "0x0",
      "blockHash": "0x966676eca0a47b350ecd62a1428087ed3a9d65bfe7369a74ef9930f8c1a793b1",
      "blockNumber": "0x2c84951",
      "from": "0xdE05a1Abb121113a33eeD248BD91ddC254d5E9Db",
      "to": "0x6EDCE65403992e310A62460808c4b910D972f10f",
      "cumulativeGasUsed": "0xf281",
      "gasUsed": "0xf281",
      "contractAddress": null,
      "logs": [
        {
          "address": "0x8BB305DF680edA14E6b25b975Bf1a8831AcF69ab",
          "topics": [
            "0xddf252ad1be2c89b69c2b068fc378daa952ba7f163c4a11628f55a4df523b3ef",
            "0x0000000000000000000000000000000000000000000000000000000000000000",
            "0x000000000000000000000000de05a1abb121113a33eed248bd91ddc254d5e9db"
          ],
          "data": "0x0000000000000000000000000000000000000000000000000de0b6b3a7640000",
          "blockHash": "0x966676eca0a47b350ecd62a1428087ed3a9d65bfe7369a74ef9930f8c1a793b1",
          "blockNumber": "0x2c84951",
          "transactionHash": "0x5b87c4ad1c06889352b0c78037ca8899e7a88d53de1b51760cce43c798eff42e",
          "transactionIndex": "0x0",
          "logIndex": "0x0",
          "removed": false
        },
        {
          "address": "0x8BB305DF680edA14E6b25b975Bf1a8831AcF69ab",
          "topics": [
            "0xefed6d3500546b29533b128a29e3a94d70788727f0507505ac12eaf2e578fd9c",
            "0xaa5f422924adc24f93e271f308c82160aca11da7d5e34aafb559ad39705248d8",
            "0x000000000000000000000000de05a1abb121113a33eed248bd91ddc254d5e9db"
          ],
          "data": "0x0000000000000000000000000000000000000000000000000000000000009ce10000000000000000000000000000000000000000000000000de0b6b3a7640000",
          "blockHash": "0x966676eca0a47b350ecd62a1428087ed3a9d65bfe7369a74ef9930f8c1a793b1",
          "blockNumber": "0x2c84951",
          "transactionHash": "0x5b87c4ad1c06889352b0c78037ca8899e7a88d53de1b51760cce43c798eff42e",
          "transactionIndex": "0x0",
          "logIndex": "0x1",
          "removed": false
        },
        {
          "address": "0x6EDCE65403992e310A62460808c4b910D972f10f",
          "topics": [
            "0x3cd5e48f9730b129dc7550f0fcea9c767b7be37837cd10e55eb35f734f4bca04"
          ],
          "data": "0x0000000000000000000000000000000000000000000000000000000000009ce10000000000000000000000004114eccadf3b248da9eee7d8df2d3ba6bb02cbcd00000000000000000000000000000000000000000000000000000000000000060000000000000000000000008bb305df680eda14e6b25b975bf1a8831acf69ab",
          "blockHash": "0x966676eca0a47b350ecd62a1428087ed3a9d65bfe7369a74ef9930f8c1a793b1",
          "blockNumber": "0x2c84951",
          "transactionHash": "0x5b87c4ad1c06889352b0c78037ca8899e7a88d53de1b51760cce43c798eff42e",
          "transactionIndex": "0x0",
          "logIndex": "0x2",
          "removed": false
        },
        {
          "address": "0x0000000000000000000000000000000000001010",
          "topics": [
            "0x4dfe1bbbcf077ddc3e01291eea2d5c70c2b422b415d95645b9adcfd678cb1d63",
            "0x0000000000000000000000000000000000000000000000000000000000001010",
            "0x000000000000000000000000de05a1abb121113a33eed248bd91ddc254d5e9db",
            "0x000000000000000000000000cfef2a3dc244ef7d0fb93c45e762d671445c4569"
          ],
          "data": "0x00000000000000000000000000000000000000000000000000069ddec691ac0000000000000000000000000000000000000000000000000008ae074e0f0a57be0000000000000000000000000000000000000000000001c5158438502a4d5f5b00000000000000000000000000000000000000000000000008a7696f4878abbe0000000000000000000000000000000000000000000001c5158ad62ef0df0b5b",
          "blockHash": "0x966676eca0a47b350ecd62a1428087ed3a9d65bfe7369a74ef9930f8c1a793b1",
          "blockNumber": "0x2c84951",
          "transactionHash": "0x5b87c4ad1c06889352b0c78037ca8899e7a88d53de1b51760cce43c798eff42e",
          "transactionIndex": "0x0",
          "logIndex": "0x3",
          "removed": false
        }
      ],
      "status": "0x1",
      "logsBloom": "0x00000000010000000000000000000000000000000000400000100000000000000000000000000000200000000000000000008000200200000000000000000000000000000000000000000008000000800000900000000000020100000000002000000000020000000200000000000800000000000000004080000010000000100000080000000020000000000000000000000040000000000000000000200000200000000000000000000000000000000010000000000000000000000000004000000002000000000001000000000000000000000000000000100000000020000000000000000000000000000000000000000000000000000000040000110000",
      "type": "0x2",
      "effectiveGasPrice": "0x6fc23ac11"
    }
  ],
  "libraries": [],
  "pending": [],
  "returns": {},
  "timestamp": 1709625283,
  "chain": 80001,
  "multi": false,
  "commit": "49c9362"
}