{
  "transactions": [
    {
      "hash": "0xa8cd82bdea24fede4f857185cd3b4ce928aeb74915476b7c513d4f8a25799cbc",
      "transactionType": "CALL",
      "contractName": "MocaOFT",
      "contractAddress": "0x8BB305DF680edA14E6b25b975Bf1a8831AcF69ab",
      "function": "setPeer(uint32,bytes32)",
      "arguments": [
        "40161",
        "0x0000000000000000000000004114eccadf3b248da9eee7d8df2d3ba6bb02cbcd"
      ],
      "transaction": {
        "type": "0x02",
        "from": "0xde05a1abb121113a33eed248bd91ddc254d5e9db",
        "to": "0x8bb305df680eda14e6b25b975bf1a8831acf69ab",
        "gas": "0x1104f",
        "value": "0x0",
        "data": "0x3400288b0000000000000000000000000000000000000000000000000000000000009ce10000000000000000000000004114eccadf3b248da9eee7d8df2d3ba6bb02cbcd",
        "nonce": "0x21",
        "accessList": []
      },
      "additionalContracts": [],
      "isFixedGasLimit": false
    }
  ],
  "receipts": [],
  "libraries": [],
  "pending": [
    "0xa8cd82bdea24fede4f857185cd3b4ce928aeb74915476b7c513d4f8a25799cbc"
  ],
  "returns": {},
  "timestamp": 1709625213,
  "chain": 80001,
  "multi": false,
  "commit": "49c9362"
}