{
  "transactions": [
    {
      "hash": "0xecf5cbd9f8488d69386221d8c83a5361e27e0abab9ef67df0e5b07e1e601b07f",
      "transactionType": "CALL",
      "contractName": "MocaOFT",
      "contractAddress": "0x8BB305DF680edA14E6b25b975Bf1a8831AcF69ab",
      "function": "setPeer(uint32,bytes32)",
      "arguments": [
        "40161",
        "0x0000000000000000000000000000000000000000000000000000000000000000"
      ],
      "transaction": {
        "type": "0x02",
        "from": "0xde05a1abb121113a33eed248bd91ddc254d5e9db",
        "to": "0x8bb305df680eda14e6b25b975bf1a8831acf69ab",
        "gas": "0x9483",
        "value": "0x0",
        "data": "0x3400288b0000000000000000000000000000000000000000000000000000000000009ce10000000000000000000000000000000000000000000000000000000000000000",
        "nonce": "0x20",
        "accessList": []
      },
      "additionalContracts": [],
      "isFixedGasLimit": false
    }
  ],
  "receipts": [],
  "libraries": [],
  "pending": [
    "0xecf5cbd9f8488d69386221d8c83a5361e27e0abab9ef67df0e5b07e1e601b07f"
  ],
  "returns": {},
  "timestamp": 1709621746,
  "chain": 80001,
  "multi": false,
  "commit": "49c9362"
}