{
  "transactions": [
    {
      "hash": "0xecf5cbd9f8488d69386221d8c83a5361e27e0abab9ef67df0e5b07e1e601b07f",
      "transactionType": "CALL",
      "contractName": "MocaOFT",
      "contractAddress": "0x8BB305DF680edA14E6b25b975Bf1a8831AcF69ab",
      "function": "setPeer(uint32,bytes32)",
      "arguments": [
        "40161",
        "0x0000000000000000000000000000000000000000000000000000000000000000"
      ],
      "transaction": {
        "type": "0x02",
        "from": "0xde05a1abb121113a33eed248bd91ddc254d5e9db",
        "to": "0x8bb305df680eda14e6b25b975bf1a8831acf69ab",
        "gas": "0x9483",
        "value": "0x0",
        "data": "0x3400288b0000000000000000000000000000000000000000000000000000000000009ce10000000000000000000000000000000000000000000000000000000000000000",
        "nonce": "0x20",
        "accessList": []
      },
      "additionalContracts": [],
      "isFixedGasLimit": false
    }
  ],
  "receipts": [
    {
      "transactionHash": "0xecf5cbd9f8488d69386221d8c83a5361e27e0abab9ef67df0e5b07e1e601b07f",
      "transactionIndex": "0x1",
      "blockHash": "0x21142f3dd252600bb80e5abf215a6a5fbf72bc0c4000196776b791c35347cef9",
      "blockNumber": "0x2c842d7",
      "from": "0xdE05a1Abb121113a33eeD248BD91ddC254d5E9Db",
      "to": "0x8BB305DF680edA14E6b25b975Bf1a8831AcF69ab",
      "cumulativeGasUsed": "0xfcc7",
      "gasUsed": "0x6b86",
      "contractAddress": null,
      "logs": [
        {
          "address": "0x8BB305DF680edA14E6b25b975Bf1a8831AcF69ab",
          "topics": [
            "0x238399d427b947898edb290f5ff0f9109849b1c3ba196a42e35f00c50a54b98b"
          ],
          "data": "0x0000000000000000000000000000000000000000000000000000000000009ce10000000000000000000000000000000000000000000000000000000000000000",
          "blockHash": "0x21142f3dd252600bb80e5abf215a6a5fbf72bc0c4000196776b791c35347cef9",
          "blockNumber": "0x2c842d7",
          "transactionHash": "0xecf5cbd9f8488d69386221d8c83a5361e27e0abab9ef67df0e5b07e1e601b07f",
          "transactionIndex": "0x1",
          "logIndex": "0x2",
          "removed": false
        },
        {
          "address": "0x0000000000000000000000000000000000001010",
          "topics": [
            "0x4dfe1bbbcf077ddc3e01291eea2d5c70c2b422b415d95645b9adcfd678cb1d63",
            "0x0000000000000000000000000000000000000000000000000000000000001010",
            "0x000000000000000000000000de05a1abb121113a33eed248bd91ddc254d5e9db",
            "0x0000000000000000000000005082f249cdb2f2c1ee035e4f423c46ea2dab3ab1"
          ],
          "data": "0x0000000000000000000000000000000000000000000000000002ef0ae390080000000000000000000000000000000000000000000000000008b60ae81c9be7b8000000000000000000000000000000000000000000000714ebe8fd27ba95793200000000000000000000000000000000000000000000000008b31bdd390bdfb8000000000000000000000000000000000000000000000714ebebec329e258132",
          "blockHash": "0x21142f3dd252600bb80e5abf215a6a5fbf72bc0c4000196776b791c35347cef9",
          "blockNumber": "0x2c842d7",
          "transactionHash": "0xecf5cbd9f8488d69386221d8c83a5361e27e0abab9ef67df0e5b07e1e601b07f",
          "transactionIndex": "0x1",
          "logIndex": "0x3",
          "removed": false
        }
      ],
      "status": "0x1",
      "logsBloom": "0x00000000000000000000000000000000000000000000000000100000020000000000000002000000000000000000000000008000200000000800000000000000000000000000000000000000000000800000800000000000000100000000000000000000000000000000000000000000000000000000004080000000000000000000000000000020000000000000000000000000000000000000000000000000200000000000000000000000000000000010000000000000000002000000004000000000000000000001000000000000000000000000000000140000000000000000000000000080000000000000000000000000000000000000000000100000",
      "type": "0x2",
      "effectiveGasPrice": "0x6fc23ac0f"
    }
  ],
  "libraries": [],
  "pending": [],
  "returns": {},
  "timestamp": 1709621754,
  "chain": 80001,
  "multi": false,
  "commit": "49c9362"
}