{
  "transactions": [
    {
      "hash": "0x3df00601aee64cf03839eba6dc9faa907918addc99c9a6b94baf6e7245df09de",
      "transactionType": "CALL",
      "contractName": "MocaTokenMock",
      "contractAddress": "0x043B82ad95346a0750BAc710D7E1c5e0Fb654E98",
      "function": "approve(address,uint256)",
      "arguments": [
        "0x65B974b35Db51ee52B73391047Bcfb43a462E75D",
        "10000000000000000000"
      ],
      "transaction": {
        "type": "0x02",
        "from": "0xde05a1abb121113a33eed248bd91ddc254d5e9db",
        "to": "0x043b82ad95346a0750bac710d7e1c5e0fb654e98",
        "gas": "0x8ef1",
        "value": "0x0",
        "data": "0x095ea7b300000000000000000000000065b974b35db51ee52b73391047bcfb43a462e75d0000000000000000000000000000000000000000000000008ac7230489e80000",
        "nonce": "0x73",
        "accessList": []
      },
      "additionalContracts": [],
      "isFixedGasLimit": false
    },
    {
      "hash": "0x0b67605b059b133d40b49184cda6c800372203d000d70a74cd4ae9000beb37a7",
      "transactionType": "CALL",
      "contractName": "MocaTokenMock",
      "contractAddress": "0x043B82ad95346a0750BAc710D7E1c5e0Fb654E98",
      "function": "approve(address,uint256)",
      "arguments": [
        "0xdE05a1Abb121113a33eeD248BD91ddC254d5E9Db",
        "10000000000000000000"
      ],
      "transaction": {
        "type": "0x02",
        "from": "0xde05a1abb121113a33eed248bd91ddc254d5e9db",
        "to": "0x043b82ad95346a0750bac710d7e1c5e0fb654e98",
        "gas": "0x1090a",
        "value": "0x0",
        "data": "0x095ea7b3000000000000000000000000de05a1abb121113a33eed248bd91ddc254d5e9db0000000000000000000000000000000000000000000000008ac7230489e80000",
        "nonce": "0x74",
        "accessList": []
      },
      "additionalContracts": [],
      "isFixedGasLimit": false
    },
    {
      "hash": "0x2c8d217ccee08d2d271f1103e22da2aded9035fb039a756b3bc6ff5b5b6fc777",
      "transactionType": "CALL",
      "contractName": "MocaTokenMock",
      "contractAddress": "0x043B82ad95346a0750BAc710D7E1c5e0Fb654E98",
      "function": "transferFrom(address,address,uint256)",
      "arguments": [
        "0xdE05a1Abb121113a33eeD248BD91ddC254d5E9Db",
        "0x28B4c6D63C338fE1d82b7Cde98239a33aA5DFca4",
        "1000000000000000000"
      ],
      "transaction": {
        "type": "0x02",
        "from": "0xde05a1abb121113a33eed248bd91ddc254d5e9db",
        "to": "0x043b82ad95346a0750bac710d7e1c5e0fb654e98",
        "gas": "0xdafe",
        "value": "0x0",
        "data": "0x23b872dd000000000000000000000000de05a1abb121113a33eed248bd91ddc254d5e9db00000000000000000000000028b4c6d63c338fe1d82b7cde98239a33aa5dfca40000000000000000000000000000000000000000000000000de0b6b3a7640000",
        "nonce": "0x75",
        "accessList": []
      },
      "additionalContracts": [],
      "isFixedGasLimit": false
    }
  ],
  "receipts": [
    {
      "transactionHash": "0x3df00601aee64cf03839eba6dc9faa907918addc99c9a6b94baf6e7245df09de",
      "transactionIndex": "0x22",
      "blockHash": "0x0a3bea6736b37f78251d87fd4d22f5300d1c53a108e895af178b19f61f37c075",
      "blockNumber": "0x531abe",
      "from": "0xdE05a1Abb121113a33eeD248BD91ddC254d5E9Db",
      "to": "0x043B82ad95346a0750BAc710D7E1c5e0Fb654E98",
      "cumulativeGasUsed": "0xf0c6d",
      "gasUsed": "0x677e",
      "contractAddress": null,
      "logs": [
        {
          "address": "0x043B82ad95346a0750BAc710D7E1c5e0Fb654E98",
          "topics": [
            "0x8c5be1e5ebec7d5bd14f71427d1e84f3dd0314c0f7b2291e5b200ac8c7c3b925",
            "0x000000000000000000000000de05a1abb121113a33eed248bd91ddc254d5e9db",
            "0x00000000000000000000000065b974b35db51ee52b73391047bcfb43a462e75d"
          ],
          "data": "0x0000000000000000000000000000000000000000000000008ac7230489e80000",
          "blockHash": "0x0a3bea6736b37f78251d87fd4d22f5300d1c53a108e895af178b19f61f37c075",
          "blockNumber": "0x531abe",
          "transactionHash": "0x3df00601aee64cf03839eba6dc9faa907918addc99c9a6b94baf6e7245df09de",
          "transactionIndex": "0x22",
          "logIndex": "0x1",
          "removed": false
        }
      ],
      "status": "0x1",
      "logsBloom": "0x00000000040000000000000000000000000000000000000000100000000000000000800000000000000000000000000000000000000000000000000000200000000000000000000000000000000000000000000000000000000080000000000000000000000000000008000000000000000000000000004000000000000000000000000000000020000000000000000000000000000000000000000000000000020000000000000000000000000000000000000000000000000000000000000000000000000000000000000000000000000000000000000000000000000000000010000000000000000000001000000000000000000000080000000000000000",
      "type": "0x2",
      "effectiveGasPrice": "0xb9fc4114"
    },
    {
      "transactionHash": "0x0b67605b059b133d40b49184cda6c800372203d000d70a74cd4ae9000beb37a7",
      "transactionIndex": "0x23",
      "blockHash": "0x0a3bea6736b37f78251d87fd4d22f5300d1c53a108e895af178b19f61f37c075",
      "blockNumber": "0x531abe",
      "from": "0xdE05a1Abb121113a33eeD248BD91ddC254d5E9Db",
      "to": "0x043B82ad95346a0750BAc710D7E1c5e0Fb654E98",
      "cumulativeGasUsed": "0xfc1a7",
      "gasUsed": "0xb53a",
      "contractAddress": null,
      "logs": [
        {
          "address": "0x043B82ad95346a0750BAc710D7E1c5e0Fb654E98",
          "topics": [
            "0x8c5be1e5ebec7d5bd14f71427d1e84f3dd0314c0f7b2291e5b200ac8c7c3b925",
            "0x000000000000000000000000de05a1abb121113a33eed248bd91ddc254d5e9db",
            "0x000000000000000000000000de05a1abb121113a33eed248bd91ddc254d5e9db"
          ],
          "data": "0x0000000000000000000000000000000000000000000000008ac7230489e80000",
          "blockHash": "0x0a3bea6736b37f78251d87fd4d22f5300d1c53a108e895af178b19f61f37c075",
          "blockNumber": "0x531abe",
          "transactionHash": "0x0b67605b059b133d40b49184cda6c800372203d000d70a74cd4ae9000beb37a7",
          "transactionIndex": "0x23",
          "logIndex": "0x2",
          "removed": false
        }
      ],
      "status": "0x1",
      "logsBloom": "0x00000000000000000000000000000000000000000000000000100000000000000000800000000000000000000000000000000000000000000000000000200000000000000000000000000000000000000000000000000000000000000000000000000000000000000008000000000000000000000000004000000000000000000000000000000020000000000000000000000000000000000000000000000000020000000000000000000000000000000000000000000000000000000000000000000000000000000000000000000000000000000000000000000000000000000010000000000000000000001000000000000000000000000000000000000000",
      "type": "0x2",
      "effectiveGasPrice": "0xb9fc4114"
    },
    {
      "transactionHash": "0x2c8d217ccee08d2d271f1103e22da2aded9035fb039a756b3bc6ff5b5b6fc777",
      "transactionIndex": "0x24",
      "blockHash": "0x0a3bea6736b37f78251d87fd4d22f5300d1c53a108e895af178b19f61f37c075",
      "blockNumber": "0x531abe",
      "from": "0xdE05a1Abb121113a33eeD248BD91ddC254d5E9Db",
      "to": "0x043B82ad95346a0750BAc710D7E1c5e0Fb654E98",
      "cumulativeGasUsed": "0x106034",
      "gasUsed": "0x9e8d",
      "contractAddress": null,
      "logs": [
        {
          "address": "0x043B82ad95346a0750BAc710D7E1c5e0Fb654E98",
          "topics": [
            "0xddf252ad1be2c89b69c2b068fc378daa952ba7f163c4a11628f55a4df523b3ef",
            "0x000000000000000000000000de05a1abb121113a33eed248bd91ddc254d5e9db",
            "0x00000000000000000000000028b4c6d63c338fe1d82b7cde98239a33aa5dfca4"
          ],
          "data": "0x0000000000000000000000000000000000000000000000000de0b6b3a7640000",
          "blockHash": "0x0a3bea6736b37f78251d87fd4d22f5300d1c53a108e895af178b19f61f37c075",
          "blockNumber": "0x531abe",
          "transactionHash": "0x2c8d217ccee08d2d271f1103e22da2aded9035fb039a756b3bc6ff5b5b6fc777",
          "transactionIndex": "0x24",
          "logIndex": "0x3",
          "removed": false
        }
      ],
      "status": "0x1",
      "logsBloom": "0x00000000000000000000000000000000000000000000000000100000000000000000800000000000000000000000000000000000000000000000000000000000000000000000000000000008000000000000000000000000000000020000000000000000000000000008000000000000400000000000004000000010000000000000000000000020000000000000000000000000000000000000000000000000000000000000000000000000000000000040000000000000000000000000000000000002000000000000000000000000000000000000000000000000000000000000000000000000000000001000000000000000000000000000000000000000",
      "type": "0x2",
      "effectiveGasPrice": "0xb9fc4114"
    }
  ],
  "libraries": [],
  "pending": [],
  "returns": {},
  "timestamp": 1709953994,
  "chain": 11155111,
  "multi": false,
  "commit": "0fb095c"
}