{
  "transactions": [
    {
      "hash": "0x54f0778a1112644f7738192bf69a4bf5cd83f2b42615f39509d10b84fb9d0a79",
      "transactionType": "CALL",
      "contractName": "MocaTokenAdaptor",
      "contractAddress": "0xC8011cB9cfCa55b822E56DD048dc960aBd6424Ce",
      "function": "setPeer(uint32,bytes32)",
      "arguments": [
        "40109",
        "0x0000000000000000000000007d7b79b59ffb5c684a8bad8fb1729aaa27883dde"
      ],
      "transaction": {
        "type": "0x02",
        "from": "0xde05a1abb121113a33eed248bd91ddc254d5e9db",
        "to": "0xc8011cb9cfca55b822e56dd048dc960abd6424ce",
        "gas": "0x1014c",
        "value": "0x0",
        "data": "0x3400288b0000000000000000000000000000000000000000000000000000000000009cad0000000000000000000000007d7b79b59ffb5c684a8bad8fb1729aaa27883dde",
        "nonce": "0x1e",
        "accessList": []
      },
      "additionalContracts": [],
      "isFixedGasLimit": false
    }
  ],
  "receipts": [
    {
      "transactionHash": "0x54f0778a1112644f7738192bf69a4bf5cd83f2b42615f39509d10b84fb9d0a79",
      "transactionIndex": "0x7",
      "blockHash": "0x39f99f8d4f7f1bc2b399ab69ca0c0eba9b2fc5a4105709162f0547d7a104acce",
      "blockNumber": "0x5213aa",
      "from": "0xdE05a1Abb121113a33eeD248BD91ddC254d5E9Db",
      "to": "0xC8011cB9cfCa55b822E56DD048dc960aBd6424Ce",
      "cumulativeGasUsed": "0x7c17d",
      "gasUsed": "0xba48",
      "contractAddress": null,
      "logs": [
        {
          "address": "0xC8011cB9cfCa55b822E56DD048dc960aBd6424Ce",
          "topics": [
            "0x238399d427b947898edb290f5ff0f9109849b1c3ba196a42e35f00c50a54b98b"
          ],
          "data": "0x0000000000000000000000000000000000000000000000000000000000009cad0000000000000000000000007d7b79b59ffb5c684a8bad8fb1729aaa27883dde",
          "blockHash": "0x39f99f8d4f7f1bc2b399ab69ca0c0eba9b2fc5a4105709162f0547d7a104acce",
          "blockNumber": "0x5213aa",
          "transactionHash": "0x54f0778a1112644f7738192bf69a4bf5cd83f2b42615f39509d10b84fb9d0a79",
          "transactionIndex": "0x7",
          "logIndex": "0x8",
          "removed": false
        }
      ],
      "status": "0x1",
      "logsBloom": "0x00000400000000000000000000000000000000000000000000000000000000000000000000000800000000000000000000000000000000000800000000000000000000000000000000000000000000000000000000000000000000000000000000000000000000000000000000000000000000000000000000000000000000000000000000000000000000000000000000000000000000000000000000000000000000000000000000000000000000000000000000000000000002000000000000000000000000000080000000000000000000000000000000040000000000000000000000000000000000000000000000000000000000000000000000000000",
      "type": "0x2",
      "effectiveGasPrice": "0xb82ef601"
    }
  ],
  "libraries": [],
  "pending": [],
  "returns": {},
  "timestamp": 1709101683,
  "chain": 11155111,
  "multi": false,
  "commit": "045a50e"
}