{
  "transactions": [
    {
      "hash": "0x877749e7775cd71e87f82af89f59b6d01d4fb5fd643ccab6864ad5e687714284",
      "transactionType": "CALL",
      "contractName": "MocaTokenAdaptor",
      "contractAddress": "0xC8011cB9cfCa55b822E56DD048dc960aBd6424Ce",
      "function": "setEnforcedOptions((uint32,uint16,bytes)[])",
      "arguments": [
        "[(40109, 1, 0x00030100110100000000000000000000000000030d40)]"
      ],
      "transaction": {
        "type": "0x02",
        "from": "0xde05a1abb121113a33eed248bd91ddc254d5e9db",
        "to": "0xc8011cb9cfca55b822e56dd048dc960abd6424ce",
        "gas": "0x11e14",
        "value": "0x0",
        "data": "0xb98bd0700000000000000000000000000000000000000000000000000000000000000020000000000000000000000000000000000000000000000000000000000000000100000000000000000000000000000000000000000000000000000000000000200000000000000000000000000000000000000000000000000000000000009cad00000000000000000000000000000000000000000000000000000000000000010000000000000000000000000000000000000000000000000000000000000060000000000000000000000000000000000000000000000000000000000000001600030100110100000000000000000000000000030d4000000000000000000000",
        "nonce": "0x1f",
        "accessList": []
      },
      "additionalContracts": [],
      "isFixedGasLimit": false
    }
  ],
  "receipts": [],
  "libraries": [],
  "pending": [
    "0x877749e7775cd71e87f82af89f59b6d01d4fb5fd643ccab6864ad5e687714284"
  ],
  "returns": {},
  "timestamp": 1709101767,
  "chain": 11155111,
  "multi": false,
  "commit": "045a50e"
}