{
  "transactions": [
    {
      "hash": "0x1a6405d1426bc281099500ae801258fd4a594a207fa7278b126cfcfb64aa72ca",
      "transactionType": "CALL",
      "contractName": "MocaTokenAdaptor",
      "contractAddress": "0x3637a64b2422350f312858bA3EbB9312a5516d23",
      "function": "setOutboundCap(uint32,uint256)",
      "arguments": [
        "40109",
        "10000000000000000000"
      ],
      "transaction": {
        "type": "0x02",
        "from": "0xde05a1abb121113a33eed248bd91ddc254d5e9db",
        "to": "0x3637a64b2422350f312858ba3ebb9312a5516d23",
        "gas": "0x10fcf",
        "value": "0x0",
        "data": "0x048849750000000000000000000000000000000000000000000000000000000000009cad0000000000000000000000000000000000000000000000008ac7230489e80000",
        "nonce": "0x9e",
        "accessList": []
      },
      "additionalContracts": [],
      "isFixedGasLimit": false
    },
    {
      "hash": "0x7d6d014edd6e6199f3c61366cfad1e8912bf03569de6dbf7a85a1218b57fa0d6",
      "transactionType": "CALL",
      "contractName": "MocaTokenAdaptor",
      "contractAddress": "0x3637a64b2422350f312858bA3EbB9312a5516d23",
      "function": "setInboundCap(uint32,uint256)",
      "arguments": [
        "40109",
        "10000000000000000000"
      ],
      "transaction": {
        "type": "0x02",
        "from": "0xde05a1abb121113a33eed248bd91ddc254d5e9db",
        "to": "0x3637a64b2422350f312858ba3ebb9312a5516d23",
        "gas": "0x10fce",
        "value": "0x0",
        "data": "0x256008550000000000000000000000000000000000000000000000000000000000009cad0000000000000000000000000000000000000000000000008ac7230489e80000",
        "nonce": "0x9f",
        "accessList": []
      },
      "additionalContracts": [],
      "isFixedGasLimit": false
    }
  ],
  "receipts": [
    {
      "transactionHash": "0x1a6405d1426bc281099500ae801258fd4a594a207fa7278b126cfcfb64aa72ca",
      "transactionIndex": "0x1f",
      "blockHash": "0x04aa996921f7c0f517084b9011403f8412e0a50f3a9dd7e54fee8152a70afec6",
      "blockNumber": "0x53234f",
      "from": "0xdE05a1Abb121113a33eeD248BD91ddC254d5E9Db",
      "to": "0x3637a64b2422350f312858bA3EbB9312a5516d23",
      "cumulativeGasUsed": "0xf07a0",
      "gasUsed": "0xb9db",
      "contractAddress": null,
      "logs": [
        {
          "address": "0x3637a64b2422350f312858bA3EbB9312a5516d23",
          "topics": [
            "0x7628c1599617e8f71acfbf363d8064a2a32bdb6e63e074de3250cab57047bf79",
            "0x0000000000000000000000000000000000000000000000000000000000009cad"
          ],
          "data": "0x0000000000000000000000000000000000000000000000008ac7230489e80000",
          "blockHash": "0x04aa996921f7c0f517084b9011403f8412e0a50f3a9dd7e54fee8152a70afec6",
          "blockNumber": "0x53234f",
          "transactionHash": "0x1a6405d1426bc281099500ae801258fd4a594a207fa7278b126cfcfb64aa72ca",
          "transactionIndex": "0x1f",
          "logIndex": "0x7",
          "removed": false
        }
      ],
      "status": "0x1",
      "logsBloom": "0x00000000000000000000000000000000000000000000000000000000000000000000000000000000000000000000000000000000000010000020000000000000000000000000100000000000000000000000000000000000000000000000800000000002000000000000000000000000000000000000000000000000000000000000000000000000000000000000000000000000000000000000000000000000000000000000000000000000000000000000000000000000000000000000000000000000000000000000000000080000000000000000108000000000000000000000000000000000000000000000000000000010000000000000000000000000",
      "type": "0x2",
      "effectiveGasPrice": "0xc2573071"
    },
    {
      "transactionHash": "0x7d6d014edd6e6199f3c61366cfad1e8912bf03569de6dbf7a85a1218b57fa0d6",
      "transactionIndex": "0x20",
      "blockHash": "0x04aa996921f7c0f517084b9011403f8412e0a50f3a9dd7e54fee8152a70afec6",
      "blockNumber": "0x53234f",
      "from": "0xdE05a1Abb121113a33eeD248BD91ddC254d5E9Db",
      "to": "0x3637a64b2422350f312858bA3EbB9312a5516d23",
      "cumulativeGasUsed": "0xfc17a",
      "gasUsed": "0xb9da",
      "contractAddress": null,
      "logs": [
        {
          "address": "0x3637a64b2422350f312858bA3EbB9312a5516d23",
          "topics": [
            "0x9cc3784ef7ab64c61f0abf58d72c2a40ef45b319db540006be0aa3e4610b8433",
            "0x0000000000000000000000000000000000000000000000000000000000009cad"
          ],
          "data": "0x0000000000000000000000000000000000000000000000008ac7230489e80000",
          "blockHash": "0x04aa996921f7c0f517084b9011403f8412e0a50f3a9dd7e54fee8152a70afec6",
          "blockNumber": "0x53234f",
          "transactionHash": "0x7d6d014edd6e6199f3c61366cfad1e8912bf03569de6dbf7a85a1218b57fa0d6",
          "transactionIndex": "0x20",
          "logIndex": "0x8",
          "removed": false
        }
      ],
      "status": "0x1",
      "logsBloom": "0x00000000000000000000000000000000000000000000000000000000000000000000000000000000000000000000000000000000000010000021000000000000000000000000100000000000000000000000000000000000000000000000000000000002000000000000000000000000000000000000000000000000000000000000000000000000000000000000000000000000000000000000000000008000000000000000000004000000000000000000000000000000000000000000000000000000000000000000000000000000000000000000100000000000000000000000000000000000000000000000000000000010000000000000000000000000",
      "type": "0x2",
      "effectiveGasPrice": "0xc2573071"
    }
  ],
  "libraries": [],
  "pending": [],
  "returns": {},
  "timestamp": 1709980334,
  "chain": 11155111,
  "multi": false,
  "commit": "4230a88"
}