{
  "transactions": [
    {
      "hash": "0x17b3177ba93da7710ca1c708170947a834d5622b23c3170a044ed2e93bc78bcf",
      "transactionType": "CALL",
      "contractName": "MocaTokenMock",
      "contractAddress": "0x043B82ad95346a0750BAc710D7E1c5e0Fb654E98",
      "function": "approve(address,uint256)",
      "arguments": [
        "0x65B974b35Db51ee52B73391047Bcfb43a462E75D",
        "10000000000000000000"
      ],
      "transaction": {
        "type": "0x02",
        "from": "0xde05a1abb121113a33eed248bd91ddc254d5e9db",
        "to": "0x043b82ad95346a0750bac710d7e1c5e0fb654e98",
        "gas": "0x8ef1",
        "value": "0x0",
        "data": "0x095ea7b300000000000000000000000065b974b35db51ee52b73391047bcfb43a462e75d0000000000000000000000000000000000000000000000008ac7230489e80000",
        "nonce": "0x76",
        "accessList": []
      },
      "additionalContracts": [],
      "isFixedGasLimit": false
    },
    {
      "hash": "0x5a6884621629a203377b514a304ff7102775917f965fd542c6114854b9f05e42",
      "transactionType": "CALL",
      "contractName": "MocaTokenMock",
      "contractAddress": "0x043B82ad95346a0750BAc710D7E1c5e0Fb654E98",
      "function": "approve(address,uint256)",
      "arguments": [
        "0xdE05a1Abb121113a33eeD248BD91ddC254d5E9Db",
        "10000000000000000000"
      ],
      "transaction": {
        "type": "0x02",
        "from": "0xde05a1abb121113a33eed248bd91ddc254d5e9db",
        "to": "0x043b82ad95346a0750bac710d7e1c5e0fb654e98",
        "gas": "0x9e0d",
        "value": "0x0",
        "data": "0x095ea7b3000000000000000000000000de05a1abb121113a33eed248bd91ddc254d5e9db0000000000000000000000000000000000000000000000008ac7230489e80000",
        "nonce": "0x77",
        "accessList": []
      },
      "additionalContracts": [],
      "isFixedGasLimit": false
    },
    {
      "hash": "0xfc25d67f0be8553947a7b4583f31797121e85665c355df8b3cbdb87682ae1ad0",
      "transactionType": "CALL",
      "contractName": "MocaTokenAdaptor",
      "contractAddress": "0x65B974b35Db51ee52B73391047Bcfb43a462E75D",
      "function": "send((uint32,bytes32,uint256,uint256,bytes,bytes,bytes),(uint256,uint256),address)",
      "arguments": [
        "(40109, 0x000000000000000000000000de05a1abb121113a33eed248bd91ddc254d5e9db, 1000000000000000000, 1000000000000000000, 0x, 0x, 0x)",
        "(61192790326764, 0)",
        "0xdE05a1Abb121113a33eeD248BD91ddC254d5E9Db"
      ],
      "transaction": {
        "type": "0x02",
        "from": "0xde05a1abb121113a33eed248bd91ddc254d5e9db",
        "to": "0x65b974b35db51ee52b73391047bcfb43a462e75d",
        "gas": "0x6a053",
        "value": "0x37a78e87bdec",
        "data": "0xc7c7f5b30000000000000000000000000000000000000000000000000000000000000080000000000000000000000000000000000000000000000000000037a78e87bdec0000000000000000000000000000000000000000000000000000000000000000000000000000000000000000de05a1abb121113a33eed248bd91ddc254d5e9db0000000000000000000000000000000000000000000000000000000000009cad000000000000000000000000de05a1abb121113a33eed248bd91ddc254d5e9db0000000000000000000000000000000000000000000000000de0b6b3a76400000000000000000000000000000000000000000000000000000de0b6b3a764000000000000000000000000000000000000000000000000000000000000000000e000000000000000000000000000000000000000000000000000000000000001000000000000000000000000000000000000000000000000000000000000000120000000000000000000000000000000000000000000000000000000000000000000000000000000000000000000000000000000000000000000000000000000000000000000000000000000000000000000000000000000000000000000000000",
        "nonce": "0x78",
        "accessList": []
      },
      "additionalContracts": [],
      "isFixedGasLimit": false
    }
  ],
  "receipts": [
    {
      "transactionHash": "0x17b3177ba93da7710ca1c708170947a834d5622b23c3170a044ed2e93bc78bcf",
      "transactionIndex": "0x20",
      "blockHash": "0x033cbfe3c95976eb7ec5af178c2ce33322c8de5696a3359e798fc23f39dd38b0",
      "blockNumber": "0x531ac5",
      "from": "0xdE05a1Abb121113a33eeD248BD91ddC254d5E9Db",
      "to": "0x043B82ad95346a0750BAc710D7E1c5e0Fb654E98",
      "cumulativeGasUsed": "0x15425a",
      "gasUsed": "0x677e",
      "contractAddress": null,
      "logs": [
        {
          "address": "0x043B82ad95346a0750BAc710D7E1c5e0Fb654E98",
          "topics": [
            "0x8c5be1e5ebec7d5bd14f71427d1e84f3dd0314c0f7b2291e5b200ac8c7c3b925",
            "0x000000000000000000000000de05a1abb121113a33eed248bd91ddc254d5e9db",
            "0x00000000000000000000000065b974b35db51ee52b73391047bcfb43a462e75d"
          ],
          "data": "0x0000000000000000000000000000000000000000000000008ac7230489e80000",
          "blockHash": "0x033cbfe3c95976eb7ec5af178c2ce33322c8de5696a3359e798fc23f39dd38b0",
          "blockNumber": "0x531ac5",
          "transactionHash": "0x17b3177ba93da7710ca1c708170947a834d5622b23c3170a044ed2e93bc78bcf",
          "transactionIndex": "0x20",
          "logIndex": "0x12",
          "removed": false
        }
      ],
      "status": "0x1",
      "logsBloom": "0x00000000040000000000000000000000000000000000000000100000000000000000800000000000000000000000000000000000000000000000000000200000000000000000000000000000000000000000000000000000000080000000000000000000000000000008000000000000000000000000004000000000000000000000000000000020000000000000000000000000000000000000000000000000020000000000000000000000000000000000000000000000000000000000000000000000000000000000000000000000000000000000000000000000000000000010000000000000000000001000000000000000000000080000000000000000",
      "type": "0x2",
      "effectiveGasPrice": "0xb9d1ab23"
    },
    {
      "transactionHash": "0x5a6884621629a203377b514a304ff7102775917f965fd542c6114854b9f05e42",
      "transactionIndex": "0x21",
      "blockHash": "0x033cbfe3c95976eb7ec5af178c2ce33322c8de5696a3359e798fc23f39dd38b0",
      "blockNumber": "0x531ac5",
      "from": "0xdE05a1Abb121113a33eeD248BD91ddC254d5E9Db",
      "to": "0x043B82ad95346a0750BAc710D7E1c5e0Fb654E98",
      "cumulativeGasUsed": "0x15b4c8",
      "gasUsed": "0x726e",
      "contractAddress": null,
      "logs": [
        {
          "address": "0x043B82ad95346a0750BAc710D7E1c5e0Fb654E98",
          "topics": [
            "0x8c5be1e5ebec7d5bd14f71427d1e84f3dd0314c0f7b2291e5b200ac8c7c3b925",
            "0x000000000000000000000000de05a1abb121113a33eed248bd91ddc254d5e9db",
            "0x000000000000000000000000de05a1abb121113a33eed248bd91ddc254d5e9db"
          ],
          "data": "0x0000000000000000000000000000000000000000000000008ac7230489e80000",
          "blockHash": "0x033cbfe3c95976eb7ec5af178c2ce33322c8de5696a3359e798fc23f39dd38b0",
          "blockNumber": "0x531ac5",
          "transactionHash": "0x5a6884621629a203377b514a304ff7102775917f965fd542c6114854b9f05e42",
          "transactionIndex": "0x21",
          "logIndex": "0x13",
          "removed": false
        }
      ],
      "status": "0x1",
      "logsBloom": "0x00000000000000000000000000000000000000000000000000100000000000000000800000000000000000000000000000000000000000000000000000200000000000000000000000000000000000000000000000000000000000000000000000000000000000000008000000000000000000000000004000000000000000000000000000000020000000000000000000000000000000000000000000000000020000000000000000000000000000000000000000000000000000000000000000000000000000000000000000000000000000000000000000000000000000000010000000000000000000001000000000000000000000000000000000000000",
      "type": "0x2",
      "effectiveGasPrice": "0xb9d1ab23"
    },
    {
      "transactionHash": "0xfc25d67f0be8553947a7b4583f31797121e85665c355df8b3cbdb87682ae1ad0",
      "transactionIndex": "0x22",
      "blockHash": "0x033cbfe3c95976eb7ec5af178c2ce33322c8de5696a3359e798fc23f39dd38b0",
      "blockNumber": "0x531ac5",
      "from": "0xdE05a1Abb121113a33eeD248BD91ddC254d5E9Db",
      "to": "0x65B974b35Db51ee52B73391047Bcfb43a462E75D",
      "cumulativeGasUsed": "0x1a80e5",
      "gasUsed": "0x4cc1d",
      "contractAddress": null,
      "logs": [
        {
          "address": "0x043B82ad95346a0750BAc710D7E1c5e0Fb654E98",
          "topics": [
            "0xddf252ad1be2c89b69c2b068fc378daa952ba7f163c4a11628f55a4df523b3ef",
            "0x000000000000000000000000de05a1abb121113a33eed248bd91ddc254d5e9db",
            "0x00000000000000000000000065b974b35db51ee52b73391047bcfb43a462e75d"
          ],
          "data": "0x0000000000000000000000000000000000000000000000000de0b6b3a7640000",
          "blockHash": "0x033cbfe3c95976eb7ec5af178c2ce33322c8de5696a3359e798fc23f39dd38b0",
          "blockNumber": "0x531ac5",
          "transactionHash": "0xfc25d67f0be8553947a7b4583f31797121e85665c355df8b3cbdb87682ae1ad0",
          "transactionIndex": "0x22",
          "logIndex": "0x14",
          "removed": false
        },
        {
          "address": "0xcc1ae8Cf5D3904Cef3360A9532B477529b177cCE",
          "topics": [
            "0x61ed099e74a97a1d7f8bb0952a88ca8b7b8ebd00c126ea04671f92a81213318a"
          ],
          "data": "0x000000000000000000000000718b92b5cb0a5552039b593faf724d182a881eda0000000000000000000000000000000000000000000000000000345a7d4343a3",
          "blockHash": "0x033cbfe3c95976eb7ec5af178c2ce33322c8de5696a3359e798fc23f39dd38b0",
          "blockNumber": "0x531ac5",
          "transactionHash": "0xfc25d67f0be8553947a7b4583f31797121e85665c355df8b3cbdb87682ae1ad0",
          "transactionIndex": "0x22",
          "logIndex": "0x15",
          "removed": false
        },
        {
          "address": "0xcc1ae8Cf5D3904Cef3360A9532B477529b177cCE",
          "topics": [
            "0x07ea52d82345d6e838192107d8fd7123d9c2ec8e916cd0aad13fd2b60db24644"
          ],
          "data": "0x000000000000000000000000000000000000000000000000000000000000006000000000000000000000000000000000000000000000000000000000000000a000000000000000000000000000000000000000000000000000000000000000c000000000000000000000000000000000000000000000000000000000000000010000000000000000000000008eebf8b423b73bfca51a1db4b7354aa0bfca9193000000000000000000000000000000000000000000000000000000000000000000000000000000000000000000000000000000000000000000000000000000010000000000000000000000000000000000000000000000000000034d11447a49",
          "blockHash": "0x033cbfe3c95976eb7ec5af178c2ce33322c8de5696a3359e798fc23f39dd38b0",
          "blockNumber": "0x531ac5",
          "transactionHash": "0xfc25d67f0be8553947a7b4583f31797121e85665c355df8b3cbdb87682ae1ad0",
          "transactionIndex": "0x22",
          "logIndex": "0x16",
          "removed": false
        },
        {
          "address": "0x6EDCE65403992e310A62460808c4b910D972f10f",
          "topics": [
            "0x1ab700d4ced0c005b164c0f789fd09fcbb0156d4c2041b8a3bfbcd961cd1567f"
          ],
          "data": "0x00000000000000000000000000000000000000000000000000000000000000600000000000000000000000000000000000000000000000000000000000000120000000000000000000000000cc1ae8cf5d3904cef3360a9532b477529b177cce000000000000000000000000000000000000000000000000000000000000009901000000000000000100009ce100000000000000000000000065b974b35db51ee52b73391047bcfb43a462e75d00009cad0000000000000000000000002525427274ee7ba2dbabffa4c813f1630d7af50489e2187aa635b25d6448f562fa8bd86b4663bad650716afd1af81918d3f260e8000000000000000000000000de05a1abb121113a33eed248bd91ddc254d5e9db00000000000f424000000000000000000000000000000000000000000000000000000000000000000000000000001600030100110100000000000000000000000000030d4000000000000000000000",
          "blockHash": "0x033cbfe3c95976eb7ec5af178c2ce33322c8de5696a3359e798fc23f39dd38b0",
          "blockNumber": "0x531ac5",
          "transactionHash": "0xfc25d67f0be8553947a7b4583f31797121e85665c355df8b3cbdb87682ae1ad0",
          "transactionIndex": "0x22",
          "logIndex": "0x17",
          "removed": false
        },
        {
          "address": "0x65B974b35Db51ee52B73391047Bcfb43a462E75D",
          "topics": [
            "0xfff873bb909b73d08a8c1af4b21779e87103bb8ea8cf3b3a0067eb8526b8b80a",
            "0x89e2187aa635b25d6448f562fa8bd86b4663bad650716afd1af81918d3f260e8",
            "0x000000000000000000000000de05a1abb121113a33eed248bd91ddc254d5e9db"
          ],
          "data": "0x0000000000000000000000000000000000000000000000000000000000009cad0000000000000000000000000000000000000000000000000de0b6b3a7640000",
          "blockHash": "0x033cbfe3c95976eb7ec5af178c2ce33322c8de5696a3359e798fc23f39dd38b0",
          "blockNumber": "0x531ac5",
          "transactionHash": "0xfc25d67f0be8553947a7b4583f31797121e85665c355df8b3cbdb87682ae1ad0",
          "transactionIndex": "0x22",
          "logIndex": "0x18",
          "removed": false
        }
      ],
      "status": "0x1",
      "logsBloom": "0x00002000040000000000000000000000000000000000000030100000000110000000800000000000200000000080000010000000000000000000000000000000000000000000000000000008000000000000000000000000000080000000000000000000000000008208004000000000000000000000004000000010000000000000000000000020000000080000000000000000000000000000000000000000000000008000000000100000000000000000000000400000000440000000000000000002000000000000000000000000000000080000000000020000000000000000040000000000000000001000002000000000000000080000000000000020",
      "type": "0x2",
      "effectiveGasPrice": "0xb9d1ab23"
    }
  ],
  "libraries": [],
  "pending": [],
  "returns": {},
  "timestamp": 1709954079,
  "chain": 11155111,
  "multi": false,
  "commit": "0fb095c"
}