{
  "transactions": [
    {
      "hash": "0xf6a4acdba72d0417adce350c7f10ea60e4e7461fbee0e87f7d3225d2d034cd84",
      "transactionType": "CALL",
      "contractName": "MocaTokenAdapter",
      "contractAddress": "0x5348e3EeABE88D801cd6Cd734D9Ed390B9F5cb5C",
      "function": "setOutboundLimit(uint32,uint256)",
      "arguments": [
        "40109",
        "10000000000000000000"
      ],
      "transaction": {
        "type": "0x02",
        "from": "0xde05a1abb121113a33eed248bd91ddc254d5e9db",
        "to": "0x5348e3eeabe88d801cd6cd734d9ed390b9f5cb5c",
        "gas": "0x95ce",
        "value": "0x0",
        "data": "0x65d28a6b0000000000000000000000000000000000000000000000000000000000009cad0000000000000000000000000000000000000000000000008ac7230489e80000",
        "nonce": "0xab",
        "accessList": []
      },
      "additionalContracts": [],
      "isFixedGasLimit": false
    },
    {
      "hash": "0x2d1d9c4053c14f8192e7b0554c75f2e8c626a250feff09710ac0c14c8fac4e9d",
      "transactionType": "CALL",
      "contractName": "MocaTokenAdapter",
      "contractAddress": "0x5348e3EeABE88D801cd6Cd734D9Ed390B9F5cb5C",
      "function": "setInboundLimit(uint32,uint256)",
      "arguments": [
        "40109",
        "10000000000000000000"
      ],
      "transaction": {
        "type": "0x02",
        "from": "0xde05a1abb121113a33eed248bd91ddc254d5e9db",
        "to": "0x5348e3eeabe88d801cd6cd734d9ed390b9f5cb5c",
        "gas": "0x9553",
        "value": "0x0",
        "data": "0x9a2fe9e40000000000000000000000000000000000000000000000000000000000009cad0000000000000000000000000000000000000000000000008ac7230489e80000",
        "nonce": "0xac",
        "accessList": []
      },
      "additionalContracts": [],
      "isFixedGasLimit": false
    }
  ],
  "receipts": [],
  "libraries": [],
  "pending": [
    "0xf6a4acdba72d0417adce350c7f10ea60e4e7461fbee0e87f7d3225d2d034cd84",
    "0x2d1d9c4053c14f8192e7b0554c75f2e8c626a250feff09710ac0c14c8fac4e9d"
  ],
  "returns": {},
  "timestamp": 1710241645,
  "chain": 11155111,
  "multi": false,
  "commit": "88dccd9"
}