{
  "transactions": [
    {
      "hash": "0x74e4608ef3986697c6c959aeaec2a4825266c0536eb7659b0eb6a5594eb81fde",
      "transactionType": "CALL",
      "contractName": "MocaTokenMock",
      "contractAddress": "0x043B82ad95346a0750BAc710D7E1c5e0Fb654E98",
      "function": "approve(address,uint256)",
      "arguments": [
        "0x65B974b35Db51ee52B73391047Bcfb43a462E75D",
        "10000000000000000000"
      ],
      "transaction": {
        "type": "0x02",
        "from": "0xde05a1abb121113a33eed248bd91ddc254d5e9db",
        "to": "0x043b82ad95346a0750bac710d7e1c5e0fb654e98",
        "gas": "0x1090a",
        "value": "0x0",
        "data": "0x095ea7b300000000000000000000000065b974b35db51ee52b73391047bcfb43a462e75d0000000000000000000000000000000000000000000000008ac7230489e80000",
        "nonce": "0x71",
        "accessList": []
      },
      "additionalContracts": [],
      "isFixedGasLimit": false
    },
    {
      "hash": "0xa4479f53700844f88aa108363faefdd0f0480e0935a260d5ff69b53506ad9383",
      "transactionType": "CALL",
      "contractName": "MocaTokenMock",
      "contractAddress": "0x043B82ad95346a0750BAc710D7E1c5e0Fb654E98",
      "function": "transfer(address,uint256)",
      "arguments": [
        "0x28B4c6D63C338fE1d82b7Cde98239a33aA5DFca4",
        "1000000000000000000"
      ],
      "transaction": {
        "type": "0x02",
        "from": "0xde05a1abb121113a33eed248bd91ddc254d5e9db",
        "to": "0x043b82ad95346a0750bac710d7e1c5e0fb654e98",
        "gas": "0x12727",
        "value": "0x0",
        "data": "0xa9059cbb00000000000000000000000028b4c6d63c338fe1d82b7cde98239a33aa5dfca40000000000000000000000000000000000000000000000000de0b6b3a7640000",
        "nonce": "0x72",
        "accessList": []
      },
      "additionalContracts": [],
      "isFixedGasLimit": false
    }
  ],
  "receipts": [
    {
      "transactionHash": "0x74e4608ef3986697c6c959aeaec2a4825266c0536eb7659b0eb6a5594eb81fde",
      "transactionIndex": "0x1",
      "blockHash": "0x104373231c68e03e8de57427f3ce80b5e35af6e0ac4ccc649e67007c6277e9e2",
      "blockNumber": "0x531aa8",
      "from": "0xdE05a1Abb121113a33eeD248BD91ddC254d5E9Db",
      "to": "0x043B82ad95346a0750BAc710D7E1c5e0Fb654E98",
      "cumulativeGasUsed": "0x297b3",
      "gasUsed": "0xb53a",
      "contractAddress": null,
      "logs": [
        {
          "address": "0x043B82ad95346a0750BAc710D7E1c5e0Fb654E98",
          "topics": [
            "0x8c5be1e5ebec7d5bd14f71427d1e84f3dd0314c0f7b2291e5b200ac8c7c3b925",
            "0x000000000000000000000000de05a1abb121113a33eed248bd91ddc254d5e9db",
            "0x00000000000000000000000065b974b35db51ee52b73391047bcfb43a462e75d"
          ],
          "data": "0x0000000000000000000000000000000000000000000000008ac7230489e80000",
          "blockHash": "0x104373231c68e03e8de57427f3ce80b5e35af6e0ac4ccc649e67007c6277e9e2",
          "blockNumber": "0x531aa8",
          "transactionHash": "0x74e4608ef3986697c6c959aeaec2a4825266c0536eb7659b0eb6a5594eb81fde",
          "transactionIndex": "0x1",
          "logIndex": "0x1",
          "removed": false
        }
      ],
      "status": "0x1",
      "logsBloom": "0x00000000040000000000000000000000000000000000000000100000000000000000800000000000000000000000000000000000000000000000000000200000000000000000000000000000000000000000000000000000000080000000000000000000000000000008000000000000000000000000004000000000000000000000000000000020000000000000000000000000000000000000000000000000020000000000000000000000000000000000000000000000000000000000000000000000000000000000000000000000000000000000000000000000000000000010000000000000000000001000000000000000000000080000000000000000",
      "type": "0x2",
      "effectiveGasPrice": "0xb94631d6"
    },
    {
      "transactionHash": "0xa4479f53700844f88aa108363faefdd0f0480e0935a260d5ff69b53506ad9383",
      "transactionIndex": "0x2",
      "blockHash": "0x104373231c68e03e8de57427f3ce80b5e35af6e0ac4ccc649e67007c6277e9e2",
      "blockNumber": "0x531aa8",
      "from": "0xdE05a1Abb121113a33eeD248BD91ddC254d5E9Db",
      "to": "0x043B82ad95346a0750BAc710D7E1c5e0Fb654E98",
      "cumulativeGasUsed": "0x36184",
      "gasUsed": "0xc9d1",
      "contractAddress": null,
      "logs": [
        {
          "address": "0x043B82ad95346a0750BAc710D7E1c5e0Fb654E98",
          "topics": [
            "0xddf252ad1be2c89b69c2b068fc378daa952ba7f163c4a11628f55a4df523b3ef",
            "0x000000000000000000000000de05a1abb121113a33eed248bd91ddc254d5e9db",
            "0x00000000000000000000000028b4c6d63c338fe1d82b7cde98239a33aa5dfca4"
          ],
          "data": "0x0000000000000000000000000000000000000000000000000de0b6b3a7640000",
          "blockHash": "0x104373231c68e03e8de57427f3ce80b5e35af6e0ac4ccc649e67007c6277e9e2",
          "blockNumber": "0x531aa8",
          "transactionHash": "0xa4479f53700844f88aa108363faefdd0f0480e0935a260d5ff69b53506ad9383",
          "transactionIndex": "0x2",
          "logIndex": "0x2",
          "removed": false
        }
      ],
      "status": "0x1",
      "logsBloom": "0x00000000000000000000000000000000000000000000000000100000000000000000800000000000000000000000000000000000000000000000000000000000000000000000000000000008000000000000000000000000000000020000000000000000000000000008000000000000400000000000004000000010000000000000000000000020000000000000000000000000000000000000000000000000000000000000000000000000000000000040000000000000000000000000000000000002000000000000000000000000000000000000000000000000000000000000000000000000000000001000000000000000000000000000000000000000",
      "type": "0x2",
      "effectiveGasPrice": "0xb94631d6"
    }
  ],
  "libraries": [],
  "pending": [],
  "returns": {},
  "timestamp": 1709953732,
  "chain": 11155111,
  "multi": false,
  "commit": "0fb095c"
}