{
  "transactions": [
    {
      "hash": "0xc66336f9c4705290abbda7851abb3d80f67f2233df7c3b9b62789e9b7ee58784",
      "transactionType": "CALL",
      "contractName": "MocaTokenAdaptor",
      "contractAddress": "0x3637a64b2422350f312858bA3EbB9312a5516d23",
      "function": "setEnforcedOptions((uint32,uint16,bytes)[])",
      "arguments": [
        "[(40109, 1, 0x00030100110100000000000000000000000000030d40), (40109, 2, 0x000301001303000000000000000000000000000000000000)]"
      ],
      "transaction": {
        "type": "0x02",
        "from": "0xde05a1abb121113a33eed248bd91ddc254d5e9db",
        "to": "0x3637a64b2422350f312858ba3ebb9312a5516d23",
        "gas": "0x1b25a",
        "value": "0x0",
        "data": "0xb98bd07000000000000000000000000000000000000000000000000000000000000000200000000000000000000000000000000000000000000000000000000000000002000000000000000000000000000000000000000000000000000000000000004000000000000000000000000000000000000000000000000000000000000000e00000000000000000000000000000000000000000000000000000000000009cad00000000000000000000000000000000000000000000000000000000000000010000000000000000000000000000000000000000000000000000000000000060000000000000000000000000000000000000000000000000000000000000001600030100110100000000000000000000000000030d40000000000000000000000000000000000000000000000000000000000000000000000000000000009cad0000000000000000000000000000000000000000000000000000000000000002000000000000000000000000000000000000000000000000000000000000006000000000000000000000000000000000000000000000000000000000000000180003010013030000000000000000000000000000000000000000000000000000",
        "nonce": "0xa0",
        "accessList": []
      },
      "additionalContracts": [],
      "isFixedGasLimit": false
    }
  ],
  "receipts": [],
  "libraries": [],
  "pending": [
    "0xc66336f9c4705290abbda7851abb3d80f67f2233df7c3b9b62789e9b7ee58784"
  ],
  "returns": {},
  "timestamp": 1709980488,
  "chain": 11155111,
  "multi": false,
  "commit": "4230a88"
}