{
  "transactions": [
    {
      "hash": "0xcd9b6b9c171a46c59bc1c18509a5f9cd066da0da9f6e207c42c113d91349a3fd",
      "transactionType": "CALL",
      "contractName": "MocaTokenMock",
      "contractAddress": "0xE93f35988731A11280032FD8B7338B1ac3f52729",
      "function": "approve(address,uint256)",
      "arguments": [
        "0xb440A7367DfEB307Cb2E7e3Cb80625157126A5CA",
        "10000000000000000000"
      ],
      "transaction": {
        "type": "0x02",
        "from": "0xde05a1abb121113a33eed248bd91ddc254d5e9db",
        "to": "0xe93f35988731a11280032fd8b7338b1ac3f52729",
        "gas": "0x1090a",
        "value": "0x0",
        "data": "0x095ea7b3000000000000000000000000b440a7367dfeb307cb2e7e3cb80625157126a5ca0000000000000000000000000000000000000000000000008ac7230489e80000",
        "nonce": "0x10b",
        "accessList": []
      },
      "additionalContracts": [],
      "isFixedGasLimit": false
    },
    {
      "hash": "0x7bc41f2339ae2be6014ebb37b40567c17d99ff7fe8b8ea7a4d2e79da4efba973",
      "transactionType": "CALL",
      "contractName": "MocaTokenAdapter",
      "contractAddress": "0xb440A7367DfEB307Cb2E7e3Cb80625157126A5CA",
      "function": "send((uint32,bytes32,uint256,uint256,bytes,bytes,bytes),(uint256,uint256),address)",
      "arguments": [
        "(40109, 0x000000000000000000000000de05a1abb121113a33eed248bd91ddc254d5e9db, 1000000000000000000, 1000000000000000000, 0x, 0x, 0x)",
        "(66300282338234, 0)",
        "0xdE05a1Abb121113a33eeD248BD91ddC254d5E9Db"
      ],
      "transaction": {
        "type": "0x02",
        "from": "0xde05a1abb121113a33eed248bd91ddc254d5e9db",
        "to": "0xb440a7367dfeb307cb2e7e3cb80625157126a5ca",
        "gas": "0x6a052",
        "value": "0x3c4cbcc6fbba",
        "data": "0xc7c7f5b3000000000000000000000000000000000000000000000000000000000000008000000000000000000000000000000000000000000000000000003c4cbcc6fbba0000000000000000000000000000000000000000000000000000000000000000000000000000000000000000de05a1abb121113a33eed248bd91ddc254d5e9db0000000000000000000000000000000000000000000000000000000000009cad000000000000000000000000de05a1abb121113a33eed248bd91ddc254d5e9db0000000000000000000000000000000000000000000000000de0b6b3a76400000000000000000000000000000000000000000000000000000de0b6b3a764000000000000000000000000000000000000000000000000000000000000000000e000000000000000000000000000000000000000000000000000000000000001000000000000000000000000000000000000000000000000000000000000000120000000000000000000000000000000000000000000000000000000000000000000000000000000000000000000000000000000000000000000000000000000000000000000000000000000000000000000000000000000000000000000000000",
        "nonce": "0x10c",
        "accessList": []
      },
      "additionalContracts": [],
      "isFixedGasLimit": false
    }
  ],
  "receipts": [
    {
      "transactionHash": "0xcd9b6b9c171a46c59bc1c18509a5f9cd066da0da9f6e207c42c113d91349a3fd",
      "transactionIndex": "0x18",
      "blockHash": "0xd8ca235892fd921c3af7a7f251b23998555c888fe39168350f5d7b804843bcbe",
      "blockNumber": "0x54900b",
      "from": "0xdE05a1Abb121113a33eeD248BD91ddC254d5E9Db",
      "to": "0xE93f35988731A11280032FD8B7338B1ac3f52729",
      "cumulativeGasUsed": "0xc2a81",
      "gasUsed": "0xb53a",
      "contractAddress": null,
      "logs": [
        {
          "address": "0xE93f35988731A11280032FD8B7338B1ac3f52729",
          "topics": [
            "0x8c5be1e5ebec7d5bd14f71427d1e84f3dd0314c0f7b2291e5b200ac8c7c3b925",
            "0x000000000000000000000000de05a1abb121113a33eed248bd91ddc254d5e9db",
            "0x000000000000000000000000b440a7367dfeb307cb2e7e3cb80625157126a5ca"
          ],
          "data": "0x0000000000000000000000000000000000000000000000008ac7230489e80000",
          "blockHash": "0xd8ca235892fd921c3af7a7f251b23998555c888fe39168350f5d7b804843bcbe",
          "blockNumber": "0x54900b",
          "transactionHash": "0xcd9b6b9c171a46c59bc1c18509a5f9cd066da0da9f6e207c42c113d91349a3fd",
          "transactionIndex": "0x18",
          "logIndex": "0x3",
          "removed": false
        }
      ],
      "status": "0x1",
      "logsBloom": "0x00000000000000000000000000000000000000000000000000100000000000000000000000000000000000000000000000000000000000000000000000200000000000000000000000000000000000000000000000000000000000000000000080000000000000000000000000000000000000000000004000000000000000000000000000000020000000000000000000000000000000000000000000000000020000000000000000000000000000000000000000000000000080000000080000000000000000000000000000000000000000000000100000000000000000000010000000000000000000000000000000000000000800000000000000000000",
      "type": "0x2",
      "effectiveGasPrice": "0xb2d05e48"
    },
    {
      "transactionHash": "0x7bc41f2339ae2be6014ebb37b40567c17d99ff7fe8b8ea7a4d2e79da4efba973",
      "transactionIndex": "0x19",
      "blockHash": "0xd8ca235892fd921c3af7a7f251b23998555c888fe39168350f5d7b804843bcbe",
      "blockNumber": "0x54900b",
      "from": "0xdE05a1Abb121113a33eeD248BD91ddC254d5E9Db",
      "to": "0xb440A7367DfEB307Cb2E7e3Cb80625157126A5CA",
      "cumulativeGasUsed": "0x10f69d",
      "gasUsed": "0x4cc1c",
      "contractAddress": null,
      "logs": [
        {
          "address": "0xE93f35988731A11280032FD8B7338B1ac3f52729",
          "topics": [
            "0xddf252ad1be2c89b69c2b068fc378daa952ba7f163c4a11628f55a4df523b3ef",
            "0x000000000000000000000000de05a1abb121113a33eed248bd91ddc254d5e9db",
            "0x000000000000000000000000b440a7367dfeb307cb2e7e3cb80625157126a5ca"
          ],
          "data": "0x0000000000000000000000000000000000000000000000000de0b6b3a7640000",
          "blockHash": "0xd8ca235892fd921c3af7a7f251b23998555c888fe39168350f5d7b804843bcbe",
          "blockNumber": "0x54900b",
          "transactionHash": "0x7bc41f2339ae2be6014ebb37b40567c17d99ff7fe8b8ea7a4d2e79da4efba973",
          "transactionIndex": "0x19",
          "logIndex": "0x4",
          "removed": false
        },
        {
          "address": "0xcc1ae8Cf5D3904Cef3360A9532B477529b177cCE",
          "topics": [
            "0x61ed099e74a97a1d7f8bb0952a88ca8b7b8ebd00c126ea04671f92a81213318a"
          ],
          "data": "0x000000000000000000000000718b92b5cb0a5552039b593faf724d182a881eda0000000000000000000000000000000000000000000000000000391c17f0602e",
          "blockHash": "0xd8ca235892fd921c3af7a7f251b23998555c888fe39168350f5d7b804843bcbe",
          "blockNumber": "0x54900b",
          "transactionHash": "0x7bc41f2339ae2be6014ebb37b40567c17d99ff7fe8b8ea7a4d2e79da4efba973",
          "transactionIndex": "0x19",
          "logIndex": "0x5",
          "removed": false
        },
        {
          "address": "0xcc1ae8Cf5D3904Cef3360A9532B477529b177cCE",
          "topics": [
            "0x07ea52d82345d6e838192107d8fd7123d9c2ec8e916cd0aad13fd2b60db24644"
          ],
          "data": "0x000000000000000000000000000000000000000000000000000000000000006000000000000000000000000000000000000000000000000000000000000000a000000000000000000000000000000000000000000000000000000000000000c000000000000000000000000000000000000000000000000000000000000000010000000000000000000000008eebf8b423b73bfca51a1db4b7354aa0bfca91930000000000000000000000000000000000000000000000000000000000000000000000000000000000000000000000000000000000000000000000000000000100000000000000000000000000000000000000000000000000000330a4d69b8c",
          "blockHash": "0xd8ca235892fd921c3af7a7f251b23998555c888fe39168350f5d7b804843bcbe",
          "blockNumber": "0x54900b",
          "transactionHash": "0x7bc41f2339ae2be6014ebb37b40567c17d99ff7fe8b8ea7a4d2e79da4efba973",
          "transactionIndex": "0x19",
          "logIndex": "0x6",
          "removed": false
        },
        {
          "address": "0x6EDCE65403992e310A62460808c4b910D972f10f",
          "topics": [
            "0x1ab700d4ced0c005b164c0f789fd09fcbb0156d4c2041b8a3bfbcd961cd1567f"
          ],
          "data": "0x00000000000000000000000000000000000000000000000000000000000000600000000000000000000000000000000000000000000000000000000000000120000000000000000000000000cc1ae8cf5d3904cef3360a9532b477529b177cce000000000000000000000000000000000000000000000000000000000000009901000000000000000100009ce1000000000000000000000000b440a7367dfeb307cb2e7e3cb80625157126a5ca00009cad000000000000000000000000e415dca40e5587af6dec72683a55ebeba911ba6ea1b2f43a3e7f581825a58b83e01fb877f90c2a2435643fafb27efd4078070c13000000000000000000000000de05a1abb121113a33eed248bd91ddc254d5e9db00000000000f424000000000000000000000000000000000000000000000000000000000000000000000000000001600030100110100000000000000000000000000030d4000000000000000000000",
          "blockHash": "0xd8ca235892fd921c3af7a7f251b23998555c888fe39168350f5d7b804843bcbe",
          "blockNumber": "0x54900b",
          "transactionHash": "0x7bc41f2339ae2be6014ebb37b40567c17d99ff7fe8b8ea7a4d2e79da4efba973",
          "transactionIndex": "0x19",
          "logIndex": "0x7",
          "removed": false
        },
        {
          "address": "0xb440A7367DfEB307Cb2E7e3Cb80625157126A5CA",
          "topics": [
            "0xfff873bb909b73d08a8c1af4b21779e87103bb8ea8cf3b3a0067eb8526b8b80a",
            "0xa1b2f43a3e7f581825a58b83e01fb877f90c2a2435643fafb27efd4078070c13",
            "0x000000000000000000000000de05a1abb121113a33eed248bd91ddc254d5e9db"
          ],
          "data": "0x0000000000000000000000000000000000000000000000000000000000009cad0000000000000000000000000000000000000000000000000de0b6b3a7640000",
          "blockHash": "0xd8ca235892fd921c3af7a7f251b23998555c888fe39168350f5d7b804843bcbe",
          "blockNumber": "0x54900b",
          "transactionHash": "0x7bc41f2339ae2be6014ebb37b40567c17d99ff7fe8b8ea7a4d2e79da4efba973",
          "transactionIndex": "0x19",
          "logIndex": "0x8",
          "removed": false
        }
      ],
      "status": "0x1",
      "logsBloom": "0x0000000000000000000000020000000000000000010000003010000000010000000004000000000020000000008000000000000000000000000000000000000000000000000000000000000800000000000000000000000000000000000000008000000000000000820000000000000000000000000000c0000000100000000000000000000000200000000800000000000000000000000000000000000000000000000080010000001000000000000000000000004000000004c0000000080100000002000000000000000000000000000000080000100000000000000000000010040000000000000000000000002000000000000800000000000000000020",
      "type": "0x2",
      "effectiveGasPrice": "0xb2d05e48"
    }
  ],
  "libraries": [],
  "pending": [],
  "returns": {},
  "timestamp": 1711162320,
  "chain": 11155111,
  "commit": "847784f"
}