{
  "transactions": [
    {
      "hash": "0x74e4608ef3986697c6c959aeaec2a4825266c0536eb7659b0eb6a5594eb81fde",
      "transactionType": "CALL",
      "contractName": "MocaTokenMock",
      "contractAddress": "0x043B82ad95346a0750BAc710D7E1c5e0Fb654E98",
      "function": "approve(address,uint256)",
      "arguments": [
        "0x65B974b35Db51ee52B73391047Bcfb43a462E75D",
        "10000000000000000000"
      ],
      "transaction": {
        "type": "0x02",
        "from": "0xde05a1abb121113a33eed248bd91ddc254d5e9db",
        "to": "0x043b82ad95346a0750bac710d7e1c5e0fb654e98",
        "gas": "0x1090a",
        "value": "0x0",
        "data": "0x095ea7b300000000000000000000000065b974b35db51ee52b73391047bcfb43a462e75d0000000000000000000000000000000000000000000000008ac7230489e80000",
        "nonce": "0x71",
        "accessList": []
      },
      "additionalContracts": [],
      "isFixedGasLimit": false
    },
    {
      "hash": "0xa4479f53700844f88aa108363faefdd0f0480e0935a260d5ff69b53506ad9383",
      "transactionType": "CALL",
      "contractName": "MocaTokenMock",
      "contractAddress": "0x043B82ad95346a0750BAc710D7E1c5e0Fb654E98",
      "function": "transfer(address,uint256)",
      "arguments": [
        "0x28B4c6D63C338fE1d82b7Cde98239a33aA5DFca4",
        "1000000000000000000"
      ],
      "transaction": {
        "type": "0x02",
        "from": "0xde05a1abb121113a33eed248bd91ddc254d5e9db",
        "to": "0x043b82ad95346a0750bac710d7e1c5e0fb654e98",
        "gas": "0x12727",
        "value": "0x0",
        "data": "0xa9059cbb00000000000000000000000028b4c6d63c338fe1d82b7cde98239a33aa5dfca40000000000000000000000000000000000000000000000000de0b6b3a7640000",
        "nonce": "0x72",
        "accessList": []
      },
      "additionalContracts": [],
      "isFixedGasLimit": false
    }
  ],
  "receipts": [],
  "libraries": [],
  "pending": [
    "0x74e4608ef3986697c6c959aeaec2a4825266c0536eb7659b0eb6a5594eb81fde",
    "0xa4479f53700844f88aa108363faefdd0f0480e0935a260d5ff69b53506ad9383"
  ],
  "returns": {},
  "timestamp": 1709953724,
  "chain": 11155111,
  "multi": false,
  "commit": "0fb095c"
}