{
  "transactions": [
    {
      "hash": "0x25bc585f4b18826c08dc2efb0d21a6e19cf214c15ec55a6cd126a0109e230b40",
      "transactionType": "CALL",
      "contractName": "MocaTokenMock",
      "contractAddress": "0xacb0Cb4f7aef9889B488A995B0FBC8564eCc36Cb",
      "function": "approve(address,uint256)",
      "arguments": [
        "0x5348e3EeABE88D801cd6Cd734D9Ed390B9F5cb5C",
        "10000000000000000000"
      ],
      "transaction": {
        "type": "0x02",
        "from": "0xde05a1abb121113a33eed248bd91ddc254d5e9db",
        "to": "0xacb0cb4f7aef9889b488a995b0fbc8564ecc36cb",
        "gas": "0x1090a",
        "value": "0x0",
        "data": "0x095ea7b30000000000000000000000005348e3eeabe88d801cd6cd734d9ed390b9f5cb5c0000000000000000000000000000000000000000000000008ac7230489e80000",
        "nonce": "0xae",
        "accessList": []
      },
      "additionalContracts": [],
      "isFixedGasLimit": false
    },
    {
      "hash": "0x5678d4d3a3f15bbf837412880eaa4a9c25375ecad679d8eb743a4466a706e493",
      "transactionType": "CALL",
      "contractName": "MocaTokenAdapter",
      "contractAddress": "0x5348e3EeABE88D801cd6Cd734D9Ed390B9F5cb5C",
      "function": "send((uint32,bytes32,uint256,uint256,bytes,bytes,bytes),(uint256,uint256),address)",
      "arguments": [
        "(40109, 0x000000000000000000000000de05a1abb121113a33eed248bd91ddc254d5e9db, 1000000000000000000, 1000000000000000000, 0x, 0x, 0x)",
        "(55327158681283, 0)",
        "0xdE05a1Abb121113a33eeD248BD91ddC254d5E9Db"
      ],
      "transaction": {
        "type": "0x02",
        "from": "0xde05a1abb121113a33eed248bd91ddc254d5e9db",
        "to": "0x5348e3eeabe88d801cd6cd734d9ed390b9f5cb5c",
        "gas": "0x6a053",
        "value": "0x3251dba3bec3",
        "data": "0xc7c7f5b3000000000000000000000000000000000000000000000000000000000000008000000000000000000000000000000000000000000000000000003251dba3bec30000000000000000000000000000000000000000000000000000000000000000000000000000000000000000de05a1abb121113a33eed248bd91ddc254d5e9db0000000000000000000000000000000000000000000000000000000000009cad000000000000000000000000de05a1abb121113a33eed248bd91ddc254d5e9db0000000000000000000000000000000000000000000000000de0b6b3a76400000000000000000000000000000000000000000000000000000de0b6b3a764000000000000000000000000000000000000000000000000000000000000000000e000000000000000000000000000000000000000000000000000000000000001000000000000000000000000000000000000000000000000000000000000000120000000000000000000000000000000000000000000000000000000000000000000000000000000000000000000000000000000000000000000000000000000000000000000000000000000000000000000000000000000000000000000000000",
        "nonce": "0xaf",
        "accessList": []
      },
      "additionalContracts": [],
      "isFixedGasLimit": false
    }
  ],
  "receipts": [
    {
      "transactionHash": "0x25bc585f4b18826c08dc2efb0d21a6e19cf214c15ec55a6cd126a0109e230b40",
      "transactionIndex": "0x1c",
      "blockHash": "0x2186245b925d317383a8eee379d3fb3738b27641b45c38e38998669b0315f391",
      "blockNumber": "0x53779a",
      "from": "0xdE05a1Abb121113a33eeD248BD91ddC254d5E9Db",
      "to": "0xacb0Cb4f7aef9889B488A995B0FBC8564eCc36Cb",
      "cumulativeGasUsed": "0x1d476e",
      "gasUsed": "0xb53a",
      "contractAddress": null,
      "logs": [
        {
          "address": "0xacb0Cb4f7aef9889B488A995B0FBC8564eCc36Cb",
          "topics": [
            "0x8c5be1e5ebec7d5bd14f71427d1e84f3dd0314c0f7b2291e5b200ac8c7c3b925",
            "0x000000000000000000000000de05a1abb121113a33eed248bd91ddc254d5e9db",
            "0x0000000000000000000000005348e3eeabe88d801cd6cd734d9ed390b9f5cb5c"
          ],
          "data": "0x0000000000000000000000000000000000000000000000008ac7230489e80000",
          "blockHash": "0x2186245b925d317383a8eee379d3fb3738b27641b45c38e38998669b0315f391",
          "blockNumber": "0x53779a",
          "transactionHash": "0x25bc585f4b18826c08dc2efb0d21a6e19cf214c15ec55a6cd126a0109e230b40",
          "transactionIndex": "0x1c",
          "logIndex": "0x22",
          "removed": false
        }
      ],
      "status": "0x1",
      "logsBloom": "0x00000000000000000000000000000000000000000000000040100000000000000000000000000000000000000000000000000000000000000000000000200000000000000000000000000000200000000000000000000000000000000000000000000000000000000000000000000000000000000000004000000000000000000000000000000020000000000000000000000000000000000000000000000000020000000000000000000000000000000000000000000000000000000000000000000000000001000000000000000000008000000000000000000000000000000010000000000008000000000000000000000008000000000000000000000000",
      "type": "0x2",
      "effectiveGasPrice": "0x122a62ae40"
    },
    {
      "transactionHash": "0x5678d4d3a3f15bbf837412880eaa4a9c25375ecad679d8eb743a4466a706e493",
      "transactionIndex": "0x1d",
      "blockHash": "0x2186245b925d317383a8eee379d3fb3738b27641b45c38e38998669b0315f391",
      "blockNumber": "0x53779a",
      "from": "0xdE05a1Abb121113a33eeD248BD91ddC254d5E9Db",
      "to": "0x5348e3EeABE88D801cd6Cd734D9Ed390B9F5cb5C",
      "cumulativeGasUsed": "0x22138b",
      "gasUsed": "0x4cc1d",
      "contractAddress": null,
      "logs": [
        {
          "address": "0xacb0Cb4f7aef9889B488A995B0FBC8564eCc36Cb",
          "topics": [
            "0xddf252ad1be2c89b69c2b068fc378daa952ba7f163c4a11628f55a4df523b3ef",
            "0x000000000000000000000000de05a1abb121113a33eed248bd91ddc254d5e9db",
            "0x0000000000000000000000005348e3eeabe88d801cd6cd734d9ed390b9f5cb5c"
          ],
          "data": "0x0000000000000000000000000000000000000000000000000de0b6b3a7640000",
          "blockHash": "0x2186245b925d317383a8eee379d3fb3738b27641b45c38e38998669b0315f391",
          "blockNumber": "0x53779a",
          "transactionHash": "0x5678d4d3a3f15bbf837412880eaa4a9c25375ecad679d8eb743a4466a706e493",
          "transactionIndex": "0x1d",
          "logIndex": "0x23",
          "removed": false
        },
        {
          "address": "0xcc1ae8Cf5D3904Cef3360A9532B477529b177cCE",
          "topics": [
            "0x61ed099e74a97a1d7f8bb0952a88ca8b7b8ebd00c126ea04671f92a81213318a"
          ],
          "data": "0x000000000000000000000000718b92b5cb0a5552039b593faf724d182a881eda00000000000000000000000000000000000000000000000000002f4711d5d918",
          "blockHash": "0x2186245b925d317383a8eee379d3fb3738b27641b45c38e38998669b0315f391",
          "blockNumber": "0x53779a",
          "transactionHash": "0x5678d4d3a3f15bbf837412880eaa4a9c25375ecad679d8eb743a4466a706e493",
          "transactionIndex": "0x1d",
          "logIndex": "0x24",
          "removed": false
        },
        {
          "address": "0xcc1ae8Cf5D3904Cef3360A9532B477529b177cCE",
          "topics": [
            "0x07ea52d82345d6e838192107d8fd7123d9c2ec8e916cd0aad13fd2b60db24644"
          ],
          "data": "0x000000000000000000000000000000000000000000000000000000000000006000000000000000000000000000000000000000000000000000000000000000a000000000000000000000000000000000000000000000000000000000000000c000000000000000000000000000000000000000000000000000000000000000010000000000000000000000008eebf8b423b73bfca51a1db4b7354aa0bfca9193000000000000000000000000000000000000000000000000000000000000000000000000000000000000000000000000000000000000000000000000000000010000000000000000000000000000000000000000000000000000030ac9cde5ab",
          "blockHash": "0x2186245b925d317383a8eee379d3fb3738b27641b45c38e38998669b0315f391",
          "blockNumber": "0x53779a",
          "transactionHash": "0x5678d4d3a3f15bbf837412880eaa4a9c25375ecad679d8eb743a4466a706e493",
          "transactionIndex": "0x1d",
          "logIndex": "0x25",
          "removed": false
        },
        {
          "address": "0x6EDCE65403992e310A62460808c4b910D972f10f",
          "topics": [
            "0x1ab700d4ced0c005b164c0f789fd09fcbb0156d4c2041b8a3bfbcd961cd1567f"
          ],
          "data": "0x00000000000000000000000000000000000000000000000000000000000000600000000000000000000000000000000000000000000000000000000000000120000000000000000000000000cc1ae8cf5d3904cef3360a9532b477529b177cce000000000000000000000000000000000000000000000000000000000000009901000000000000000100009ce10000000000000000000000005348e3eeabe88d801cd6cd734d9ed390b9f5cb5c00009cad000000000000000000000000ff891133f96a54d2b20f2ff56988c1cadb508d13520d6687da4566650bd32d7a52d5967ad8fc2802a475f5e23b866fdbf1e490a0000000000000000000000000de05a1abb121113a33eed248bd91ddc254d5e9db00000000000f424000000000000000000000000000000000000000000000000000000000000000000000000000001600030100110100000000000000000000000000030d4000000000000000000000",
          "blockHash": "0x2186245b925d317383a8eee379d3fb3738b27641b45c38e38998669b0315f391",
          "blockNumber": "0x53779a",
          "transactionHash": "0x5678d4d3a3f15bbf837412880eaa4a9c25375ecad679d8eb743a4466a706e493",
          "transactionIndex": "0x1d",
          "logIndex": "0x26",
          "removed": false
        },
        {
          "address": "0x5348e3EeABE88D801cd6Cd734D9Ed390B9F5cb5C",
          "topics": [
            "0xfff873bb909b73d08a8c1af4b21779e87103bb8ea8cf3b3a0067eb8526b8b80a",
            "0x520d6687da4566650bd32d7a52d5967ad8fc2802a475f5e23b866fdbf1e490a0",
            "0x000000000000000000000000de05a1abb121113a33eed248bd91ddc254d5e9db"
          ],
          "data": "0x0000000000000000000000000000000000000000000000000000000000009cad0000000000000000000000000000000000000000000000000de0b6b3a7640000",
          "blockHash": "0x2186245b925d317383a8eee379d3fb3738b27641b45c38e38998669b0315f391",
          "blockNumber": "0x53779a",
          "transactionHash": "0x5678d4d3a3f15bbf837412880eaa4a9c25375ecad679d8eb743a4466a706e493",
          "transactionIndex": "0x1d",
          "logIndex": "0x27",
          "removed": false
        }
      ],
      "status": "0x1",
      "logsBloom": "0x00000000000000000000000000000000000000000000000070100000080100200000000000000000200000000080000000000000000000000000000000000000000000000000000000000008200000000000000000000000000000000000000000000000000000008200000000000000000000000000004000000010000000000000000000020020000000080000000000000000000000000000000000000000000000008000000000100000000000000000000000400000000440000000000000000002000001000000000000000000008000080004000000000000000000000000040000000008000000000000002000008008000000000000000000000020",
      "type": "0x2",
      "effectiveGasPrice": "0x122a62ae40"
    }
  ],
  "libraries": [],
  "pending": [],
  "returns": {},
  "timestamp": 1710241891,
  "chain": 11155111,
  "multi": false,
  "commit": "88dccd9"
}