{
  "transactions": [
    {
      "hash": "0xb94e8b352bc1cea02f7072f162d5d3620583d99121dee8f08f7fb8f1c2b0d4ed",
      "transactionType": "CALL",
      "contractName": "MocaTokenAdapter",
      "contractAddress": "0x5348e3EeABE88D801cd6Cd734D9Ed390B9F5cb5C",
      "function": "setEnforcedOptions((uint32,uint16,bytes)[])",
      "arguments": [
        "[(40109, 1, 0x00030100110100000000000000000000000000030d40), (40109, 2, 0x000301001303000000000000000000000000000000000000)]"
      ],
      "transaction": {
        "type": "0x02",
        "from": "0xde05a1abb121113a33eed248bd91ddc254d5e9db",
        "to": "0x5348e3eeabe88d801cd6cd734d9ed390b9f5cb5c",
        "gas": "0x1b25a",
        "value": "0x0",
        "data": "0xb98bd07000000000000000000000000000000000000000000000000000000000000000200000000000000000000000000000000000000000000000000000000000000002000000000000000000000000000000000000000000000000000000000000004000000000000000000000000000000000000000000000000000000000000000e00000000000000000000000000000000000000000000000000000000000009cad00000000000000000000000000000000000000000000000000000000000000010000000000000000000000000000000000000000000000000000000000000060000000000000000000000000000000000000000000000000000000000000001600030100110100000000000000000000000000030d40000000000000000000000000000000000000000000000000000000000000000000000000000000009cad0000000000000000000000000000000000000000000000000000000000000002000000000000000000000000000000000000000000000000000000000000006000000000000000000000000000000000000000000000000000000000000000180003010013030000000000000000000000000000000000000000000000000000",
        "nonce": "0xad",
        "accessList": []
      },
      "additionalContracts": [],
      "isFixedGasLimit": false
    }
  ],
  "receipts": [
    {
      "transactionHash": "0xb94e8b352bc1cea02f7072f162d5d3620583d99121dee8f08f7fb8f1c2b0d4ed",
      "transactionIndex": "0x24",
      "blockHash": "0xe43c99c2a03ecc954b6d517c16126284a46514f5766c6b892196f8b87482f0d9",
      "blockNumber": "0x53778e",
      "from": "0xdE05a1Abb121113a33eeD248BD91ddC254d5E9Db",
      "to": "0x5348e3EeABE88D801cd6Cd734D9Ed390B9F5cb5C",
      "cumulativeGasUsed": "0x203dba",
      "gasUsed": "0x13a77",
      "contractAddress": null,
      "logs": [
        {
          "address": "0x5348e3EeABE88D801cd6Cd734D9Ed390B9F5cb5C",
          "topics": [
            "0xbe4864a8e820971c0247f5992e2da559595f7bf076a21cb5928d443d2a13b674"
          ],
          "data": "0x00000000000000000000000000000000000000000000000000000000000000200000000000000000000000000000000000000000000000000000000000000002000000000000000000000000000000000000000000000000000000000000004000000000000000000000000000000000000000000000000000000000000000e00000000000000000000000000000000000000000000000000000000000009cad00000000000000000000000000000000000000000000000000000000000000010000000000000000000000000000000000000000000000000000000000000060000000000000000000000000000000000000000000000000000000000000001600030100110100000000000000000000000000030d40000000000000000000000000000000000000000000000000000000000000000000000000000000009cad0000000000000000000000000000000000000000000000000000000000000002000000000000000000000000000000000000000000000000000000000000006000000000000000000000000000000000000000000000000000000000000000180003010013030000000000000000000000000000000000000000000000000000",
          "blockHash": "0xe43c99c2a03ecc954b6d517c16126284a46514f5766c6b892196f8b87482f0d9",
          "blockNumber": "0x53778e",
          "transactionHash": "0xb94e8b352bc1cea02f7072f162d5d3620583d99121dee8f08f7fb8f1c2b0d4ed",
          "transactionIndex": "0x24",
          "logIndex": "0x19",
          "removed": false
        }
      ],
      "status": "0x1",
      "logsBloom": "0x00000000000000000000000000000000000000000000000000000000000000000000000000000000000000000000000000000000000000000000400000000000000000000000000000000000000000000000000000000000000000000000000000000000000000000000000000000000000000000000000000000000000000000000000000020000000000000000000000000000000000000000000000080000000000000000000000000000000000000000000000000000000000000000000000000000000000000000000002000000000000080000000000000000000000000000000000000000000000000000000000008000000000000000000000000000",
      "type": "0x2",
      "effectiveGasPrice": "0x12c70aa86f"
    }
  ],
  "libraries": [],
  "pending": [],
  "returns": {},
  "timestamp": 1710241745,
  "chain": 11155111,
  "multi": false,
  "commit": "88dccd9"
}