{
  "transactions": [
    {
      "hash": "0x1c6a19b5f05f66def8913b7de94ce4c17ac60aa8db0c26c14a98477aae68b65f",
      "transactionType": "CALL",
      "contractName": "MocaTokenAdaptor",
      "contractAddress": "0x65B974b35Db51ee52B73391047Bcfb43a462E75D",
      "function": "setOutboundCap(uint32,uint256)",
      "arguments": [
        "40109",
        "10000000000000000000"
      ],
      "transaction": {
        "type": "0x02",
        "from": "0xde05a1abb121113a33eed248bd91ddc254d5e9db",
        "to": "0x65b974b35db51ee52b73391047bcfb43a462e75d",
        "gas": "0x10fcf",
        "value": "0x0",
        "data": "0x048849750000000000000000000000000000000000000000000000000000000000009cad0000000000000000000000000000000000000000000000008ac7230489e80000",
        "nonce": "0x6f",
        "accessList": []
      },
      "additionalContracts": [],
      "isFixedGasLimit": false
    },
    {
      "hash": "0x4b6b4bfc7a7ca70db06ac411347005503ef88e960e7d002db6483e2d620068e2",
      "transactionType": "CALL",
      "contractName": "MocaTokenAdaptor",
      "contractAddress": "0x65B974b35Db51ee52B73391047Bcfb43a462E75D",
      "function": "setInboundCap(uint32,uint256)",
      "arguments": [
        "40109",
        "10000000000000000000"
      ],
      "transaction": {
        "type": "0x02",
        "from": "0xde05a1abb121113a33eed248bd91ddc254d5e9db",
        "to": "0x65b974b35db51ee52b73391047bcfb43a462e75d",
        "gas": "0x10fce",
        "value": "0x0",
        "data": "0x256008550000000000000000000000000000000000000000000000000000000000009cad0000000000000000000000000000000000000000000000008ac7230489e80000",
        "nonce": "0x70",
        "accessList": []
      },
      "additionalContracts": [],
      "isFixedGasLimit": false
    }
  ],
  "receipts": [
    {
      "transactionHash": "0x1c6a19b5f05f66def8913b7de94ce4c17ac60aa8db0c26c14a98477aae68b65f",
      "transactionIndex": "0x1d",
      "blockHash": "0x4788d542ef9898e7bdd1cabfe325771916ec376128160757ad78ce18b31d0d0b",
      "blockNumber": "0x531a97",
      "from": "0xdE05a1Abb121113a33eeD248BD91ddC254d5E9Db",
      "to": "0x65B974b35Db51ee52B73391047Bcfb43a462E75D",
      "cumulativeGasUsed": "0xa04c3",
      "gasUsed": "0xb9db",
      "contractAddress": null,
      "logs": [
        {
          "address": "0x65B974b35Db51ee52B73391047Bcfb43a462E75D",
          "topics": [
            "0x7628c1599617e8f71acfbf363d8064a2a32bdb6e63e074de3250cab57047bf79",
            "0x0000000000000000000000000000000000000000000000000000000000009cad"
          ],
          "data": "0x0000000000000000000000000000000000000000000000008ac7230489e80000",
          "blockHash": "0x4788d542ef9898e7bdd1cabfe325771916ec376128160757ad78ce18b31d0d0b",
          "blockNumber": "0x531a97",
          "transactionHash": "0x1c6a19b5f05f66def8913b7de94ce4c17ac60aa8db0c26c14a98477aae68b65f",
          "transactionIndex": "0x1d",
          "logIndex": "0x0",
          "removed": false
        }
      ],
      "status": "0x1",
      "logsBloom": "0x00002000000000000000000000000000000000000000000000000000000000000000000000000000000000000000000000000000000000000000000000000000000000000000100000000000000000000000000000000000000000000000800000000002000000000000004000000000000000000000000000000000000000000000000000000000000000000000000000000000000000000000000000000000000000000000000000000000000000000000000000000000000000000000000000000000000000000000000000080000000000000000008000020000000000000000000000000000000000000000000000000010000000000000000000000000",
      "type": "0x2",
      "effectiveGasPrice": "0xb8af93e2"
    },
    {
      "transactionHash": "0x4b6b4bfc7a7ca70db06ac411347005503ef88e960e7d002db6483e2d620068e2",
      "transactionIndex": "0x1e",
      "blockHash": "0x4788d542ef9898e7bdd1cabfe325771916ec376128160757ad78ce18b31d0d0b",
      "blockNumber": "0x531a97",
      "from": "0xdE05a1Abb121113a33eeD248BD91ddC254d5E9Db",
      "to": "0x65B974b35Db51ee52B73391047Bcfb43a462E75D",
      "cumulativeGasUsed": "0xabe9d",
      "gasUsed": "0xb9da",
      "contractAddress": null,
      "logs": [
        {
          "address": "0x65B974b35Db51ee52B73391047Bcfb43a462E75D",
          "topics": [
            "0x9cc3784ef7ab64c61f0abf58d72c2a40ef45b319db540006be0aa3e4610b8433",
            "0x0000000000000000000000000000000000000000000000000000000000009cad"
          ],
          "data": "0x0000000000000000000000000000000000000000000000008ac7230489e80000",
          "blockHash": "0x4788d542ef9898e7bdd1cabfe325771916ec376128160757ad78ce18b31d0d0b",
          "blockNumber": "0x531a97",
          "transactionHash": "0x4b6b4bfc7a7ca70db06ac411347005503ef88e960e7d002db6483e2d620068e2",
          "transactionIndex": "0x1e",
          "logIndex": "0x1",
          "removed": false
        }
      ],
      "status": "0x1",
      "logsBloom": "0x00002000000000000000000000000000000000000000000000000000000000000000000000000000000000000000000000000000000000000001000000000000000000000000100000000000000000000000000000000000000000000000000000000002000000000000004000000000000000000000000000000000000000000000000000000000000000000000000000000000000000000000000000008000000000000000000004000000000000000000000000000000000000000000000000000000000000000000000000000000000000000000000000020000000000000000000000000000000000000000000000000010000000000000000000000000",
      "type": "0x2",
      "effectiveGasPrice": "0xb8af93e2"
    }
  ],
  "libraries": [],
  "pending": [],
  "returns": {},
  "timestamp": 1709953527,
  "chain": 11155111,
  "multi": false,
  "commit": "0fb095c"
}