{
  "transactions": [
    {
      "hash": "0x86084a751684a6165149667c66874b4a83ae560fb875785dfa5ab7ee94f209c2",
      "transactionType": "CALL",
      "contractName": "MocaTokenAdaptor",
      "contractAddress": "0x65B974b35Db51ee52B73391047Bcfb43a462E75D",
      "function": "setPeer(uint32,bytes32)",
      "arguments": [
        "40109",
        "0x0000000000000000000000002525427274ee7ba2dbabffa4c813f1630d7af504"
      ],
      "transaction": {
        "type": "0x02",
        "from": "0xde05a1abb121113a33eed248bd91ddc254d5e9db",
        "to": "0x65b974b35db51ee52b73391047bcfb43a462e75d",
        "gas": "0x10cd8",
        "value": "0x0",
        "data": "0x3400288b0000000000000000000000000000000000000000000000000000000000009cad0000000000000000000000002525427274ee7ba2dbabffa4c813f1630d7af504",
        "nonce": "0x6d",
        "accessList": []
      },
      "additionalContracts": [],
      "isFixedGasLimit": false
    }
  ],
  "receipts": [],
  "libraries": [],
  "pending": [
    "0x86084a751684a6165149667c66874b4a83ae560fb875785dfa5ab7ee94f209c2"
  ],
  "returns": {},
  "timestamp": 1709952710,
  "chain": 11155111,
  "multi": false,
  "commit": "0fb095c"
}