{
  "transactions": [
    {
      "hash": "0x344c58fd763b7645f191942cc0152f0d9d95f5ad902c3fadd530c2bbb622f7c0",
      "transactionType": "CALL",
      "contractName": "MocaTokenMock",
      "contractAddress": "0x5667424802Ef74C314e7adbBa6fA669999d8137D",
      "function": "approve(address,uint256)",
      "arguments": [
        "0x3637a64b2422350f312858bA3EbB9312a5516d23",
        "1000000000000000000"
      ],
      "transaction": {
        "type": "0x02",
        "from": "0xde05a1abb121113a33eed248bd91ddc254d5e9db",
        "to": "0x5667424802ef74c314e7adbba6fa669999d8137d",
        "gas": "0x9e0d",
        "value": "0x0",
        "data": "0x095ea7b30000000000000000000000003637a64b2422350f312858ba3ebb9312a5516d230000000000000000000000000000000000000000000000000de0b6b3a7640000",
        "nonce": "0xa3",
        "accessList": []
      },
      "additionalContracts": [],
      "isFixedGasLimit": false
    },
    {
      "hash": "0xd339d6f74ccf2107e27bc675cebe8e83c8431aef4638b6b22578189fb67b341f",
      "transactionType": "CALL",
      "contractName": "MocaTokenAdaptor",
      "contractAddress": "0x3637a64b2422350f312858bA3EbB9312a5516d23",
      "function": "send((uint32,bytes32,uint256,uint256,bytes,bytes,bytes),(uint256,uint256),address)",
      "arguments": [
        "(40109, 0x000000000000000000000000de05a1abb121113a33eed248bd91ddc254d5e9db, 1000000000000000000, 1000000000000000000, 0x0003010031020000000000000000001550f7dca70000000000000000000000000000de05a1abb121113a33eed248bd91ddc254d5e9db, 0x, 0x)",
        "(61931031571843, 0)",
        "0xdE05a1Abb121113a33eeD248BD91ddC254d5E9Db"
      ],
      "transaction": {
        "type": "0x02",
        "from": "0xde05a1abb121113a33eed248bd91ddc254d5e9db",
        "to": "0x3637a64b2422350f312858ba3ebb9312a5516d23",
        "gas": "0x52fca",
        "value": "0x385371232d83",
        "data": "0xc7c7f5b300000000000000000000000000000000000000000000000000000000000000800000000000000000000000000000000000000000000000000000385371232d830000000000000000000000000000000000000000000000000000000000000000000000000000000000000000de05a1abb121113a33eed248bd91ddc254d5e9db0000000000000000000000000000000000000000000000000000000000009cad000000000000000000000000de05a1abb121113a33eed248bd91ddc254d5e9db0000000000000000000000000000000000000000000000000de0b6b3a76400000000000000000000000000000000000000000000000000000de0b6b3a764000000000000000000000000000000000000000000000000000000000000000000e00000000000000000000000000000000000000000000000000000000000000140000000000000000000000000000000000000000000000000000000000000016000000000000000000000000000000000000000000000000000000000000000360003010031020000000000000000001550f7dca70000000000000000000000000000de05a1abb121113a33eed248bd91ddc254d5e9db0000000000000000000000000000000000000000000000000000000000000000000000000000000000000000000000000000000000000000000000000000000000000000000000000000",
        "nonce": "0xa4",
        "accessList": []
      },
      "additionalContracts": [],
      "isFixedGasLimit": false
    }
  ],
  "receipts": [],
  "libraries": [],
  "pending": [
    "0x344c58fd763b7645f191942cc0152f0d9d95f5ad902c3fadd530c2bbb622f7c0",
    "0xd339d6f74ccf2107e27bc675cebe8e83c8431aef4638b6b22578189fb67b341f"
  ],
  "returns": {},
  "timestamp": 1709980918,
  "chain": 11155111,
  "multi": false,
  "commit": "4230a88"
}