{
  "transactions": [
    {
      "hash": "0xeb35b2323f18e854b2989c8de6e77c6c51b3b4f2c45d3f0582eda719e9103ef7",
      "transactionType": "CALL",
      "contractName": "MocaTokenMock",
      "contractAddress": "0x5667424802Ef74C314e7adbBa6fA669999d8137D",
      "function": "approve(address,uint256)",
      "arguments": [
        "0x3637a64b2422350f312858bA3EbB9312a5516d23",
        "10000000000000000000"
      ],
      "transaction": {
        "type": "0x02",
        "from": "0xde05a1abb121113a33eed248bd91ddc254d5e9db",
        "to": "0x5667424802ef74c314e7adbba6fa669999d8137d",
        "gas": "0x1090a",
        "value": "0x0",
        "data": "0x095ea7b30000000000000000000000003637a64b2422350f312858ba3ebb9312a5516d230000000000000000000000000000000000000000000000008ac7230489e80000",
        "nonce": "0xa1",
        "accessList": []
      },
      "additionalContracts": [],
      "isFixedGasLimit": false
    },
    {
      "hash": "0x874271f40dad416ee3fb15364e85bf4298bd1203d285f33a1bcd8d2cd17fbc47",
      "transactionType": "CALL",
      "contractName": "MocaTokenAdaptor",
      "contractAddress": "0x3637a64b2422350f312858bA3EbB9312a5516d23",
      "function": "send((uint32,bytes32,uint256,uint256,bytes,bytes,bytes),(uint256,uint256),address)",
      "arguments": [
        "(40109, 0x000000000000000000000000de05a1abb121113a33eed248bd91ddc254d5e9db, 1000000000000000000, 1000000000000000000, 0x, 0x, 0x)",
        "(59558957522567, 0)",
        "0xdE05a1Abb121113a33eeD248BD91ddC254d5E9Db"
      ],
      "transaction": {
        "type": "0x02",
        "from": "0xde05a1abb121113a33eed248bd91ddc254d5e9db",
        "to": "0x3637a64b2422350f312858ba3ebb9312a5516d23",
        "gas": "0x6a053",
        "value": "0x362b26819e87",
        "data": "0xc7c7f5b300000000000000000000000000000000000000000000000000000000000000800000000000000000000000000000000000000000000000000000362b26819e870000000000000000000000000000000000000000000000000000000000000000000000000000000000000000de05a1abb121113a33eed248bd91ddc254d5e9db0000000000000000000000000000000000000000000000000000000000009cad000000000000000000000000de05a1abb121113a33eed248bd91ddc254d5e9db0000000000000000000000000000000000000000000000000de0b6b3a76400000000000000000000000000000000000000000000000000000de0b6b3a764000000000000000000000000000000000000000000000000000000000000000000e000000000000000000000000000000000000000000000000000000000000001000000000000000000000000000000000000000000000000000000000000000120000000000000000000000000000000000000000000000000000000000000000000000000000000000000000000000000000000000000000000000000000000000000000000000000000000000000000000000000000000000000000000000000",
        "nonce": "0xa2",
        "accessList": []
      },
      "additionalContracts": [],
      "isFixedGasLimit": false
    }
  ],
  "receipts": [],
  "libraries": [],
  "pending": [
    "0xeb35b2323f18e854b2989c8de6e77c6c51b3b4f2c45d3f0582eda719e9103ef7",
    "0x874271f40dad416ee3fb15364e85bf4298bd1203d285f33a1bcd8d2cd17fbc47"
  ],
  "returns": {},
  "timestamp": 1709980596,
  "chain": 11155111,
  "multi": false,
  "commit": "4230a88"
}