{
  "transactions": [
    {
      "hash": "0x877749e7775cd71e87f82af89f59b6d01d4fb5fd643ccab6864ad5e687714284",
      "transactionType": "CALL",
      "contractName": "MocaTokenAdaptor",
      "contractAddress": "0xC8011cB9cfCa55b822E56DD048dc960aBd6424Ce",
      "function": "setEnforcedOptions((uint32,uint16,bytes)[])",
      "arguments": [
        "[(40109, 1, 0x00030100110100000000000000000000000000030d40)]"
      ],
      "transaction": {
        "type": "0x02",
        "from": "0xde05a1abb121113a33eed248bd91ddc254d5e9db",
        "to": "0xc8011cb9cfca55b822e56dd048dc960abd6424ce",
        "gas": "0x11e14",
        "value": "0x0",
        "data": "0xb98bd0700000000000000000000000000000000000000000000000000000000000000020000000000000000000000000000000000000000000000000000000000000000100000000000000000000000000000000000000000000000000000000000000200000000000000000000000000000000000000000000000000000000000009cad00000000000000000000000000000000000000000000000000000000000000010000000000000000000000000000000000000000000000000000000000000060000000000000000000000000000000000000000000000000000000000000001600030100110100000000000000000000000000030d4000000000000000000000",
        "nonce": "0x1f",
        "accessList": []
      },
      "additionalContracts": [],
      "isFixedGasLimit": false
    }
  ],
  "receipts": [
    {
      "transactionHash": "0x877749e7775cd71e87f82af89f59b6d01d4fb5fd643ccab6864ad5e687714284",
      "transactionIndex": "0xf",
      "blockHash": "0xccf78e01a603a02df36f541f13a6962db97525683f104d2a1afd1272cbbaf513",
      "blockNumber": "0x5213b2",
      "from": "0xdE05a1Abb121113a33eeD248BD91ddC254d5E9Db",
      "to": "0xC8011cB9cfCa55b822E56DD048dc960aBd6424Ce",
      "cumulativeGasUsed": "0x45ac82",
      "gasUsed": "0xcf1f",
      "contractAddress": null,
      "logs": [
        {
          "address": "0xC8011cB9cfCa55b822E56DD048dc960aBd6424Ce",
          "topics": [
            "0xbe4864a8e820971c0247f5992e2da559595f7bf076a21cb5928d443d2a13b674"
          ],
          "data": "0x0000000000000000000000000000000000000000000000000000000000000020000000000000000000000000000000000000000000000000000000000000000100000000000000000000000000000000000000000000000000000000000000200000000000000000000000000000000000000000000000000000000000009cad00000000000000000000000000000000000000000000000000000000000000010000000000000000000000000000000000000000000000000000000000000060000000000000000000000000000000000000000000000000000000000000001600030100110100000000000000000000000000030d4000000000000000000000",
          "blockHash": "0xccf78e01a603a02df36f541f13a6962db97525683f104d2a1afd1272cbbaf513",
          "blockNumber": "0x5213b2",
          "transactionHash": "0x877749e7775cd71e87f82af89f59b6d01d4fb5fd643ccab6864ad5e687714284",
          "transactionIndex": "0xf",
          "logIndex": "0xd",
          "removed": false
        }
      ],
      "status": "0x1",
      "logsBloom": "0x00000400000000000000000000000000000000000000000000000000000000000000000000000800000000000000000000000000000000000000400000000000000000000000000000000000000000000000000000000000000000000000000000000000000000000000000000000000000000000000000000000000000000000000000000000000000000000000000000000000000000000000000000080000000000000000000000000000000000000000000000000000000000000000000000000000000000000080000002000000000000000000000000000000000000000000000000000000000000000000000000000000000000000000000000000000",
      "type": "0x2",
      "effectiveGasPrice": "0xb862a347"
    }
  ],
  "libraries": [],
  "pending": [],
  "returns": {},
  "timestamp": 1709101794,
  "chain": 11155111,
  "multi": false,
  "commit": "045a50e"
}