{
  "transactions": [
    {
      "hash": "0x34203f3b30b2b5458bc2fd523c8c1f2af68bb2b1dbacd2f6b586209f2a5352e5",
      "transactionType": "CALL",
      "contractName": "MocaTokenAdaptor",
      "contractAddress": "0x3637a64b2422350f312858bA3EbB9312a5516d23",
      "function": "setPeer(uint32,bytes32)",
      "arguments": [
        "40109",
        "0x0000000000000000000000001fa47369fca4e2bc1054c3783682605604ee92ad"
      ],
      "transaction": {
        "type": "0x02",
        "from": "0xde05a1abb121113a33eed248bd91ddc254d5e9db",
        "to": "0x3637a64b2422350f312858ba3ebb9312a5516d23",
        "gas": "0x10cd8",
        "value": "0x0",
        "data": "0x3400288b0000000000000000000000000000000000000000000000000000000000009cad0000000000000000000000001fa47369fca4e2bc1054c3783682605604ee92ad",
        "nonce": "0x9a",
        "accessList": []
      },
      "additionalContracts": [],
      "isFixedGasLimit": false
    }
  ],
  "receipts": [],
  "libraries": [],
  "pending": [
    "0x34203f3b30b2b5458bc2fd523c8c1f2af68bb2b1dbacd2f6b586209f2a5352e5"
  ],
  "returns": {},
  "timestamp": 1709979868,
  "chain": 11155111,
  "multi": false,
  "commit": "4230a88"
}