{
  "transactions": [
    {
      "hash": "0x344c58fd763b7645f191942cc0152f0d9d95f5ad902c3fadd530c2bbb622f7c0",
      "transactionType": "CALL",
      "contractName": "MocaTokenMock",
      "contractAddress": "0x5667424802Ef74C314e7adbBa6fA669999d8137D",
      "function": "approve(address,uint256)",
      "arguments": [
        "0x3637a64b2422350f312858bA3EbB9312a5516d23",
        "1000000000000000000"
      ],
      "transaction": {
        "type": "0x02",
        "from": "0xde05a1abb121113a33eed248bd91ddc254d5e9db",
        "to": "0x5667424802ef74c314e7adbba6fa669999d8137d",
        "gas": "0x9e0d",
        "value": "0x0",
        "data": "0x095ea7b30000000000000000000000003637a64b2422350f312858ba3ebb9312a5516d230000000000000000000000000000000000000000000000000de0b6b3a7640000",
        "nonce": "0xa3",
        "accessList": []
      },
      "additionalContracts": [],
      "isFixedGasLimit": false
    },
    {
      "hash": "0xd339d6f74ccf2107e27bc675cebe8e83c8431aef4638b6b22578189fb67b341f",
      "transactionType": "CALL",
      "contractName": "MocaTokenAdaptor",
      "contractAddress": "0x3637a64b2422350f312858bA3EbB9312a5516d23",
      "function": "send((uint32,bytes32,uint256,uint256,bytes,bytes,bytes),(uint256,uint256),address)",
      "arguments": [
        "(40109, 0x000000000000000000000000de05a1abb121113a33eed248bd91ddc254d5e9db, 1000000000000000000, 1000000000000000000, 0x0003010031020000000000000000001550f7dca70000000000000000000000000000de05a1abb121113a33eed248bd91ddc254d5e9db, 0x, 0x)",
        "(61931031571843, 0)",
        "0xdE05a1Abb121113a33eeD248BD91ddC254d5E9Db"
      ],
      "transaction": {
        "type": "0x02",
        "from": "0xde05a1abb121113a33eed248bd91ddc254d5e9db",
        "to": "0x3637a64b2422350f312858ba3ebb9312a5516d23",
        "gas": "0x52fca",
        "value": "0x385371232d83",
        "data": "0xc7c7f5b300000000000000000000000000000000000000000000000000000000000000800000000000000000000000000000000000000000000000000000385371232d830000000000000000000000000000000000000000000000000000000000000000000000000000000000000000de05a1abb121113a33eed248bd91ddc254d5e9db0000000000000000000000000000000000000000000000000000000000009cad000000000000000000000000de05a1abb121113a33eed248bd91ddc254d5e9db0000000000000000000000000000000000000000000000000de0b6b3a76400000000000000000000000000000000000000000000000000000de0b6b3a764000000000000000000000000000000000000000000000000000000000000000000e00000000000000000000000000000000000000000000000000000000000000140000000000000000000000000000000000000000000000000000000000000016000000000000000000000000000000000000000000000000000000000000000360003010031020000000000000000001550f7dca70000000000000000000000000000de05a1abb121113a33eed248bd91ddc254d5e9db0000000000000000000000000000000000000000000000000000000000000000000000000000000000000000000000000000000000000000000000000000000000000000000000000000",
        "nonce": "0xa4",
        "accessList": []
      },
      "additionalContracts": [],
      "isFixedGasLimit": false
    }
  ],
  "receipts": [
    {
      "transactionHash": "0x344c58fd763b7645f191942cc0152f0d9d95f5ad902c3fadd530c2bbb622f7c0",
      "transactionIndex": "0x10",
      "blockHash": "0x2cd345733a60105ce7cfb69f565c09cd2552845a5527ee17f7784dd6eafb7fb1",
      "blockNumber": "0x532380",
      "from": "0xdE05a1Abb121113a33eeD248BD91ddC254d5E9Db",
      "to": "0x5667424802Ef74C314e7adbBa6fA669999d8137D",
      "cumulativeGasUsed": "0xc22f7",
      "gasUsed": "0x726e",
      "contractAddress": null,
      "logs": [
        {
          "address": "0x5667424802Ef74C314e7adbBa6fA669999d8137D",
          "topics": [
            "0x8c5be1e5ebec7d5bd14f71427d1e84f3dd0314c0f7b2291e5b200ac8c7c3b925",
            "0x000000000000000000000000de05a1abb121113a33eed248bd91ddc254d5e9db",
            "0x0000000000000000000000003637a64b2422350f312858ba3ebb9312a5516d23"
          ],
          "data": "0x0000000000000000000000000000000000000000000000000de0b6b3a7640000",
          "blockHash": "0x2cd345733a60105ce7cfb69f565c09cd2552845a5527ee17f7784dd6eafb7fb1",
          "blockNumber": "0x532380",
          "transactionHash": "0x344c58fd763b7645f191942cc0152f0d9d95f5ad902c3fadd530c2bbb622f7c0",
          "transactionIndex": "0x10",
          "logIndex": "0x5",
          "removed": false
        }
      ],
      "status": "0x1",
      "logsBloom": "0x00000000000000000000000000000000000000000000000002100000000000000000000000000000000000000000000000000000000000000000000000200000000000000000000000000000000000000000000000000000000000000000000000000000000000000000000000000000000000000000004000002000000000000000000000000020000000000000000000000000000001000000000000000000020001000000000000000000000000000000000000000000000000000020000000000000000000000000000000000000000000000000000000000000100000000010000000000000000000000000000000000000000000000000000000000000",
      "type": "0x2",
      "effectiveGasPrice": "0xbfc8f746"
    },
    {
      "transactionHash": "0xd339d6f74ccf2107e27bc675cebe8e83c8431aef4638b6b22578189fb67b341f",
      "transactionIndex": "0x11",
      "blockHash": "0x2cd345733a60105ce7cfb69f565c09cd2552845a5527ee17f7784dd6eafb7fb1",
      "blockNumber": "0x532380",
      "from": "0xdE05a1Abb121113a33eeD248BD91ddC254d5E9Db",
      "to": "0x3637a64b2422350f312858bA3EbB9312a5516d23",
      "cumulativeGasUsed": "0xfe444",
      "gasUsed": "0x3c14d",
      "contractAddress": null,
      "logs": [
        {
          "address": "0x5667424802Ef74C314e7adbBa6fA669999d8137D",
          "topics": [
            "0xddf252ad1be2c89b69c2b068fc378daa952ba7f163c4a11628f55a4df523b3ef",
            "0x000000000000000000000000de05a1abb121113a33eed248bd91ddc254d5e9db",
            "0x0000000000000000000000003637a64b2422350f312858ba3ebb9312a5516d23"
          ],
          "data": "0x0000000000000000000000000000000000000000000000000de0b6b3a7640000",
          "blockHash": "0x2cd345733a60105ce7cfb69f565c09cd2552845a5527ee17f7784dd6eafb7fb1",
          "blockNumber": "0x532380",
          "transactionHash": "0xd339d6f74ccf2107e27bc675cebe8e83c8431aef4638b6b22578189fb67b341f",
          "transactionIndex": "0x11",
          "logIndex": "0x6",
          "removed": false
        },
        {
          "address": "0xcc1ae8Cf5D3904Cef3360A9532B477529b177cCE",
          "topics": [
            "0x61ed099e74a97a1d7f8bb0952a88ca8b7b8ebd00c126ea04671f92a81213318a"
          ],
          "data": "0x000000000000000000000000718b92b5cb0a5552039b593faf724d182a881eda00000000000000000000000000000000000000000000000000003556443f6b66",
          "blockHash": "0x2cd345733a60105ce7cfb69f565c09cd2552845a5527ee17f7784dd6eafb7fb1",
          "blockNumber": "0x532380",
          "transactionHash": "0xd339d6f74ccf2107e27bc675cebe8e83c8431aef4638b6b22578189fb67b341f",
          "transactionIndex": "0x11",
          "logIndex": "0x7",
          "removed": false
        },
        {
          "address": "0xcc1ae8Cf5D3904Cef3360A9532B477529b177cCE",
          "topics": [
            "0x07ea52d82345d6e838192107d8fd7123d9c2ec8e916cd0aad13fd2b60db24644"
          ],
          "data": "0x000000000000000000000000000000000000000000000000000000000000006000000000000000000000000000000000000000000000000000000000000000a000000000000000000000000000000000000000000000000000000000000000c000000000000000000000000000000000000000000000000000000000000000010000000000000000000000008eebf8b423b73bfca51a1db4b7354aa0bfca919300000000000000000000000000000000000000000000000000000000000000000000000000000000000000000000000000000000000000000000000000000001000000000000000000000000000000000000000000000000000002fd2ce3c21d",
          "blockHash": "0x2cd345733a60105ce7cfb69f565c09cd2552845a5527ee17f7784dd6eafb7fb1",
          "blockNumber": "0x532380",
          "transactionHash": "0xd339d6f74ccf2107e27bc675cebe8e83c8431aef4638b6b22578189fb67b341f",
          "transactionIndex": "0x11",
          "logIndex": "0x8",
          "removed": false
        },
        {
          "address": "0x6EDCE65403992e310A62460808c4b910D972f10f",
          "topics": [
            "0x1ab700d4ced0c005b164c0f789fd09fcbb0156d4c2041b8a3bfbcd961cd1567f"
          ],
          "data": "0x00000000000000000000000000000000000000000000000000000000000000600000000000000000000000000000000000000000000000000000000000000120000000000000000000000000cc1ae8cf5d3904cef3360a9532b477529b177cce000000000000000000000000000000000000000000000000000000000000009901000000000000000200009ce10000000000000000000000003637a64b2422350f312858ba3ebb9312a5516d2300009cad0000000000000000000000001fa47369fca4e2bc1054c3783682605604ee92ad0470ce846081ad30dbae88680bc298e9f4a809257246072e886c43e46a99266e000000000000000000000000de05a1abb121113a33eed248bd91ddc254d5e9db00000000000f424000000000000000000000000000000000000000000000000000000000000000000000000000004a00030100110100000000000000000000000000030d40010031020000000000000000001550f7dca70000000000000000000000000000de05a1abb121113a33eed248bd91ddc254d5e9db00000000000000000000000000000000000000000000",
          "blockHash": "0x2cd345733a60105ce7cfb69f565c09cd2552845a5527ee17f7784dd6eafb7fb1",
          "blockNumber": "0x532380",
          "transactionHash": "0xd339d6f74ccf2107e27bc675cebe8e83c8431aef4638b6b22578189fb67b341f",
          "transactionIndex": "0x11",
          "logIndex": "0x9",
          "removed": false
        },
        {
          "address": "0x3637a64b2422350f312858bA3EbB9312a5516d23",
          "topics": [
            "0xfff873bb909b73d08a8c1af4b21779e87103bb8ea8cf3b3a0067eb8526b8b80a",
            "0x0470ce846081ad30dbae88680bc298e9f4a809257246072e886c43e46a99266e",
            "0x000000000000000000000000de05a1abb121113a33eed248bd91ddc254d5e9db"
          ],
          "data": "0x0000000000000000000000000000000000000000000000000000000000009cad0000000000000000000000000000000000000000000000000de0b6b3a7640000",
          "blockHash": "0x2cd345733a60105ce7cfb69f565c09cd2552845a5527ee17f7784dd6eafb7fb1",
          "blockNumber": "0x532380",
          "transactionHash": "0xd339d6f74ccf2107e27bc675cebe8e83c8431aef4638b6b22578189fb67b341f",
          "transactionIndex": "0x11",
          "logIndex": "0xa",
          "removed": false
        }
      ],
      "status": "0x1",
      "logsBloom": "0x00000000000000000000000000000000000000000000000032500000000100000000000000000000200000000080000000000000000010000020000000000000000000000000000000000008000000000000000001000000000000000000000000000000000000008200000000000000000000000000004000002010000000000000000000000020000000080000000000000000000001000000000000000000000001008000000000100000000000000000000000400000000440000020000000000002000000000000000000000000000000080000100000000000100000000000040000000100000000000000002000000000000000000000000000000020",
      "type": "0x2",
      "effectiveGasPrice": "0xbfc8f746"
    }
  ],
  "libraries": [],
  "pending": [],
  "returns": {},
  "timestamp": 1709980925,
  "chain": 11155111,
  "multi": false,
  "commit": "4230a88"
}