{
  "transactions": [
    {
      "hash": "0xd221d348fbda2c8fcc3a30ca6b8cc7e9caad0e81909ac4870a90166b161f06a1",
      "transactionType": "CALL",
      "contractName": "MocaTokenMock",
      "contractAddress": "0x043B82ad95346a0750BAc710D7E1c5e0Fb654E98",
      "function": "approve(address,uint256)",
      "arguments": [
        "0x65B974b35Db51ee52B73391047Bcfb43a462E75D",
        "10000000000000000000"
      ],
      "transaction": {
        "type": "0x02",
        "from": "0xde05a1abb121113a33eed248bd91ddc254d5e9db",
        "to": "0x043b82ad95346a0750bac710d7e1c5e0fb654e98",
        "gas": "0x9e0d",
        "value": "0x0",
        "data": "0x095ea7b300000000000000000000000065b974b35db51ee52b73391047bcfb43a462e75d0000000000000000000000000000000000000000000000008ac7230489e80000",
        "nonce": "0x79",
        "accessList": []
      },
      "additionalContracts": [],
      "isFixedGasLimit": false
    },
    {
      "hash": "0xdbe5e789f6de516c83102f2c4b4776246b60f2553b04644ce5f4df2fbaed8822",
      "transactionType": "CALL",
      "contractName": "MocaTokenMock",
      "contractAddress": "0x043B82ad95346a0750BAc710D7E1c5e0Fb654E98",
      "function": "approve(address,uint256)",
      "arguments": [
        "0xdE05a1Abb121113a33eeD248BD91ddC254d5E9Db",
        "0"
      ],
      "transaction": {
        "type": "0x02",
        "from": "0xde05a1abb121113a33eed248bd91ddc254d5e9db",
        "to": "0x043b82ad95346a0750bac710d7e1c5e0fb654e98",
        "gas": "0x83c4",
        "value": "0x0",
        "data": "0x095ea7b3000000000000000000000000de05a1abb121113a33eed248bd91ddc254d5e9db0000000000000000000000000000000000000000000000000000000000000000",
        "nonce": "0x7a",
        "accessList": []
      },
      "additionalContracts": [],
      "isFixedGasLimit": false
    },
    {
      "hash": "0x82004fce297e17fb7120ed3fa05babec1c6aed68831afc9cd4cf9dd9faaab775",
      "transactionType": "CALL",
      "contractName": "MocaTokenAdaptor",
      "contractAddress": "0x65B974b35Db51ee52B73391047Bcfb43a462E75D",
      "function": "send((uint32,bytes32,uint256,uint256,bytes,bytes,bytes),(uint256,uint256),address)",
      "arguments": [
        "(40109, 0x000000000000000000000000de05a1abb121113a33eed248bd91ddc254d5e9db, 1000000000000000000, 1000000000000000000, 0x, 0x, 0x)",
        "(61192790326764, 0)",
        "0xdE05a1Abb121113a33eeD248BD91ddC254d5E9Db"
      ],
      "transaction": {
        "type": "0x02",
        "from": "0xde05a1abb121113a33eed248bd91ddc254d5e9db",
        "to": "0x65b974b35db51ee52b73391047bcfb43a462e75d",
        "gas": "0x5300b",
        "value": "0x37a78e87bdec",
        "data": "0xc7c7f5b30000000000000000000000000000000000000000000000000000000000000080000000000000000000000000000000000000000000000000000037a78e87bdec0000000000000000000000000000000000000000000000000000000000000000000000000000000000000000de05a1abb121113a33eed248bd91ddc254d5e9db0000000000000000000000000000000000000000000000000000000000009cad000000000000000000000000de05a1abb121113a33eed248bd91ddc254d5e9db0000000000000000000000000000000000000000000000000de0b6b3a76400000000000000000000000000000000000000000000000000000de0b6b3a764000000000000000000000000000000000000000000000000000000000000000000e000000000000000000000000000000000000000000000000000000000000001000000000000000000000000000000000000000000000000000000000000000120000000000000000000000000000000000000000000000000000000000000000000000000000000000000000000000000000000000000000000000000000000000000000000000000000000000000000000000000000000000000000000000000",
        "nonce": "0x7b",
        "accessList": []
      },
      "additionalContracts": [],
      "isFixedGasLimit": false
    }
  ],
  "receipts": [
    {
      "transactionHash": "0xd221d348fbda2c8fcc3a30ca6b8cc7e9caad0e81909ac4870a90166b161f06a1",
      "transactionIndex": "0x37",
      "blockHash": "0x2a7b8505bf4d1996c75c56c382ecff648e627ae7badd41e0a8280850dd2a21eb",
      "blockNumber": "0x531ad2",
      "from": "0xdE05a1Abb121113a33eeD248BD91ddC254d5E9Db",
      "to": "0x043B82ad95346a0750BAc710D7E1c5e0Fb654E98",
      "cumulativeGasUsed": "0x1539c8",
      "gasUsed": "0x726e",
      "contractAddress": null,
      "logs": [
        {
          "address": "0x043B82ad95346a0750BAc710D7E1c5e0Fb654E98",
          "topics": [
            "0x8c5be1e5ebec7d5bd14f71427d1e84f3dd0314c0f7b2291e5b200ac8c7c3b925",
            "0x000000000000000000000000de05a1abb121113a33eed248bd91ddc254d5e9db",
            "0x00000000000000000000000065b974b35db51ee52b73391047bcfb43a462e75d"
          ],
          "data": "0x0000000000000000000000000000000000000000000000008ac7230489e80000",
          "blockHash": "0x2a7b8505bf4d1996c75c56c382ecff648e627ae7badd41e0a8280850dd2a21eb",
          "blockNumber": "0x531ad2",
          "transactionHash": "0xd221d348fbda2c8fcc3a30ca6b8cc7e9caad0e81909ac4870a90166b161f06a1",
          "transactionIndex": "0x37",
          "logIndex": "0x5",
          "removed": false
        }
      ],
      "status": "0x1",
      "logsBloom": "0x00000000040000000000000000000000000000000000000000100000000000000000800000000000000000000000000000000000000000000000000000200000000000000000000000000000000000000000000000000000000080000000000000000000000000000008000000000000000000000000004000000000000000000000000000000020000000000000000000000000000000000000000000000000020000000000000000000000000000000000000000000000000000000000000000000000000000000000000000000000000000000000000000000000000000000010000000000000000000001000000000000000000000080000000000000000",
      "type": "0x2",
      "effectiveGasPrice": "0xb9434401"
    },
    {
      "transactionHash": "0xdbe5e789f6de516c83102f2c4b4776246b60f2553b04644ce5f4df2fbaed8822",
      "transactionIndex": "0x38",
      "blockHash": "0x2a7b8505bf4d1996c75c56c382ecff648e627ae7badd41e0a8280850dd2a21eb",
      "blockNumber": "0x531ad2",
      "from": "0xdE05a1Abb121113a33eeD248BD91ddC254d5E9Db",
      "to": "0x043B82ad95346a0750BAc710D7E1c5e0Fb654E98",
      "cumulativeGasUsed": "0x15992e",
      "gasUsed": "0x5f66",
      "contractAddress": null,
      "logs": [
        {
          "address": "0x043B82ad95346a0750BAc710D7E1c5e0Fb654E98",
          "topics": [
            "0x8c5be1e5ebec7d5bd14f71427d1e84f3dd0314c0f7b2291e5b200ac8c7c3b925",
            "0x000000000000000000000000de05a1abb121113a33eed248bd91ddc254d5e9db",
            "0x000000000000000000000000de05a1abb121113a33eed248bd91ddc254d5e9db"
          ],
          "data": "0x0000000000000000000000000000000000000000000000000000000000000000",
          "blockHash": "0x2a7b8505bf4d1996c75c56c382ecff648e627ae7badd41e0a8280850dd2a21eb",
          "blockNumber": "0x531ad2",
          "transactionHash": "0xdbe5e789f6de516c83102f2c4b4776246b60f2553b04644ce5f4df2fbaed8822",
          "transactionIndex": "0x38",
          "logIndex": "0x6",
          "removed": false
        }
      ],
      "status": "0x1",
      "logsBloom": "0x00000000000000000000000000000000000000000000000000100000000000000000800000000000000000000000000000000000000000000000000000200000000000000000000000000000000000000000000000000000000000000000000000000000000000000008000000000000000000000000004000000000000000000000000000000020000000000000000000000000000000000000000000000000020000000000000000000000000000000000000000000000000000000000000000000000000000000000000000000000000000000000000000000000000000000010000000000000000000001000000000000000000000000000000000000000",
      "type": "0x2",
      "effectiveGasPrice": "0xb9434401"
    },
    {
      "transactionHash": "0x82004fce297e17fb7120ed3fa05babec1c6aed68831afc9cd4cf9dd9faaab775",
      "transactionIndex": "0x39",
      "blockHash": "0x2a7b8505bf4d1996c75c56c382ecff648e627ae7badd41e0a8280850dd2a21eb",
      "blockNumber": "0x531ad2",
      "from": "0xdE05a1Abb121113a33eeD248BD91ddC254d5E9Db",
      "to": "0x65B974b35Db51ee52B73391047Bcfb43a462E75D",
      "cumulativeGasUsed": "0x195aaa",
      "gasUsed": "0x3c17c",
      "contractAddress": null,
      "logs": [
        {
          "address": "0x043B82ad95346a0750BAc710D7E1c5e0Fb654E98",
          "topics": [
            "0xddf252ad1be2c89b69c2b068fc378daa952ba7f163c4a11628f55a4df523b3ef",
            "0x000000000000000000000000de05a1abb121113a33eed248bd91ddc254d5e9db",
            "0x00000000000000000000000065b974b35db51ee52b73391047bcfb43a462e75d"
          ],
          "data": "0x0000000000000000000000000000000000000000000000000de0b6b3a7640000",
          "blockHash": "0x2a7b8505bf4d1996c75c56c382ecff648e627ae7badd41e0a8280850dd2a21eb",
          "blockNumber": "0x531ad2",
          "transactionHash": "0x82004fce297e17fb7120ed3fa05babec1c6aed68831afc9cd4cf9dd9faaab775",
          "transactionIndex": "0x39",
          "logIndex": "0x7",
          "removed": false
        },
        {
          "address": "0xcc1ae8Cf5D3904Cef3360A9532B477529b177cCE",
          "topics": [
            "0x61ed099e74a97a1d7f8bb0952a88ca8b7b8ebd00c126ea04671f92a81213318a"
          ],
          "data": "0x000000000000000000000000718b92b5cb0a5552039b593faf724d182a881eda0000000000000000000000000000000000000000000000000000345a7d4343a3",
          "blockHash": "0x2a7b8505bf4d1996c75c56c382ecff648e627ae7badd41e0a8280850dd2a21eb",
          "blockNumber": "0x531ad2",
          "transactionHash": "0x82004fce297e17fb7120ed3fa05babec1c6aed68831afc9cd4cf9dd9faaab775",
          "transactionIndex": "0x39",
          "logIndex": "0x8",
          "removed": false
        },
        {
          "address": "0xcc1ae8Cf5D3904Cef3360A9532B477529b177cCE",
          "topics": [
            "0x07ea52d82345d6e838192107d8fd7123d9c2ec8e916cd0aad13fd2b60db24644"
          ],
          "data": "0x000000000000000000000000000000000000000000000000000000000000006000000000000000000000000000000000000000000000000000000000000000a000000000000000000000000000000000000000000000000000000000000000c000000000000000000000000000000000000000000000000000000000000000010000000000000000000000008eebf8b423b73bfca51a1db4b7354aa0bfca9193000000000000000000000000000000000000000000000000000000000000000000000000000000000000000000000000000000000000000000000000000000010000000000000000000000000000000000000000000000000000034d11447a49",
          "blockHash": "0x2a7b8505bf4d1996c75c56c382ecff648e627ae7badd41e0a8280850dd2a21eb",
          "blockNumber": "0x531ad2",
          "transactionHash": "0x82004fce297e17fb7120ed3fa05babec1c6aed68831afc9cd4cf9dd9faaab775",
          "transactionIndex": "0x39",
          "logIndex": "0x9",
          "removed": false
        },
        {
          "address": "0x6EDCE65403992e310A62460808c4b910D972f10f",
          "topics": [
            "0x1ab700d4ced0c005b164c0f789fd09fcbb0156d4c2041b8a3bfbcd961cd1567f"
          ],
          "data": "0x00000000000000000000000000000000000000000000000000000000000000600000000000000000000000000000000000000000000000000000000000000120000000000000000000000000cc1ae8cf5d3904cef3360a9532b477529b177cce000000000000000000000000000000000000000000000000000000000000009901000000000000000200009ce100000000000000000000000065b974b35db51ee52b73391047bcfb43a462e75d00009cad0000000000000000000000002525427274ee7ba2dbabffa4c813f1630d7af504ee6830e29fd691d7067c0f3508d07065acef6ee9d9348b325f16f3aa14a3b1df000000000000000000000000de05a1abb121113a33eed248bd91ddc254d5e9db00000000000f424000000000000000000000000000000000000000000000000000000000000000000000000000001600030100110100000000000000000000000000030d4000000000000000000000",
          "blockHash": "0x2a7b8505bf4d1996c75c56c382ecff648e627ae7badd41e0a8280850dd2a21eb",
          "blockNumber": "0x531ad2",
          "transactionHash": "0x82004fce297e17fb7120ed3fa05babec1c6aed68831afc9cd4cf9dd9faaab775",
          "transactionIndex": "0x39",
          "logIndex": "0xa",
          "removed": false
        },
        {
          "address": "0x65B974b35Db51ee52B73391047Bcfb43a462E75D",
          "topics": [
            "0xfff873bb909b73d08a8c1af4b21779e87103bb8ea8cf3b3a0067eb8526b8b80a",
            "0xee6830e29fd691d7067c0f3508d07065acef6ee9d9348b325f16f3aa14a3b1df",
            "0x000000000000000000000000de05a1abb121113a33eed248bd91ddc254d5e9db"
          ],
          "data": "0x0000000000000000000000000000000000000000000000000000000000009cad0000000000000000000000000000000000000000000000000de0b6b3a7640000",
          "blockHash": "0x2a7b8505bf4d1996c75c56c382ecff648e627ae7badd41e0a8280850dd2a21eb",
          "blockNumber": "0x531ad2",
          "transactionHash": "0x82004fce297e17fb7120ed3fa05babec1c6aed68831afc9cd4cf9dd9faaab775",
          "transactionIndex": "0x39",
          "logIndex": "0xb",
          "removed": false
        }
      ],
      "status": "0x1",
      "logsBloom": "0x00002000040000000000000000000000000000000000000030100000000100000000800000000000200000000080000000000000000000000000000000000200000000000000000000000008000000000000000000000000000080000000000000000000000000008208004000000000000000000000004000000010000000000000000000000020000000080000000000000000000000000000000000000000000000008000000000100000000000000000000000400000000440000000000000000002000000200000000000000000000000080000000000020000000000000000040000000000000000001002002000000000000000080000000000000020",
      "type": "0x2",
      "effectiveGasPrice": "0xb9434401"
    }
  ],
  "libraries": [],
  "pending": [],
  "returns": {},
  "timestamp": 1709954234,
  "chain": 11155111,
  "multi": false,
  "commit": "0fb095c"
}