{
  "transactions": [
    {
      "hash": "0x86084a751684a6165149667c66874b4a83ae560fb875785dfa5ab7ee94f209c2",
      "transactionType": "CALL",
      "contractName": "MocaTokenAdaptor",
      "contractAddress": "0x65B974b35Db51ee52B73391047Bcfb43a462E75D",
      "function": "setPeer(uint32,bytes32)",
      "arguments": [
        "40109",
        "0x0000000000000000000000002525427274ee7ba2dbabffa4c813f1630d7af504"
      ],
      "transaction": {
        "type": "0x02",
        "from": "0xde05a1abb121113a33eed248bd91ddc254d5e9db",
        "to": "0x65b974b35db51ee52b73391047bcfb43a462e75d",
        "gas": "0x10cd8",
        "value": "0x0",
        "data": "0x3400288b0000000000000000000000000000000000000000000000000000000000009cad0000000000000000000000002525427274ee7ba2dbabffa4c813f1630d7af504",
        "nonce": "0x6d",
        "accessList": []
      },
      "additionalContracts": [],
      "isFixedGasLimit": false
    }
  ],
  "receipts": [
    {
      "transactionHash": "0x86084a751684a6165149667c66874b4a83ae560fb875785dfa5ab7ee94f209c2",
      "transactionIndex": "0x4",
      "blockHash": "0xc8a4ac5e317e78e14f6b3eb118ad15102ef3d5eb7f28dcdc61271cac9a5faa2e",
      "blockNumber": "0x531a54",
      "from": "0xdE05a1Abb121113a33eeD248BD91ddC254d5E9Db",
      "to": "0x65B974b35Db51ee52B73391047Bcfb43a462E75D",
      "cumulativeGasUsed": "0x962ef",
      "gasUsed": "0xc2a4",
      "contractAddress": null,
      "logs": [
        {
          "address": "0x65B974b35Db51ee52B73391047Bcfb43a462E75D",
          "topics": [
            "0x238399d427b947898edb290f5ff0f9109849b1c3ba196a42e35f00c50a54b98b"
          ],
          "data": "0x0000000000000000000000000000000000000000000000000000000000009cad0000000000000000000000002525427274ee7ba2dbabffa4c813f1630d7af504",
          "blockHash": "0xc8a4ac5e317e78e14f6b3eb118ad15102ef3d5eb7f28dcdc61271cac9a5faa2e",
          "blockNumber": "0x531a54",
          "transactionHash": "0x86084a751684a6165149667c66874b4a83ae560fb875785dfa5ab7ee94f209c2",
          "transactionIndex": "0x4",
          "logIndex": "0x4",
          "removed": false
        }
      ],
      "status": "0x1",
      "logsBloom": "0x00002000000000000000000000000000000000000000000000000000000000000000000000000000000000000000000000000000000000000800000000000000000000000000000000000000000000000000000000000000000000000000000000000000000000000000004000000000000000000000000000000000000000000000000000000000000000000000000000000000000000000000000000000000000000000000000000000000000000000000000000000000000002000000000000000000000000000000000000000000000000000000000000060000000000000000000000000000000000000000000000000000000000000000000000000000",
      "type": "0x2",
      "effectiveGasPrice": "0xb9ce74b9"
    }
  ],
  "libraries": [],
  "pending": [],
  "returns": {},
  "timestamp": 1709952724,
  "chain": 11155111,
  "multi": false,
  "commit": "0fb095c"
}