{
  "transactions": [
    {
      "hash": "0x17b3177ba93da7710ca1c708170947a834d5622b23c3170a044ed2e93bc78bcf",
      "transactionType": "CALL",
      "contractName": "MocaTokenMock",
      "contractAddress": "0x043B82ad95346a0750BAc710D7E1c5e0Fb654E98",
      "function": "approve(address,uint256)",
      "arguments": [
        "0x65B974b35Db51ee52B73391047Bcfb43a462E75D",
        "10000000000000000000"
      ],
      "transaction": {
        "type": "0x02",
        "from": "0xde05a1abb121113a33eed248bd91ddc254d5e9db",
        "to": "0x043b82ad95346a0750bac710d7e1c5e0fb654e98",
        "gas": "0x8ef1",
        "value": "0x0",
        "data": "0x095ea7b300000000000000000000000065b974b35db51ee52b73391047bcfb43a462e75d0000000000000000000000000000000000000000000000008ac7230489e80000",
        "nonce": "0x76",
        "accessList": []
      },
      "additionalContracts": [],
      "isFixedGasLimit": false
    },
    {
      "hash": "0x5a6884621629a203377b514a304ff7102775917f965fd542c6114854b9f05e42",
      "transactionType": "CALL",
      "contractName": "MocaTokenMock",
      "contractAddress": "0x043B82ad95346a0750BAc710D7E1c5e0Fb654E98",
      "function": "approve(address,uint256)",
      "arguments": [
        "0xdE05a1Abb121113a33eeD248BD91ddC254d5E9Db",
        "10000000000000000000"
      ],
      "transaction": {
        "type": "0x02",
        "from": "0xde05a1abb121113a33eed248bd91ddc254d5e9db",
        "to": "0x043b82ad95346a0750bac710d7e1c5e0fb654e98",
        "gas": "0x9e0d",
        "value": "0x0",
        "data": "0x095ea7b3000000000000000000000000de05a1abb121113a33eed248bd91ddc254d5e9db0000000000000000000000000000000000000000000000008ac7230489e80000",
        "nonce": "0x77",
        "accessList": []
      },
      "additionalContracts": [],
      "isFixedGasLimit": false
    },
    {
      "hash": "0xfc25d67f0be8553947a7b4583f31797121e85665c355df8b3cbdb87682ae1ad0",
      "transactionType": "CALL",
      "contractName": "MocaTokenAdaptor",
      "contractAddress": "0x65B974b35Db51ee52B73391047Bcfb43a462E75D",
      "function": "send((uint32,bytes32,uint256,uint256,bytes,bytes,bytes),(uint256,uint256),address)",
      "arguments": [
        "(40109, 0x000000000000000000000000de05a1abb121113a33eed248bd91ddc254d5e9db, 1000000000000000000, 1000000000000000000, 0x, 0x, 0x)",
        "(61192790326764, 0)",
        "0xdE05a1Abb121113a33eeD248BD91ddC254d5E9Db"
      ],
      "transaction": {
        "type": "0x02",
        "from": "0xde05a1abb121113a33eed248bd91ddc254d5e9db",
        "to": "0x65b974b35db51ee52b73391047bcfb43a462e75d",
        "gas": "0x6a053",
        "value": "0x37a78e87bdec",
        "data": "0xc7c7f5b30000000000000000000000000000000000000000000000000000000000000080000000000000000000000000000000000000000000000000000037a78e87bdec0000000000000000000000000000000000000000000000000000000000000000000000000000000000000000de05a1abb121113a33eed248bd91ddc254d5e9db0000000000000000000000000000000000000000000000000000000000009cad000000000000000000000000de05a1abb121113a33eed248bd91ddc254d5e9db0000000000000000000000000000000000000000000000000de0b6b3a76400000000000000000000000000000000000000000000000000000de0b6b3a764000000000000000000000000000000000000000000000000000000000000000000e000000000000000000000000000000000000000000000000000000000000001000000000000000000000000000000000000000000000000000000000000000120000000000000000000000000000000000000000000000000000000000000000000000000000000000000000000000000000000000000000000000000000000000000000000000000000000000000000000000000000000000000000000000000",
        "nonce": "0x78",
        "accessList": []
      },
      "additionalContracts": [],
      "isFixedGasLimit": false
    }
  ],
  "receipts": [],
  "libraries": [],
  "pending": [
    "0x17b3177ba93da7710ca1c708170947a834d5622b23c3170a044ed2e93bc78bcf",
    "0x5a6884621629a203377b514a304ff7102775917f965fd542c6114854b9f05e42",
    "0xfc25d67f0be8553947a7b4583f31797121e85665c355df8b3cbdb87682ae1ad0"
  ],
  "returns": {},
  "timestamp": 1709954071,
  "chain": 11155111,
  "multi": false,
  "commit": "0fb095c"
}