{
  "transactions": [
    {
      "hash": "0x25bc585f4b18826c08dc2efb0d21a6e19cf214c15ec55a6cd126a0109e230b40",
      "transactionType": "CALL",
      "contractName": "MocaTokenMock",
      "contractAddress": "0xacb0Cb4f7aef9889B488A995B0FBC8564eCc36Cb",
      "function": "approve(address,uint256)",
      "arguments": [
        "0x5348e3EeABE88D801cd6Cd734D9Ed390B9F5cb5C",
        "10000000000000000000"
      ],
      "transaction": {
        "type": "0x02",
        "from": "0xde05a1abb121113a33eed248bd91ddc254d5e9db",
        "to": "0xacb0cb4f7aef9889b488a995b0fbc8564ecc36cb",
        "gas": "0x1090a",
        "value": "0x0",
        "data": "0x095ea7b30000000000000000000000005348e3eeabe88d801cd6cd734d9ed390b9f5cb5c0000000000000000000000000000000000000000000000008ac7230489e80000",
        "nonce": "0xae",
        "accessList": []
      },
      "additionalContracts": [],
      "isFixedGasLimit": false
    },
    {
      "hash": "0x5678d4d3a3f15bbf837412880eaa4a9c25375ecad679d8eb743a4466a706e493",
      "transactionType": "CALL",
      "contractName": "MocaTokenAdapter",
      "contractAddress": "0x5348e3EeABE88D801cd6Cd734D9Ed390B9F5cb5C",
      "function": "send((uint32,bytes32,uint256,uint256,bytes,bytes,bytes),(uint256,uint256),address)",
      "arguments": [
        "(40109, 0x000000000000000000000000de05a1abb121113a33eed248bd91ddc254d5e9db, 1000000000000000000, 1000000000000000000, 0x, 0x, 0x)",
        "(55327158681283, 0)",
        "0xdE05a1Abb121113a33eeD248BD91ddC254d5E9Db"
      ],
      "transaction": {
        "type": "0x02",
        "from": "0xde05a1abb121113a33eed248bd91ddc254d5e9db",
        "to": "0x5348e3eeabe88d801cd6cd734d9ed390b9f5cb5c",
        "gas": "0x6a053",
        "value": "0x3251dba3bec3",
        "data": "0xc7c7f5b3000000000000000000000000000000000000000000000000000000000000008000000000000000000000000000000000000000000000000000003251dba3bec30000000000000000000000000000000000000000000000000000000000000000000000000000000000000000de05a1abb121113a33eed248bd91ddc254d5e9db0000000000000000000000000000000000000000000000000000000000009cad000000000000000000000000de05a1abb121113a33eed248bd91ddc254d5e9db0000000000000000000000000000000000000000000000000de0b6b3a76400000000000000000000000000000000000000000000000000000de0b6b3a764000000000000000000000000000000000000000000000000000000000000000000e000000000000000000000000000000000000000000000000000000000000001000000000000000000000000000000000000000000000000000000000000000120000000000000000000000000000000000000000000000000000000000000000000000000000000000000000000000000000000000000000000000000000000000000000000000000000000000000000000000000000000000000000000000000",
        "nonce": "0xaf",
        "accessList": []
      },
      "additionalContracts": [],
      "isFixedGasLimit": false
    }
  ],
  "receipts": [],
  "libraries": [],
  "pending": [
    "0x25bc585f4b18826c08dc2efb0d21a6e19cf214c15ec55a6cd126a0109e230b40",
    "0x5678d4d3a3f15bbf837412880eaa4a9c25375ecad679d8eb743a4466a706e493"
  ],
  "returns": {},
  "timestamp": 1710241872,
  "chain": 11155111,
  "multi": false,
  "commit": "88dccd9"
}