{
  "transactions": [
    {
      "hash": "0x34203f3b30b2b5458bc2fd523c8c1f2af68bb2b1dbacd2f6b586209f2a5352e5",
      "transactionType": "CALL",
      "contractName": "MocaTokenAdaptor",
      "contractAddress": "0x3637a64b2422350f312858bA3EbB9312a5516d23",
      "function": "setPeer(uint32,bytes32)",
      "arguments": [
        "40109",
        "0x0000000000000000000000001fa47369fca4e2bc1054c3783682605604ee92ad"
      ],
      "transaction": {
        "type": "0x02",
        "from": "0xde05a1abb121113a33eed248bd91ddc254d5e9db",
        "to": "0x3637a64b2422350f312858ba3ebb9312a5516d23",
        "gas": "0x10cd8",
        "value": "0x0",
        "data": "0x3400288b0000000000000000000000000000000000000000000000000000000000009cad0000000000000000000000001fa47369fca4e2bc1054c3783682605604ee92ad",
        "nonce": "0x9a",
        "accessList": []
      },
      "additionalContracts": [],
      "isFixedGasLimit": false
    }
  ],
  "receipts": [
    {
      "transactionHash": "0x34203f3b30b2b5458bc2fd523c8c1f2af68bb2b1dbacd2f6b586209f2a5352e5",
      "transactionIndex": "0x40",
      "blockHash": "0x01868476042cda601b57be9b3f43ce61c88e0e3b632c836f62acb19e6f820084",
      "blockNumber": "0x532329",
      "from": "0xdE05a1Abb121113a33eeD248BD91ddC254d5E9Db",
      "to": "0x3637a64b2422350f312858bA3EbB9312a5516d23",
      "cumulativeGasUsed": "0xd8baf1",
      "gasUsed": "0xc2a4",
      "contractAddress": null,
      "logs": [
        {
          "address": "0x3637a64b2422350f312858bA3EbB9312a5516d23",
          "topics": [
            "0x238399d427b947898edb290f5ff0f9109849b1c3ba196a42e35f00c50a54b98b"
          ],
          "data": "0x0000000000000000000000000000000000000000000000000000000000009cad0000000000000000000000001fa47369fca4e2bc1054c3783682605604ee92ad",
          "blockHash": "0x01868476042cda601b57be9b3f43ce61c88e0e3b632c836f62acb19e6f820084",
          "blockNumber": "0x532329",
          "transactionHash": "0x34203f3b30b2b5458bc2fd523c8c1f2af68bb2b1dbacd2f6b586209f2a5352e5",
          "transactionIndex": "0x40",
          "logIndex": "0x14c",
          "removed": false
        }
      ],
      "status": "0x1",
      "logsBloom": "0x00000000000000000000000000000000000000000000000000000000000000000000000000000000000000000000000000000000000010000820000000000000000000000000000000000000000000000000000000000000000000000000000000000000000000000000000000000000000000000000000000000000000000000000000000000000000000000000000000000000000000000000000000000000000000000000000000000000000000000000000000000000000002000000000000000000000000000000000000000000000000000000100000040000000000000000000000000000000000000000000000000000000000000000000000000000",
      "type": "0x2",
      "effectiveGasPrice": "0xc2a650b6"
    }
  ],
  "libraries": [],
  "pending": [],
  "returns": {},
  "timestamp": 1709979882,
  "chain": 11155111,
  "multi": false,
  "commit": "4230a88"
}