{
  "transactions": [
    {
      "hash": "0x0fcd7737c3f1e3748a2651de36a42c058ae76e558805adb4f08f0b9035524ca7",
      "transactionType": "CALL",
      "contractName": "MocaTokenAdapter",
      "contractAddress": "0x5348e3EeABE88D801cd6Cd734D9Ed390B9F5cb5C",
      "function": "setOutboundLimit(uint32,uint256)",
      "arguments": [
        "40109",
        "10000000000000000000"
      ],
      "transaction": {
        "type": "0x02",
        "from": "0xde05a1abb121113a33eed248bd91ddc254d5e9db",
        "to": "0x5348e3eeabe88d801cd6cd734d9ed390b9f5cb5c",
        "gas": "0x1104d",
        "value": "0x0",
        "data": "0x65d28a6b0000000000000000000000000000000000000000000000000000000000009cad0000000000000000000000000000000000000000000000008ac7230489e80000",
        "nonce": "0xa9",
        "accessList": []
      },
      "additionalContracts": [],
      "isFixedGasLimit": false
    },
    {
      "hash": "0xfc60ccca792be7ead076551780a27bf9cb04a35dc4778cbc1ecbc1b74d6da52a",
      "transactionType": "CALL",
      "contractName": "MocaTokenAdapter",
      "contractAddress": "0x5348e3EeABE88D801cd6Cd734D9Ed390B9F5cb5C",
      "function": "setInboundLimit(uint32,uint256)",
      "arguments": [
        "40109",
        "10000000000000000000"
      ],
      "transaction": {
        "type": "0x02",
        "from": "0xde05a1abb121113a33eed248bd91ddc254d5e9db",
        "to": "0x5348e3eeabe88d801cd6cd734d9ed390b9f5cb5c",
        "gas": "0x10fcd",
        "value": "0x0",
        "data": "0x9a2fe9e40000000000000000000000000000000000000000000000000000000000009cad0000000000000000000000000000000000000000000000008ac7230489e80000",
        "nonce": "0xaa",
        "accessList": []
      },
      "additionalContracts": [],
      "isFixedGasLimit": false
    }
  ],
  "receipts": [
    {
      "transactionHash": "0x0fcd7737c3f1e3748a2651de36a42c058ae76e558805adb4f08f0b9035524ca7",
      "transactionIndex": "0x13",
      "blockHash": "0x28f8f13e35feb97076223e6ee42a9ef4e2b24d4b805ccaceeff5ba4602e7b4fd",
      "blockNumber": "0x537780",
      "from": "0xdE05a1Abb121113a33eeD248BD91ddC254d5E9Db",
      "to": "0x5348e3EeABE88D801cd6Cd734D9Ed390B9F5cb5C",
      "cumulativeGasUsed": "0x14c88c",
      "gasUsed": "0xba31",
      "contractAddress": null,
      "logs": [
        {
          "address": "0x5348e3EeABE88D801cd6Cd734D9Ed390B9F5cb5C",
          "topics": [
            "0x7628c1599617e8f71acfbf363d8064a2a32bdb6e63e074de3250cab57047bf79",
            "0x0000000000000000000000000000000000000000000000000000000000009cad"
          ],
          "data": "0x0000000000000000000000000000000000000000000000008ac7230489e80000",
          "blockHash": "0x28f8f13e35feb97076223e6ee42a9ef4e2b24d4b805ccaceeff5ba4602e7b4fd",
          "blockNumber": "0x537780",
          "transactionHash": "0x0fcd7737c3f1e3748a2651de36a42c058ae76e558805adb4f08f0b9035524ca7",
          "transactionIndex": "0x13",
          "logIndex": "0x15",
          "removed": false
        }
      ],
      "status": "0x1",
      "logsBloom": "0x00000000000000000000000000000000000000000000000000000000000000000000000000000000000000000000000000000000000000000000000000000000000000000000100000000000000000000000000000000000000000000000800000000002000000000000000000000000000000000000000000000000000000000000000000020000000000000000000000000000000000000000000000000000000000000000000000000000000000000000000000000000000000000000000000000000000000000000000000080000000000080000008000000000000000000000000000000000000000000000000000008010000000000000000000000000",
      "type": "0x2",
      "effectiveGasPrice": "0xf0f950865"
    },
    {
      "transactionHash": "0xfc60ccca792be7ead076551780a27bf9cb04a35dc4778cbc1ecbc1b74d6da52a",
      "transactionIndex": "0x14",
      "blockHash": "0x28f8f13e35feb97076223e6ee42a9ef4e2b24d4b805ccaceeff5ba4602e7b4fd",
      "blockNumber": "0x537780",
      "from": "0xdE05a1Abb121113a33eeD248BD91ddC254d5E9Db",
      "to": "0x5348e3EeABE88D801cd6Cd734D9Ed390B9F5cb5C",
      "cumulativeGasUsed": "0x158265",
      "gasUsed": "0xb9d9",
      "contractAddress": null,
      "logs": [
        {
          "address": "0x5348e3EeABE88D801cd6Cd734D9Ed390B9F5cb5C",
          "topics": [
            "0x9cc3784ef7ab64c61f0abf58d72c2a40ef45b319db540006be0aa3e4610b8433",
            "0x0000000000000000000000000000000000000000000000000000000000009cad"
          ],
          "data": "0x0000000000000000000000000000000000000000000000008ac7230489e80000",
          "blockHash": "0x28f8f13e35feb97076223e6ee42a9ef4e2b24d4b805ccaceeff5ba4602e7b4fd",
          "blockNumber": "0x537780",
          "transactionHash": "0xfc60ccca792be7ead076551780a27bf9cb04a35dc4778cbc1ecbc1b74d6da52a",
          "transactionIndex": "0x14",
          "logIndex": "0x16",
          "removed": false
        }
      ],
      "status": "0x1",
      "logsBloom": "0x00000000000000000000000000000000000000000000000000000000000000000000000000000000000000000000000000000000000000000001000000000000000000000000100000000000000000000000000000000000000000000000000000000002000000000000000000000000000000000000000000000000000000000000000000020000000000000000000000000000000000000000000000008000000000000000000004000000000000000000000000000000000000000000000000000000000000000000000000000000000000080000000000000000000000000000000000000000000000000000000000008010000000000000000000000000",
      "type": "0x2",
      "effectiveGasPrice": "0xf0f950865"
    }
  ],
  "libraries": [],
  "pending": [],
  "returns": {},
  "timestamp": 1710241564,
  "chain": 11155111,
  "multi": false,
  "commit": "88dccd9"
}