{
  "transactions": [
    {
      "hash": "0xc0432d3aff60a75b9fe4f9453db0be0e75f0912455a6ef3e37db5451a82ef61b",
      "transactionType": "CALL",
      "contractName": "MocaTokenAdapter",
      "contractAddress": "0x5348e3EeABE88D801cd6Cd734D9Ed390B9F5cb5C",
      "function": "setPeer(uint32,bytes32)",
      "arguments": [
        "40109",
        "0x000000000000000000000000ff891133f96a54d2b20f2ff56988c1cadb508d13"
      ],
      "transaction": {
        "type": "0x02",
        "from": "0xde05a1abb121113a33eed248bd91ddc254d5e9db",
        "to": "0x5348e3eeabe88d801cd6cd734d9ed390b9f5cb5c",
        "gas": "0x10d51",
        "value": "0x0",
        "data": "0x3400288b0000000000000000000000000000000000000000000000000000000000009cad000000000000000000000000ff891133f96a54d2b20f2ff56988c1cadb508d13",
        "nonce": "0xa8",
        "accessList": []
      },
      "additionalContracts": [],
      "isFixedGasLimit": false
    }
  ],
  "receipts": [
    {
      "transactionHash": "0xc0432d3aff60a75b9fe4f9453db0be0e75f0912455a6ef3e37db5451a82ef61b",
      "transactionIndex": "0x37",
      "blockHash": "0xbb549fdda1f3c8c344f3dcfe656e76365d621c5486fa3ecc0ebbacca5299e418",
      "blockNumber": "0x53777c",
      "from": "0xdE05a1Abb121113a33eeD248BD91ddC254d5E9Db",
      "to": "0x5348e3EeABE88D801cd6Cd734D9Ed390B9F5cb5C",
      "cumulativeGasUsed": "0x41a14f",
      "gasUsed": "0xc2fc",
      "contractAddress": null,
      "logs": [
        {
          "address": "0x5348e3EeABE88D801cd6Cd734D9Ed390B9F5cb5C",
          "topics": [
            "0x238399d427b947898edb290f5ff0f9109849b1c3ba196a42e35f00c50a54b98b"
          ],
          "data": "0x0000000000000000000000000000000000000000000000000000000000009cad000000000000000000000000ff891133f96a54d2b20f2ff56988c1cadb508d13",
          "blockHash": "0xbb549fdda1f3c8c344f3dcfe656e76365d621c5486fa3ecc0ebbacca5299e418",
          "blockNumber": "0x53777c",
          "transactionHash": "0xc0432d3aff60a75b9fe4f9453db0be0e75f0912455a6ef3e37db5451a82ef61b",
          "transactionIndex": "0x37",
          "logIndex": "0x60",
          "removed": false
        }
      ],
      "status": "0x1",
      "logsBloom": "0x00000000000000000000000000000000000000000000000000000000000000000000000000000000000000000000000000000000000000000800000000000000000000000000000000000000000000000000000000000000000000000000000000000000000000000000000000000000000000000000000000000000000000000000000000020000000000000000000000000000000000000000000000000000000000000000000000000000000000000000000000000000000002000000000000000000000000000000000000000000000000080000000000040000000000000000000000000000000000000000000000008000000000000000000000000000",
      "type": "0x2",
      "effectiveGasPrice": "0xe9efef7b4"
    }
  ],
  "libraries": [],
  "pending": [],
  "returns": {},
  "timestamp": 1710241519,
  "chain": 11155111,
  "multi": false,
  "commit": "88dccd9"
}