{
  "transactions": [
    {
      "hash": "0xc0432d3aff60a75b9fe4f9453db0be0e75f0912455a6ef3e37db5451a82ef61b",
      "transactionType": "CALL",
      "contractName": "MocaTokenAdapter",
      "contractAddress": "0x5348e3EeABE88D801cd6Cd734D9Ed390B9F5cb5C",
      "function": "setPeer(uint32,bytes32)",
      "arguments": [
        "40109",
        "0x000000000000000000000000ff891133f96a54d2b20f2ff56988c1cadb508d13"
      ],
      "transaction": {
        "type": "0x02",
        "from": "0xde05a1abb121113a33eed248bd91ddc254d5e9db",
        "to": "0x5348e3eeabe88d801cd6cd734d9ed390b9f5cb5c",
        "gas": "0x10d51",
        "value": "0x0",
        "data": "0x3400288b0000000000000000000000000000000000000000000000000000000000009cad000000000000000000000000ff891133f96a54d2b20f2ff56988c1cadb508d13",
        "nonce": "0xa8",
        "accessList": []
      },
      "additionalContracts": [],
      "isFixedGasLimit": false
    }
  ],
  "receipts": [],
  "libraries": [],
  "pending": [
    "0xc0432d3aff60a75b9fe4f9453db0be0e75f0912455a6ef3e37db5451a82ef61b"
  ],
  "returns": {},
  "timestamp": 1710241499,
  "chain": 11155111,
  "multi": false,
  "commit": "88dccd9"
}