{
  "transactions": [
    {
      "hash": "0x54f0778a1112644f7738192bf69a4bf5cd83f2b42615f39509d10b84fb9d0a79",
      "transactionType": "CALL",
      "contractName": "MocaTokenAdaptor",
      "contractAddress": "0xC8011cB9cfCa55b822E56DD048dc960aBd6424Ce",
      "function": "setPeer(uint32,bytes32)",
      "arguments": [
        "40109",
        "0x0000000000000000000000007d7b79b59ffb5c684a8bad8fb1729aaa27883dde"
      ],
      "transaction": {
        "type": "0x02",
        "from": "0xde05a1abb121113a33eed248bd91ddc254d5e9db",
        "to": "0xc8011cb9cfca55b822e56dd048dc960abd6424ce",
        "gas": "0x1014c",
        "value": "0x0",
        "data": "0x3400288b0000000000000000000000000000000000000000000000000000000000009cad0000000000000000000000007d7b79b59ffb5c684a8bad8fb1729aaa27883dde",
        "nonce": "0x1e",
        "accessList": []
      },
      "additionalContracts": [],
      "isFixedGasLimit": false
    }
  ],
  "receipts": [],
  "libraries": [],
  "pending": [
    "0x54f0778a1112644f7738192bf69a4bf5cd83f2b42615f39509d10b84fb9d0a79"
  ],
  "returns": {},
  "timestamp": 1709101670,
  "chain": 11155111,
  "multi": false,
  "commit": "045a50e"
}