{
  "transactions": [
    {
      "hash": "0xeb35b2323f18e854b2989c8de6e77c6c51b3b4f2c45d3f0582eda719e9103ef7",
      "transactionType": "CALL",
      "contractName": "MocaTokenMock",
      "contractAddress": "0x5667424802Ef74C314e7adbBa6fA669999d8137D",
      "function": "approve(address,uint256)",
      "arguments": [
        "0x3637a64b2422350f312858bA3EbB9312a5516d23",
        "10000000000000000000"
      ],
      "transaction": {
        "type": "0x02",
        "from": "0xde05a1abb121113a33eed248bd91ddc254d5e9db",
        "to": "0x5667424802ef74c314e7adbba6fa669999d8137d",
        "gas": "0x1090a",
        "value": "0x0",
        "data": "0x095ea7b30000000000000000000000003637a64b2422350f312858ba3ebb9312a5516d230000000000000000000000000000000000000000000000008ac7230489e80000",
        "nonce": "0xa1",
        "accessList": []
      },
      "additionalContracts": [],
      "isFixedGasLimit": false
    },
    {
      "hash": "0x874271f40dad416ee3fb15364e85bf4298bd1203d285f33a1bcd8d2cd17fbc47",
      "transactionType": "CALL",
      "contractName": "MocaTokenAdaptor",
      "contractAddress": "0x3637a64b2422350f312858bA3EbB9312a5516d23",
      "function": "send((uint32,bytes32,uint256,uint256,bytes,bytes,bytes),(uint256,uint256),address)",
      "arguments": [
        "(40109, 0x000000000000000000000000de05a1abb121113a33eed248bd91ddc254d5e9db, 1000000000000000000, 1000000000000000000, 0x, 0x, 0x)",
        "(59558957522567, 0)",
        "0xdE05a1Abb121113a33eeD248BD91ddC254d5E9Db"
      ],
      "transaction": {
        "type": "0x02",
        "from": "0xde05a1abb121113a33eed248bd91ddc254d5e9db",
        "to": "0x3637a64b2422350f312858ba3ebb9312a5516d23",
        "gas": "0x6a053",
        "value": "0x362b26819e87",
        "data": "0xc7c7f5b300000000000000000000000000000000000000000000000000000000000000800000000000000000000000000000000000000000000000000000362b26819e870000000000000000000000000000000000000000000000000000000000000000000000000000000000000000de05a1abb121113a33eed248bd91ddc254d5e9db0000000000000000000000000000000000000000000000000000000000009cad000000000000000000000000de05a1abb121113a33eed248bd91ddc254d5e9db0000000000000000000000000000000000000000000000000de0b6b3a76400000000000000000000000000000000000000000000000000000de0b6b3a764000000000000000000000000000000000000000000000000000000000000000000e000000000000000000000000000000000000000000000000000000000000001000000000000000000000000000000000000000000000000000000000000000120000000000000000000000000000000000000000000000000000000000000000000000000000000000000000000000000000000000000000000000000000000000000000000000000000000000000000000000000000000000000000000000000",
        "nonce": "0xa2",
        "accessList": []
      },
      "additionalContracts": [],
      "isFixedGasLimit": false
    }
  ],
  "receipts": [
    {
      "transactionHash": "0xeb35b2323f18e854b2989c8de6e77c6c51b3b4f2c45d3f0582eda719e9103ef7",
      "transactionIndex": "0x14",
      "blockHash": "0x696aec54f3d15fdb08bd8850fc9fc9dfa8c52f8675cb0d4927262ec99b3a13b4",
      "blockNumber": "0x532365",
      "from": "0xdE05a1Abb121113a33eeD248BD91ddC254d5E9Db",
      "to": "0x5667424802Ef74C314e7adbBa6fA669999d8137D",
      "cumulativeGasUsed": "0x7d4a3",
      "gasUsed": "0xb53a",
      "contractAddress": null,
      "logs": [
        {
          "address": "0x5667424802Ef74C314e7adbBa6fA669999d8137D",
          "topics": [
            "0x8c5be1e5ebec7d5bd14f71427d1e84f3dd0314c0f7b2291e5b200ac8c7c3b925",
            "0x000000000000000000000000de05a1abb121113a33eed248bd91ddc254d5e9db",
            "0x0000000000000000000000003637a64b2422350f312858ba3ebb9312a5516d23"
          ],
          "data": "0x0000000000000000000000000000000000000000000000008ac7230489e80000",
          "blockHash": "0x696aec54f3d15fdb08bd8850fc9fc9dfa8c52f8675cb0d4927262ec99b3a13b4",
          "blockNumber": "0x532365",
          "transactionHash": "0xeb35b2323f18e854b2989c8de6e77c6c51b3b4f2c45d3f0582eda719e9103ef7",
          "transactionIndex": "0x14",
          "logIndex": "0x2",
          "removed": false
        }
      ],
      "status": "0x1",
      "logsBloom": "0x00000000000000000000000000000000000000000000000002100000000000000000000000000000000000000000000000000000000000000000000000200000000000000000000000000000000000000000000000000000000000000000000000000000000000000000000000000000000000000000004000002000000000000000000000000020000000000000000000000000000001000000000000000000020001000000000000000000000000000000000000000000000000000020000000000000000000000000000000000000000000000000000000000000100000000010000000000000000000000000000000000000000000000000000000000000",
      "type": "0x2",
      "effectiveGasPrice": "0xc0b6aac4"
    },
    {
      "transactionHash": "0x874271f40dad416ee3fb15364e85bf4298bd1203d285f33a1bcd8d2cd17fbc47",
      "transactionIndex": "0x9",
      "blockHash": "0x407559811b06b74b9ca44eb6ea68cc093a4f8578f18e73f83429ac02c6d0fdd3",
      "blockNumber": "0x532366",
      "from": "0xdE05a1Abb121113a33eeD248BD91ddC254d5E9Db",
      "to": "0x3637a64b2422350f312858bA3EbB9312a5516d23",
      "cumulativeGasUsed": "0xda254",
      "gasUsed": "0x4cc1d",
      "contractAddress": null,
      "logs": [
        {
          "address": "0x5667424802Ef74C314e7adbBa6fA669999d8137D",
          "topics": [
            "0xddf252ad1be2c89b69c2b068fc378daa952ba7f163c4a11628f55a4df523b3ef",
            "0x000000000000000000000000de05a1abb121113a33eed248bd91ddc254d5e9db",
            "0x0000000000000000000000003637a64b2422350f312858ba3ebb9312a5516d23"
          ],
          "data": "0x0000000000000000000000000000000000000000000000000de0b6b3a7640000",
          "blockHash": "0x407559811b06b74b9ca44eb6ea68cc093a4f8578f18e73f83429ac02c6d0fdd3",
          "blockNumber": "0x532366",
          "transactionHash": "0x874271f40dad416ee3fb15364e85bf4298bd1203d285f33a1bcd8d2cd17fbc47",
          "transactionIndex": "0x9",
          "logIndex": "0xb",
          "removed": false
        },
        {
          "address": "0xcc1ae8Cf5D3904Cef3360A9532B477529b177cCE",
          "topics": [
            "0x61ed099e74a97a1d7f8bb0952a88ca8b7b8ebd00c126ea04671f92a81213318a"
          ],
          "data": "0x000000000000000000000000718b92b5cb0a5552039b593faf724d182a881eda0000000000000000000000000000000000000000000000000000333f72205ea7",
          "blockHash": "0x407559811b06b74b9ca44eb6ea68cc093a4f8578f18e73f83429ac02c6d0fdd3",
          "blockNumber": "0x532366",
          "transactionHash": "0x874271f40dad416ee3fb15364e85bf4298bd1203d285f33a1bcd8d2cd17fbc47",
          "transactionIndex": "0x9",
          "logIndex": "0xc",
          "removed": false
        },
        {
          "address": "0xcc1ae8Cf5D3904Cef3360A9532B477529b177cCE",
          "topics": [
            "0x07ea52d82345d6e838192107d8fd7123d9c2ec8e916cd0aad13fd2b60db24644"
          ],
          "data": "0x000000000000000000000000000000000000000000000000000000000000006000000000000000000000000000000000000000000000000000000000000000a000000000000000000000000000000000000000000000000000000000000000c000000000000000000000000000000000000000000000000000000000000000010000000000000000000000008eebf8b423b73bfca51a1db4b7354aa0bfca919300000000000000000000000000000000000000000000000000000000000000000000000000000000000000000000000000000000000000000000000000000001000000000000000000000000000000000000000000000000000002ebb4613fe0",
          "blockHash": "0x407559811b06b74b9ca44eb6ea68cc093a4f8578f18e73f83429ac02c6d0fdd3",
          "blockNumber": "0x532366",
          "transactionHash": "0x874271f40dad416ee3fb15364e85bf4298bd1203d285f33a1bcd8d2cd17fbc47",
          "transactionIndex": "0x9",
          "logIndex": "0xd",
          "removed": false
        },
        {
          "address": "0x6EDCE65403992e310A62460808c4b910D972f10f",
          "topics": [
            "0x1ab700d4ced0c005b164c0f789fd09fcbb0156d4c2041b8a3bfbcd961cd1567f"
          ],
          "data": "0x00000000000000000000000000000000000000000000000000000000000000600000000000000000000000000000000000000000000000000000000000000120000000000000000000000000cc1ae8cf5d3904cef3360a9532b477529b177cce000000000000000000000000000000000000000000000000000000000000009901000000000000000100009ce10000000000000000000000003637a64b2422350f312858ba3ebb9312a5516d2300009cad0000000000000000000000001fa47369fca4e2bc1054c3783682605604ee92ad857081b81fc7e6c6ab56385a5aae987323f02ce71079f25aabc9d5406922fbae000000000000000000000000de05a1abb121113a33eed248bd91ddc254d5e9db00000000000f424000000000000000000000000000000000000000000000000000000000000000000000000000001600030100110100000000000000000000000000030d4000000000000000000000",
          "blockHash": "0x407559811b06b74b9ca44eb6ea68cc093a4f8578f18e73f83429ac02c6d0fdd3",
          "blockNumber": "0x532366",
          "transactionHash": "0x874271f40dad416ee3fb15364e85bf4298bd1203d285f33a1bcd8d2cd17fbc47",
          "transactionIndex": "0x9",
          "logIndex": "0xe",
          "removed": false
        },
        {
          "address": "0x3637a64b2422350f312858bA3EbB9312a5516d23",
          "topics": [
            "0xfff873bb909b73d08a8c1af4b21779e87103bb8ea8cf3b3a0067eb8526b8b80a",
            "0x857081b81fc7e6c6ab56385a5aae987323f02ce71079f25aabc9d5406922fbae",
            "0x000000000000000000000000de05a1abb121113a33eed248bd91ddc254d5e9db"
          ],
          "data": "0x0000000000000000000000000000000000000000000000000000000000009cad0000000000000000000000000000000000000000000000000de0b6b3a7640000",
          "blockHash": "0x407559811b06b74b9ca44eb6ea68cc093a4f8578f18e73f83429ac02c6d0fdd3",
          "blockNumber": "0x532366",
          "transactionHash": "0x874271f40dad416ee3fb15364e85bf4298bd1203d285f33a1bcd8d2cd17fbc47",
          "transactionIndex": "0x9",
          "logIndex": "0xf",
          "removed": false
        }
      ],
      "status": "0x1",
      "logsBloom": "0x00000000000000000000000000000000000000000000000032100000000100000100000000000000200000000080000000000000000010000020000000000000000000000000000000000008000000000000000000000000000000000000000000000000000000008200000000000000000080000000004000002010000000000000000000000020000000080000000000000000000001000000000000000000000001008000000000100000000000000000800000400000000440000020000000000002000000000000000000000000000000080000100000000000100000000000040000000000000000000000002000000000000000000000000000000020",
      "type": "0x2",
      "effectiveGasPrice": "0xc1016caa"
    }
  ],
  "libraries": [],
  "pending": [],
  "returns": {},
  "timestamp": 1709980610,
  "chain": 11155111,
  "multi": false,
  "commit": "4230a88"
}