{
  "transactions": [
    {
      "hash": "0xc342718e8f2892914b5609f3d54eda0e4ff83c6249bcd03a7dbe60bffe4d2aaf",
      "transactionType": "CALL",
      "contractName": "MocaTokenAdapter",
      "contractAddress": "0xb440A7367DfEB307Cb2E7e3Cb80625157126A5CA",
      "function": "setPeer(uint32,bytes32)",
      "arguments": [
        "40109",
        "0x000000000000000000000000e415dca40e5587af6dec72683a55ebeba911ba6e"
      ],
      "transaction": {
        "type": "0x02",
        "from": "0xde05a1abb121113a33eed248bd91ddc254d5e9db",
        "to": "0xb440a7367dfeb307cb2e7e3cb80625157126a5ca",
        "gas": "0x1016a",
        "value": "0x0",
        "data": "0x3400288b0000000000000000000000000000000000000000000000000000000000009cad000000000000000000000000e415dca40e5587af6dec72683a55ebeba911ba6e",
        "nonce": "0x107",
        "accessList": []
      },
      "additionalContracts": [],
      "isFixedGasLimit": false
    }
  ],
  "receipts": [
    {
      "transactionHash": "0xc342718e8f2892914b5609f3d54eda0e4ff83c6249bcd03a7dbe60bffe4d2aaf",
      "transactionIndex": "0x7",
      "blockHash": "0x50bbca0f3b1c18bfe3b6cf6cd3f3cfbc5f540317447eb97cd268bccf652f0898",
      "blockNumber": "0x548fe8",
      "from": "0xdE05a1Abb121113a33eeD248BD91ddC254d5E9Db",
      "to": "0xb440A7367DfEB307Cb2E7e3Cb80625157126A5CA",
      "cumulativeGasUsed": "0x2f896",
      "gasUsed": "0xba5e",
      "contractAddress": null,
      "logs": [
        {
          "address": "0xb440A7367DfEB307Cb2E7e3Cb80625157126A5CA",
          "topics": [
            "0x238399d427b947898edb290f5ff0f9109849b1c3ba196a42e35f00c50a54b98b"
          ],
          "data": "0x0000000000000000000000000000000000000000000000000000000000009cad000000000000000000000000e415dca40e5587af6dec72683a55ebeba911ba6e",
          "blockHash": "0x50bbca0f3b1c18bfe3b6cf6cd3f3cfbc5f540317447eb97cd268bccf652f0898",
          "blockNumber": "0x548fe8",
          "transactionHash": "0xc342718e8f2892914b5609f3d54eda0e4ff83c6249bcd03a7dbe60bffe4d2aaf",
          "transactionIndex": "0x7",
          "logIndex": "0x0",
          "removed": false
        }
      ],
      "status": "0x1",
      "logsBloom": "0x00000000000000000000000000000000000000000000000000000000000000000000040000000000000000000000000000000000000000000800000000000000000000000000000000000000000000000000000000000000000000000000000000000000000000000000000000000000000000000000008000000000000000000000000000000000000000000000000000000000000000000000000000000000000000000000000000000000000000000000000000000000000002000000000100000000000000000000000000000000000000000000000000040000000000000000000000000000000000000000000000000000000000000000000000000000",
      "type": "0x2",
      "effectiveGasPrice": "0xb2d05e36"
    }
  ],
  "libraries": [],
  "pending": [],
  "returns": {},
  "timestamp": 1711161866,
  "chain": 11155111,
  "commit": "847784f"
}