{
  "transactions": [
    {
      "hash": "0xd8c43aba5f50cfa9172df2e4dbb2acb118e6f9fda9e207dfc016f80e7b220de8",
      "transactionType": "CALL",
      "contractName": "MocaToken",
      "contractAddress": "0x9B3AD6340a158e6Ce8aC7176eC529D699F40A806",
      "function": "approve(address,uint256)",
      "arguments": [
        "0xD890Cd7CFb5e9aeda39Fa4A3FAf07CeB0B015F3c",
        "1000000000000000000"
      ],
      "transaction": {
        "type": "0x02",
        "from": "0xde05a1abb121113a33eed248bd91ddc254d5e9db",
        "to": "0x9b3ad6340a158e6ce8ac7176ec529d699f40a806",
        "gas": "0x1090a",
        "value": "0x0",
        "data": "0x095ea7b3000000000000000000000000d890cd7cfb5e9aeda39fa4a3faf07ceb0b015f3c0000000000000000000000000000000000000000000000000de0b6b3a7640000",
        "nonce": "0x8c",
        "accessList": []
      },
      "additionalContracts": [],
      "isFixedGasLimit": false
    },
    {
      "hash": "0x4c6cf8fc4dc1ca4b4e75006ff7867184d2fd782e0bdfd34d7cb8cab0fd602e10",
      "transactionType": "CALL",
      "contractName": "MocaTokenAdaptor",
      "contractAddress": "0xD890Cd7CFb5e9aeda39Fa4A3FAf07CeB0B015F3c",
      "function": "send((uint32,bytes32,uint256,uint256,bytes,bytes,bytes),(uint256,uint256),address)",
      "arguments": [
        "(40109, 0x000000000000000000000000de05a1abb121113a33eed248bd91ddc254d5e9db, 1000000000000000000, 1000000000000000000, 0x, 0x, 0x)",
        "(61093429224299, 0)",
        "0xdE05a1Abb121113a33eeD248BD91ddC254d5E9Db"
      ],
      "transaction": {
        "type": "0x02",
        "from": "0xde05a1abb121113a33eed248bd91ddc254d5e9db",
        "to": "0xd890cd7cfb5e9aeda39fa4a3faf07ceb0b015f3c",
        "gas": "0x51625",
        "value": "0x37906c25a36b",
        "data": "0xc7c7f5b30000000000000000000000000000000000000000000000000000000000000080000000000000000000000000000000000000000000000000000037906c25a36b0000000000000000000000000000000000000000000000000000000000000000000000000000000000000000de05a1abb121113a33eed248bd91ddc254d5e9db0000000000000000000000000000000000000000000000000000000000009cad000000000000000000000000de05a1abb121113a33eed248bd91ddc254d5e9db0000000000000000000000000000000000000000000000000de0b6b3a76400000000000000000000000000000000000000000000000000000de0b6b3a764000000000000000000000000000000000000000000000000000000000000000000e000000000000000000000000000000000000000000000000000000000000001000000000000000000000000000000000000000000000000000000000000000120000000000000000000000000000000000000000000000000000000000000000000000000000000000000000000000000000000000000000000000000000000000000000000000000000000000000000000000000000000000000000000000000",
        "nonce": "0x8d",
        "accessList": []
      },
      "additionalContracts": [],
      "isFixedGasLimit": false
    }
  ],
  "receipts": [
    {
      "transactionHash": "0xd8c43aba5f50cfa9172df2e4dbb2acb118e6f9fda9e207dfc016f80e7b220de8",
      "transactionIndex": "0x1b",
      "blockHash": "0x63cb08652cfea9ffcc7b8330b9e90c3be63dbf85c6667e7c9a4d390eb3302c4a",
      "blockNumber": "0x531c49",
      "from": "0xdE05a1Abb121113a33eeD248BD91ddC254d5E9Db",
      "to": "0x9B3AD6340a158e6Ce8aC7176eC529D699F40A806",
      "cumulativeGasUsed": "0xbbc86",
      "gasUsed": "0xb53a",
      "contractAddress": null,
      "logs": [
        {
          "address": "0x9B3AD6340a158e6Ce8aC7176eC529D699F40A806",
          "topics": [
            "0x8c5be1e5ebec7d5bd14f71427d1e84f3dd0314c0f7b2291e5b200ac8c7c3b925",
            "0x000000000000000000000000de05a1abb121113a33eed248bd91ddc254d5e9db",
            "0x000000000000000000000000d890cd7cfb5e9aeda39fa4a3faf07ceb0b015f3c"
          ],
          "data": "0x0000000000000000000000000000000000000000000000000de0b6b3a7640000",
          "blockHash": "0x63cb08652cfea9ffcc7b8330b9e90c3be63dbf85c6667e7c9a4d390eb3302c4a",
          "blockNumber": "0x531c49",
          "transactionHash": "0xd8c43aba5f50cfa9172df2e4dbb2acb118e6f9fda9e207dfc016f80e7b220de8",
          "transactionIndex": "0x1b",
          "logIndex": "0x4",
          "removed": false
        }
      ],
      "status": "0x1",
      "logsBloom": "0x00000000000000000000000000000000000000000000000000100000400000000000000000000000000000000000000000000000000000000000000000600000000000000000000000000000000000000000000000000000000000000000000000000000000000000000000000000000000000000000004000000000000000000000000000000020000000000000000800000000000000000000000000000000020000000000000000000000000000000000000100000000000000000000080000000000000000000000000000000000000000000000000000000000000000000010000000000000000000000000000000000000000000000000000000000040",
      "type": "0x2",
      "effectiveGasPrice": "0xb995bfed"
    },
    {
      "transactionHash": "0x4c6cf8fc4dc1ca4b4e75006ff7867184d2fd782e0bdfd34d7cb8cab0fd602e10",
      "transactionIndex": "0x1c",
      "blockHash": "0x63cb08652cfea9ffcc7b8330b9e90c3be63dbf85c6667e7c9a4d390eb3302c4a",
      "blockNumber": "0x531c49",
      "from": "0xdE05a1Abb121113a33eeD248BD91ddC254d5E9Db",
      "to": "0xD890Cd7CFb5e9aeda39Fa4A3FAf07CeB0B015F3c",
      "cumulativeGasUsed": "0xf6b42",
      "gasUsed": "0x3aebc",
      "contractAddress": null,
      "logs": [
        {
          "address": "0x9B3AD6340a158e6Ce8aC7176eC529D699F40A806",
          "topics": [
            "0xddf252ad1be2c89b69c2b068fc378daa952ba7f163c4a11628f55a4df523b3ef",
            "0x000000000000000000000000de05a1abb121113a33eed248bd91ddc254d5e9db",
            "0x000000000000000000000000d890cd7cfb5e9aeda39fa4a3faf07ceb0b015f3c"
          ],
          "data": "0x0000000000000000000000000000000000000000000000000de0b6b3a7640000",
          "blockHash": "0x63cb08652cfea9ffcc7b8330b9e90c3be63dbf85c6667e7c9a4d390eb3302c4a",
          "blockNumber": "0x531c49",
          "transactionHash": "0x4c6cf8fc4dc1ca4b4e75006ff7867184d2fd782e0bdfd34d7cb8cab0fd602e10",
          "transactionIndex": "0x1c",
          "logIndex": "0x5",
          "removed": false
        },
        {
          "address": "0xcc1ae8Cf5D3904Cef3360A9532B477529b177cCE",
          "topics": [
            "0x61ed099e74a97a1d7f8bb0952a88ca8b7b8ebd00c126ea04671f92a81213318a"
          ],
          "data": "0x000000000000000000000000718b92b5cb0a5552039b593faf724d182a881eda0000000000000000000000000000000000000000000000000000344946ae0be1",
          "blockHash": "0x63cb08652cfea9ffcc7b8330b9e90c3be63dbf85c6667e7c9a4d390eb3302c4a",
          "blockNumber": "0x531c49",
          "transactionHash": "0x4c6cf8fc4dc1ca4b4e75006ff7867184d2fd782e0bdfd34d7cb8cab0fd602e10",
          "transactionIndex": "0x1c",
          "logIndex": "0x6",
          "removed": false
        },
        {
          "address": "0xcc1ae8Cf5D3904Cef3360A9532B477529b177cCE",
          "topics": [
            "0x07ea52d82345d6e838192107d8fd7123d9c2ec8e916cd0aad13fd2b60db24644"
          ],
          "data": "0x000000000000000000000000000000000000000000000000000000000000006000000000000000000000000000000000000000000000000000000000000000a000000000000000000000000000000000000000000000000000000000000000c000000000000000000000000000000000000000000000000000000000000000010000000000000000000000008eebf8b423b73bfca51a1db4b7354aa0bfca919300000000000000000000000000000000000000000000000000000000000000000000000000000000000000000000000000000000000000000000000000000001000000000000000000000000000000000000000000000000000003472577978a",
          "blockHash": "0x63cb08652cfea9ffcc7b8330b9e90c3be63dbf85c6667e7c9a4d390eb3302c4a",
          "blockNumber": "0x531c49",
          "transactionHash": "0x4c6cf8fc4dc1ca4b4e75006ff7867184d2fd782e0bdfd34d7cb8cab0fd602e10",
          "transactionIndex": "0x1c",
          "logIndex": "0x7",
          "removed": false
        },
        {
          "address": "0x6EDCE65403992e310A62460808c4b910D972f10f",
          "topics": [
            "0x1ab700d4ced0c005b164c0f789fd09fcbb0156d4c2041b8a3bfbcd961cd1567f"
          ],
          "data": "0x00000000000000000000000000000000000000000000000000000000000000600000000000000000000000000000000000000000000000000000000000000120000000000000000000000000cc1ae8cf5d3904cef3360a9532b477529b177cce000000000000000000000000000000000000000000000000000000000000009901000000000000000200009ce1000000000000000000000000d890cd7cfb5e9aeda39fa4a3faf07ceb0b015f3c00009cad0000000000000000000000008c979ef6a647c91f56654580f1c740c9f047edb20a060da5756ed43377f38f4d19140daf1d7e8e5fa93b8a8af9b9ab8682bc7a3f000000000000000000000000de05a1abb121113a33eed248bd91ddc254d5e9db00000000000f424000000000000000000000000000000000000000000000000000000000000000000000000000001600030100110100000000000000000000000000030d4000000000000000000000",
          "blockHash": "0x63cb08652cfea9ffcc7b8330b9e90c3be63dbf85c6667e7c9a4d390eb3302c4a",
          "blockNumber": "0x531c49",
          "transactionHash": "0x4c6cf8fc4dc1ca4b4e75006ff7867184d2fd782e0bdfd34d7cb8cab0fd602e10",
          "transactionIndex": "0x1c",
          "logIndex": "0x8",
          "removed": false
        },
        {
          "address": "0xD890Cd7CFb5e9aeda39Fa4A3FAf07CeB0B015F3c",
          "topics": [
            "0xfff873bb909b73d08a8c1af4b21779e87103bb8ea8cf3b3a0067eb8526b8b80a",
            "0x0a060da5756ed43377f38f4d19140daf1d7e8e5fa93b8a8af9b9ab8682bc7a3f",
            "0x000000000000000000000000de05a1abb121113a33eed248bd91ddc254d5e9db"
          ],
          "data": "0x0000000000000000000000000000000000000000000000000000000000009cad0000000000000000000000000000000000000000000000000de0b6b3a7640000",
          "blockHash": "0x63cb08652cfea9ffcc7b8330b9e90c3be63dbf85c6667e7c9a4d390eb3302c4a",
          "blockNumber": "0x531c49",
          "transactionHash": "0x4c6cf8fc4dc1ca4b4e75006ff7867184d2fd782e0bdfd34d7cb8cab0fd602e10",
          "transactionIndex": "0x1c",
          "logIndex": "0x9",
          "removed": false
        }
      ],
      "status": "0x1",
      "logsBloom": "0x00000000000000000000000000000000000000000000000030100000400100000000004000000000200400000080000000000000000000000000000000400000000000000000000000000008000000000000000002000000000000000000000000000000000000008200000000000001000000000000004000000010000000000000000000000020000000080000000800000000000000000000000000000000000000008000000000100000000000000000000100400000000440000000080000000002000000000000000000000200400000080000000000000000000000000000040000000000000000000000002000000000000000000000000000000060",
      "type": "0x2",
      "effectiveGasPrice": "0xb995bfed"
    }
  ],
  "libraries": [],
  "pending": [],
  "returns": {},
  "timestamp": 1709958740,
  "chain": 11155111,
  "multi": false,
  "commit": "0fb095c"
}