{
  "transactions": [
    {
      "hash": "0x41f040de4afaa153abdb274ca99bdbd92958451a739ad01a5d5636b784efafce",
      "transactionType": "CALL",
      "contractName": "MocaTokenAdaptor",
      "contractAddress": "0x4114eCCadF3b248DA9EEe7D8dF2d3bA6bB02Cbcd",
      "function": "setPeer(uint32,bytes32)",
      "arguments": [
        "40109",
        "0x00000000000000000000000036f035ffded310bb29ca90a0a11153c6d52f865a"
      ],
      "transaction": {
        "type": "0x02",
        "from": "0xde05a1abb121113a33eed248bd91ddc254d5e9db",
        "to": "0x4114eccadf3b248da9eee7d8df2d3ba6bb02cbcd",
        "gas": "0x1014c",
        "value": "0x0",
        "data": "0x3400288b0000000000000000000000000000000000000000000000000000000000009cad00000000000000000000000036f035ffded310bb29ca90a0a11153c6d52f865a",
        "nonce": "0x11",
        "accessList": []
      },
      "additionalContracts": [],
      "isFixedGasLimit": false
    }
  ],
  "receipts": [
    {
      "transactionHash": "0x41f040de4afaa153abdb274ca99bdbd92958451a739ad01a5d5636b784efafce",
      "transactionIndex": "0xf",
      "blockHash": "0xd35a7c96d09dfb89ba668bb7ad556bcfdf169bf066f9fd76d37f3426e47de40d",
      "blockNumber": "0x5211ab",
      "from": "0xdE05a1Abb121113a33eeD248BD91ddC254d5E9Db",
      "to": "0x4114eCCadF3b248DA9EEe7D8dF2d3bA6bB02Cbcd",
      "cumulativeGasUsed": "0xcc75a",
      "gasUsed": "0xba48",
      "contractAddress": null,
      "logs": [
        {
          "address": "0x4114eCCadF3b248DA9EEe7D8dF2d3bA6bB02Cbcd",
          "topics": [
            "0x238399d427b947898edb290f5ff0f9109849b1c3ba196a42e35f00c50a54b98b"
          ],
          "data": "0x0000000000000000000000000000000000000000000000000000000000009cad00000000000000000000000036f035ffded310bb29ca90a0a11153c6d52f865a",
          "blockHash": "0xd35a7c96d09dfb89ba668bb7ad556bcfdf169bf066f9fd76d37f3426e47de40d",
          "blockNumber": "0x5211ab",
          "transactionHash": "0x41f040de4afaa153abdb274ca99bdbd92958451a739ad01a5d5636b784efafce",
          "transactionIndex": "0xf",
          "logIndex": "0xc",
          "removed": false
        }
      ],
      "status": "0x1",
      "logsBloom": "0x00000000000000000000000000000000000000000000000004000000000000000000000000000000000000000000000000000000000000000800000000000000000000000000000000000000000000000000000000000000000000000000000000000000000000000000000000000000000000000000000000000000000000000000000000000000000000000000000000000000000000000000000000000000000000000000000000000000000000000000020000000000000002000000000000000000000000000000000000000000000000000000000000040000000000000000000000000000000000000000000000000000000000001000000000000000",
      "type": "0x2",
      "effectiveGasPrice": "0xc8d11341"
    }
  ],
  "libraries": [],
  "pending": [],
  "returns": {},
  "timestamp": 1709095237,
  "chain": 11155111,
  "multi": false,
  "commit": "e19d0a3"
}