{
  "transactions": [
    {
      "hash": "0x801fd215f13869a0c16429748c3bcbfc7556447bfca82fc0e72953b53c8202c4",
      "transactionType": "CALL",
      "contractName": "MocaToken",
      "contractAddress": "0x9B3AD6340a158e6Ce8aC7176eC529D699F40A806",
      "function": "approve(address,uint256)",
      "arguments": [
        "0xD890Cd7CFb5e9aeda39Fa4A3FAf07CeB0B015F3c",
        "1000000000000000000"
      ],
      "transaction": {
        "type": "0x02",
        "from": "0xde05a1abb121113a33eed248bd91ddc254d5e9db",
        "to": "0x9b3ad6340a158e6ce8ac7176ec529d699f40a806",
        "gas": "0x8ef1",
        "value": "0x0",
        "data": "0x095ea7b3000000000000000000000000d890cd7cfb5e9aeda39fa4a3faf07ceb0b015f3c0000000000000000000000000000000000000000000000000de0b6b3a7640000",
        "nonce": "0x92",
        "accessList": []
      },
      "additionalContracts": [],
      "isFixedGasLimit": false
    },
    {
      "hash": "0xe19e9d65441a71de53719352f5a0983cee4ae3a2c044eada9c15e5ca6a54bf8e",
      "transactionType": "CALL",
      "contractName": "MocaTokenAdaptor",
      "contractAddress": "0xD890Cd7CFb5e9aeda39Fa4A3FAf07CeB0B015F3c",
      "function": "send((uint32,bytes32,uint256,uint256,bytes,bytes,bytes),(uint256,uint256),address)",
      "arguments": [
        "(40109, 0x000000000000000000000000de05a1abb121113a33eed248bd91ddc254d5e9db, 1000000000000000000, 1000000000000000000, 0x0003010031020000000000000000001550f7dca70000000000000000000000000000de05a1abb121113a33eed248bd91ddc254d5e9db, 0x, 0x)",
        "(67918890376201, 0)",
        "0xdE05a1Abb121113a33eeD248BD91ddC254d5E9Db"
      ],
      "transaction": {
        "type": "0x02",
        "from": "0xde05a1abb121113a33eed248bd91ddc254d5e9db",
        "to": "0xd890cd7cfb5e9aeda39fa4a3faf07ceb0b015f3c",
        "gas": "0x52fca",
        "value": "0x3dc599559c09",
        "data": "0xc7c7f5b3000000000000000000000000000000000000000000000000000000000000008000000000000000000000000000000000000000000000000000003dc599559c090000000000000000000000000000000000000000000000000000000000000000000000000000000000000000de05a1abb121113a33eed248bd91ddc254d5e9db0000000000000000000000000000000000000000000000000000000000009cad000000000000000000000000de05a1abb121113a33eed248bd91ddc254d5e9db0000000000000000000000000000000000000000000000000de0b6b3a76400000000000000000000000000000000000000000000000000000de0b6b3a764000000000000000000000000000000000000000000000000000000000000000000e00000000000000000000000000000000000000000000000000000000000000140000000000000000000000000000000000000000000000000000000000000016000000000000000000000000000000000000000000000000000000000000000360003010031020000000000000000001550f7dca70000000000000000000000000000de05a1abb121113a33eed248bd91ddc254d5e9db0000000000000000000000000000000000000000000000000000000000000000000000000000000000000000000000000000000000000000000000000000000000000000000000000000",
        "nonce": "0x93",
        "accessList": []
      },
      "additionalContracts": [],
      "isFixedGasLimit": false
    }
  ],
  "receipts": [
    {
      "transactionHash": "0x801fd215f13869a0c16429748c3bcbfc7556447bfca82fc0e72953b53c8202c4",
      "transactionIndex": "0x6",
      "blockHash": "0x257f98883b8e32d8cd22da6be023a6d085638f63c1a31f7c8ae1d0ccde590be1",
      "blockNumber": "0x531cb0",
      "from": "0xdE05a1Abb121113a33eeD248BD91ddC254d5E9Db",
      "to": "0x9B3AD6340a158e6Ce8aC7176eC529D699F40A806",
      "cumulativeGasUsed": "0x253ae",
      "gasUsed": "0x677e",
      "contractAddress": null,
      "logs": [
        {
          "address": "0x9B3AD6340a158e6Ce8aC7176eC529D699F40A806",
          "topics": [
            "0x8c5be1e5ebec7d5bd14f71427d1e84f3dd0314c0f7b2291e5b200ac8c7c3b925",
            "0x000000000000000000000000de05a1abb121113a33eed248bd91ddc254d5e9db",
            "0x000000000000000000000000d890cd7cfb5e9aeda39fa4a3faf07ceb0b015f3c"
          ],
          "data": "0x0000000000000000000000000000000000000000000000000de0b6b3a7640000",
          "blockHash": "0x257f98883b8e32d8cd22da6be023a6d085638f63c1a31f7c8ae1d0ccde590be1",
          "blockNumber": "0x531cb0",
          "transactionHash": "0x801fd215f13869a0c16429748c3bcbfc7556447bfca82fc0e72953b53c8202c4",
          "transactionIndex": "0x6",
          "logIndex": "0x0",
          "removed": false
        }
      ],
      "status": "0x1",
      "logsBloom": "0x00000000000000000000000000000000000000000000000000100000400000000000000000000000000000000000000000000000000000000000000000600000000000000000000000000000000000000000000000000000000000000000000000000000000000000000000000000000000000000000004000000000000000000000000000000020000000000000000800000000000000000000000000000000020000000000000000000000000000000000000100000000000000000000080000000000000000000000000000000000000000000000000000000000000000000010000000000000000000000000000000000000000000000000000000000040",
      "type": "0x2",
      "effectiveGasPrice": "0xbf6d45ae"
    },
    {
      "transactionHash": "0xe19e9d65441a71de53719352f5a0983cee4ae3a2c044eada9c15e5ca6a54bf8e",
      "transactionIndex": "0x7",
      "blockHash": "0x257f98883b8e32d8cd22da6be023a6d085638f63c1a31f7c8ae1d0ccde590be1",
      "blockNumber": "0x531cb0",
      "from": "0xdE05a1Abb121113a33eeD248BD91ddC254d5E9Db",
      "to": "0xD890Cd7CFb5e9aeda39Fa4A3FAf07CeB0B015F3c",
      "cumulativeGasUsed": "0x614fb",
      "gasUsed": "0x3c14d",
      "contractAddress": null,
      "logs": [
        {
          "address": "0x9B3AD6340a158e6Ce8aC7176eC529D699F40A806",
          "topics": [
            "0xddf252ad1be2c89b69c2b068fc378daa952ba7f163c4a11628f55a4df523b3ef",
            "0x000000000000000000000000de05a1abb121113a33eed248bd91ddc254d5e9db",
            "0x000000000000000000000000d890cd7cfb5e9aeda39fa4a3faf07ceb0b015f3c"
          ],
          "data": "0x0000000000000000000000000000000000000000000000000de0b6b3a7640000",
          "blockHash": "0x257f98883b8e32d8cd22da6be023a6d085638f63c1a31f7c8ae1d0ccde590be1",
          "blockNumber": "0x531cb0",
          "transactionHash": "0xe19e9d65441a71de53719352f5a0983cee4ae3a2c044eada9c15e5ca6a54bf8e",
          "transactionIndex": "0x7",
          "logIndex": "0x1",
          "removed": false
        },
        {
          "address": "0xcc1ae8Cf5D3904Cef3360A9532B477529b177cCE",
          "topics": [
            "0x61ed099e74a97a1d7f8bb0952a88ca8b7b8ebd00c126ea04671f92a81213318a"
          ],
          "data": "0x000000000000000000000000718b92b5cb0a5552039b593faf724d182a881eda000000000000000000000000000000000000000000000000000039643d30846b",
          "blockHash": "0x257f98883b8e32d8cd22da6be023a6d085638f63c1a31f7c8ae1d0ccde590be1",
          "blockNumber": "0x531cb0",
          "transactionHash": "0xe19e9d65441a71de53719352f5a0983cee4ae3a2c044eada9c15e5ca6a54bf8e",
          "transactionIndex": "0x7",
          "logIndex": "0x2",
          "removed": false
        },
        {
          "address": "0xcc1ae8Cf5D3904Cef3360A9532B477529b177cCE",
          "topics": [
            "0x07ea52d82345d6e838192107d8fd7123d9c2ec8e916cd0aad13fd2b60db24644"
          ],
          "data": "0x000000000000000000000000000000000000000000000000000000000000006000000000000000000000000000000000000000000000000000000000000000a000000000000000000000000000000000000000000000000000000000000000c000000000000000000000000000000000000000000000000000000000000000010000000000000000000000008eebf8b423b73bfca51a1db4b7354aa0bfca919300000000000000000000000000000000000000000000000000000000000000000000000000000000000000000000000000000000000000000000000000000001000000000000000000000000000000000000000000000000000004615c25179e",
          "blockHash": "0x257f98883b8e32d8cd22da6be023a6d085638f63c1a31f7c8ae1d0ccde590be1",
          "blockNumber": "0x531cb0",
          "transactionHash": "0xe19e9d65441a71de53719352f5a0983cee4ae3a2c044eada9c15e5ca6a54bf8e",
          "transactionIndex": "0x7",
          "logIndex": "0x3",
          "removed": false
        },
        {
          "address": "0x6EDCE65403992e310A62460808c4b910D972f10f",
          "topics": [
            "0x1ab700d4ced0c005b164c0f789fd09fcbb0156d4c2041b8a3bfbcd961cd1567f"
          ],
          "data": "0x00000000000000000000000000000000000000000000000000000000000000600000000000000000000000000000000000000000000000000000000000000120000000000000000000000000cc1ae8cf5d3904cef3360a9532b477529b177cce000000000000000000000000000000000000000000000000000000000000009901000000000000000300009ce1000000000000000000000000d890cd7cfb5e9aeda39fa4a3faf07ceb0b015f3c00009cad0000000000000000000000008c979ef6a647c91f56654580f1c740c9f047edb29c336f1bd6d7f14bcb5a997b9eeb168784bd2e7a37b23c45a45598acc93a661a000000000000000000000000de05a1abb121113a33eed248bd91ddc254d5e9db00000000000f424000000000000000000000000000000000000000000000000000000000000000000000000000004a00030100110100000000000000000000000000030d40010031020000000000000000001550f7dca70000000000000000000000000000de05a1abb121113a33eed248bd91ddc254d5e9db00000000000000000000000000000000000000000000",
          "blockHash": "0x257f98883b8e32d8cd22da6be023a6d085638f63c1a31f7c8ae1d0ccde590be1",
          "blockNumber": "0x531cb0",
          "transactionHash": "0xe19e9d65441a71de53719352f5a0983cee4ae3a2c044eada9c15e5ca6a54bf8e",
          "transactionIndex": "0x7",
          "logIndex": "0x4",
          "removed": false
        },
        {
          "address": "0xD890Cd7CFb5e9aeda39Fa4A3FAf07CeB0B015F3c",
          "topics": [
            "0xfff873bb909b73d08a8c1af4b21779e87103bb8ea8cf3b3a0067eb8526b8b80a",
            "0x9c336f1bd6d7f14bcb5a997b9eeb168784bd2e7a37b23c45a45598acc93a661a",
            "0x000000000000000000000000de05a1abb121113a33eed248bd91ddc254d5e9db"
          ],
          "data": "0x0000000000000000000000000000000000000000000000000000000000009cad0000000000000000000000000000000000000000000000000de0b6b3a7640000",
          "blockHash": "0x257f98883b8e32d8cd22da6be023a6d085638f63c1a31f7c8ae1d0ccde590be1",
          "blockNumber": "0x531cb0",
          "transactionHash": "0xe19e9d65441a71de53719352f5a0983cee4ae3a2c044eada9c15e5ca6a54bf8e",
          "transactionIndex": "0x7",
          "logIndex": "0x5",
          "removed": false
        }
      ],
      "status": "0x1",
      "logsBloom": "0x00000000000000000000000000000000000000000000000030100000400100000000000000000000200400000080000000000000000000000000000010400000000000000000000000000008000000000000000002000000001000000000000000000000000000008200000000000000000000000000004000000010000000000000000000000020000000080000000880000000000000000000000000000000000000008000000000100000000000000000000100400000000440000000080000000002000000000000000000000200000000080000000000000000000000000000040000000000000000000000002000000000000000000000000000000060",
      "type": "0x2",
      "effectiveGasPrice": "0xbf6d45ae"
    }
  ],
  "libraries": [],
  "pending": [],
  "returns": {},
  "timestamp": 1709959973,
  "chain": 11155111,
  "multi": false,
  "commit": "0fb095c"
}