{
  "transactions": [
    {
      "hash": "0x0fe24231ddd8a548fef26233f169040512ea7ce3b04a47bd1ea4c6d06ab80a12",
      "transactionType": "CALL",
      "contractName": "MocaTokenAdaptor",
      "contractAddress": "0x28B4c6D63C338fE1d82b7Cde98239a33aA5DFca4",
      "function": "setPeer(uint32,bytes32)",
      "arguments": [
        "40109",
        "0x0000000000000000000000002525427274ee7ba2dbabffa4c813f1630d7af504"
      ],
      "transaction": {
        "type": "0x02",
        "from": "0xde05a1abb121113a33eed248bd91ddc254d5e9db",
        "to": "0x28b4c6d63c338fe1d82b7cde98239a33aa5dfca4",
        "gas": "0x10cd8",
        "value": "0x0",
        "data": "0x3400288b0000000000000000000000000000000000000000000000000000000000009cad0000000000000000000000002525427274ee7ba2dbabffa4c813f1630d7af504",
        "nonce": "0x69",
        "accessList": []
      },
      "additionalContracts": [],
      "isFixedGasLimit": false
    }
  ],
  "receipts": [],
  "libraries": [],
  "pending": [
    "0x0fe24231ddd8a548fef26233f169040512ea7ce3b04a47bd1ea4c6d06ab80a12"
  ],
  "returns": {},
  "timestamp": 1709952450,
  "chain": 11155111,
  "multi": false,
  "commit": "0fb095c"
}