{
  "transactions": [
    {
      "hash": "0x5e97034bf8f66537593d9030caae7bcaf03dfa085c0cf58d3272cf36f28af388",
      "transactionType": "CALL",
      "contractName": "MocaTokenAdaptor",
      "contractAddress": "0xD890Cd7CFb5e9aeda39Fa4A3FAf07CeB0B015F3c",
      "function": "setPeer(uint32,bytes32)",
      "arguments": [
        "40109",
        "0x0000000000000000000000008c979ef6a647c91f56654580f1c740c9f047edb2"
      ],
      "transaction": {
        "type": "0x02",
        "from": "0xde05a1abb121113a33eed248bd91ddc254d5e9db",
        "to": "0xd890cd7cfb5e9aeda39fa4a3faf07ceb0b015f3c",
        "gas": "0x10cd8",
        "value": "0x0",
        "data": "0x3400288b0000000000000000000000000000000000000000000000000000000000009cad0000000000000000000000008c979ef6a647c91f56654580f1c740c9f047edb2",
        "nonce": "0x83",
        "accessList": []
      },
      "additionalContracts": [],
      "isFixedGasLimit": false
    }
  ],
  "receipts": [],
  "libraries": [],
  "pending": [
    "0x5e97034bf8f66537593d9030caae7bcaf03dfa085c0cf58d3272cf36f28af388"
  ],
  "returns": {},
  "timestamp": 1709955591,
  "chain": 11155111,
  "multi": false,
  "commit": "0fb095c"
}