{
  "transactions": [
    {
      "hash": "0x4c24b09fa244fe51d81399a5b1e5ea290482cbe706d293d942ed5b8dedc761aa",
      "transactionType": "CALL",
      "contractName": "MocaTokenAdapter",
      "contractAddress": "0x5a9962874acA3b407aCeB14f64C7eF2C6255C880",
      "function": "setPeer(uint32,bytes32)",
      "arguments": [
        "40109",
        "0x000000000000000000000000aa7a95e597a65eb06dae4ed54f1b62e0535d9156"
      ],
      "transaction": {
        "type": "0x02",
        "from": "0xde05a1abb121113a33eed248bd91ddc254d5e9db",
        "to": "0x5a9962874aca3b407aceb14f64c7ef2c6255c880",
        "gas": "0x10d51",
        "value": "0x0",
        "data": "0x3400288b0000000000000000000000000000000000000000000000000000000000009cad000000000000000000000000aa7a95e597a65eb06dae4ed54f1b62e0535d9156",
        "nonce": "0xb3",
        "accessList": []
      },
      "additionalContracts": [],
      "isFixedGasLimit": false
    }
  ],
  "receipts": [],
  "libraries": [],
  "pending": [
    "0x4c24b09fa244fe51d81399a5b1e5ea290482cbe706d293d942ed5b8dedc761aa"
  ],
  "returns": {},
  "timestamp": 1710242745,
  "chain": 11155111,
  "multi": false,
  "commit": "88dccd9"
}