{
  "transactions": [
    {
      "hash": "0x71fae0892d7b2f08a2358af4939711c34234b369234119b47b8aed11de877635",
      "transactionType": "CALL",
      "contractName": "MocaToken",
      "contractAddress": "0xA2E400CE40C83270d8369eC971D0fc2e46D5056a",
      "function": "approve(address,uint256)",
      "arguments": [
        "0x5a9962874acA3b407aCeB14f64C7eF2C6255C880",
        "1000000000000000000"
      ],
      "transaction": {
        "type": "0x02",
        "from": "0xde05a1abb121113a33eed248bd91ddc254d5e9db",
        "to": "0xa2e400ce40c83270d8369ec971d0fc2e46d5056a",
        "gas": "0x1090a",
        "value": "0x0",
        "data": "0x095ea7b30000000000000000000000005a9962874aca3b407aceb14f64c7ef2c6255c8800000000000000000000000000000000000000000000000000de0b6b3a7640000",
        "nonce": "0xd1",
        "accessList": []
      },
      "additionalContracts": [],
      "isFixedGasLimit": false
    },
    {
      "hash": "0x090b8200316bff0eb4649eacddb5ca0249b5f00de82f6a75b9ee41c050b4dbc8",
      "transactionType": "CALL",
      "contractName": "MocaTokenAdapter",
      "contractAddress": "0x5a9962874acA3b407aCeB14f64C7eF2C6255C880",
      "function": "send((uint32,bytes32,uint256,uint256,bytes,bytes,bytes),(uint256,uint256),address)",
      "arguments": [
        "(40109, 0x000000000000000000000000de05a1abb121113a33eed248bd91ddc254d5e9db, 1000000000000000000, 1000000000000000000, 0x, 0x, 0x)",
        "(52519488256521, 0)",
        "0xdE05a1Abb121113a33eeD248BD91ddC254d5E9Db"
      ],
      "transaction": {
        "type": "0x02",
        "from": "0xde05a1abb121113a33eed248bd91ddc254d5e9db",
        "to": "0x5a9962874aca3b407aceb14f64c7ef2c6255c880",
        "gas": "0x51625",
        "value": "0x2fc42570fa09",
        "data": "0xc7c7f5b3000000000000000000000000000000000000000000000000000000000000008000000000000000000000000000000000000000000000000000002fc42570fa090000000000000000000000000000000000000000000000000000000000000000000000000000000000000000de05a1abb121113a33eed248bd91ddc254d5e9db0000000000000000000000000000000000000000000000000000000000009cad000000000000000000000000de05a1abb121113a33eed248bd91ddc254d5e9db0000000000000000000000000000000000000000000000000de0b6b3a76400000000000000000000000000000000000000000000000000000de0b6b3a764000000000000000000000000000000000000000000000000000000000000000000e000000000000000000000000000000000000000000000000000000000000001000000000000000000000000000000000000000000000000000000000000000120000000000000000000000000000000000000000000000000000000000000000000000000000000000000000000000000000000000000000000000000000000000000000000000000000000000000000000000000000000000000000000000000",
        "nonce": "0xd2",
        "accessList": []
      },
      "additionalContracts": [],
      "isFixedGasLimit": false
    }
  ],
  "receipts": [
    {
      "transactionHash": "0x71fae0892d7b2f08a2358af4939711c34234b369234119b47b8aed11de877635",
      "transactionIndex": "0x26",
      "blockHash": "0x761be092702ba1803d6b4bc09a02a1bd78d3bcf2c01ead342c8ad33e3f7babc0",
      "blockNumber": "0x53b9fc",
      "from": "0xdE05a1Abb121113a33eeD248BD91ddC254d5E9Db",
      "to": "0xA2E400CE40C83270d8369eC971D0fc2e46D5056a",
      "cumulativeGasUsed": "0xbc6afc",
      "gasUsed": "0xb53a",
      "contractAddress": null,
      "logs": [
        {
          "address": "0xA2E400CE40C83270d8369eC971D0fc2e46D5056a",
          "topics": [
            "0x8c5be1e5ebec7d5bd14f71427d1e84f3dd0314c0f7b2291e5b200ac8c7c3b925",
            "0x000000000000000000000000de05a1abb121113a33eed248bd91ddc254d5e9db",
            "0x0000000000000000000000005a9962874aca3b407aceb14f64c7ef2c6255c880"
          ],
          "data": "0x0000000000000000000000000000000000000000000000000de0b6b3a7640000",
          "blockHash": "0x761be092702ba1803d6b4bc09a02a1bd78d3bcf2c01ead342c8ad33e3f7babc0",
          "blockNumber": "0x53b9fc",
          "transactionHash": "0x71fae0892d7b2f08a2358af4939711c34234b369234119b47b8aed11de877635",
          "transactionIndex": "0x26",
          "logIndex": "0x104",
          "removed": false
        }
      ],
      "status": "0x1",
      "logsBloom": "0x00000000000000000000000000000000000000000000000000100000000000000000000000000000000000000000000000000000000000000000000000200000000000000000000000000000000000000004000000000000000000000000000000000000000000000000000000000000000000000000004001000000000008000000000000000020000000000000000000000000000000000000000000000000020000000000000000000000000000000000000000000000000000000000000000000000000000000000000000000000000400000000000400000000000000000010000000000000000000000000000000000000000000000000000040000000",
      "type": "0x2",
      "effectiveGasPrice": "0xb9ee5565"
    },
    {
      "transactionHash": "0x090b8200316bff0eb4649eacddb5ca0249b5f00de82f6a75b9ee41c050b4dbc8",
      "transactionIndex": "0x27",
      "blockHash": "0x761be092702ba1803d6b4bc09a02a1bd78d3bcf2c01ead342c8ad33e3f7babc0",
      "blockNumber": "0x53b9fc",
      "from": "0xdE05a1Abb121113a33eeD248BD91ddC254d5E9Db",
      "to": "0x5a9962874acA3b407aCeB14f64C7eF2C6255C880",
      "cumulativeGasUsed": "0xc019b8",
      "gasUsed": "0x3aebc",
      "contractAddress": null,
      "logs": [
        {
          "address": "0xA2E400CE40C83270d8369eC971D0fc2e46D5056a",
          "topics": [
            "0xddf252ad1be2c89b69c2b068fc378daa952ba7f163c4a11628f55a4df523b3ef",
            "0x000000000000000000000000de05a1abb121113a33eed248bd91ddc254d5e9db",
            "0x0000000000000000000000005a9962874aca3b407aceb14f64c7ef2c6255c880"
          ],
          "data": "0x0000000000000000000000000000000000000000000000000de0b6b3a7640000",
          "blockHash": "0x761be092702ba1803d6b4bc09a02a1bd78d3bcf2c01ead342c8ad33e3f7babc0",
          "blockNumber": "0x53b9fc",
          "transactionHash": "0x090b8200316bff0eb4649eacddb5ca0249b5f00de82f6a75b9ee41c050b4dbc8",
          "transactionIndex": "0x27",
          "logIndex": "0x105",
          "removed": false
        },
        {
          "address": "0xcc1ae8Cf5D3904Cef3360A9532B477529b177cCE",
          "topics": [
            "0x61ed099e74a97a1d7f8bb0952a88ca8b7b8ebd00c126ea04671f92a81213318a"
          ],
          "data": "0x000000000000000000000000718b92b5cb0a5552039b593faf724d182a881eda00000000000000000000000000000000000000000000000000002d60abf82da6",
          "blockHash": "0x761be092702ba1803d6b4bc09a02a1bd78d3bcf2c01ead342c8ad33e3f7babc0",
          "blockNumber": "0x53b9fc",
          "transactionHash": "0x090b8200316bff0eb4649eacddb5ca0249b5f00de82f6a75b9ee41c050b4dbc8",
          "transactionIndex": "0x27",
          "logIndex": "0x106",
          "removed": false
        },
        {
          "address": "0xcc1ae8Cf5D3904Cef3360A9532B477529b177cCE",
          "topics": [
            "0x07ea52d82345d6e838192107d8fd7123d9c2ec8e916cd0aad13fd2b60db24644"
          ],
          "data": "0x000000000000000000000000000000000000000000000000000000000000006000000000000000000000000000000000000000000000000000000000000000a000000000000000000000000000000000000000000000000000000000000000c000000000000000000000000000000000000000000000000000000000000000010000000000000000000000008eebf8b423b73bfca51a1db4b7354aa0bfca919300000000000000000000000000000000000000000000000000000000000000000000000000000000000000000000000000000000000000000000000000000001000000000000000000000000000000000000000000000000000002637978cc63",
          "blockHash": "0x761be092702ba1803d6b4bc09a02a1bd78d3bcf2c01ead342c8ad33e3f7babc0",
          "blockNumber": "0x53b9fc",
          "transactionHash": "0x090b8200316bff0eb4649eacddb5ca0249b5f00de82f6a75b9ee41c050b4dbc8",
          "transactionIndex": "0x27",
          "logIndex": "0x107",
          "removed": false
        },
        {
          "address": "0x6EDCE65403992e310A62460808c4b910D972f10f",
          "topics": [
            "0x1ab700d4ced0c005b164c0f789fd09fcbb0156d4c2041b8a3bfbcd961cd1567f"
          ],
          "data": "0x00000000000000000000000000000000000000000000000000000000000000600000000000000000000000000000000000000000000000000000000000000120000000000000000000000000cc1ae8cf5d3904cef3360a9532b477529b177cce000000000000000000000000000000000000000000000000000000000000009901000000000000000c00009ce10000000000000000000000005a9962874aca3b407aceb14f64c7ef2c6255c88000009cad000000000000000000000000aa7a95e597a65eb06dae4ed54f1b62e0535d9156369969f28254d158da92479bda1960cea5e24c4ef2e0f5d2a4a6740ecd1c4297000000000000000000000000de05a1abb121113a33eed248bd91ddc254d5e9db00000000000f424000000000000000000000000000000000000000000000000000000000000000000000000000001600030100110100000000000000000000000000030d4000000000000000000000",
          "blockHash": "0x761be092702ba1803d6b4bc09a02a1bd78d3bcf2c01ead342c8ad33e3f7babc0",
          "blockNumber": "0x53b9fc",
          "transactionHash": "0x090b8200316bff0eb4649eacddb5ca0249b5f00de82f6a75b9ee41c050b4dbc8",
          "transactionIndex": "0x27",
          "logIndex": "0x108",
          "removed": false
        },
        {
          "address": "0x5a9962874acA3b407aCeB14f64C7eF2C6255C880",
          "topics": [
            "0xfff873bb909b73d08a8c1af4b21779e87103bb8ea8cf3b3a0067eb8526b8b80a",
            "0x369969f28254d158da92479bda1960cea5e24c4ef2e0f5d2a4a6740ecd1c4297",
            "0x000000000000000000000000de05a1abb121113a33eed248bd91ddc254d5e9db"
          ],
          "data": "0x0000000000000000000000000000000000000000000000000000000000009cad0000000000000000000000000000000000000000000000000de0b6b3a7640000",
          "blockHash": "0x761be092702ba1803d6b4bc09a02a1bd78d3bcf2c01ead342c8ad33e3f7babc0",
          "blockNumber": "0x53b9fc",
          "transactionHash": "0x090b8200316bff0eb4649eacddb5ca0249b5f00de82f6a75b9ee41c050b4dbc8",
          "transactionIndex": "0x27",
          "logIndex": "0x109",
          "removed": false
        }
      ],
      "status": "0x1",
      "logsBloom": "0x00000000000000000000000000000000000000000000000030100000000100000000000000000000200000000080000000000000000000000044004000020000000000000000000000000008000000000004000000000000000000000000000000000000000000008200000000000000000000000000004001000010000008000000000000000020000000080000000000000000000000000000000000000000000000008000000000180000000000000000000000400000000440000000000000000002000000000000000000000000000400081000000400000000000000000000040000000000000000000000002000000000000000000000000040000020",
      "type": "0x2",
      "effectiveGasPrice": "0xb9ee5565"
    }
  ],
  "libraries": [],
  "pending": [],
  "returns": {},
  "timestamp": 1710457238,
  "chain": 11155111,
  "commit": "564059c"
}