{
  "transactions": [
    {
      "hash": "0x4c24b09fa244fe51d81399a5b1e5ea290482cbe706d293d942ed5b8dedc761aa",
      "transactionType": "CALL",
      "contractName": "MocaTokenAdapter",
      "contractAddress": "0x5a9962874acA3b407aCeB14f64C7eF2C6255C880",
      "function": "setPeer(uint32,bytes32)",
      "arguments": [
        "40109",
        "0x000000000000000000000000aa7a95e597a65eb06dae4ed54f1b62e0535d9156"
      ],
      "transaction": {
        "type": "0x02",
        "from": "0xde05a1abb121113a33eed248bd91ddc254d5e9db",
        "to": "0x5a9962874aca3b407aceb14f64c7ef2c6255c880",
        "gas": "0x10d51",
        "value": "0x0",
        "data": "0x3400288b0000000000000000000000000000000000000000000000000000000000009cad000000000000000000000000aa7a95e597a65eb06dae4ed54f1b62e0535d9156",
        "nonce": "0xb3",
        "accessList": []
      },
      "additionalContracts": [],
      "isFixedGasLimit": false
    }
  ],
  "receipts": [
    {
      "transactionHash": "0x4c24b09fa244fe51d81399a5b1e5ea290482cbe706d293d942ed5b8dedc761aa",
      "transactionIndex": "0x21",
      "blockHash": "0xf86edc2d34dc8aa456eadfffdf13e69fc45ae3a00c82eca14c52cc67b983ae0e",
      "blockNumber": "0x5377e0",
      "from": "0xdE05a1Abb121113a33eeD248BD91ddC254d5E9Db",
      "to": "0x5a9962874acA3b407aCeB14f64C7eF2C6255C880",
      "cumulativeGasUsed": "0x13f8d1",
      "gasUsed": "0xc2fc",
      "contractAddress": null,
      "logs": [
        {
          "address": "0x5a9962874acA3b407aCeB14f64C7eF2C6255C880",
          "topics": [
            "0x238399d427b947898edb290f5ff0f9109849b1c3ba196a42e35f00c50a54b98b"
          ],
          "data": "0x0000000000000000000000000000000000000000000000000000000000009cad000000000000000000000000aa7a95e597a65eb06dae4ed54f1b62e0535d9156",
          "blockHash": "0xf86edc2d34dc8aa456eadfffdf13e69fc45ae3a00c82eca14c52cc67b983ae0e",
          "blockNumber": "0x5377e0",
          "transactionHash": "0x4c24b09fa244fe51d81399a5b1e5ea290482cbe706d293d942ed5b8dedc761aa",
          "transactionIndex": "0x21",
          "logIndex": "0x8",
          "removed": false
        }
      ],
      "status": "0x1",
      "logsBloom": "0x00000000000000000000000000000000000000000000000000000000000000000000000000000000000000000000000000000000000000000804004000000000000000000000000000000000000000000000000000000000000000000000000000000000000000000000000000000000000000000000000000000000000000000000000000000000000000000000000000000000000000000000000000000000000000000000000000000000000000000000000000000000000002000000000000000000000000000000000000000000000000001000000000040000000000000000000000000000000000000000000000000000000000000000000000000000",
      "type": "0x2",
      "effectiveGasPrice": "0x1f8bedea8e"
    }
  ],
  "libraries": [],
  "pending": [],
  "returns": {},
  "timestamp": 1710242753,
  "chain": 11155111,
  "multi": false,
  "commit": "88dccd9"
}