{
  "transactions": [
    {
      "hash": "0xf3beb5a1ddcd105ca8f33f518cb933d7c32591f804b56cf4709e7042f2ab2d80",
      "transactionType": "CALL",
      "contractName": "MocaTokenAdaptor",
      "contractAddress": "0x4114eCCadF3b248DA9EEe7D8dF2d3bA6bB02Cbcd",
      "function": "setEnforcedOptions((uint32,uint16,bytes)[])",
      "arguments": [
        "[(40109, 1, 0x00030100110100000000000000000000000000030d40), (40161, 2, 0x000301001101000000000000000000000000000f4240)]"
      ],
      "transaction": {
        "type": "0x02",
        "from": "0xde05a1abb121113a33eed248bd91ddc254d5e9db",
        "to": "0x4114eccadf3b248da9eee7d8df2d3ba6bb02cbcd",
        "gas": "0x146d1",
        "value": "0x0",
        "data": "0xb98bd07000000000000000000000000000000000000000000000000000000000000000200000000000000000000000000000000000000000000000000000000000000002000000000000000000000000000000000000000000000000000000000000004000000000000000000000000000000000000000000000000000000000000000e00000000000000000000000000000000000000000000000000000000000009cad00000000000000000000000000000000000000000000000000000000000000010000000000000000000000000000000000000000000000000000000000000060000000000000000000000000000000000000000000000000000000000000001600030100110100000000000000000000000000030d40000000000000000000000000000000000000000000000000000000000000000000000000000000009ce1000000000000000000000000000000000000000000000000000000000000000200000000000000000000000000000000000000000000000000000000000000600000000000000000000000000000000000000000000000000000000000000016000301001101000000000000000000000000000f424000000000000000000000",
        "nonce": "0x30",
        "accessList": []
      },
      "additionalContracts": [],
      "isFixedGasLimit": false
    }
  ],
  "receipts": [],
  "libraries": [],
  "pending": [
    "0xf3beb5a1ddcd105ca8f33f518cb933d7c32591f804b56cf4709e7042f2ab2d80"
  ],
  "returns": {},
  "timestamp": 1709629754,
  "chain": 11155111,
  "multi": false,
  "commit": "5d3d96c"
}