{
  "transactions": [
    {
      "hash": "0x14d00cba09a8206cc29ae53eb47582a0220e388059a8a444d33df1b3a3e6741e",
      "transactionType": "CALL",
      "contractName": "MocaToken",
      "contractAddress": "0xA2E400CE40C83270d8369eC971D0fc2e46D5056a",
      "function": "approve(address,uint256)",
      "arguments": [
        "0x5a9962874acA3b407aCeB14f64C7eF2C6255C880",
        "1000000000000000000"
      ],
      "transaction": {
        "type": "0x02",
        "from": "0xde05a1abb121113a33eed248bd91ddc254d5e9db",
        "to": "0xa2e400ce40c83270d8369ec971d0fc2e46d5056a",
        "gas": "0x8ef1",
        "value": "0x0",
        "data": "0x095ea7b30000000000000000000000005a9962874aca3b407aceb14f64c7ef2c6255c8800000000000000000000000000000000000000000000000000de0b6b3a7640000",
        "nonce": "0xb9",
        "accessList": []
      },
      "additionalContracts": [],
      "isFixedGasLimit": false
    },
    {
      "hash": "0xd7698ea26f541d185a3ee8a769c7d4c9a58418890cd1a3624ab44bc55f77716a",
      "transactionType": "CALL",
      "contractName": "MocaTokenAdapter",
      "contractAddress": "0x5a9962874acA3b407aCeB14f64C7eF2C6255C880",
      "function": "send((uint32,bytes32,uint256,uint256,bytes,bytes,bytes),(uint256,uint256),address)",
      "arguments": [
        "(40109, 0x000000000000000000000000de05a1abb121113a33eed248bd91ddc254d5e9db, 1000000000000000000, 1000000000000000000, 0x, 0x, 0x)",
        "(52257368214148, 0)",
        "0xdE05a1Abb121113a33eeD248BD91ddC254d5E9Db"
      ],
      "transaction": {
        "type": "0x02",
        "from": "0xde05a1abb121113a33eed248bd91ddc254d5e9db",
        "to": "0x5a9962874aca3b407aceb14f64c7ef2c6255c880",
        "gas": "0x6866d",
        "value": "0x2f871dde8a84",
        "data": "0xc7c7f5b3000000000000000000000000000000000000000000000000000000000000008000000000000000000000000000000000000000000000000000002f871dde8a840000000000000000000000000000000000000000000000000000000000000000000000000000000000000000de05a1abb121113a33eed248bd91ddc254d5e9db0000000000000000000000000000000000000000000000000000000000009cad000000000000000000000000de05a1abb121113a33eed248bd91ddc254d5e9db0000000000000000000000000000000000000000000000000de0b6b3a76400000000000000000000000000000000000000000000000000000de0b6b3a764000000000000000000000000000000000000000000000000000000000000000000e000000000000000000000000000000000000000000000000000000000000001000000000000000000000000000000000000000000000000000000000000000120000000000000000000000000000000000000000000000000000000000000000000000000000000000000000000000000000000000000000000000000000000000000000000000000000000000000000000000000000000000000000000000000",
        "nonce": "0xba",
        "accessList": []
      },
      "additionalContracts": [],
      "isFixedGasLimit": false
    }
  ],
  "receipts": [
    {
      "transactionHash": "0x14d00cba09a8206cc29ae53eb47582a0220e388059a8a444d33df1b3a3e6741e",
      "transactionIndex": "0x1b",
      "blockHash": "0x151098453672ff1d729c94591d88606e24eff2f3cee571b91b83ee2bb757491b",
      "blockNumber": "0x539484",
      "from": "0xdE05a1Abb121113a33eeD248BD91ddC254d5E9Db",
      "to": "0xA2E400CE40C83270d8369eC971D0fc2e46D5056a",
      "cumulativeGasUsed": "0x1a4378",
      "gasUsed": "0x677e",
      "contractAddress": null,
      "logs": [
        {
          "address": "0xA2E400CE40C83270d8369eC971D0fc2e46D5056a",
          "topics": [
            "0x8c5be1e5ebec7d5bd14f71427d1e84f3dd0314c0f7b2291e5b200ac8c7c3b925",
            "0x000000000000000000000000de05a1abb121113a33eed248bd91ddc254d5e9db",
            "0x0000000000000000000000005a9962874aca3b407aceb14f64c7ef2c6255c880"
          ],
          "data": "0x0000000000000000000000000000000000000000000000000de0b6b3a7640000",
          "blockHash": "0x151098453672ff1d729c94591d88606e24eff2f3cee571b91b83ee2bb757491b",
          "blockNumber": "0x539484",
          "transactionHash": "0x14d00cba09a8206cc29ae53eb47582a0220e388059a8a444d33df1b3a3e6741e",
          "transactionIndex": "0x1b",
          "logIndex": "0x27",
          "removed": false
        }
      ],
      "status": "0x1",
      "logsBloom": "0x00000000000000000000000000000000000000000000000000100000000000000000000000000000000000000000000000000000000000000000000000200000000000000000000000000000000000000004000000000000000000000000000000000000000000000000000000000000000000000000004001000000000008000000000000000020000000000000000000000000000000000000000000000000020000000000000000000000000000000000000000000000000000000000000000000000000000000000000000000000000400000000000400000000000000000010000000000000000000000000000000000000000000000000000040000000",
      "type": "0x2",
      "effectiveGasPrice": "0x1147d01540"
    },
    {
      "transactionHash": "0xd7698ea26f541d185a3ee8a769c7d4c9a58418890cd1a3624ab44bc55f77716a",
      "transactionIndex": "0x1c",
      "blockHash": "0x151098453672ff1d729c94591d88606e24eff2f3cee571b91b83ee2bb757491b",
      "blockNumber": "0x539484",
      "from": "0xdE05a1Abb121113a33eeD248BD91ddC254d5E9Db",
      "to": "0x5a9962874acA3b407aCeB14f64C7eF2C6255C880",
      "cumulativeGasUsed": "0x1efcd5",
      "gasUsed": "0x4b95d",
      "contractAddress": null,
      "logs": [
        {
          "address": "0xA2E400CE40C83270d8369eC971D0fc2e46D5056a",
          "topics": [
            "0xddf252ad1be2c89b69c2b068fc378daa952ba7f163c4a11628f55a4df523b3ef",
            "0x000000000000000000000000de05a1abb121113a33eed248bd91ddc254d5e9db",
            "0x0000000000000000000000005a9962874aca3b407aceb14f64c7ef2c6255c880"
          ],
          "data": "0x0000000000000000000000000000000000000000000000000de0b6b3a7640000",
          "blockHash": "0x151098453672ff1d729c94591d88606e24eff2f3cee571b91b83ee2bb757491b",
          "blockNumber": "0x539484",
          "transactionHash": "0xd7698ea26f541d185a3ee8a769c7d4c9a58418890cd1a3624ab44bc55f77716a",
          "transactionIndex": "0x1c",
          "logIndex": "0x28",
          "removed": false
        },
        {
          "address": "0xcc1ae8Cf5D3904Cef3360A9532B477529b177cCE",
          "topics": [
            "0x61ed099e74a97a1d7f8bb0952a88ca8b7b8ebd00c126ea04671f92a81213318a"
          ],
          "data": "0x000000000000000000000000718b92b5cb0a5552039b593faf724d182a881eda00000000000000000000000000000000000000000000000000002d334329739b",
          "blockHash": "0x151098453672ff1d729c94591d88606e24eff2f3cee571b91b83ee2bb757491b",
          "blockNumber": "0x539484",
          "transactionHash": "0xd7698ea26f541d185a3ee8a769c7d4c9a58418890cd1a3624ab44bc55f77716a",
          "transactionIndex": "0x1c",
          "logIndex": "0x29",
          "removed": false
        },
        {
          "address": "0xcc1ae8Cf5D3904Cef3360A9532B477529b177cCE",
          "topics": [
            "0x07ea52d82345d6e838192107d8fd7123d9c2ec8e916cd0aad13fd2b60db24644"
          ],
          "data": "0x000000000000000000000000000000000000000000000000000000000000006000000000000000000000000000000000000000000000000000000000000000a000000000000000000000000000000000000000000000000000000000000000c000000000000000000000000000000000000000000000000000000000000000010000000000000000000000008eebf8b423b73bfca51a1db4b7354aa0bfca91930000000000000000000000000000000000000000000000000000000000000000000000000000000000000000000000000000000000000000000000000000000100000000000000000000000000000000000000000000000000000253dab516e9",
          "blockHash": "0x151098453672ff1d729c94591d88606e24eff2f3cee571b91b83ee2bb757491b",
          "blockNumber": "0x539484",
          "transactionHash": "0xd7698ea26f541d185a3ee8a769c7d4c9a58418890cd1a3624ab44bc55f77716a",
          "transactionIndex": "0x1c",
          "logIndex": "0x2a",
          "removed": false
        },
        {
          "address": "0x6EDCE65403992e310A62460808c4b910D972f10f",
          "topics": [
            "0x1ab700d4ced0c005b164c0f789fd09fcbb0156d4c2041b8a3bfbcd961cd1567f"
          ],
          "data": "0x00000000000000000000000000000000000000000000000000000000000000600000000000000000000000000000000000000000000000000000000000000120000000000000000000000000cc1ae8cf5d3904cef3360a9532b477529b177cce000000000000000000000000000000000000000000000000000000000000009901000000000000000100009ce10000000000000000000000005a9962874aca3b407aceb14f64c7ef2c6255c88000009cad000000000000000000000000aa7a95e597a65eb06dae4ed54f1b62e0535d91561c3b22361105229d0f741faeaeb6461719e9099a5c0216264acbdf6b8868346b000000000000000000000000de05a1abb121113a33eed248bd91ddc254d5e9db00000000000f424000000000000000000000000000000000000000000000000000000000000000000000000000001600030100110100000000000000000000000000030d4000000000000000000000",
          "blockHash": "0x151098453672ff1d729c94591d88606e24eff2f3cee571b91b83ee2bb757491b",
          "blockNumber": "0x539484",
          "transactionHash": "0xd7698ea26f541d185a3ee8a769c7d4c9a58418890cd1a3624ab44bc55f77716a",
          "transactionIndex": "0x1c",
          "logIndex": "0x2b",
          "removed": false
        },
        {
          "address": "0x5a9962874acA3b407aCeB14f64C7eF2C6255C880",
          "topics": [
            "0xfff873bb909b73d08a8c1af4b21779e87103bb8ea8cf3b3a0067eb8526b8b80a",
            "0x1c3b22361105229d0f741faeaeb6461719e9099a5c0216264acbdf6b8868346b",
            "0x000000000000000000000000de05a1abb121113a33eed248bd91ddc254d5e9db"
          ],
          "data": "0x0000000000000000000000000000000000000000000000000000000000009cad0000000000000000000000000000000000000000000000000de0b6b3a7640000",
          "blockHash": "0x151098453672ff1d729c94591d88606e24eff2f3cee571b91b83ee2bb757491b",
          "blockNumber": "0x539484",
          "transactionHash": "0xd7698ea26f541d185a3ee8a769c7d4c9a58418890cd1a3624ab44bc55f77716a",
          "transactionIndex": "0x1c",
          "logIndex": "0x2c",
          "removed": false
        }
      ],
      "status": "0x1",
      "logsBloom": "0x0000000000000000000000000000000000000000000000803010000000010000000000000000000020000000008000000000000000000000000400400000000000000000000000000000000800000000000c000000000000000000000000000000000000000000008200000000000000000000000000004001000010000008000000000000000020000000080000000000000000000000000000000000000000000000008000000000100000000000000000000000400000000440000000000000000002000000000000000000000020000400081000000400000000000000000000040000000000000000000000002000000000000000000000000040000020",
      "type": "0x2",
      "effectiveGasPrice": "0x1147d01540"
    }
  ],
  "libraries": [],
  "pending": [],
  "returns": {},
  "timestamp": 1710335309,
  "chain": 11155111,
  "commit": "564059c"
}