{
  "transactions": [
    {
      "hash": "0xbcd1611c89f4000565e753758d97c612c075f17dec121dabfe9e81af3290049c",
      "transactionType": "CALL",
      "contractName": "MocaToken",
      "contractAddress": "0x9cb6dc4B71E285e26cbb0605F94B4031fE04C72c",
      "function": "approve(address,uint256)",
      "arguments": [
        "0x4114eCCadF3b248DA9EEe7D8dF2d3bA6bB02Cbcd",
        "1000000000000000000"
      ],
      "transaction": {
        "type": "0x02",
        "from": "0xde05a1abb121113a33eed248bd91ddc254d5e9db",
        "to": "0x9cb6dc4b71e285e26cbb0605f94b4031fe04c72c",
        "gas": "0x8ef1",
        "value": "0x0",
        "data": "0x095ea7b30000000000000000000000004114eccadf3b248da9eee7d8df2d3ba6bb02cbcd0000000000000000000000000000000000000000000000000de0b6b3a7640000",
        "nonce": "0x34",
        "accessList": []
      },
      "additionalContracts": [],
      "isFixedGasLimit": false
    },
    {
      "hash": "0xa8d5f16b2982adee719cf98f7715b0359853fc1736a2b1c12c81f65c79598fa6",
      "transactionType": "CALL",
      "contractName": "MocaTokenAdaptor",
      "contractAddress": "0x4114eCCadF3b248DA9EEe7D8dF2d3bA6bB02Cbcd",
      "function": "send((uint32,bytes32,uint256,uint256,bytes,bytes,bytes),(uint256,uint256),address)",
      "arguments": [
        "(40109, 0x000000000000000000000000de05a1abb121113a33eed248bd91ddc254d5e9db, 1000000000000000000, 1000000000000000000, 0x, 0x73656e64414e6443414c4c, 0x)",
        "(63524681297303, 0)",
        "0xdE05a1Abb121113a33eeD248BD91ddC254d5E9Db"
      ],
      "transaction": {
        "type": "0x02",
        "from": "0xde05a1abb121113a33eed248bd91ddc254d5e9db",
        "to": "0x4114eccadf3b248da9eee7d8df2d3ba6bb02cbcd",
        "gas": "0x4ce40",
        "value": "0x39c67e102d97",
        "data": "0xc7c7f5b30000000000000000000000000000000000000000000000000000000000000080000000000000000000000000000000000000000000000000000039c67e102d970000000000000000000000000000000000000000000000000000000000000000000000000000000000000000de05a1abb121113a33eed248bd91ddc254d5e9db0000000000000000000000000000000000000000000000000000000000009cad000000000000000000000000de05a1abb121113a33eed248bd91ddc254d5e9db0000000000000000000000000000000000000000000000000de0b6b3a76400000000000000000000000000000000000000000000000000000de0b6b3a764000000000000000000000000000000000000000000000000000000000000000000e0000000000000000000000000000000000000000000000000000000000000010000000000000000000000000000000000000000000000000000000000000001400000000000000000000000000000000000000000000000000000000000000000000000000000000000000000000000000000000000000000000000000000000b73656e64414e6443414c4c0000000000000000000000000000000000000000000000000000000000000000000000000000000000000000000000000000000000",
        "nonce": "0x35",
        "accessList": []
      },
      "additionalContracts": [],
      "isFixedGasLimit": false
    }
  ],
  "receipts": [
    {
      "transactionHash": "0xbcd1611c89f4000565e753758d97c612c075f17dec121dabfe9e81af3290049c",
      "transactionIndex": "0x1e",
      "blockHash": "0x9006b103093eea04d193a6fc1514128a869d9a51a73db668e0098f8177949723",
      "blockNumber": "0x52b66f",
      "from": "0xdE05a1Abb121113a33eeD248BD91ddC254d5E9Db",
      "to": "0x9cb6dc4B71E285e26cbb0605F94B4031fE04C72c",
      "cumulativeGasUsed": "0x1674cb",
      "gasUsed": "0x677e",
      "contractAddress": null,
      "logs": [
        {
          "address": "0x9cb6dc4B71E285e26cbb0605F94B4031fE04C72c",
          "topics": [
            "0x8c5be1e5ebec7d5bd14f71427d1e84f3dd0314c0f7b2291e5b200ac8c7c3b925",
            "0x000000000000000000000000de05a1abb121113a33eed248bd91ddc254d5e9db",
            "0x0000000000000000000000004114eccadf3b248da9eee7d8df2d3ba6bb02cbcd"
          ],
          "data": "0x0000000000000000000000000000000000000000000000000de0b6b3a7640000",
          "blockHash": "0x9006b103093eea04d193a6fc1514128a869d9a51a73db668e0098f8177949723",
          "blockNumber": "0x52b66f",
          "transactionHash": "0xbcd1611c89f4000565e753758d97c612c075f17dec121dabfe9e81af3290049c",
          "transactionIndex": "0x1e",
          "logIndex": "0x9",
          "removed": false
        }
      ],
      "status": "0x1",
      "logsBloom": "0x00000000000000000000000000000000000000000000000000100000020000000000000000000000000000000000000000000000000000000000000000200000000000000000000000000000000000000000000000000000000000000000000000000000000000000000000000000000000000000000004000000000000000000000000000000020000000000000000000000000000004000000000000000000020000000000000000000000000000000000000000000080000000000000000000000000000000000002000000000000000000000000000000000000000000000010000000000000000000000000000000000000400000000000000000000000",
      "type": "0x2",
      "effectiveGasPrice": "0xbaaec4f4"
    },
    {
      "transactionHash": "0xa8d5f16b2982adee719cf98f7715b0359853fc1736a2b1c12c81f65c79598fa6",
      "transactionIndex": "0x1f",
      "blockHash": "0x9006b103093eea04d193a6fc1514128a869d9a51a73db668e0098f8177949723",
      "blockNumber": "0x52b66f",
      "from": "0xdE05a1Abb121113a33eeD248BD91ddC254d5E9Db",
      "to": "0x4114eCCadF3b248DA9EEe7D8dF2d3bA6bB02Cbcd",
      "cumulativeGasUsed": "0x19ef7a",
      "gasUsed": "0x37aaf",
      "contractAddress": null,
      "logs": [
        {
          "address": "0x9cb6dc4B71E285e26cbb0605F94B4031fE04C72c",
          "topics": [
            "0xddf252ad1be2c89b69c2b068fc378daa952ba7f163c4a11628f55a4df523b3ef",
            "0x000000000000000000000000de05a1abb121113a33eed248bd91ddc254d5e9db",
            "0x0000000000000000000000004114eccadf3b248da9eee7d8df2d3ba6bb02cbcd"
          ],
          "data": "0x0000000000000000000000000000000000000000000000000de0b6b3a7640000",
          "blockHash": "0x9006b103093eea04d193a6fc1514128a869d9a51a73db668e0098f8177949723",
          "blockNumber": "0x52b66f",
          "transactionHash": "0xa8d5f16b2982adee719cf98f7715b0359853fc1736a2b1c12c81f65c79598fa6",
          "transactionIndex": "0x1f",
          "logIndex": "0xa",
          "removed": false
        },
        {
          "address": "0xcc1ae8Cf5D3904Cef3360A9532B477529b177cCE",
          "topics": [
            "0x61ed099e74a97a1d7f8bb0952a88ca8b7b8ebd00c126ea04671f92a81213318a"
          ],
          "data": "0x000000000000000000000000718b92b5cb0a5552039b593faf724d182a881eda000000000000000000000000000000000000000000000000000036d6c008a6da",
          "blockHash": "0x9006b103093eea04d193a6fc1514128a869d9a51a73db668e0098f8177949723",
          "blockNumber": "0x52b66f",
          "transactionHash": "0xa8d5f16b2982adee719cf98f7715b0359853fc1736a2b1c12c81f65c79598fa6",
          "transactionIndex": "0x1f",
          "logIndex": "0xb",
          "removed": false
        },
        {
          "address": "0xcc1ae8Cf5D3904Cef3360A9532B477529b177cCE",
          "topics": [
            "0x07ea52d82345d6e838192107d8fd7123d9c2ec8e916cd0aad13fd2b60db24644"
          ],
          "data": "0x000000000000000000000000000000000000000000000000000000000000006000000000000000000000000000000000000000000000000000000000000000a000000000000000000000000000000000000000000000000000000000000000c000000000000000000000000000000000000000000000000000000000000000010000000000000000000000008eebf8b423b73bfca51a1db4b7354aa0bfca919300000000000000000000000000000000000000000000000000000000000000000000000000000000000000000000000000000000000000000000000000000001000000000000000000000000000000000000000000000000000002efbe0786bd",
          "blockHash": "0x9006b103093eea04d193a6fc1514128a869d9a51a73db668e0098f8177949723",
          "blockNumber": "0x52b66f",
          "transactionHash": "0xa8d5f16b2982adee719cf98f7715b0359853fc1736a2b1c12c81f65c79598fa6",
          "transactionIndex": "0x1f",
          "logIndex": "0xc",
          "removed": false
        },
        {
          "address": "0x6EDCE65403992e310A62460808c4b910D972f10f",
          "topics": [
            "0x1ab700d4ced0c005b164c0f789fd09fcbb0156d4c2041b8a3bfbcd961cd1567f"
          ],
          "data": "0x00000000000000000000000000000000000000000000000000000000000000600000000000000000000000000000000000000000000000000000000000000160000000000000000000000000cc1ae8cf5d3904cef3360a9532b477529b177cce00000000000000000000000000000000000000000000000000000000000000c401000000000000000800009ce10000000000000000000000004114eccadf3b248da9eee7d8df2d3ba6bb02cbcd00009cad0000000000000000000000008bb305df680eda14e6b25b975bf1a8831acf69ab445ef01c072825a94aecb00a590e66814bee6c13ef4b52600c630142276fe189000000000000000000000000de05a1abb121113a33eed248bd91ddc254d5e9db00000000000f4240000000000000000000000000de05a1abb121113a33eed248bd91ddc254d5e9db73656e64414e6443414c4c000000000000000000000000000000000000000000000000000000000000000000000000000000000000000000000000000000000000000000000016000301001101000000000000000000000000000f424000000000000000000000",
          "blockHash": "0x9006b103093eea04d193a6fc1514128a869d9a51a73db668e0098f8177949723",
          "blockNumber": "0x52b66f",
          "transactionHash": "0xa8d5f16b2982adee719cf98f7715b0359853fc1736a2b1c12c81f65c79598fa6",
          "transactionIndex": "0x1f",
          "logIndex": "0xd",
          "removed": false
        },
        {
          "address": "0x4114eCCadF3b248DA9EEe7D8dF2d3bA6bB02Cbcd",
          "topics": [
            "0xfff873bb909b73d08a8c1af4b21779e87103bb8ea8cf3b3a0067eb8526b8b80a",
            "0x445ef01c072825a94aecb00a590e66814bee6c13ef4b52600c630142276fe189",
            "0x000000000000000000000000de05a1abb121113a33eed248bd91ddc254d5e9db"
          ],
          "data": "0x0000000000000000000000000000000000000000000000000000000000009cad0000000000000000000000000000000000000000000000000de0b6b3a7640000",
          "blockHash": "0x9006b103093eea04d193a6fc1514128a869d9a51a73db668e0098f8177949723",
          "blockNumber": "0x52b66f",
          "transactionHash": "0xa8d5f16b2982adee719cf98f7715b0359853fc1736a2b1c12c81f65c79598fa6",
          "transactionIndex": "0x1f",
          "logIndex": "0xe",
          "removed": false
        }
      ],
      "status": "0x1",
      "logsBloom": "0x00000000000000000000000000000000000000000000000034100000020100000000000000000000200000000080000000000000000000000000000000000000000000000000000000000008000000000000000000000010000000000000000000000000000000008200000000004000000000000000004000000010000000000000000000000020000008080000000000000000000004000000000000000000000000008000000000100000000000000000020000400080000440000000000000000002000000000002000000000000000000080000000000000000000000000000040000000000000000000000002000000000400000001000000000000020",
      "type": "0x2",
      "effectiveGasPrice": "0xbaaec4f4"
    }
  ],
  "libraries": [],
  "pending": [],
  "returns": {},
  "timestamp": 1709630260,
  "chain": 11155111,
  "multi": false,
  "commit": "5d3d96c"
}