{
  "transactions": [
    {
      "hash": "0x7dc85c2ab603a57f691277dc6c3a7079703c4f9325a178ec280eb2a620510826",
      "transactionType": "CALL",
      "contractName": "MocaTokenAdaptor",
      "contractAddress": "0x4114eCCadF3b248DA9EEe7D8dF2d3bA6bB02Cbcd",
      "function": "setPeer(uint32,bytes32)",
      "arguments": [
        "40109",
        "0x0000000000000000000000008bb305df680eda14e6b25b975bf1a8831acf69ab"
      ],
      "transaction": {
        "type": "0x02",
        "from": "0xde05a1abb121113a33eed248bd91ddc254d5e9db",
        "to": "0x4114eccadf3b248da9eee7d8df2d3ba6bb02cbcd",
        "gas": "0x95ed",
        "value": "0x0",
        "data": "0x3400288b0000000000000000000000000000000000000000000000000000000000009cad0000000000000000000000008bb305df680eda14e6b25b975bf1a8831acf69ab",
        "nonce": "0x24",
        "accessList": []
      },
      "additionalContracts": [],
      "isFixedGasLimit": false
    }
  ],
  "receipts": [],
  "libraries": [],
  "pending": [
    "0x7dc85c2ab603a57f691277dc6c3a7079703c4f9325a178ec280eb2a620510826"
  ],
  "returns": {},
  "timestamp": 1709522262,
  "chain": 11155111,
  "multi": false,
  "commit": "a57ec96"
}