{
  "transactions": [
    {
      "hash": "0xc8ac0aa9a4c3877981cc587fce5fc3a3c8b5563ea5f7ffdc6a870b53478ce529",
      "transactionType": "CALL",
      "contractName": "MocaToken",
      "contractAddress": "0xFe149349285995D59Ec3FD6A5080840443906B45",
      "function": "approve(address,uint256)",
      "arguments": [
        "0xa8F355AE124d7120dAEA13239b6cC89FB0376779",
        "1000000000000000000"
      ],
      "transaction": {
        "type": "0x02",
        "from": "0xde05a1abb121113a33eed248bd91ddc254d5e9db",
        "to": "0xfe149349285995d59ec3fd6a5080840443906b45",
        "gas": "0x8ef1",
        "value": "0x0",
        "data": "0x095ea7b3000000000000000000000000a8f355ae124d7120daea13239b6cc89fb03767790000000000000000000000000000000000000000000000000de0b6b3a7640000",
        "nonce": "0x113",
        "accessList": []
      },
      "additionalContracts": [],
      "isFixedGasLimit": false
    },
    {
      "hash": "0xb3ce945c2438b8400bb727c7013957af550e631a01d3a29e4167cb5fb4987828",
      "transactionType": "CALL",
      "contractName": "MocaTokenAdapter",
      "contractAddress": "0xa8F355AE124d7120dAEA13239b6cC89FB0376779",
      "function": "send((uint32,bytes32,uint256,uint256,bytes,bytes,bytes),(uint256,uint256),address)",
      "arguments": [
        "(40109, 0x000000000000000000000000de05a1abb121113a33eed248bd91ddc254d5e9db, 1000000000000000000, 1000000000000000000, 0x, 0x, 0x)",
        "(70023693442906, 0)",
        "0xdE05a1Abb121113a33eeD248BD91ddC254d5E9Db"
      ],
      "transaction": {
        "type": "0x02",
        "from": "0xde05a1abb121113a33eed248bd91ddc254d5e9db",
        "to": "0xa8f355ae124d7120daea13239b6cc89fb0376779",
        "gas": "0x551b1",
        "value": "0x3fafa95f9f5a",
        "data": "0xc7c7f5b3000000000000000000000000000000000000000000000000000000000000008000000000000000000000000000000000000000000000000000003fafa95f9f5a0000000000000000000000000000000000000000000000000000000000000000000000000000000000000000de05a1abb121113a33eed248bd91ddc254d5e9db0000000000000000000000000000000000000000000000000000000000009cad000000000000000000000000de05a1abb121113a33eed248bd91ddc254d5e9db0000000000000000000000000000000000000000000000000de0b6b3a76400000000000000000000000000000000000000000000000000000de0b6b3a764000000000000000000000000000000000000000000000000000000000000000000e000000000000000000000000000000000000000000000000000000000000001000000000000000000000000000000000000000000000000000000000000000120000000000000000000000000000000000000000000000000000000000000000000000000000000000000000000000000000000000000000000000000000000000000000000000000000000000000000000000000000000000000000000000000",
        "nonce": "0x114",
        "accessList": []
      },
      "additionalContracts": [],
      "isFixedGasLimit": false
    }
  ],
  "receipts": [
    {
      "transactionHash": "0xc8ac0aa9a4c3877981cc587fce5fc3a3c8b5563ea5f7ffdc6a870b53478ce529",
      "transactionIndex": "0x22",
      "blockHash": "0xd97c4d7e3945db7fcdde2390530a20500971cfaea1e7e61d9fc0d63913c0693e",
      "blockNumber": "0x54ade6",
      "from": "0xdE05a1Abb121113a33eeD248BD91ddC254d5E9Db",
      "to": "0xFe149349285995D59Ec3FD6A5080840443906B45",
      "cumulativeGasUsed": "0xcb2e9",
      "gasUsed": "0x677e",
      "contractAddress": null,
      "logs": [
        {
          "address": "0xFe149349285995D59Ec3FD6A5080840443906B45",
          "topics": [
            "0x8c5be1e5ebec7d5bd14f71427d1e84f3dd0314c0f7b2291e5b200ac8c7c3b925",
            "0x000000000000000000000000de05a1abb121113a33eed248bd91ddc254d5e9db",
            "0x000000000000000000000000a8f355ae124d7120daea13239b6cc89fb0376779"
          ],
          "data": "0x0000000000000000000000000000000000000000000000000de0b6b3a7640000",
          "blockHash": "0xd97c4d7e3945db7fcdde2390530a20500971cfaea1e7e61d9fc0d63913c0693e",
          "blockNumber": "0x54ade6",
          "transactionHash": "0xc8ac0aa9a4c3877981cc587fce5fc3a3c8b5563ea5f7ffdc6a870b53478ce529",
          "transactionIndex": "0x22",
          "logIndex": "0x2",
          "removed": false
        }
      ],
      "status": "0x1",
      "logsBloom": "0x00000000000000000000000000000000000000000000000000100000000000000000000000000000000000000000100000000000000000000000000000200000000080000800000040000000000000000000000000000000000000000000000000000000000000000000000000000000000000000000004000000000000000000000000200000020000000000000000000000000000000000000000000000000020000000000000000000000000000000000000000000000000000000000000000000000000000000000000000000000000000000000000000000000000000000010000000000000800000000000000000000000000000000000000000000000",
      "type": "0x2",
      "effectiveGasPrice": "0xb96bb135"
    },
    {
      "transactionHash": "0xb3ce945c2438b8400bb727c7013957af550e631a01d3a29e4167cb5fb4987828",
      "transactionIndex": "0x23",
      "blockHash": "0xd97c4d7e3945db7fcdde2390530a20500971cfaea1e7e61d9fc0d63913c0693e",
      "blockNumber": "0x54ade6",
      "from": "0xdE05a1Abb121113a33eeD248BD91ddC254d5E9Db",
      "to": "0xa8F355AE124d7120dAEA13239b6cC89FB0376779",
      "cumulativeGasUsed": "0x1055fc",
      "gasUsed": "0x3a313",
      "contractAddress": null,
      "logs": [
        {
          "address": "0xFe149349285995D59Ec3FD6A5080840443906B45",
          "topics": [
            "0xddf252ad1be2c89b69c2b068fc378daa952ba7f163c4a11628f55a4df523b3ef",
            "0x000000000000000000000000de05a1abb121113a33eed248bd91ddc254d5e9db",
            "0x000000000000000000000000a8f355ae124d7120daea13239b6cc89fb0376779"
          ],
          "data": "0x0000000000000000000000000000000000000000000000000de0b6b3a7640000",
          "blockHash": "0xd97c4d7e3945db7fcdde2390530a20500971cfaea1e7e61d9fc0d63913c0693e",
          "blockNumber": "0x54ade6",
          "transactionHash": "0xb3ce945c2438b8400bb727c7013957af550e631a01d3a29e4167cb5fb4987828",
          "transactionIndex": "0x23",
          "logIndex": "0x3",
          "removed": false
        },
        {
          "address": "0xcc1ae8Cf5D3904Cef3360A9532B477529b177cCE",
          "topics": [
            "0x61ed099e74a97a1d7f8bb0952a88ca8b7b8ebd00c126ea04671f92a81213318a"
          ],
          "data": "0x000000000000000000000000718b92b5cb0a5552039b593faf724d182a881eda00000000000000000000000000000000000000000000000000003ba12225ee76",
          "blockHash": "0xd97c4d7e3945db7fcdde2390530a20500971cfaea1e7e61d9fc0d63913c0693e",
          "blockNumber": "0x54ade6",
          "transactionHash": "0xb3ce945c2438b8400bb727c7013957af550e631a01d3a29e4167cb5fb4987828",
          "transactionIndex": "0x23",
          "logIndex": "0x4",
          "removed": false
        },
        {
          "address": "0xcc1ae8Cf5D3904Cef3360A9532B477529b177cCE",
          "topics": [
            "0x07ea52d82345d6e838192107d8fd7123d9c2ec8e916cd0aad13fd2b60db24644"
          ],
          "data": "0x000000000000000000000000000000000000000000000000000000000000006000000000000000000000000000000000000000000000000000000000000000a000000000000000000000000000000000000000000000000000000000000000c000000000000000000000000000000000000000000000000000000000000000010000000000000000000000008eebf8b423b73bfca51a1db4b7354aa0bfca9193000000000000000000000000000000000000000000000000000000000000000000000000000000000000000000000000000000000000000000000000000000010000000000000000000000000000000000000000000000000000040e8739b0e4",
          "blockHash": "0xd97c4d7e3945db7fcdde2390530a20500971cfaea1e7e61d9fc0d63913c0693e",
          "blockNumber": "0x54ade6",
          "transactionHash": "0xb3ce945c2438b8400bb727c7013957af550e631a01d3a29e4167cb5fb4987828",
          "transactionIndex": "0x23",
          "logIndex": "0x5",
          "removed": false
        },
        {
          "address": "0x6EDCE65403992e310A62460808c4b910D972f10f",
          "topics": [
            "0x1ab700d4ced0c005b164c0f789fd09fcbb0156d4c2041b8a3bfbcd961cd1567f"
          ],
          "data": "0x00000000000000000000000000000000000000000000000000000000000000600000000000000000000000000000000000000000000000000000000000000120000000000000000000000000cc1ae8cf5d3904cef3360a9532b477529b177cce000000000000000000000000000000000000000000000000000000000000009901000000000000000400009ce1000000000000000000000000a8f355ae124d7120daea13239b6cc89fb037677900009cad0000000000000000000000000eb26b982341c37a02812738c6c10eb0b66ef4f73f2bc0b62c1fd4c226476b59c30c6359c87d89e478aa4a2a3e0a352468838539000000000000000000000000de05a1abb121113a33eed248bd91ddc254d5e9db00000000000f424000000000000000000000000000000000000000000000000000000000000000000000000000001600030100110100000000000000000000000000030d4000000000000000000000",
          "blockHash": "0xd97c4d7e3945db7fcdde2390530a20500971cfaea1e7e61d9fc0d63913c0693e",
          "blockNumber": "0x54ade6",
          "transactionHash": "0xb3ce945c2438b8400bb727c7013957af550e631a01d3a29e4167cb5fb4987828",
          "transactionIndex": "0x23",
          "logIndex": "0x6",
          "removed": false
        },
        {
          "address": "0xa8F355AE124d7120dAEA13239b6cC89FB0376779",
          "topics": [
            "0xfff873bb909b73d08a8c1af4b21779e87103bb8ea8cf3b3a0067eb8526b8b80a",
            "0x3f2bc0b62c1fd4c226476b59c30c6359c87d89e478aa4a2a3e0a352468838539",
            "0x000000000000000000000000de05a1abb121113a33eed248bd91ddc254d5e9db"
          ],
          "data": "0x0000000000000000000000000000000000000000000000000000000000009cad0000000000000000000000000000000000000000000000000de0b6b3a7640000",
          "blockHash": "0xd97c4d7e3945db7fcdde2390530a20500971cfaea1e7e61d9fc0d63913c0693e",
          "blockNumber": "0x54ade6",
          "transactionHash": "0xb3ce945c2438b8400bb727c7013957af550e631a01d3a29e4167cb5fb4987828",
          "transactionIndex": "0x23",
          "logIndex": "0x7",
          "removed": false
        }
      ],
      "status": "0x1",
      "logsBloom": "0x00000000000000000000000000000000000000000000000030100000000100000000000000000000200000000080100000000000000000000000000000000000000080000800000040000008000000000000000000080000000000000000000000000000000000008200000000000000000000000000004000000010000000000000000200000020000000080000000000000000000000000000010000000000000000008000000000100000000000008000000000400000000440000000000000000002000000000000000800000000000000080000000000000200000000010000040000000000800000000000002000000000000000000000000000000020",
      "type": "0x2",
      "effectiveGasPrice": "0xb96bb135"
    }
  ],
  "libraries": [],
  "pending": [],
  "returns": {},
  "timestamp": 1711262261,
  "chain": 11155111,
  "commit": "44d6322"
}