{
  "transactions": [
    {
      "hash": "0xa5922601803bda8b6137b378ccc4882af2bcf55e451590b7d0554e0f770d7d70",
      "transactionType": "CALL",
      "contractName": "MocaTokenAdaptor",
      "contractAddress": "0xC60FDE3964f1bafC4cd0EE9403Cab7F789dDb8A7",
      "function": "setPeer(uint32,bytes32)",
      "arguments": [
        "40109",
        "0x0000000000000000000000008c979ef6a647c91f56654580f1c740c9f047edb2"
      ],
      "transaction": {
        "type": "0x02",
        "from": "0xde05a1abb121113a33eed248bd91ddc254d5e9db",
        "to": "0xc60fde3964f1bafc4cd0ee9403cab7f789ddb8a7",
        "gas": "0x10cd8",
        "value": "0x0",
        "data": "0x3400288b0000000000000000000000000000000000000000000000000000000000009cad0000000000000000000000008c979ef6a647c91f56654580f1c740c9f047edb2",
        "nonce": "0x7f",
        "accessList": []
      },
      "additionalContracts": [],
      "isFixedGasLimit": false
    }
  ],
  "receipts": [],
  "libraries": [],
  "pending": [
    "0xa5922601803bda8b6137b378ccc4882af2bcf55e451590b7d0554e0f770d7d70"
  ],
  "returns": {},
  "timestamp": 1709955346,
  "chain": 11155111,
  "multi": false,
  "commit": "0fb095c"
}