{
  "transactions": [
    {
      "hash": "0x1c0f5715305ba8e279da7639cffbf08eaaeea57f5b234e2a2f4cd2c6ce532714",
      "transactionType": "CALL",
      "contractName": "MocaTokenAdapter",
      "contractAddress": "0x5a9962874acA3b407aCeB14f64C7eF2C6255C880",
      "function": "setOutboundLimit(uint32,uint256)",
      "arguments": [
        "40109",
        "10000000000000000000"
      ],
      "transaction": {
        "type": "0x02",
        "from": "0xde05a1abb121113a33eed248bd91ddc254d5e9db",
        "to": "0x5a9962874aca3b407aceb14f64c7ef2c6255c880",
        "gas": "0x1104d",
        "value": "0x0",
        "data": "0x65d28a6b0000000000000000000000000000000000000000000000000000000000009cad0000000000000000000000000000000000000000000000008ac7230489e80000",
        "nonce": "0xb5",
        "accessList": []
      },
      "additionalContracts": [],
      "isFixedGasLimit": false
    },
    {
      "hash": "0x1972537c75a679fe552af2701e2c6707938f391a755286c516fb9e3d5dac2f12",
      "transactionType": "CALL",
      "contractName": "MocaTokenAdapter",
      "contractAddress": "0x5a9962874acA3b407aCeB14f64C7eF2C6255C880",
      "function": "setInboundLimit(uint32,uint256)",
      "arguments": [
        "40109",
        "10000000000000000000"
      ],
      "transaction": {
        "type": "0x02",
        "from": "0xde05a1abb121113a33eed248bd91ddc254d5e9db",
        "to": "0x5a9962874aca3b407aceb14f64c7ef2c6255c880",
        "gas": "0x10fcd",
        "value": "0x0",
        "data": "0x9a2fe9e40000000000000000000000000000000000000000000000000000000000009cad0000000000000000000000000000000000000000000000008ac7230489e80000",
        "nonce": "0xb6",
        "accessList": []
      },
      "additionalContracts": [],
      "isFixedGasLimit": false
    }
  ],
  "receipts": [
    {
      "transactionHash": "0x1c0f5715305ba8e279da7639cffbf08eaaeea57f5b234e2a2f4cd2c6ce532714",
      "transactionIndex": "0x28",
      "blockHash": "0x3b83c388da24eac924da946a80c7677d2564e64415b029edfe1d25a6b444f4ba",
      "blockNumber": "0x5377ed",
      "from": "0xdE05a1Abb121113a33eeD248BD91ddC254d5E9Db",
      "to": "0x5a9962874acA3b407aCeB14f64C7eF2C6255C880",
      "cumulativeGasUsed": "0x3b49bc",
      "gasUsed": "0xba31",
      "contractAddress": null,
      "logs": [
        {
          "address": "0x5a9962874acA3b407aCeB14f64C7eF2C6255C880",
          "topics": [
            "0x7628c1599617e8f71acfbf363d8064a2a32bdb6e63e074de3250cab57047bf79",
            "0x0000000000000000000000000000000000000000000000000000000000009cad"
          ],
          "data": "0x0000000000000000000000000000000000000000000000008ac7230489e80000",
          "blockHash": "0x3b83c388da24eac924da946a80c7677d2564e64415b029edfe1d25a6b444f4ba",
          "blockNumber": "0x5377ed",
          "transactionHash": "0x1c0f5715305ba8e279da7639cffbf08eaaeea57f5b234e2a2f4cd2c6ce532714",
          "transactionIndex": "0x28",
          "logIndex": "0x1b",
          "removed": false
        }
      ],
      "status": "0x1",
      "logsBloom": "0x00000000000000000000000000000000000000000000000000000000000000000000000000000000000000000000000000000000000000000004004000000000000000000000100000000000000000000000000000000000000000000000800000000002000000000000000000000000000000000000000000000000000000000000000000000000000000000000000000000000000000000000000000000000000000000000000000000000000000000000000000000000000000000000000000000000000000000000000000080000000000001000008000000000000000000000000000000000000000000000000000000010000000000000000000000000",
      "type": "0x2",
      "effectiveGasPrice": "0x20f241af46"
    },
    {
      "transactionHash": "0x1972537c75a679fe552af2701e2c6707938f391a755286c516fb9e3d5dac2f12",
      "transactionIndex": "0x29",
      "blockHash": "0x3b83c388da24eac924da946a80c7677d2564e64415b029edfe1d25a6b444f4ba",
      "blockNumber": "0x5377ed",
      "from": "0xdE05a1Abb121113a33eeD248BD91ddC254d5E9Db",
      "to": "0x5a9962874acA3b407aCeB14f64C7eF2C6255C880",
      "cumulativeGasUsed": "0x3c0395",
      "gasUsed": "0xb9d9",
      "contractAddress": null,
      "logs": [
        {
          "address": "0x5a9962874acA3b407aCeB14f64C7eF2C6255C880",
          "topics": [
            "0x9cc3784ef7ab64c61f0abf58d72c2a40ef45b319db540006be0aa3e4610b8433",
            "0x0000000000000000000000000000000000000000000000000000000000009cad"
          ],
          "data": "0x0000000000000000000000000000000000000000000000008ac7230489e80000",
          "blockHash": "0x3b83c388da24eac924da946a80c7677d2564e64415b029edfe1d25a6b444f4ba",
          "blockNumber": "0x5377ed",
          "transactionHash": "0x1972537c75a679fe552af2701e2c6707938f391a755286c516fb9e3d5dac2f12",
          "transactionIndex": "0x29",
          "logIndex": "0x1c",
          "removed": false
        }
      ],
      "status": "0x1",
      "logsBloom": "0x00000000000000000000000000000000000000000000000000000000000000000000000000000000000000000000000000000000000000000005004000000000000000000000100000000000000000000000000000000000000000000000000000000002000000000000000000000000000000000000000000000000000000000000000000000000000000000000000000000000000000000000000000008000000000000000000004000000000000000000000000000000000000000000000000000000000000000000000000000000000000001000000000000000000000000000000000000000000000000000000000000010000000000000000000000000",
      "type": "0x2",
      "effectiveGasPrice": "0x20f241af46"
    }
  ],
  "libraries": [],
  "pending": [],
  "returns": {},
  "timestamp": 1710242922,
  "chain": 11155111,
  "multi": false,
  "commit": "88dccd9"
}