{
  "transactions": [
    {
      "hash": "0xd4218b0dfff622ade2cb9b9bc96a85ea537e8c325bff2e314a429d64db7b617e",
      "transactionType": "CALL",
      "contractName": "MocaTokenAdaptor",
      "contractAddress": "0xD890Cd7CFb5e9aeda39Fa4A3FAf07CeB0B015F3c",
      "function": "setPeer(uint32,bytes32)",
      "arguments": [
        "40109",
        "0x0000000000000000000000008c979ef6a647c91f56654580f1c740c9f047edb2"
      ],
      "transaction": {
        "type": "0x02",
        "from": "0xde05a1abb121113a33eed248bd91ddc254d5e9db",
        "to": "0xd890cd7cfb5e9aeda39fa4a3faf07ceb0b015f3c",
        "gas": "0xa179",
        "value": "0x0",
        "data": "0x3400288b0000000000000000000000000000000000000000000000000000000000009cad0000000000000000000000008c979ef6a647c91f56654580f1c740c9f047edb2",
        "nonce": "0xa5",
        "accessList": []
      },
      "additionalContracts": [],
      "isFixedGasLimit": false
    }
  ],
  "receipts": [
    {
      "transactionHash": "0xd4218b0dfff622ade2cb9b9bc96a85ea537e8c325bff2e314a429d64db7b617e",
      "transactionIndex": "0x47",
      "blockHash": "0x8019d5a87d44b197ee940a078c7de11f4e93e2c3cd71e34f18bbac4232f33efd",
      "blockNumber": "0x53773a",
      "from": "0xdE05a1Abb121113a33eeD248BD91ddC254d5E9Db",
      "to": "0xD890Cd7CFb5e9aeda39Fa4A3FAf07CeB0B015F3c",
      "cumulativeGasUsed": "0x45f91d",
      "gasUsed": "0x74e8",
      "contractAddress": null,
      "logs": [
        {
          "address": "0xD890Cd7CFb5e9aeda39Fa4A3FAf07CeB0B015F3c",
          "topics": [
            "0x238399d427b947898edb290f5ff0f9109849b1c3ba196a42e35f00c50a54b98b"
          ],
          "data": "0x0000000000000000000000000000000000000000000000000000000000009cad0000000000000000000000008c979ef6a647c91f56654580f1c740c9f047edb2",
          "blockHash": "0x8019d5a87d44b197ee940a078c7de11f4e93e2c3cd71e34f18bbac4232f33efd",
          "blockNumber": "0x53773a",
          "transactionHash": "0xd4218b0dfff622ade2cb9b9bc96a85ea537e8c325bff2e314a429d64db7b617e",
          "transactionIndex": "0x47",
          "logIndex": "0x48",
          "removed": false
        }
      ],
      "status": "0x1",
      "logsBloom": "0x00000000000000000000000000000000000000000000000000000000000000000000000000000000000400000000000000000000000000000800000000000000000000000000000000000000000000000000000002000000000000000000000000000000000000000000000000000000000000000000000000000000000000000000000000000000000000000000000000000000000000000000000000000000000000000000000000000000000000000000000000000000000002000000000000000000000000000000000000000200000000000000000000040000000000000000000000000000000000000000000000000000000000000000000000000000",
      "type": "0x2",
      "effectiveGasPrice": "0x13e43300b9"
    }
  ],
  "libraries": [],
  "pending": [],
  "returns": {},
  "timestamp": 1710240713,
  "chain": 11155111,
  "multi": false,
  "commit": "88dccd9"
}