{
  "transactions": [
    {
      "hash": "0xf8f4f1e34a8f1e7b9f96bed8afa928f29a61f183b431a53ea376966bca2509e5",
      "transactionType": "CALL",
      "contractName": "MocaTokenAdaptor",
      "contractAddress": "0x434D21113d8E99f2A478dAe3e841450ce28a89C8",
      "function": "setEnforcedOptions((uint32,uint16,bytes)[])",
      "arguments": [
        "[(40109, 1, 0x00030100110100000000000000000000000000030d40)]"
      ],
      "transaction": {
        "type": "0x02",
        "from": "0xde05a1abb121113a33eed248bd91ddc254d5e9db",
        "to": "0x434d21113d8e99f2a478dae3e841450ce28a89c8",
        "gas": "0x12f4a",
        "value": "0x0",
        "data": "0xb98bd0700000000000000000000000000000000000000000000000000000000000000020000000000000000000000000000000000000000000000000000000000000000100000000000000000000000000000000000000000000000000000000000000200000000000000000000000000000000000000000000000000000000000009cad00000000000000000000000000000000000000000000000000000000000000010000000000000000000000000000000000000000000000000000000000000060000000000000000000000000000000000000000000000000000000000000001600030100110100000000000000000000000000030d4000000000000000000000",
        "nonce": "0x66",
        "accessList": []
      },
      "additionalContracts": [],
      "isFixedGasLimit": false
    }
  ],
  "receipts": [
    {
      "transactionHash": "0xf8f4f1e34a8f1e7b9f96bed8afa928f29a61f183b431a53ea376966bca2509e5",
      "transactionIndex": "0x34",
      "blockHash": "0x8e8c2ef373cdbb0fb141d4ce53649d1d0537f28d429036a4715d89dda6e74272",
      "blockNumber": "0x531a20",
      "from": "0xdE05a1Abb121113a33eeD248BD91ddC254d5E9Db",
      "to": "0x434D21113d8E99f2A478dAe3e841450ce28a89C8",
      "cumulativeGasUsed": "0x12801d",
      "gasUsed": "0xcf61",
      "contractAddress": null,
      "logs": [
        {
          "address": "0x434D21113d8E99f2A478dAe3e841450ce28a89C8",
          "topics": [
            "0xbe4864a8e820971c0247f5992e2da559595f7bf076a21cb5928d443d2a13b674"
          ],
          "data": "0x0000000000000000000000000000000000000000000000000000000000000020000000000000000000000000000000000000000000000000000000000000000100000000000000000000000000000000000000000000000000000000000000200000000000000000000000000000000000000000000000000000000000009cad00000000000000000000000000000000000000000000000000000000000000010000000000000000000000000000000000000000000000000000000000000060000000000000000000000000000000000000000000000000000000000000001600030100110100000000000000000000000000030d4000000000000000000000",
          "blockHash": "0x8e8c2ef373cdbb0fb141d4ce53649d1d0537f28d429036a4715d89dda6e74272",
          "blockNumber": "0x531a20",
          "transactionHash": "0xf8f4f1e34a8f1e7b9f96bed8afa928f29a61f183b431a53ea376966bca2509e5",
          "transactionIndex": "0x34",
          "logIndex": "0x3",
          "removed": false
        }
      ],
      "status": "0x1",
      "logsBloom": "0x00000000000000000000000000000000000000000000000000000000000000000000000000000000000000000000000000000000000000000000400000000000000000000000000000000000000000000000000000000000000000000000000000000000000000000000000000000000000000000000000000000000000000000000000000000000000000000000000000000000000000000000000000080000000000010000000000000000000000000000000000000000000000000000000000000000000100000000000002000000000000000000000000000000000000000000000000000000000000000000000000000000000000000000000010000000",
      "type": "0x2",
      "effectiveGasPrice": "0xb975d50b"
    }
  ],
  "libraries": [],
  "pending": [],
  "returns": {},
  "timestamp": 1709952086,
  "chain": 11155111,
  "multi": false,
  "commit": "0fb095c"
}