{
  "transactions": [
    {
      "hash": "0x7dc85c2ab603a57f691277dc6c3a7079703c4f9325a178ec280eb2a620510826",
      "transactionType": "CALL",
      "contractName": "MocaTokenAdaptor",
      "contractAddress": "0x4114eCCadF3b248DA9EEe7D8dF2d3bA6bB02Cbcd",
      "function": "setPeer(uint32,bytes32)",
      "arguments": [
        "40109",
        "0x0000000000000000000000008bb305df680eda14e6b25b975bf1a8831acf69ab"
      ],
      "transaction": {
        "type": "0x02",
        "from": "0xde05a1abb121113a33eed248bd91ddc254d5e9db",
        "to": "0x4114eccadf3b248da9eee7d8df2d3ba6bb02cbcd",
        "gas": "0x95ed",
        "value": "0x0",
        "data": "0x3400288b0000000000000000000000000000000000000000000000000000000000009cad0000000000000000000000008bb305df680eda14e6b25b975bf1a8831acf69ab",
        "nonce": "0x24",
        "accessList": []
      },
      "additionalContracts": [],
      "isFixedGasLimit": false
    }
  ],
  "receipts": [
    {
      "transactionHash": "0x7dc85c2ab603a57f691277dc6c3a7079703c4f9325a178ec280eb2a620510826",
      "transactionIndex": "0x5",
      "blockHash": "0x116e9acc71c5170886697b4bde08e486389e8a8028bf96d5be3a70fdda7e8086",
      "blockNumber": "0x529523",
      "from": "0xdE05a1Abb121113a33eeD248BD91ddC254d5E9Db",
      "to": "0x4114eCCadF3b248DA9EEe7D8dF2d3bA6bB02Cbcd",
      "cumulativeGasUsed": "0x3a9ee",
      "gasUsed": "0x6c8c",
      "contractAddress": null,
      "logs": [
        {
          "address": "0x4114eCCadF3b248DA9EEe7D8dF2d3bA6bB02Cbcd",
          "topics": [
            "0x238399d427b947898edb290f5ff0f9109849b1c3ba196a42e35f00c50a54b98b"
          ],
          "data": "0x0000000000000000000000000000000000000000000000000000000000009cad0000000000000000000000008bb305df680eda14e6b25b975bf1a8831acf69ab",
          "blockHash": "0x116e9acc71c5170886697b4bde08e486389e8a8028bf96d5be3a70fdda7e8086",
          "blockNumber": "0x529523",
          "transactionHash": "0x7dc85c2ab603a57f691277dc6c3a7079703c4f9325a178ec280eb2a620510826",
          "transactionIndex": "0x5",
          "logIndex": "0x3",
          "removed": false
        }
      ],
      "status": "0x1",
      "logsBloom": "0x00000000000000000000000000000000000000000000000004000000000000000000000000000000000000000000000000000000000000000800000000000000000000000000000000000000000000000000000000000000000000000000000000000000000000000000000000000000000000000000000000000000000000000000000000000000000000000000000000000000000000000000000000000000000000000000000000000000000000000000020000000000000002000000000000000000000000000000000000000000000000000000000000040000000000000000000000000000000000000000000000000000000000001000000000000000",
      "type": "0x2",
      "effectiveGasPrice": "0xb98d569d"
    }
  ],
  "libraries": [],
  "pending": [],
  "returns": {},
  "timestamp": 1709522276,
  "chain": 11155111,
  "multi": false,
  "commit": "a57ec96"
}