{
  "transactions": [
    {
      "hash": "0xb0c7a760d6c0301822da3f5167820930694ace4a2083dc2dbb8f6f68eb582ecf",
      "transactionType": "CALL",
      "contractName": "MocaTokenAdaptor",
      "contractAddress": "0xC60FDE3964f1bafC4cd0EE9403Cab7F789dDb8A7",
      "function": "setEnforcedOptions((uint32,uint16,bytes)[])",
      "arguments": [
        "[(40109, 1, 0x00030100110100000000000000000000000000030d40)]"
      ],
      "transaction": {
        "type": "0x02",
        "from": "0xde05a1abb121113a33eed248bd91ddc254d5e9db",
        "to": "0xc60fde3964f1bafc4cd0ee9403cab7f789ddb8a7",
        "gas": "0x12f4a",
        "value": "0x0",
        "data": "0xb98bd0700000000000000000000000000000000000000000000000000000000000000020000000000000000000000000000000000000000000000000000000000000000100000000000000000000000000000000000000000000000000000000000000200000000000000000000000000000000000000000000000000000000000009cad00000000000000000000000000000000000000000000000000000000000000010000000000000000000000000000000000000000000000000000000000000060000000000000000000000000000000000000000000000000000000000000001600030100110100000000000000000000000000030d4000000000000000000000",
        "nonce": "0x80",
        "accessList": []
      },
      "additionalContracts": [],
      "isFixedGasLimit": false
    }
  ],
  "receipts": [],
  "libraries": [],
  "pending": [
    "0xb0c7a760d6c0301822da3f5167820930694ace4a2083dc2dbb8f6f68eb582ecf"
  ],
  "returns": {},
  "timestamp": 1709955412,
  "chain": 11155111,
  "multi": false,
  "commit": "0fb095c"
}