{
  "transactions": [
    {
      "hash": "0xcaa718d911e77ce8b1b08ed294d23b90bcae28c9b95ec3541c41b810ba243ea6",
      "transactionType": "CALL",
      "contractName": "MocaTokenAdaptor",
      "contractAddress": "0xD890Cd7CFb5e9aeda39Fa4A3FAf07CeB0B015F3c",
      "function": "setOutboundCap(uint32,uint256)",
      "arguments": [
        "40109",
        "10000000000000000000"
      ],
      "transaction": {
        "type": "0x02",
        "from": "0xde05a1abb121113a33eed248bd91ddc254d5e9db",
        "to": "0xd890cd7cfb5e9aeda39fa4a3faf07ceb0b015f3c",
        "gas": "0x10fcf",
        "value": "0x0",
        "data": "0x048849750000000000000000000000000000000000000000000000000000000000009cad0000000000000000000000000000000000000000000000008ac7230489e80000",
        "nonce": "0x85",
        "accessList": []
      },
      "additionalContracts": [],
      "isFixedGasLimit": false
    },
    {
      "hash": "0x366c68dba85335d5e3cc0e560914fbd3f0bbf1265a979298a76923dd87283451",
      "transactionType": "CALL",
      "contractName": "MocaTokenAdaptor",
      "contractAddress": "0xD890Cd7CFb5e9aeda39Fa4A3FAf07CeB0B015F3c",
      "function": "setInboundCap(uint32,uint256)",
      "arguments": [
        "40109",
        "10000000000000000000"
      ],
      "transaction": {
        "type": "0x02",
        "from": "0xde05a1abb121113a33eed248bd91ddc254d5e9db",
        "to": "0xd890cd7cfb5e9aeda39fa4a3faf07ceb0b015f3c",
        "gas": "0x10fce",
        "value": "0x0",
        "data": "0x256008550000000000000000000000000000000000000000000000000000000000009cad0000000000000000000000000000000000000000000000008ac7230489e80000",
        "nonce": "0x86",
        "accessList": []
      },
      "additionalContracts": [],
      "isFixedGasLimit": false
    }
  ],
  "receipts": [],
  "libraries": [],
  "pending": [
    "0xcaa718d911e77ce8b1b08ed294d23b90bcae28c9b95ec3541c41b810ba243ea6",
    "0x366c68dba85335d5e3cc0e560914fbd3f0bbf1265a979298a76923dd87283451"
  ],
  "returns": {},
  "timestamp": 1709955788,
  "chain": 11155111,
  "multi": false,
  "commit": "0fb095c"
}