{
  "transactions": [
    {
      "hash": "0x25eb9735aa69d5ca4cab195d4b0343c418698acaaf4ceed5f761e45600b6e855",
      "transactionType": "CALL",
      "contractName": "MocaTokenAdaptor",
      "contractAddress": "0xD890Cd7CFb5e9aeda39Fa4A3FAf07CeB0B015F3c",
      "function": "setEnforcedOptions((uint32,uint16,bytes)[])",
      "arguments": [
        "[(40109, 1, 0x00030100110100000000000000000000000000030d40), (40109, 2, 0x000301001303000000000000000000000000000000030d40)]"
      ],
      "transaction": {
        "type": "0x02",
        "from": "0xde05a1abb121113a33eed248bd91ddc254d5e9db",
        "to": "0xd890cd7cfb5e9aeda39fa4a3faf07ceb0b015f3c",
        "gas": "0xf8bb",
        "value": "0x0",
        "data": "0xb98bd07000000000000000000000000000000000000000000000000000000000000000200000000000000000000000000000000000000000000000000000000000000002000000000000000000000000000000000000000000000000000000000000004000000000000000000000000000000000000000000000000000000000000000e00000000000000000000000000000000000000000000000000000000000009cad00000000000000000000000000000000000000000000000000000000000000010000000000000000000000000000000000000000000000000000000000000060000000000000000000000000000000000000000000000000000000000000001600030100110100000000000000000000000000030d40000000000000000000000000000000000000000000000000000000000000000000000000000000009cad000000000000000000000000000000000000000000000000000000000000000200000000000000000000000000000000000000000000000000000000000000600000000000000000000000000000000000000000000000000000000000000018000301001303000000000000000000000000000000030d400000000000000000",
        "nonce": "0x8b",
        "accessList": []
      },
      "additionalContracts": [],
      "isFixedGasLimit": false
    }
  ],
  "receipts": [],
  "libraries": [],
  "pending": [
    "0x25eb9735aa69d5ca4cab195d4b0343c418698acaaf4ceed5f761e45600b6e855"
  ],
  "returns": {},
  "timestamp": 1709958576,
  "chain": 11155111,
  "multi": false,
  "commit": "0fb095c"
}