{
  "transactions": [
    {
      "hash": "0x00016527549e84156d758197db81c1eeb5e07f1dab29c440313143d5d3638fdd",
      "transactionType": "CALL",
      "contractName": "MocaToken",
      "contractAddress": "0x9B3AD6340a158e6Ce8aC7176eC529D699F40A806",
      "function": "approve(address,uint256)",
      "arguments": [
        "0xD890Cd7CFb5e9aeda39Fa4A3FAf07CeB0B015F3c",
        "1000000000000000000"
      ],
      "transaction": {
        "type": "0x02",
        "from": "0xde05a1abb121113a33eed248bd91ddc254d5e9db",
        "to": "0x9b3ad6340a158e6ce8ac7176ec529d699f40a806",
        "gas": "0x8ef1",
        "value": "0x0",
        "data": "0x095ea7b3000000000000000000000000d890cd7cfb5e9aeda39fa4a3faf07ceb0b015f3c0000000000000000000000000000000000000000000000000de0b6b3a7640000",
        "nonce": "0x96",
        "accessList": []
      },
      "additionalContracts": [],
      "isFixedGasLimit": false
    },
    {
      "hash": "0xb0df7115a713ee4180942d6803151188603e9c3230dfdc08a655cc541e6b2c0c",
      "transactionType": "CALL",
      "contractName": "MocaTokenAdaptor",
      "contractAddress": "0xD890Cd7CFb5e9aeda39Fa4A3FAf07CeB0B015F3c",
      "function": "send((uint32,bytes32,uint256,uint256,bytes,bytes,bytes),(uint256,uint256),address)",
      "arguments": [
        "(40109, 0x000000000000000000000000de05a1abb121113a33eed248bd91ddc254d5e9db, 1000000000000000000, 1000000000000000000, 0x, 0x, 0x)",
        "(61704631570864, 0)",
        "0xdE05a1Abb121113a33eeD248BD91ddC254d5E9Db"
      ],
      "transaction": {
        "type": "0x02",
        "from": "0xde05a1abb121113a33eed248bd91ddc254d5e9db",
        "to": "0xd890cd7cfb5e9aeda39fa4a3faf07ceb0b015f3c",
        "gas": "0x51625",
        "value": "0x381ebaa551b0",
        "data": "0xc7c7f5b300000000000000000000000000000000000000000000000000000000000000800000000000000000000000000000000000000000000000000000381ebaa551b00000000000000000000000000000000000000000000000000000000000000000000000000000000000000000de05a1abb121113a33eed248bd91ddc254d5e9db0000000000000000000000000000000000000000000000000000000000009cad000000000000000000000000de05a1abb121113a33eed248bd91ddc254d5e9db0000000000000000000000000000000000000000000000000de0b6b3a76400000000000000000000000000000000000000000000000000000de0b6b3a764000000000000000000000000000000000000000000000000000000000000000000e000000000000000000000000000000000000000000000000000000000000001000000000000000000000000000000000000000000000000000000000000000120000000000000000000000000000000000000000000000000000000000000000000000000000000000000000000000000000000000000000000000000000000000000000000000000000000000000000000000000000000000000000000000000",
        "nonce": "0x97",
        "accessList": []
      },
      "additionalContracts": [],
      "isFixedGasLimit": false
    }
  ],
  "receipts": [
    {
      "transactionHash": "0x00016527549e84156d758197db81c1eeb5e07f1dab29c440313143d5d3638fdd",
      "transactionIndex": "0x8",
      "blockHash": "0x412413a1e00829cd1070d5fa5245ed4a25a3f9be1aea58562d044fca7ba28737",
      "blockNumber": "0x531cfe",
      "from": "0xdE05a1Abb121113a33eeD248BD91ddC254d5E9Db",
      "to": "0x9B3AD6340a158e6Ce8aC7176eC529D699F40A806",
      "cumulativeGasUsed": "0x7ebae",
      "gasUsed": "0x677e",
      "contractAddress": null,
      "logs": [
        {
          "address": "0x9B3AD6340a158e6Ce8aC7176eC529D699F40A806",
          "topics": [
            "0x8c5be1e5ebec7d5bd14f71427d1e84f3dd0314c0f7b2291e5b200ac8c7c3b925",
            "0x000000000000000000000000de05a1abb121113a33eed248bd91ddc254d5e9db",
            "0x000000000000000000000000d890cd7cfb5e9aeda39fa4a3faf07ceb0b015f3c"
          ],
          "data": "0x0000000000000000000000000000000000000000000000000de0b6b3a7640000",
          "blockHash": "0x412413a1e00829cd1070d5fa5245ed4a25a3f9be1aea58562d044fca7ba28737",
          "blockNumber": "0x531cfe",
          "transactionHash": "0x00016527549e84156d758197db81c1eeb5e07f1dab29c440313143d5d3638fdd",
          "transactionIndex": "0x8",
          "logIndex": "0xb",
          "removed": false
        }
      ],
      "status": "0x1",
      "logsBloom": "0x00000000000000000000000000000000000000000000000000100000400000000000000000000000000000000000000000000000000000000000000000600000000000000000000000000000000000000000000000000000000000000000000000000000000000000000000000000000000000000000004000000000000000000000000000000020000000000000000800000000000000000000000000000000020000000000000000000000000000000000000100000000000000000000080000000000000000000000000000000000000000000000000000000000000000000010000000000000000000000000000000000000000000000000000000000040",
      "type": "0x2",
      "effectiveGasPrice": "0xb89d5ab2"
    },
    {
      "transactionHash": "0xb0df7115a713ee4180942d6803151188603e9c3230dfdc08a655cc541e6b2c0c",
      "transactionIndex": "0x9",
      "blockHash": "0x412413a1e00829cd1070d5fa5245ed4a25a3f9be1aea58562d044fca7ba28737",
      "blockNumber": "0x531cfe",
      "from": "0xdE05a1Abb121113a33eeD248BD91ddC254d5E9Db",
      "to": "0xD890Cd7CFb5e9aeda39Fa4A3FAf07CeB0B015F3c",
      "cumulativeGasUsed": "0xb9a6a",
      "gasUsed": "0x3aebc",
      "contractAddress": null,
      "logs": [
        {
          "address": "0x9B3AD6340a158e6Ce8aC7176eC529D699F40A806",
          "topics": [
            "0xddf252ad1be2c89b69c2b068fc378daa952ba7f163c4a11628f55a4df523b3ef",
            "0x000000000000000000000000de05a1abb121113a33eed248bd91ddc254d5e9db",
            "0x000000000000000000000000d890cd7cfb5e9aeda39fa4a3faf07ceb0b015f3c"
          ],
          "data": "0x0000000000000000000000000000000000000000000000000de0b6b3a7640000",
          "blockHash": "0x412413a1e00829cd1070d5fa5245ed4a25a3f9be1aea58562d044fca7ba28737",
          "blockNumber": "0x531cfe",
          "transactionHash": "0xb0df7115a713ee4180942d6803151188603e9c3230dfdc08a655cc541e6b2c0c",
          "transactionIndex": "0x9",
          "logIndex": "0xc",
          "removed": false
        },
        {
          "address": "0xcc1ae8Cf5D3904Cef3360A9532B477529b177cCE",
          "topics": [
            "0x61ed099e74a97a1d7f8bb0952a88ca8b7b8ebd00c126ea04671f92a81213318a"
          ],
          "data": "0x000000000000000000000000718b92b5cb0a5552039b593faf724d182a881eda000000000000000000000000000000000000000000000000000034b328ffdc44",
          "blockHash": "0x412413a1e00829cd1070d5fa5245ed4a25a3f9be1aea58562d044fca7ba28737",
          "blockNumber": "0x531cfe",
          "transactionHash": "0xb0df7115a713ee4180942d6803151188603e9c3230dfdc08a655cc541e6b2c0c",
          "transactionIndex": "0x9",
          "logIndex": "0xd",
          "removed": false
        },
        {
          "address": "0xcc1ae8Cf5D3904Cef3360A9532B477529b177cCE",
          "topics": [
            "0x07ea52d82345d6e838192107d8fd7123d9c2ec8e916cd0aad13fd2b60db24644"
          ],
          "data": "0x000000000000000000000000000000000000000000000000000000000000006000000000000000000000000000000000000000000000000000000000000000a000000000000000000000000000000000000000000000000000000000000000c000000000000000000000000000000000000000000000000000000000000000010000000000000000000000008eebf8b423b73bfca51a1db4b7354aa0bfca9193000000000000000000000000000000000000000000000000000000000000000000000000000000000000000000000000000000000000000000000000000000010000000000000000000000000000000000000000000000000000036b91a5756c",
          "blockHash": "0x412413a1e00829cd1070d5fa5245ed4a25a3f9be1aea58562d044fca7ba28737",
          "blockNumber": "0x531cfe",
          "transactionHash": "0xb0df7115a713ee4180942d6803151188603e9c3230dfdc08a655cc541e6b2c0c",
          "transactionIndex": "0x9",
          "logIndex": "0xe",
          "removed": false
        },
        {
          "address": "0x6EDCE65403992e310A62460808c4b910D972f10f",
          "topics": [
            "0x1ab700d4ced0c005b164c0f789fd09fcbb0156d4c2041b8a3bfbcd961cd1567f"
          ],
          "data": "0x00000000000000000000000000000000000000000000000000000000000000600000000000000000000000000000000000000000000000000000000000000120000000000000000000000000cc1ae8cf5d3904cef3360a9532b477529b177cce000000000000000000000000000000000000000000000000000000000000009901000000000000000400009ce1000000000000000000000000d890cd7cfb5e9aeda39fa4a3faf07ceb0b015f3c00009cad0000000000000000000000008c979ef6a647c91f56654580f1c740c9f047edb2d410ecfb5e1e04b37cb7cf22a7805f4feb286a6d0f2d1a89e6b9e3cbe9a4f595000000000000000000000000de05a1abb121113a33eed248bd91ddc254d5e9db00000000000f424000000000000000000000000000000000000000000000000000000000000000000000000000001600030100110100000000000000000000000000030d4000000000000000000000",
          "blockHash": "0x412413a1e00829cd1070d5fa5245ed4a25a3f9be1aea58562d044fca7ba28737",
          "blockNumber": "0x531cfe",
          "transactionHash": "0xb0df7115a713ee4180942d6803151188603e9c3230dfdc08a655cc541e6b2c0c",
          "transactionIndex": "0x9",
          "logIndex": "0xf",
          "removed": false
        },
        {
          "address": "0xD890Cd7CFb5e9aeda39Fa4A3FAf07CeB0B015F3c",
          "topics": [
            "0xfff873bb909b73d08a8c1af4b21779e87103bb8ea8cf3b3a0067eb8526b8b80a",
            "0xd410ecfb5e1e04b37cb7cf22a7805f4feb286a6d0f2d1a89e6b9e3cbe9a4f595",
            "0x000000000000000000000000de05a1abb121113a33eed248bd91ddc254d5e9db"
          ],
          "data": "0x0000000000000000000000000000000000000000000000000000000000009cad0000000000000000000000000000000000000000000000000de0b6b3a7640000",
          "blockHash": "0x412413a1e00829cd1070d5fa5245ed4a25a3f9be1aea58562d044fca7ba28737",
          "blockNumber": "0x531cfe",
          "transactionHash": "0xb0df7115a713ee4180942d6803151188603e9c3230dfdc08a655cc541e6b2c0c",
          "transactionIndex": "0x9",
          "logIndex": "0x10",
          "removed": false
        }
      ],
      "status": "0x1",
      "logsBloom": "0x00000000000000000000000000000000000000000000000030100000400100000000000000000000200400000080000000000000000000000000000000400000000000000000000000000008000000000000000002000000000000000000000000000000000000008200000000000000000000000000004000000010000000000000000000000020000000080000004800000000000000000000000000000000000000008000000000100000000000000000000100400000000440000000080000000002000000000000000000000200000000080000000000000000000000000000040000000000800000000000002000000000000000000000000000001060",
      "type": "0x2",
      "effectiveGasPrice": "0xb89d5ab2"
    }
  ],
  "libraries": [],
  "pending": [],
  "returns": {},
  "timestamp": 1709960910,
  "chain": 11155111,
  "multi": false,
  "commit": "a03b268"
}