{
  "transactions": [
    {
      "hash": "0x21a4c58a4f25689bd92f49589b2d8bc90d81d53414b8b057d1c585696657b4e2",
      "transactionType": "CALL",
      "contractName": "MocaToken",
      "contractAddress": "0xA2E400CE40C83270d8369eC971D0fc2e46D5056a",
      "function": "approve(address,uint256)",
      "arguments": [
        "0x5a9962874acA3b407aCeB14f64C7eF2C6255C880",
        "1000000000000000000"
      ],
      "transaction": {
        "type": "0x02",
        "from": "0xde05a1abb121113a33eed248bd91ddc254d5e9db",
        "to": "0xa2e400ce40c83270d8369ec971d0fc2e46d5056a",
        "gas": "0x1090a",
        "value": "0x0",
        "data": "0x095ea7b30000000000000000000000005a9962874aca3b407aceb14f64c7ef2c6255c8800000000000000000000000000000000000000000000000000de0b6b3a7640000",
        "nonce": "0xc5",
        "accessList": []
      },
      "additionalContracts": [],
      "isFixedGasLimit": false
    },
    {
      "hash": "0x50abab97fd79cc96666dfddc5e3ec6e5c014e4508051f8a178faeba668dd48af",
      "transactionType": "CALL",
      "contractName": "MocaTokenAdapter",
      "contractAddress": "0x5a9962874acA3b407aCeB14f64C7eF2C6255C880",
      "function": "send((uint32,bytes32,uint256,uint256,bytes,bytes,bytes),(uint256,uint256),address)",
      "arguments": [
        "(40109, 0x000000000000000000000000de05a1abb121113a33eed248bd91ddc254d5e9db, 1000000000000000000, 1000000000000000000, 0x, 0x, 0x)",
        "(52243941682823, 0)",
        "0xdE05a1Abb121113a33eeD248BD91ddC254d5E9Db"
      ],
      "transaction": {
        "type": "0x02",
        "from": "0xde05a1abb121113a33eed248bd91ddc254d5e9db",
        "to": "0x5a9962874aca3b407aceb14f64c7ef2c6255c880",
        "gas": "0x51560",
        "value": "0x2f83fd95ee87",
        "data": "0xc7c7f5b3000000000000000000000000000000000000000000000000000000000000008000000000000000000000000000000000000000000000000000002f83fd95ee870000000000000000000000000000000000000000000000000000000000000000000000000000000000000000de05a1abb121113a33eed248bd91ddc254d5e9db0000000000000000000000000000000000000000000000000000000000009cad000000000000000000000000de05a1abb121113a33eed248bd91ddc254d5e9db0000000000000000000000000000000000000000000000000de0b6b3a76400000000000000000000000000000000000000000000000000000de0b6b3a764000000000000000000000000000000000000000000000000000000000000000000e000000000000000000000000000000000000000000000000000000000000001000000000000000000000000000000000000000000000000000000000000000120000000000000000000000000000000000000000000000000000000000000000000000000000000000000000000000000000000000000000000000000000000000000000000000000000000000000000000000000000000000000000000000000",
        "nonce": "0xc6",
        "accessList": []
      },
      "additionalContracts": [],
      "isFixedGasLimit": false
    }
  ],
  "receipts": [
    {
      "transactionHash": "0x21a4c58a4f25689bd92f49589b2d8bc90d81d53414b8b057d1c585696657b4e2",
      "transactionIndex": "0xc",
      "blockHash": "0xfc7432e9592fb906a20f6754bb01025f22c9d4517acc9cfa834216289b2565a7",
      "blockNumber": "0x53a25d",
      "from": "0xdE05a1Abb121113a33eeD248BD91ddC254d5E9Db",
      "to": "0xA2E400CE40C83270d8369eC971D0fc2e46D5056a",
      "cumulativeGasUsed": "0x87e49",
      "gasUsed": "0xb53a",
      "contractAddress": null,
      "logs": [
        {
          "address": "0xA2E400CE40C83270d8369eC971D0fc2e46D5056a",
          "topics": [
            "0x8c5be1e5ebec7d5bd14f71427d1e84f3dd0314c0f7b2291e5b200ac8c7c3b925",
            "0x000000000000000000000000de05a1abb121113a33eed248bd91ddc254d5e9db",
            "0x0000000000000000000000005a9962874aca3b407aceb14f64c7ef2c6255c880"
          ],
          "data": "0x0000000000000000000000000000000000000000000000000de0b6b3a7640000",
          "blockHash": "0xfc7432e9592fb906a20f6754bb01025f22c9d4517acc9cfa834216289b2565a7",
          "blockNumber": "0x53a25d",
          "transactionHash": "0x21a4c58a4f25689bd92f49589b2d8bc90d81d53414b8b057d1c585696657b4e2",
          "transactionIndex": "0xc",
          "logIndex": "0xd",
          "removed": false
        }
      ],
      "status": "0x1",
      "logsBloom": "0x00000000000000000000000000000000000000000000000000100000000000000000000000000000000000000000000000000000000000000000000000200000000000000000000000000000000000000004000000000000000000000000000000000000000000000000000000000000000000000000004001000000000008000000000000000020000000000000000000000000000000000000000000000000020000000000000000000000000000000000000000000000000000000000000000000000000000000000000000000000000400000000000400000000000000000010000000000000000000000000000000000000000000000000000040000000",
      "type": "0x2",
      "effectiveGasPrice": "0xbffdb7eb"
    },
    {
      "transactionHash": "0x50abab97fd79cc96666dfddc5e3ec6e5c014e4508051f8a178faeba668dd48af",
      "transactionIndex": "0xd",
      "blockHash": "0xfc7432e9592fb906a20f6754bb01025f22c9d4517acc9cfa834216289b2565a7",
      "blockNumber": "0x53a25d",
      "from": "0xdE05a1Abb121113a33eeD248BD91ddC254d5E9Db",
      "to": "0x5a9962874acA3b407aCeB14f64C7eF2C6255C880",
      "cumulativeGasUsed": "0xc2c76",
      "gasUsed": "0x3ae2d",
      "contractAddress": null,
      "logs": [
        {
          "address": "0xA2E400CE40C83270d8369eC971D0fc2e46D5056a",
          "topics": [
            "0xddf252ad1be2c89b69c2b068fc378daa952ba7f163c4a11628f55a4df523b3ef",
            "0x000000000000000000000000de05a1abb121113a33eed248bd91ddc254d5e9db",
            "0x0000000000000000000000005a9962874aca3b407aceb14f64c7ef2c6255c880"
          ],
          "data": "0x0000000000000000000000000000000000000000000000000de0b6b3a7640000",
          "blockHash": "0xfc7432e9592fb906a20f6754bb01025f22c9d4517acc9cfa834216289b2565a7",
          "blockNumber": "0x53a25d",
          "transactionHash": "0x50abab97fd79cc96666dfddc5e3ec6e5c014e4508051f8a178faeba668dd48af",
          "transactionIndex": "0xd",
          "logIndex": "0xe",
          "removed": false
        },
        {
          "address": "0xcc1ae8Cf5D3904Cef3360A9532B477529b177cCE",
          "topics": [
            "0x61ed099e74a97a1d7f8bb0952a88ca8b7b8ebd00c126ea04671f92a81213318a"
          ],
          "data": "0x000000000000000000000000718b92b5cb0a5552039b593faf724d182a881eda00000000000000000000000000000000000000000000000000002d30efb4d294",
          "blockHash": "0xfc7432e9592fb906a20f6754bb01025f22c9d4517acc9cfa834216289b2565a7",
          "blockNumber": "0x53a25d",
          "transactionHash": "0x50abab97fd79cc96666dfddc5e3ec6e5c014e4508051f8a178faeba668dd48af",
          "transactionIndex": "0xd",
          "logIndex": "0xf",
          "removed": false
        },
        {
          "address": "0xcc1ae8Cf5D3904Cef3360A9532B477529b177cCE",
          "topics": [
            "0x07ea52d82345d6e838192107d8fd7123d9c2ec8e916cd0aad13fd2b60db24644"
          ],
          "data": "0x000000000000000000000000000000000000000000000000000000000000006000000000000000000000000000000000000000000000000000000000000000a000000000000000000000000000000000000000000000000000000000000000c000000000000000000000000000000000000000000000000000000000000000010000000000000000000000008eebf8b423b73bfca51a1db4b7354aa0bfca919300000000000000000000000000000000000000000000000000000000000000000000000000000000000000000000000000000000000000000000000000000001000000000000000000000000000000000000000000000000000002530de11bf3",
          "blockHash": "0xfc7432e9592fb906a20f6754bb01025f22c9d4517acc9cfa834216289b2565a7",
          "blockNumber": "0x53a25d",
          "transactionHash": "0x50abab97fd79cc96666dfddc5e3ec6e5c014e4508051f8a178faeba668dd48af",
          "transactionIndex": "0xd",
          "logIndex": "0x10",
          "removed": false
        },
        {
          "address": "0x6EDCE65403992e310A62460808c4b910D972f10f",
          "topics": [
            "0x1ab700d4ced0c005b164c0f789fd09fcbb0156d4c2041b8a3bfbcd961cd1567f"
          ],
          "data": "0x00000000000000000000000000000000000000000000000000000000000000600000000000000000000000000000000000000000000000000000000000000120000000000000000000000000cc1ae8cf5d3904cef3360a9532b477529b177cce000000000000000000000000000000000000000000000000000000000000009901000000000000000700009ce10000000000000000000000005a9962874aca3b407aceb14f64c7ef2c6255c88000009cad000000000000000000000000aa7a95e597a65eb06dae4ed54f1b62e0535d91569f08340cf39d6aa2113ea70b773ea02f8d4a103e3d43391ff674962a0742c6a7000000000000000000000000de05a1abb121113a33eed248bd91ddc254d5e9db00000000000f424000000000000000000000000000000000000000000000000000000000000000000000000000001600030100110100000000000000000000000000030d4000000000000000000000",
          "blockHash": "0xfc7432e9592fb906a20f6754bb01025f22c9d4517acc9cfa834216289b2565a7",
          "blockNumber": "0x53a25d",
          "transactionHash": "0x50abab97fd79cc96666dfddc5e3ec6e5c014e4508051f8a178faeba668dd48af",
          "transactionIndex": "0xd",
          "logIndex": "0x11",
          "removed": false
        },
        {
          "address": "0x5a9962874acA3b407aCeB14f64C7eF2C6255C880",
          "topics": [
            "0xfff873bb909b73d08a8c1af4b21779e87103bb8ea8cf3b3a0067eb8526b8b80a",
            "0x9f08340cf39d6aa2113ea70b773ea02f8d4a103e3d43391ff674962a0742c6a7",
            "0x000000000000000000000000de05a1abb121113a33eed248bd91ddc254d5e9db"
          ],
          "data": "0x0000000000000000000000000000000000000000000000000000000000009cad0000000000000000000000000000000000000000000000000de0b6b3a7640000",
          "blockHash": "0xfc7432e9592fb906a20f6754bb01025f22c9d4517acc9cfa834216289b2565a7",
          "blockNumber": "0x53a25d",
          "transactionHash": "0x50abab97fd79cc96666dfddc5e3ec6e5c014e4508051f8a178faeba668dd48af",
          "transactionIndex": "0xd",
          "logIndex": "0x12",
          "removed": false
        }
      ],
      "status": "0x1",
      "logsBloom": "0x00000000000000000000000000000000000000000000000030100000000100000000000000000000200000000080000000000000000000000004004000000000000000000000000000000008000000000004000000000000000000000000000010000000000000008200000000000000000000000000004001000010000008000000000000000020000000080000000000000000000000000000000000000000000000008000000000100000000000000000000000400000000440002000000000000002000000000000000000800000000400081000000400000000000000000000040000000000000000000000002000000000000000000000000040000020",
      "type": "0x2",
      "effectiveGasPrice": "0xbffdb7eb"
    }
  ],
  "libraries": [],
  "pending": [],
  "returns": {},
  "timestamp": 1710380488,
  "chain": 11155111,
  "commit": "564059c"
}