{
  "transactions": [
    {
      "hash": "0x6c30bf0baf1b4057ecbc5e6193c3485074fa37273e55f9748045003cf61ac28f",
      "transactionType": "CALL",
      "contractName": "MocaToken",
      "contractAddress": "0xFe149349285995D59Ec3FD6A5080840443906B45",
      "function": "approve(address,uint256)",
      "arguments": [
        "0xa8F355AE124d7120dAEA13239b6cC89FB0376779",
        "1000000000000000000"
      ],
      "transaction": {
        "type": "0x02",
        "from": "0xde05a1abb121113a33eed248bd91ddc254d5e9db",
        "to": "0xfe149349285995d59ec3fd6a5080840443906b45",
        "gas": "0x1090a",
        "value": "0x0",
        "data": "0x095ea7b3000000000000000000000000a8f355ae124d7120daea13239b6cc89fb03767790000000000000000000000000000000000000000000000000de0b6b3a7640000",
        "nonce": "0x12d",
        "accessList": []
      },
      "additionalContracts": [],
      "isFixedGasLimit": false
    },
    {
      "hash": "0xbd51e7c22f5ecce097697dbf504f1f333266e7c0fe5ee2ebbab2b4439f9c6997",
      "transactionType": "CALL",
      "contractName": "MocaTokenAdapter",
      "contractAddress": "0xa8F355AE124d7120dAEA13239b6cC89FB0376779",
      "function": "send((uint32,bytes32,uint256,uint256,bytes,bytes,bytes),(uint256,uint256),address)",
      "arguments": [
        "(40109, 0x000000000000000000000000de05a1abb121113a33eed248bd91ddc254d5e9db, 1000000000000000000, 1000000000000000000, 0x, 0x, 0x)",
        "(67822145942540, 0)",
        "0xdE05a1Abb121113a33eeD248BD91ddC254d5E9Db"
      ],
      "transaction": {
        "type": "0x02",
        "from": "0xde05a1abb121113a33eed248bd91ddc254d5e9db",
        "to": "0xa8f355ae124d7120daea13239b6cc89fb0376779",
        "gas": "0x551b1",
        "value": "0x3daf12eab40c",
        "data": "0xc7c7f5b3000000000000000000000000000000000000000000000000000000000000008000000000000000000000000000000000000000000000000000003daf12eab40c0000000000000000000000000000000000000000000000000000000000000000000000000000000000000000de05a1abb121113a33eed248bd91ddc254d5e9db0000000000000000000000000000000000000000000000000000000000009cad000000000000000000000000de05a1abb121113a33eed248bd91ddc254d5e9db0000000000000000000000000000000000000000000000000de0b6b3a76400000000000000000000000000000000000000000000000000000de0b6b3a764000000000000000000000000000000000000000000000000000000000000000000e000000000000000000000000000000000000000000000000000000000000001000000000000000000000000000000000000000000000000000000000000000120000000000000000000000000000000000000000000000000000000000000000000000000000000000000000000000000000000000000000000000000000000000000000000000000000000000000000000000000000000000000000000000000",
        "nonce": "0x12e",
        "accessList": []
      },
      "additionalContracts": [],
      "isFixedGasLimit": false
    }
  ],
  "receipts": [
    {
      "transactionHash": "0x6c30bf0baf1b4057ecbc5e6193c3485074fa37273e55f9748045003cf61ac28f",
      "transactionIndex": "0xe",
      "blockHash": "0x46f6a31c3f121b12e29ec1447c128b9d20be3f4da016010be3bccf974ef5990c",
      "blockNumber": "0x54b3de",
      "from": "0xdE05a1Abb121113a33eeD248BD91ddC254d5E9Db",
      "to": "0xFe149349285995D59Ec3FD6A5080840443906B45",
      "cumulativeGasUsed": "0x8f1c4",
      "gasUsed": "0xb53a",
      "contractAddress": null,
      "logs": [
        {
          "address": "0xFe149349285995D59Ec3FD6A5080840443906B45",
          "topics": [
            "0x8c5be1e5ebec7d5bd14f71427d1e84f3dd0314c0f7b2291e5b200ac8c7c3b925",
            "0x000000000000000000000000de05a1abb121113a33eed248bd91ddc254d5e9db",
            "0x000000000000000000000000a8f355ae124d7120daea13239b6cc89fb0376779"
          ],
          "data": "0x0000000000000000000000000000000000000000000000000de0b6b3a7640000",
          "blockHash": "0x46f6a31c3f121b12e29ec1447c128b9d20be3f4da016010be3bccf974ef5990c",
          "blockNumber": "0x54b3de",
          "transactionHash": "0x6c30bf0baf1b4057ecbc5e6193c3485074fa37273e55f9748045003cf61ac28f",
          "transactionIndex": "0xe",
          "logIndex": "0x6",
          "removed": false
        }
      ],
      "status": "0x1",
      "logsBloom": "0x00000000000000000000000000000000000000000000000000100000000000000000000000000000000000000000100000000000000000000000000000200000000080000800000040000000000000000000000000000000000000000000000000000000000000000000000000000000000000000000004000000000000000000000000200000020000000000000000000000000000000000000000000000000020000000000000000000000000000000000000000000000000000000000000000000000000000000000000000000000000000000000000000000000000000000010000000000000800000000000000000000000000000000000000000000000",
      "type": "0x2",
      "effectiveGasPrice": "0xb99791d1"
    },
    {
      "transactionHash": "0xbd51e7c22f5ecce097697dbf504f1f333266e7c0fe5ee2ebbab2b4439f9c6997",
      "transactionIndex": "0xf",
      "blockHash": "0x46f6a31c3f121b12e29ec1447c128b9d20be3f4da016010be3bccf974ef5990c",
      "blockNumber": "0x54b3de",
      "from": "0xdE05a1Abb121113a33eeD248BD91ddC254d5E9Db",
      "to": "0xa8F355AE124d7120dAEA13239b6cC89FB0376779",
      "cumulativeGasUsed": "0xc94d7",
      "gasUsed": "0x3a313",
      "contractAddress": null,
      "logs": [
        {
          "address": "0xFe149349285995D59Ec3FD6A5080840443906B45",
          "topics": [
            "0xddf252ad1be2c89b69c2b068fc378daa952ba7f163c4a11628f55a4df523b3ef",
            "0x000000000000000000000000de05a1abb121113a33eed248bd91ddc254d5e9db",
            "0x000000000000000000000000a8f355ae124d7120daea13239b6cc89fb0376779"
          ],
          "data": "0x0000000000000000000000000000000000000000000000000de0b6b3a7640000",
          "blockHash": "0x46f6a31c3f121b12e29ec1447c128b9d20be3f4da016010be3bccf974ef5990c",
          "blockNumber": "0x54b3de",
          "transactionHash": "0xbd51e7c22f5ecce097697dbf504f1f333266e7c0fe5ee2ebbab2b4439f9c6997",
          "transactionIndex": "0xf",
          "logIndex": "0x7",
          "removed": false
        },
        {
          "address": "0xcc1ae8Cf5D3904Cef3360A9532B477529b177cCE",
          "topics": [
            "0x61ed099e74a97a1d7f8bb0952a88ca8b7b8ebd00c126ea04671f92a81213318a"
          ],
          "data": "0x000000000000000000000000718b92b5cb0a5552039b593faf724d182a881eda00000000000000000000000000000000000000000000000000003a23bd556bea",
          "blockHash": "0x46f6a31c3f121b12e29ec1447c128b9d20be3f4da016010be3bccf974ef5990c",
          "blockNumber": "0x54b3de",
          "transactionHash": "0xbd51e7c22f5ecce097697dbf504f1f333266e7c0fe5ee2ebbab2b4439f9c6997",
          "transactionIndex": "0xf",
          "logIndex": "0x8",
          "removed": false
        },
        {
          "address": "0xcc1ae8Cf5D3904Cef3360A9532B477529b177cCE",
          "topics": [
            "0x07ea52d82345d6e838192107d8fd7123d9c2ec8e916cd0aad13fd2b60db24644"
          ],
          "data": "0x000000000000000000000000000000000000000000000000000000000000006000000000000000000000000000000000000000000000000000000000000000a000000000000000000000000000000000000000000000000000000000000000c000000000000000000000000000000000000000000000000000000000000000010000000000000000000000008eebf8b423b73bfca51a1db4b7354aa0bfca9193000000000000000000000000000000000000000000000000000000000000000000000000000000000000000000000000000000000000000000000000000000010000000000000000000000000000000000000000000000000000038b55954822",
          "blockHash": "0x46f6a31c3f121b12e29ec1447c128b9d20be3f4da016010be3bccf974ef5990c",
          "blockNumber": "0x54b3de",
          "transactionHash": "0xbd51e7c22f5ecce097697dbf504f1f333266e7c0fe5ee2ebbab2b4439f9c6997",
          "transactionIndex": "0xf",
          "logIndex": "0x9",
          "removed": false
        },
        {
          "address": "0x6EDCE65403992e310A62460808c4b910D972f10f",
          "topics": [
            "0x1ab700d4ced0c005b164c0f789fd09fcbb0156d4c2041b8a3bfbcd961cd1567f"
          ],
          "data": "0x00000000000000000000000000000000000000000000000000000000000000600000000000000000000000000000000000000000000000000000000000000120000000000000000000000000cc1ae8cf5d3904cef3360a9532b477529b177cce000000000000000000000000000000000000000000000000000000000000009901000000000000000f00009ce1000000000000000000000000a8f355ae124d7120daea13239b6cc89fb037677900009cad0000000000000000000000000eb26b982341c37a02812738c6c10eb0b66ef4f72e5fc51ab6a8d52f46540a4f8e40174d660262485058708f89389a2bc7b5bd3d000000000000000000000000de05a1abb121113a33eed248bd91ddc254d5e9db00000000000f424000000000000000000000000000000000000000000000000000000000000000000000000000001600030100110100000000000000000000000000030d4000000000000000000000",
          "blockHash": "0x46f6a31c3f121b12e29ec1447c128b9d20be3f4da016010be3bccf974ef5990c",
          "blockNumber": "0x54b3de",
          "transactionHash": "0xbd51e7c22f5ecce097697dbf504f1f333266e7c0fe5ee2ebbab2b4439f9c6997",
          "transactionIndex": "0xf",
          "logIndex": "0xa",
          "removed": false
        },
        {
          "address": "0xa8F355AE124d7120dAEA13239b6cC89FB0376779",
          "topics": [
            "0xfff873bb909b73d08a8c1af4b21779e87103bb8ea8cf3b3a0067eb8526b8b80a",
            "0x2e5fc51ab6a8d52f46540a4f8e40174d660262485058708f89389a2bc7b5bd3d",
            "0x000000000000000000000000de05a1abb121113a33eed248bd91ddc254d5e9db"
          ],
          "data": "0x0000000000000000000000000000000000000000000000000000000000009cad0000000000000000000000000000000000000000000000000de0b6b3a7640000",
          "blockHash": "0x46f6a31c3f121b12e29ec1447c128b9d20be3f4da016010be3bccf974ef5990c",
          "blockNumber": "0x54b3de",
          "transactionHash": "0xbd51e7c22f5ecce097697dbf504f1f333266e7c0fe5ee2ebbab2b4439f9c6997",
          "transactionIndex": "0xf",
          "logIndex": "0xb",
          "removed": false
        }
      ],
      "status": "0x1",
      "logsBloom": "0x00000000000000000000000000000000000000000000000030100000000100000000000000000000200000000080100000000000000000000000000000000000000080000800000040000008000000000000000000080000000000000000000080000000000000018200000000000000000000000000004000000010000000000000000200000020000000080000000000000000000000000000010000000000000000008000000000100000000000000000000000400000000440000000000000000002000000000000000a00000000000000080000000000000000000000000000040000000000800000000000002000000000000000000000000000000020",
      "type": "0x2",
      "effectiveGasPrice": "0xb99791d1"
    }
  ],
  "libraries": [],
  "pending": [],
  "returns": {},
  "timestamp": 1711283022,
  "chain": 11155111,
  "commit": "44d6322"
}