{
  "transactions": [
    {
      "hash": "0x3bbb0d21d4767e16d5f71be79bdb6f8622a9c6d596236b3f506bb0be0b444852",
      "transactionType": "CALL",
      "contractName": "MocaTokenAdaptor",
      "contractAddress": "0xD890Cd7CFb5e9aeda39Fa4A3FAf07CeB0B015F3c",
      "function": "setPeer(uint32,bytes32)",
      "arguments": [
        "40109",
        "0x0000000000000000000000008c979ef6a647c91f56654580f1c740c9f047edb2"
      ],
      "transaction": {
        "type": "0x02",
        "from": "0xde05a1abb121113a33eed248bd91ddc254d5e9db",
        "to": "0xd890cd7cfb5e9aeda39fa4a3faf07ceb0b015f3c",
        "gas": "0xa179",
        "value": "0x0",
        "data": "0x3400288b0000000000000000000000000000000000000000000000000000000000009cad0000000000000000000000008c979ef6a647c91f56654580f1c740c9f047edb2",
        "nonce": "0xb2",
        "accessList": []
      },
      "additionalContracts": [],
      "isFixedGasLimit": false
    }
  ],
  "receipts": [
    {
      "transactionHash": "0x3bbb0d21d4767e16d5f71be79bdb6f8622a9c6d596236b3f506bb0be0b444852",
      "transactionIndex": "0x32",
      "blockHash": "0x22883a5a99535a7fb58cb9f9597d906532e7b791b370236a0a8ee13b7947b326",
      "blockNumber": "0x5377d2",
      "from": "0xdE05a1Abb121113a33eeD248BD91ddC254d5E9Db",
      "to": "0xD890Cd7CFb5e9aeda39Fa4A3FAf07CeB0B015F3c",
      "cumulativeGasUsed": "0x359480",
      "gasUsed": "0x74e8",
      "contractAddress": null,
      "logs": [
        {
          "address": "0xD890Cd7CFb5e9aeda39Fa4A3FAf07CeB0B015F3c",
          "topics": [
            "0x238399d427b947898edb290f5ff0f9109849b1c3ba196a42e35f00c50a54b98b"
          ],
          "data": "0x0000000000000000000000000000000000000000000000000000000000009cad0000000000000000000000008c979ef6a647c91f56654580f1c740c9f047edb2",
          "blockHash": "0x22883a5a99535a7fb58cb9f9597d906532e7b791b370236a0a8ee13b7947b326",
          "blockNumber": "0x5377d2",
          "transactionHash": "0x3bbb0d21d4767e16d5f71be79bdb6f8622a9c6d596236b3f506bb0be0b444852",
          "transactionIndex": "0x32",
          "logIndex": "0x3b",
          "removed": false
        }
      ],
      "status": "0x1",
      "logsBloom": "0x00000000000000000000000000000000000000000000000000000000000000000000000000000000000400000000000000000000000000000800000000000000000000000000000000000000000000000000000002000000000000000000000000000000000000000000000000000000000000000000000000000000000000000000000000000000000000000000000000000000000000000000000000000000000000000000000000000000000000000000000000000000000002000000000000000000000000000000000000000200000000000000000000040000000000000000000000000000000000000000000000000000000000000000000000000000",
      "type": "0x2",
      "effectiveGasPrice": "0x1d06bdd4f8"
    }
  ],
  "libraries": [],
  "pending": [],
  "returns": {},
  "timestamp": 1710242585,
  "chain": 11155111,
  "multi": false,
  "commit": "88dccd9"
}