{
  "transactions": [
    {
      "hash": "0x4f1a344d155b9f8ffa9d85f69e3212cf41b8d71b2ffe876cad345766ba6c9628",
      "transactionType": "CALL",
      "contractName": "MocaTokenAdaptor",
      "contractAddress": "0xD890Cd7CFb5e9aeda39Fa4A3FAf07CeB0B015F3c",
      "function": "setEnforcedOptions((uint32,uint16,bytes)[])",
      "arguments": [
        "[(40109, 1, 0x00030100110100000000000000000000000000030d40), (40109, 2, 0x000301001303000000000000000000000000000000000000)]"
      ],
      "transaction": {
        "type": "0x02",
        "from": "0xde05a1abb121113a33eed248bd91ddc254d5e9db",
        "to": "0xd890cd7cfb5e9aeda39fa4a3faf07ceb0b015f3c",
        "gas": "0xeab7",
        "value": "0x0",
        "data": "0xb98bd07000000000000000000000000000000000000000000000000000000000000000200000000000000000000000000000000000000000000000000000000000000002000000000000000000000000000000000000000000000000000000000000004000000000000000000000000000000000000000000000000000000000000000e00000000000000000000000000000000000000000000000000000000000009cad00000000000000000000000000000000000000000000000000000000000000010000000000000000000000000000000000000000000000000000000000000060000000000000000000000000000000000000000000000000000000000000001600030100110100000000000000000000000000030d40000000000000000000000000000000000000000000000000000000000000000000000000000000009cad0000000000000000000000000000000000000000000000000000000000000002000000000000000000000000000000000000000000000000000000000000006000000000000000000000000000000000000000000000000000000000000000180003010013030000000000000000000000000000000000000000000000000000",
        "nonce": "0x9b",
        "accessList": []
      },
      "additionalContracts": [],
      "isFixedGasLimit": false
    }
  ],
  "receipts": [],
  "libraries": [],
  "pending": [
    "0x4f1a344d155b9f8ffa9d85f69e3212cf41b8d71b2ffe876cad345766ba6c9628"
  ],
  "returns": {},
  "timestamp": 1709979931,
  "chain": 11155111,
  "multi": false,
  "commit": "4230a88"
}