{
  "transactions": [
    {
      "hash": "0x119ef9bcb5fa7205f2fd699b39879c358abfe2d29863fa6d6c125bffd562defa",
      "transactionType": "CALL",
      "contractName": null,
      "contractAddress": "0x6EDCE65403992e310A62460808c4b910D972f10f",
      "function": "setConfig(address,address,(uint32,uint32,bytes)[])",
      "arguments": [
        "0xa8F355AE124d7120dAEA13239b6cC89FB0376779",
        "0xcc1ae8Cf5D3904Cef3360A9532B477529b177cCE",
        "[(40109, 2, 0x0000000000000000000000000000000000000000000000000000000000000020000000000000000000000000000000000000000000000000000000000000000f00000000000000000000000000000000000000000000000000000000000000020000000000000000000000000000000000000000000000000000000000000000000000000000000000000000000000000000000000000000000000000000000000000000000000000000000000000000000000000000000000000000000000c00000000000000000000000000000000000000000000000000000000000000120000000000000000000000000000000000000000000000000000000000000000200000000000000000000000067a822f55c5f6e439550b9c4ea39e406480a40f3000000000000000000000000715a4451be19106bb7cefd81e507813e23c307680000000000000000000000000000000000000000000000000000000000000000)]"
      ],
      "transaction": {
        "type": "0x02",
        "from": "0xde05a1abb121113a33eed248bd91ddc254d5e9db",
        "to": "0x6edce65403992e310a62460808c4b910d972f10f",
        "gas": "0x2eec9",
        "value": "0x0",
        "data": "0x6dbd9f90000000000000000000000000a8f355ae124d7120daea13239b6cc89fb0376779000000000000000000000000cc1ae8cf5d3904cef3360a9532b477529b177cce0000000000000000000000000000000000000000000000000000000000000060000000000000000000000000000000000000000000000000000000000000000100000000000000000000000000000000000000000000000000000000000000200000000000000000000000000000000000000000000000000000000000009cad0000000000000000000000000000000000000000000000000000000000000002000000000000000000000000000000000000000000000000000000000000006000000000000000000000000000000000000000000000000000000000000001600000000000000000000000000000000000000000000000000000000000000020000000000000000000000000000000000000000000000000000000000000000f00000000000000000000000000000000000000000000000000000000000000020000000000000000000000000000000000000000000000000000000000000000000000000000000000000000000000000000000000000000000000000000000000000000000000000000000000000000000000000000000000000000000000c00000000000000000000000000000000000000000000000000000000000000120000000000000000000000000000000000000000000000000000000000000000200000000000000000000000067a822f55c5f6e439550b9c4ea39e406480a40f3000000000000000000000000715a4451be19106bb7cefd81e507813e23c307680000000000000000000000000000000000000000000000000000000000000000",
        "nonce": "0x12f",
        "accessList": []
      },
      "additionalContracts": [],
      "isFixedGasLimit": false
    },
    {
      "hash": "0x3279e4412ac0b6ae2852cdf6d8b04fb0f2de3cca1ffde8d4116c376fcaa6912f",
      "transactionType": "CALL",
      "contractName": null,
      "contractAddress": "0x6EDCE65403992e310A62460808c4b910D972f10f",
      "function": "setConfig(address,address,(uint32,uint32,bytes)[])",
      "arguments": [
        "0xa8F355AE124d7120dAEA13239b6cC89FB0376779",
        "0xdAf00F5eE2158dD58E0d3857851c432E34A3A851",
        "[(40109, 2, 0x0000000000000000000000000000000000000000000000000000000000000020000000000000000000000000000000000000000000000000000000000000000f00000000000000000000000000000000000000000000000000000000000000020000000000000000000000000000000000000000000000000000000000000000000000000000000000000000000000000000000000000000000000000000000000000000000000000000000000000000000000000000000000000000000000c00000000000000000000000000000000000000000000000000000000000000120000000000000000000000000000000000000000000000000000000000000000200000000000000000000000067a822f55c5f6e439550b9c4ea39e406480a40f3000000000000000000000000715a4451be19106bb7cefd81e507813e23c307680000000000000000000000000000000000000000000000000000000000000000)]"
      ],
      "transaction": {
        "type": "0x02",
        "from": "0xde05a1abb121113a33eed248bd91ddc254d5e9db",
        "to": "0x6edce65403992e310a62460808c4b910d972f10f",
        "gas": "0x31983",
        "value": "0x0",
        "data": "0x6dbd9f90000000000000000000000000a8f355ae124d7120daea13239b6cc89fb0376779000000000000000000000000daf00f5ee2158dd58e0d3857851c432e34a3a8510000000000000000000000000000000000000000000000000000000000000060000000000000000000000000000000000000000000000000000000000000000100000000000000000000000000000000000000000000000000000000000000200000000000000000000000000000000000000000000000000000000000009cad0000000000000000000000000000000000000000000000000000000000000002000000000000000000000000000000000000000000000000000000000000006000000000000000000000000000000000000000000000000000000000000001600000000000000000000000000000000000000000000000000000000000000020000000000000000000000000000000000000000000000000000000000000000f00000000000000000000000000000000000000000000000000000000000000020000000000000000000000000000000000000000000000000000000000000000000000000000000000000000000000000000000000000000000000000000000000000000000000000000000000000000000000000000000000000000000000c00000000000000000000000000000000000000000000000000000000000000120000000000000000000000000000000000000000000000000000000000000000200000000000000000000000067a822f55c5f6e439550b9c4ea39e406480a40f3000000000000000000000000715a4451be19106bb7cefd81e507813e23c307680000000000000000000000000000000000000000000000000000000000000000",
        "nonce": "0x130",
        "accessList": []
      },
      "additionalContracts": [],
      "isFixedGasLimit": false
    }
  ],
  "receipts": [
    {
      "transactionHash": "0x119ef9bcb5fa7205f2fd699b39879c358abfe2d29863fa6d6c125bffd562defa",
      "transactionIndex": "0x11",
      "blockHash": "0x04f3b4bdeea174025b445bf02856d2cd7fb36f3f0ce37e7c0a8ecc330aba2c25",
      "blockNumber": "0x54eaad",
      "from": "0xdE05a1Abb121113a33eeD248BD91ddC254d5E9Db",
      "to": "0x6EDCE65403992e310A62460808c4b910D972f10f",
      "cumulativeGasUsed": "0xf5048",
      "gasUsed": "0x21f8f",
      "contractAddress": null,
      "logs": [
        {
          "address": "0xcc1ae8Cf5D3904Cef3360A9532B477529b177cCE",
          "topics": [
            "0x82118522aa536ac0e96cc5c689407ae42b89d592aa133890a01f1509842f5081"
          ],
          "data": "0x000000000000000000000000a8f355ae124d7120daea13239b6cc89fb03767790000000000000000000000000000000000000000000000000000000000009cad0000000000000000000000000000000000000000000000000000000000000060000000000000000000000000000000000000000000000000000000000000000f00000000000000000000000000000000000000000000000000000000000000020000000000000000000000000000000000000000000000000000000000000000000000000000000000000000000000000000000000000000000000000000000000000000000000000000000000000000000000000000000000000000000000c00000000000000000000000000000000000000000000000000000000000000120000000000000000000000000000000000000000000000000000000000000000200000000000000000000000067a822f55c5f6e439550b9c4ea39e406480a40f3000000000000000000000000715a4451be19106bb7cefd81e507813e23c307680000000000000000000000000000000000000000000000000000000000000000",
          "blockHash": "0x04f3b4bdeea174025b445bf02856d2cd7fb36f3f0ce37e7c0a8ecc330aba2c25",
          "blockNumber": "0x54eaad",
          "transactionHash": "0x119ef9bcb5fa7205f2fd699b39879c358abfe2d29863fa6d6c125bffd562defa",
          "transactionIndex": "0x11",
          "logIndex": "0xd",
          "removed": false
        }
      ],
      "status": "0x1",
      "logsBloom": "0x00000000000000000000000000000000000000000000000000000000000100000000000000000000000000000000000000000000000000000000000000000000000000000000000000000000000000000000000000000000002000000000000000000000000000000000000000000000000000000000000000000000000000000000000000000000000000000000000000000000000000000000000000000000000000000000000000000002000000000000000000000000000000000000000000000000000000000000000000000000000000080000000000000000000000000000000000000000000000000000000000000000000000000000000000000030",
      "type": "0x2",
      "effectiveGasPrice": "0xfdb324f0"
    },
    {
      "transactionHash": "0x3279e4412ac0b6ae2852cdf6d8b04fb0f2de3cca1ffde8d4116c376fcaa6912f",
      "transactionIndex": "0x12",
      "blockHash": "0x04f3b4bdeea174025b445bf02856d2cd7fb36f3f0ce37e7c0a8ecc330aba2c25",
      "blockNumber": "0x54eaad",
      "from": "0xdE05a1Abb121113a33eeD248BD91ddC254d5E9Db",
      "to": "0x6EDCE65403992e310A62460808c4b910D972f10f",
      "cumulativeGasUsed": "0x116edb",
      "gasUsed": "0x21e93",
      "contractAddress": null,
      "logs": [
        {
          "address": "0xdAf00F5eE2158dD58E0d3857851c432E34A3A851",
          "topics": [
            "0x82118522aa536ac0e96cc5c689407ae42b89d592aa133890a01f1509842f5081"
          ],
          "data": "0x000000000000000000000000a8f355ae124d7120daea13239b6cc89fb03767790000000000000000000000000000000000000000000000000000000000009cad0000000000000000000000000000000000000000000000000000000000000060000000000000000000000000000000000000000000000000000000000000000f00000000000000000000000000000000000000000000000000000000000000020000000000000000000000000000000000000000000000000000000000000000000000000000000000000000000000000000000000000000000000000000000000000000000000000000000000000000000000000000000000000000000000c00000000000000000000000000000000000000000000000000000000000000120000000000000000000000000000000000000000000000000000000000000000200000000000000000000000067a822f55c5f6e439550b9c4ea39e406480a40f3000000000000000000000000715a4451be19106bb7cefd81e507813e23c307680000000000000000000000000000000000000000000000000000000000000000",
          "blockHash": "0x04f3b4bdeea174025b445bf02856d2cd7fb36f3f0ce37e7c0a8ecc330aba2c25",
          "blockNumber": "0x54eaad",
          "transactionHash": "0x3279e4412ac0b6ae2852cdf6d8b04fb0f2de3cca1ffde8d4116c376fcaa6912f",
          "transactionIndex": "0x12",
          "logIndex": "0xe",
          "removed": false
        }
      ],
      "status": "0x1",
      "logsBloom": "0x00000000000000000000000000000000000000000000000000000000000000000000000000800000000000000000000000000000000000000000000000000000000000000000000000000000000000000000000000000000002000000000000000000000000000000000000000000000000000000000000000000000000000000000000000000000000000000000000000000000000000000000000000000000000000000000000000000002000000000000000000000000000000000000000000000000000000000000000000000000000000000000000000000000000000000000000000001000000000000000000000000000000000100000000000000010",
      "type": "0x2",
      "effectiveGasPrice": "0xfdb324f0"
    }
  ],
  "libraries": [],
  "pending": [],
  "returns": {},
  "timestamp": 1711461856,
  "chain": 11155111,
  "commit": "4cdbb2f"
}