{
  "transactions": [
    {
      "hash": "0x0fe24231ddd8a548fef26233f169040512ea7ce3b04a47bd1ea4c6d06ab80a12",
      "transactionType": "CALL",
      "contractName": "MocaTokenAdaptor",
      "contractAddress": "0x28B4c6D63C338fE1d82b7Cde98239a33aA5DFca4",
      "function": "setPeer(uint32,bytes32)",
      "arguments": [
        "40109",
        "0x0000000000000000000000002525427274ee7ba2dbabffa4c813f1630d7af504"
      ],
      "transaction": {
        "type": "0x02",
        "from": "0xde05a1abb121113a33eed248bd91ddc254d5e9db",
        "to": "0x28b4c6d63c338fe1d82b7cde98239a33aa5dfca4",
        "gas": "0x10cd8",
        "value": "0x0",
        "data": "0x3400288b0000000000000000000000000000000000000000000000000000000000009cad0000000000000000000000002525427274ee7ba2dbabffa4c813f1630d7af504",
        "nonce": "0x69",
        "accessList": []
      },
      "additionalContracts": [],
      "isFixedGasLimit": false
    }
  ],
  "receipts": [
    {
      "transactionHash": "0x0fe24231ddd8a548fef26233f169040512ea7ce3b04a47bd1ea4c6d06ab80a12",
      "transactionIndex": "0x26",
      "blockHash": "0x9d5b3c15aafa4c6470de7c73a5b4335513aa3dc260e6c251a942e3ee839fa3c0",
      "blockNumber": "0x531a3f",
      "from": "0xdE05a1Abb121113a33eeD248BD91ddC254d5E9Db",
      "to": "0x28B4c6D63C338fE1d82b7Cde98239a33aA5DFca4",
      "cumulativeGasUsed": "0xe8045",
      "gasUsed": "0xc2a4",
      "contractAddress": null,
      "logs": [
        {
          "address": "0x28B4c6D63C338fE1d82b7Cde98239a33aA5DFca4",
          "topics": [
            "0x238399d427b947898edb290f5ff0f9109849b1c3ba196a42e35f00c50a54b98b"
          ],
          "data": "0x0000000000000000000000000000000000000000000000000000000000009cad0000000000000000000000002525427274ee7ba2dbabffa4c813f1630d7af504",
          "blockHash": "0x9d5b3c15aafa4c6470de7c73a5b4335513aa3dc260e6c251a942e3ee839fa3c0",
          "blockNumber": "0x531a3f",
          "transactionHash": "0x0fe24231ddd8a548fef26233f169040512ea7ce3b04a47bd1ea4c6d06ab80a12",
          "transactionIndex": "0x26",
          "logIndex": "0x1",
          "removed": false
        }
      ],
      "status": "0x1",
      "logsBloom": "0x00000000000000000000000000000000000000000000000000000000000000000000000000000000000000000000000000000000000000000800000080000000000000000000000000000000000000000000000000000000000000000000000000000000000000000000000000000000000000000000000000000000000000000000000000000000000000000000000000000000000000000000000000000000000000000000000000000000000000000000000000000000000002000000000000000000000000000000000000000000000000000000000000040000000000000000000000000000000000000000000000000000800000000000000020000000",
      "type": "0x2",
      "effectiveGasPrice": "0xb86586f8"
    }
  ],
  "libraries": [],
  "pending": [],
  "returns": {},
  "timestamp": 1709952458,
  "chain": 11155111,
  "multi": false,
  "commit": "0fb095c"
}