{
  "transactions": [
    {
      "hash": "0xedad2c6342bc92f7430faf0f7c51d4aa1cbbebbb2bea6003a342922384be23c3",
      "transactionType": "CALL",
      "contractName": "MocaTokenAdaptor",
      "contractAddress": "0x434D21113d8E99f2A478dAe3e841450ce28a89C8",
      "function": "setPeer(uint32,bytes32)",
      "arguments": [
        "40109",
        "0x0000000000000000000000004b1adc9fe8b2c5bbd4373be4a4efa1c97b1d0f04"
      ],
      "transaction": {
        "type": "0x02",
        "from": "0xde05a1abb121113a33eed248bd91ddc254d5e9db",
        "to": "0x434d21113d8e99f2a478dae3e841450ce28a89c8",
        "gas": "0x10cd8",
        "value": "0x0",
        "data": "0x3400288b0000000000000000000000000000000000000000000000000000000000009cad0000000000000000000000004b1adc9fe8b2c5bbd4373be4a4efa1c97b1d0f04",
        "nonce": "0x65",
        "accessList": []
      },
      "additionalContracts": [],
      "isFixedGasLimit": false
    }
  ],
  "receipts": [],
  "libraries": [],
  "pending": [
    "0xedad2c6342bc92f7430faf0f7c51d4aa1cbbebbb2bea6003a342922384be23c3"
  ],
  "returns": {},
  "timestamp": 1709952024,
  "chain": 11155111,
  "multi": false,
  "commit": "0fb095c"
}