{
  "transactions": [
    {
      "hash": "0x41f040de4afaa153abdb274ca99bdbd92958451a739ad01a5d5636b784efafce",
      "transactionType": "CALL",
      "contractName": "MocaTokenAdaptor",
      "contractAddress": "0x4114eCCadF3b248DA9EEe7D8dF2d3bA6bB02Cbcd",
      "function": "setPeer(uint32,bytes32)",
      "arguments": [
        "40109",
        "0x00000000000000000000000036f035ffded310bb29ca90a0a11153c6d52f865a"
      ],
      "transaction": {
        "type": "0x02",
        "from": "0xde05a1abb121113a33eed248bd91ddc254d5e9db",
        "to": "0x4114eccadf3b248da9eee7d8df2d3ba6bb02cbcd",
        "gas": "0x1014c",
        "value": "0x0",
        "data": "0x3400288b0000000000000000000000000000000000000000000000000000000000009cad00000000000000000000000036f035ffded310bb29ca90a0a11153c6d52f865a",
        "nonce": "0x11",
        "accessList": []
      },
      "additionalContracts": [],
      "isFixedGasLimit": false
    }
  ],
  "receipts": [],
  "libraries": [],
  "pending": [
    "0x41f040de4afaa153abdb274ca99bdbd92958451a739ad01a5d5636b784efafce"
  ],
  "returns": {},
  "timestamp": 1709095231,
  "chain": 11155111,
  "multi": false,
  "commit": "e19d0a3"
}