{
  "transactions": [
    {
      "hash": "0x00016527549e84156d758197db81c1eeb5e07f1dab29c440313143d5d3638fdd",
      "transactionType": "CALL",
      "contractName": "MocaToken",
      "contractAddress": "0x9B3AD6340a158e6Ce8aC7176eC529D699F40A806",
      "function": "approve(address,uint256)",
      "arguments": [
        "0xD890Cd7CFb5e9aeda39Fa4A3FAf07CeB0B015F3c",
        "1000000000000000000"
      ],
      "transaction": {
        "type": "0x02",
        "from": "0xde05a1abb121113a33eed248bd91ddc254d5e9db",
        "to": "0x9b3ad6340a158e6ce8ac7176ec529d699f40a806",
        "gas": "0x8ef1",
        "value": "0x0",
        "data": "0x095ea7b3000000000000000000000000d890cd7cfb5e9aeda39fa4a3faf07ceb0b015f3c0000000000000000000000000000000000000000000000000de0b6b3a7640000",
        "nonce": "0x96",
        "accessList": []
      },
      "additionalContracts": [],
      "isFixedGasLimit": false
    },
    {
      "hash": "0xb0df7115a713ee4180942d6803151188603e9c3230dfdc08a655cc541e6b2c0c",
      "transactionType": "CALL",
      "contractName": "MocaTokenAdaptor",
      "contractAddress": "0xD890Cd7CFb5e9aeda39Fa4A3FAf07CeB0B015F3c",
      "function": "send((uint32,bytes32,uint256,uint256,bytes,bytes,bytes),(uint256,uint256),address)",
      "arguments": [
        "(40109, 0x000000000000000000000000de05a1abb121113a33eed248bd91ddc254d5e9db, 1000000000000000000, 1000000000000000000, 0x, 0x, 0x)",
        "(61704631570864, 0)",
        "0xdE05a1Abb121113a33eeD248BD91ddC254d5E9Db"
      ],
      "transaction": {
        "type": "0x02",
        "from": "0xde05a1abb121113a33eed248bd91ddc254d5e9db",
        "to": "0xd890cd7cfb5e9aeda39fa4a3faf07ceb0b015f3c",
        "gas": "0x51625",
        "value": "0x381ebaa551b0",
        "data": "0xc7c7f5b300000000000000000000000000000000000000000000000000000000000000800000000000000000000000000000000000000000000000000000381ebaa551b00000000000000000000000000000000000000000000000000000000000000000000000000000000000000000de05a1abb121113a33eed248bd91ddc254d5e9db0000000000000000000000000000000000000000000000000000000000009cad000000000000000000000000de05a1abb121113a33eed248bd91ddc254d5e9db0000000000000000000000000000000000000000000000000de0b6b3a76400000000000000000000000000000000000000000000000000000de0b6b3a764000000000000000000000000000000000000000000000000000000000000000000e000000000000000000000000000000000000000000000000000000000000001000000000000000000000000000000000000000000000000000000000000000120000000000000000000000000000000000000000000000000000000000000000000000000000000000000000000000000000000000000000000000000000000000000000000000000000000000000000000000000000000000000000000000000",
        "nonce": "0x97",
        "accessList": []
      },
      "additionalContracts": [],
      "isFixedGasLimit": false
    }
  ],
  "receipts": [],
  "libraries": [],
  "pending": [
    "0x00016527549e84156d758197db81c1eeb5e07f1dab29c440313143d5d3638fdd",
    "0xb0df7115a713ee4180942d6803151188603e9c3230dfdc08a655cc541e6b2c0c"
  ],
  "returns": {},
  "timestamp": 1709960889,
  "chain": 11155111,
  "multi": false,
  "commit": "a03b268"
}