{
  "transactions": [
    {
      "hash": "0x26a3b3e5e027ba8254a917bfd4ef45594d31cc0fbe8974630ecbc773e4535058",
      "transactionType": "CALL",
      "contractName": "MocaToken",
      "contractAddress": "0xA2E400CE40C83270d8369eC971D0fc2e46D5056a",
      "function": "approve(address,uint256)",
      "arguments": [
        "0x5a9962874acA3b407aCeB14f64C7eF2C6255C880",
        "1000000000000000000"
      ],
      "transaction": {
        "type": "0x02",
        "from": "0xde05a1abb121113a33eed248bd91ddc254d5e9db",
        "to": "0xa2e400ce40c83270d8369ec971d0fc2e46d5056a",
        "gas": "0x1090a",
        "value": "0x0",
        "data": "0x095ea7b30000000000000000000000005a9962874aca3b407aceb14f64c7ef2c6255c8800000000000000000000000000000000000000000000000000de0b6b3a7640000",
        "nonce": "0xdb",
        "accessList": []
      },
      "additionalContracts": [],
      "isFixedGasLimit": false
    },
    {
      "hash": "0xb3af962ab29493268f01049fcba44d16909800657e83e2659bc38887213f2471",
      "transactionType": "CALL",
      "contractName": "MocaTokenAdapter",
      "contractAddress": "0x5a9962874acA3b407aCeB14f64C7eF2C6255C880",
      "function": "send((uint32,bytes32,uint256,uint256,bytes,bytes,bytes),(uint256,uint256),address)",
      "arguments": [
        "(40109, 0x000000000000000000000000de05a1abb121113a33eed248bd91ddc254d5e9db, 1000000000000000000, 1000000000000000000, 0x, 0x, 0x)",
        "(54469398804660, 0)",
        "0xdE05a1Abb121113a33eeD248BD91ddC254d5E9Db"
      ],
      "transaction": {
        "type": "0x02",
        "from": "0xde05a1abb121113a33eed248bd91ddc254d5e9db",
        "to": "0x5a9962874aca3b407aceb14f64c7ef2c6255c880",
        "gas": "0x51625",
        "value": "0x318a252ab8b4",
        "data": "0xc7c7f5b300000000000000000000000000000000000000000000000000000000000000800000000000000000000000000000000000000000000000000000318a252ab8b40000000000000000000000000000000000000000000000000000000000000000000000000000000000000000de05a1abb121113a33eed248bd91ddc254d5e9db0000000000000000000000000000000000000000000000000000000000009cad000000000000000000000000de05a1abb121113a33eed248bd91ddc254d5e9db0000000000000000000000000000000000000000000000000de0b6b3a76400000000000000000000000000000000000000000000000000000de0b6b3a764000000000000000000000000000000000000000000000000000000000000000000e000000000000000000000000000000000000000000000000000000000000001000000000000000000000000000000000000000000000000000000000000000120000000000000000000000000000000000000000000000000000000000000000000000000000000000000000000000000000000000000000000000000000000000000000000000000000000000000000000000000000000000000000000000000",
        "nonce": "0xdc",
        "accessList": []
      },
      "additionalContracts": [],
      "isFixedGasLimit": false
    }
  ],
  "receipts": [
    {
      "transactionHash": "0x26a3b3e5e027ba8254a917bfd4ef45594d31cc0fbe8974630ecbc773e4535058",
      "transactionIndex": "0x17",
      "blockHash": "0x26bd6b0925cb6ac3be30580086411ec174b3ec370eb8c938bc4887e825bbb5ac",
      "blockNumber": "0x53be9d",
      "from": "0xdE05a1Abb121113a33eeD248BD91ddC254d5E9Db",
      "to": "0xA2E400CE40C83270d8369eC971D0fc2e46D5056a",
      "cumulativeGasUsed": "0x3023fd",
      "gasUsed": "0xb53a",
      "contractAddress": null,
      "logs": [
        {
          "address": "0xA2E400CE40C83270d8369eC971D0fc2e46D5056a",
          "topics": [
            "0x8c5be1e5ebec7d5bd14f71427d1e84f3dd0314c0f7b2291e5b200ac8c7c3b925",
            "0x000000000000000000000000de05a1abb121113a33eed248bd91ddc254d5e9db",
            "0x0000000000000000000000005a9962874aca3b407aceb14f64c7ef2c6255c880"
          ],
          "data": "0x0000000000000000000000000000000000000000000000000de0b6b3a7640000",
          "blockHash": "0x26bd6b0925cb6ac3be30580086411ec174b3ec370eb8c938bc4887e825bbb5ac",
          "blockNumber": "0x53be9d",
          "transactionHash": "0x26a3b3e5e027ba8254a917bfd4ef45594d31cc0fbe8974630ecbc773e4535058",
          "transactionIndex": "0x17",
          "logIndex": "0x1b",
          "removed": false
        }
      ],
      "status": "0x1",
      "logsBloom": "0x00000000000000000000000000000000000000000000000000100000000000000000000000000000000000000000000000000000000000000000000000200000000000000000000000000000000000000004000000000000000000000000000000000000000000000000000000000000000000000000004001000000000008000000000000000020000000000000000000000000000000000000000000000000020000000000000000000000000000000000000000000000000000000000000000000000000000000000000000000000000400000000000400000000000000000010000000000000000000000000000000000000000000000000000040000000",
      "type": "0x2",
      "effectiveGasPrice": "0x1c6518f77d"
    },
    {
      "transactionHash": "0xb3af962ab29493268f01049fcba44d16909800657e83e2659bc38887213f2471",
      "transactionIndex": "0x18",
      "blockHash": "0x26bd6b0925cb6ac3be30580086411ec174b3ec370eb8c938bc4887e825bbb5ac",
      "blockNumber": "0x53be9d",
      "from": "0xdE05a1Abb121113a33eeD248BD91ddC254d5E9Db",
      "to": "0x5a9962874acA3b407aCeB14f64C7eF2C6255C880",
      "cumulativeGasUsed": "0x33d2b9",
      "gasUsed": "0x3aebc",
      "contractAddress": null,
      "logs": [
        {
          "address": "0xA2E400CE40C83270d8369eC971D0fc2e46D5056a",
          "topics": [
            "0xddf252ad1be2c89b69c2b068fc378daa952ba7f163c4a11628f55a4df523b3ef",
            "0x000000000000000000000000de05a1abb121113a33eed248bd91ddc254d5e9db",
            "0x0000000000000000000000005a9962874aca3b407aceb14f64c7ef2c6255c880"
          ],
          "data": "0x0000000000000000000000000000000000000000000000000de0b6b3a7640000",
          "blockHash": "0x26bd6b0925cb6ac3be30580086411ec174b3ec370eb8c938bc4887e825bbb5ac",
          "blockNumber": "0x53be9d",
          "transactionHash": "0xb3af962ab29493268f01049fcba44d16909800657e83e2659bc38887213f2471",
          "transactionIndex": "0x18",
          "logIndex": "0x1c",
          "removed": false
        },
        {
          "address": "0xcc1ae8Cf5D3904Cef3360A9532B477529b177cCE",
          "topics": [
            "0x61ed099e74a97a1d7f8bb0952a88ca8b7b8ebd00c126ea04671f92a81213318a"
          ],
          "data": "0x000000000000000000000000718b92b5cb0a5552039b593faf724d182a881eda00000000000000000000000000000000000000000000000000002eb278e48f08",
          "blockHash": "0x26bd6b0925cb6ac3be30580086411ec174b3ec370eb8c938bc4887e825bbb5ac",
          "blockNumber": "0x53be9d",
          "transactionHash": "0xb3af962ab29493268f01049fcba44d16909800657e83e2659bc38887213f2471",
          "transactionIndex": "0x18",
          "logIndex": "0x1d",
          "removed": false
        },
        {
          "address": "0xcc1ae8Cf5D3904Cef3360A9532B477529b177cCE",
          "topics": [
            "0x07ea52d82345d6e838192107d8fd7123d9c2ec8e916cd0aad13fd2b60db24644"
          ],
          "data": "0x000000000000000000000000000000000000000000000000000000000000006000000000000000000000000000000000000000000000000000000000000000a000000000000000000000000000000000000000000000000000000000000000c000000000000000000000000000000000000000000000000000000000000000010000000000000000000000008eebf8b423b73bfca51a1db4b7354aa0bfca919300000000000000000000000000000000000000000000000000000000000000000000000000000000000000000000000000000000000000000000000000000001000000000000000000000000000000000000000000000000000002d7ac4629ac",
          "blockHash": "0x26bd6b0925cb6ac3be30580086411ec174b3ec370eb8c938bc4887e825bbb5ac",
          "blockNumber": "0x53be9d",
          "transactionHash": "0xb3af962ab29493268f01049fcba44d16909800657e83e2659bc38887213f2471",
          "transactionIndex": "0x18",
          "logIndex": "0x1e",
          "removed": false
        },
        {
          "address": "0x6EDCE65403992e310A62460808c4b910D972f10f",
          "topics": [
            "0x1ab700d4ced0c005b164c0f789fd09fcbb0156d4c2041b8a3bfbcd961cd1567f"
          ],
          "data": "0x00000000000000000000000000000000000000000000000000000000000000600000000000000000000000000000000000000000000000000000000000000120000000000000000000000000cc1ae8cf5d3904cef3360a9532b477529b177cce000000000000000000000000000000000000000000000000000000000000009901000000000000001100009ce10000000000000000000000005a9962874aca3b407aceb14f64c7ef2c6255c88000009cad000000000000000000000000aa7a95e597a65eb06dae4ed54f1b62e0535d915621ce086e618a561dc1d34b130f0fcf727d323944536f2fe175666f24cdd63b7c000000000000000000000000de05a1abb121113a33eed248bd91ddc254d5e9db00000000000f424000000000000000000000000000000000000000000000000000000000000000000000000000001600030100110100000000000000000000000000030d4000000000000000000000",
          "blockHash": "0x26bd6b0925cb6ac3be30580086411ec174b3ec370eb8c938bc4887e825bbb5ac",
          "blockNumber": "0x53be9d",
          "transactionHash": "0xb3af962ab29493268f01049fcba44d16909800657e83e2659bc38887213f2471",
          "transactionIndex": "0x18",
          "logIndex": "0x1f",
          "removed": false
        },
        {
          "address": "0x5a9962874acA3b407aCeB14f64C7eF2C6255C880",
          "topics": [
            "0xfff873bb909b73d08a8c1af4b21779e87103bb8ea8cf3b3a0067eb8526b8b80a",
            "0x21ce086e618a561dc1d34b130f0fcf727d323944536f2fe175666f24cdd63b7c",
            "0x000000000000000000000000de05a1abb121113a33eed248bd91ddc254d5e9db"
          ],
          "data": "0x0000000000000000000000000000000000000000000000000000000000009cad0000000000000000000000000000000000000000000000000de0b6b3a7640000",
          "blockHash": "0x26bd6b0925cb6ac3be30580086411ec174b3ec370eb8c938bc4887e825bbb5ac",
          "blockNumber": "0x53be9d",
          "transactionHash": "0xb3af962ab29493268f01049fcba44d16909800657e83e2659bc38887213f2471",
          "transactionIndex": "0x18",
          "logIndex": "0x20",
          "removed": false
        }
      ],
      "status": "0x1",
      "logsBloom": "0x00000000000000000000000000000000000000000000000030100000000100000000000000000000200000000080000000000000000000000004004000000000000000000000000000000008000000000004000000000000000000008000000000000000000000008200000000000000000000000000004001000010000008000000000000000020000000080000000000000000000000000000000000000000000000008000000000100000000000000000000000400000000440000000000000000002000000000000000000000000000400081000000400000000000000000000140000000000000000000000002000800000000000000000000040000020",
      "type": "0x2",
      "effectiveGasPrice": "0x1c6518f77d"
    }
  ],
  "libraries": [],
  "pending": [],
  "returns": {},
  "timestamp": 1710472351,
  "chain": 11155111,
  "commit": "564059c"
}