{
  "transactions": [
    {
      "hash": "0x801fd215f13869a0c16429748c3bcbfc7556447bfca82fc0e72953b53c8202c4",
      "transactionType": "CALL",
      "contractName": "MocaToken",
      "contractAddress": "0x9B3AD6340a158e6Ce8aC7176eC529D699F40A806",
      "function": "approve(address,uint256)",
      "arguments": [
        "0xD890Cd7CFb5e9aeda39Fa4A3FAf07CeB0B015F3c",
        "1000000000000000000"
      ],
      "transaction": {
        "type": "0x02",
        "from": "0xde05a1abb121113a33eed248bd91ddc254d5e9db",
        "to": "0x9b3ad6340a158e6ce8ac7176ec529d699f40a806",
        "gas": "0x8ef1",
        "value": "0x0",
        "data": "0x095ea7b3000000000000000000000000d890cd7cfb5e9aeda39fa4a3faf07ceb0b015f3c0000000000000000000000000000000000000000000000000de0b6b3a7640000",
        "nonce": "0x92",
        "accessList": []
      },
      "additionalContracts": [],
      "isFixedGasLimit": false
    },
    {
      "hash": "0xe19e9d65441a71de53719352f5a0983cee4ae3a2c044eada9c15e5ca6a54bf8e",
      "transactionType": "CALL",
      "contractName": "MocaTokenAdaptor",
      "contractAddress": "0xD890Cd7CFb5e9aeda39Fa4A3FAf07CeB0B015F3c",
      "function": "send((uint32,bytes32,uint256,uint256,bytes,bytes,bytes),(uint256,uint256),address)",
      "arguments": [
        "(40109, 0x000000000000000000000000de05a1abb121113a33eed248bd91ddc254d5e9db, 1000000000000000000, 1000000000000000000, 0x0003010031020000000000000000001550f7dca70000000000000000000000000000de05a1abb121113a33eed248bd91ddc254d5e9db, 0x, 0x)",
        "(67918890376201, 0)",
        "0xdE05a1Abb121113a33eeD248BD91ddC254d5E9Db"
      ],
      "transaction": {
        "type": "0x02",
        "from": "0xde05a1abb121113a33eed248bd91ddc254d5e9db",
        "to": "0xd890cd7cfb5e9aeda39fa4a3faf07ceb0b015f3c",
        "gas": "0x52fca",
        "value": "0x3dc599559c09",
        "data": "0xc7c7f5b3000000000000000000000000000000000000000000000000000000000000008000000000000000000000000000000000000000000000000000003dc599559c090000000000000000000000000000000000000000000000000000000000000000000000000000000000000000de05a1abb121113a33eed248bd91ddc254d5e9db0000000000000000000000000000000000000000000000000000000000009cad000000000000000000000000de05a1abb121113a33eed248bd91ddc254d5e9db0000000000000000000000000000000000000000000000000de0b6b3a76400000000000000000000000000000000000000000000000000000de0b6b3a764000000000000000000000000000000000000000000000000000000000000000000e00000000000000000000000000000000000000000000000000000000000000140000000000000000000000000000000000000000000000000000000000000016000000000000000000000000000000000000000000000000000000000000000360003010031020000000000000000001550f7dca70000000000000000000000000000de05a1abb121113a33eed248bd91ddc254d5e9db0000000000000000000000000000000000000000000000000000000000000000000000000000000000000000000000000000000000000000000000000000000000000000000000000000",
        "nonce": "0x93",
        "accessList": []
      },
      "additionalContracts": [],
      "isFixedGasLimit": false
    }
  ],
  "receipts": [],
  "libraries": [],
  "pending": [
    "0x801fd215f13869a0c16429748c3bcbfc7556447bfca82fc0e72953b53c8202c4",
    "0xe19e9d65441a71de53719352f5a0983cee4ae3a2c044eada9c15e5ca6a54bf8e"
  ],
  "returns": {},
  "timestamp": 1709959960,
  "chain": 11155111,
  "multi": false,
  "commit": "0fb095c"
}