{
  "transactions": [
    {
      "hash": "0x68d9dad66f689cc8053011f598a2ebff28da06636c889b77726ffe05b5d041da",
      "transactionType": "CALL",
      "contractName": "MocaToken",
      "contractAddress": "0x9cb6dc4B71E285e26cbb0605F94B4031fE04C72c",
      "function": "approve(address,uint256)",
      "arguments": [
        "0x4114eCCadF3b248DA9EEe7D8dF2d3bA6bB02Cbcd",
        "1000000000000000000"
      ],
      "transaction": {
        "type": "0x02",
        "from": "0xde05a1abb121113a33eed248bd91ddc254d5e9db",
        "to": "0x9cb6dc4b71e285e26cbb0605f94b4031fe04c72c",
        "gas": "0x1090a",
        "value": "0x0",
        "data": "0x095ea7b30000000000000000000000004114eccadf3b248da9eee7d8df2d3ba6bb02cbcd0000000000000000000000000000000000000000000000000de0b6b3a7640000",
        "nonce": "0x14",
        "accessList": []
      },
      "additionalContracts": [],
      "isFixedGasLimit": false
    },
    {
      "hash": "0xb3b8d295b331d2cf6bf3b38ee1e40457ed158a713b588b9c0dc3e230f64c43ce",
      "transactionType": "CALL",
      "contractName": "MocaTokenAdaptor",
      "contractAddress": "0x4114eCCadF3b248DA9EEe7D8dF2d3bA6bB02Cbcd",
      "function": "send((uint32,bytes32,uint256,uint256,bytes,bytes,bytes),(uint256,uint256),address)",
      "arguments": [
        "(40109, 0x0000000000000000000000001804c8ab1f12e6bbf3894d4083f33e07309d1f38, 1000000000000000000, 1000000000000000000, 0x, 0x, 0x)",
        "(6461201289888, 0)",
        "0x1804c8AB1F12E6bbf3894d4083f33e07309d1f38"
      ],
      "transaction": {
        "type": "0x02",
        "from": "0xde05a1abb121113a33eed248bd91ddc254d5e9db",
        "to": "0x4114eccadf3b248da9eee7d8df2d3ba6bb02cbcd",
        "gas": "0x57d69",
        "value": "0x5e05d9b92a0",
        "data": "0xc7c7f5b30000000000000000000000000000000000000000000000000000000000000080000000000000000000000000000000000000000000000000000005e05d9b92a000000000000000000000000000000000000000000000000000000000000000000000000000000000000000001804c8ab1f12e6bbf3894d4083f33e07309d1f380000000000000000000000000000000000000000000000000000000000009cad0000000000000000000000001804c8ab1f12e6bbf3894d4083f33e07309d1f380000000000000000000000000000000000000000000000000de0b6b3a76400000000000000000000000000000000000000000000000000000de0b6b3a764000000000000000000000000000000000000000000000000000000000000000000e000000000000000000000000000000000000000000000000000000000000001000000000000000000000000000000000000000000000000000000000000000120000000000000000000000000000000000000000000000000000000000000000000000000000000000000000000000000000000000000000000000000000000000000000000000000000000000000000000000000000000000000000000000000",
        "nonce": "0x15",
        "accessList": []
      },
      "additionalContracts": [],
      "isFixedGasLimit": false
    }
  ],
  "receipts": [
    {
      "transactionHash": "0x68d9dad66f689cc8053011f598a2ebff28da06636c889b77726ffe05b5d041da",
      "transactionIndex": "0x10",
      "blockHash": "0x9f71c05d4c5f2ef6030fef715f6cf1beca7c93ad00de6ab6e3ed7c99a511a676",
      "blockNumber": "0x521214",
      "from": "0xdE05a1Abb121113a33eeD248BD91ddC254d5E9Db",
      "to": "0x9cb6dc4B71E285e26cbb0605F94B4031fE04C72c",
      "cumulativeGasUsed": "0xed40f",
      "gasUsed": "0xb53a",
      "contractAddress": null,
      "logs": [
        {
          "address": "0x9cb6dc4B71E285e26cbb0605F94B4031fE04C72c",
          "topics": [
            "0x8c5be1e5ebec7d5bd14f71427d1e84f3dd0314c0f7b2291e5b200ac8c7c3b925",
            "0x000000000000000000000000de05a1abb121113a33eed248bd91ddc254d5e9db",
            "0x0000000000000000000000004114eccadf3b248da9eee7d8df2d3ba6bb02cbcd"
          ],
          "data": "0x0000000000000000000000000000000000000000000000000de0b6b3a7640000",
          "blockHash": "0x9f71c05d4c5f2ef6030fef715f6cf1beca7c93ad00de6ab6e3ed7c99a511a676",
          "blockNumber": "0x521214",
          "transactionHash": "0x68d9dad66f689cc8053011f598a2ebff28da06636c889b77726ffe05b5d041da",
          "transactionIndex": "0x10",
          "logIndex": "0x8",
          "removed": false
        }
      ],
      "status": "0x1",
      "logsBloom": "0x00000000000000000000000000000000000000000000000000100000020000000000000000000000000000000000000000000000000000000000000000200000000000000000000000000000000000000000000000000000000000000000000000000000000000000000000000000000000000000000004000000000000000000000000000000020000000000000000000000000000004000000000000000000020000000000000000000000000000000000000000000080000000000000000000000000000000000002000000000000000000000000000000000000000000000010000000000000000000000000000000000000400000000000000000000000",
      "type": "0x2",
      "effectiveGasPrice": "0xf9086d01"
    },
    {
      "transactionHash": "0xb3b8d295b331d2cf6bf3b38ee1e40457ed158a713b588b9c0dc3e230f64c43ce",
      "transactionIndex": "0x11",
      "blockHash": "0x9f71c05d4c5f2ef6030fef715f6cf1beca7c93ad00de6ab6e3ed7c99a511a676",
      "blockNumber": "0x521214",
      "from": "0xdE05a1Abb121113a33eeD248BD91ddC254d5E9Db",
      "to": "0x4114eCCadF3b248DA9EEe7D8dF2d3bA6bB02Cbcd",
      "cumulativeGasUsed": "0x12cd8e",
      "gasUsed": "0x3f97f",
      "contractAddress": null,
      "logs": [
        {
          "address": "0x9cb6dc4B71E285e26cbb0605F94B4031fE04C72c",
          "topics": [
            "0xddf252ad1be2c89b69c2b068fc378daa952ba7f163c4a11628f55a4df523b3ef",
            "0x000000000000000000000000de05a1abb121113a33eed248bd91ddc254d5e9db",
            "0x0000000000000000000000004114eccadf3b248da9eee7d8df2d3ba6bb02cbcd"
          ],
          "data": "0x0000000000000000000000000000000000000000000000000de0b6b3a7640000",
          "blockHash": "0x9f71c05d4c5f2ef6030fef715f6cf1beca7c93ad00de6ab6e3ed7c99a511a676",
          "blockNumber": "0x521214",
          "transactionHash": "0xb3b8d295b331d2cf6bf3b38ee1e40457ed158a713b588b9c0dc3e230f64c43ce",
          "transactionIndex": "0x11",
          "logIndex": "0x9",
          "removed": false
        },
        {
          "address": "0xcc1ae8Cf5D3904Cef3360A9532B477529b177cCE",
          "topics": [
            "0x61ed099e74a97a1d7f8bb0952a88ca8b7b8ebd00c126ea04671f92a81213318a"
          ],
          "data": "0x000000000000000000000000718b92b5cb0a5552039b593faf724d182a881eda00000000000000000000000000000000000000000000000000000303e29401b2",
          "blockHash": "0x9f71c05d4c5f2ef6030fef715f6cf1beca7c93ad00de6ab6e3ed7c99a511a676",
          "blockNumber": "0x521214",
          "transactionHash": "0xb3b8d295b331d2cf6bf3b38ee1e40457ed158a713b588b9c0dc3e230f64c43ce",
          "transactionIndex": "0x11",
          "logIndex": "0xa",
          "removed": false
        },
        {
          "address": "0xcc1ae8Cf5D3904Cef3360A9532B477529b177cCE",
          "topics": [
            "0x07ea52d82345d6e838192107d8fd7123d9c2ec8e916cd0aad13fd2b60db24644"
          ],
          "data": "0x000000000000000000000000000000000000000000000000000000000000006000000000000000000000000000000000000000000000000000000000000000a000000000000000000000000000000000000000000000000000000000000000c000000000000000000000000000000000000000000000000000000000000000010000000000000000000000008eebf8b423b73bfca51a1db4b7354aa0bfca919300000000000000000000000000000000000000000000000000000000000000000000000000000000000000000000000000000000000000000000000000000001000000000000000000000000000000000000000000000000000002dc7b0790ee",
          "blockHash": "0x9f71c05d4c5f2ef6030fef715f6cf1beca7c93ad00de6ab6e3ed7c99a511a676",
          "blockNumber": "0x521214",
          "transactionHash": "0xb3b8d295b331d2cf6bf3b38ee1e40457ed158a713b588b9c0dc3e230f64c43ce",
          "transactionIndex": "0x11",
          "logIndex": "0xb",
          "removed": false
        },
        {
          "address": "0x6EDCE65403992e310A62460808c4b910D972f10f",
          "topics": [
            "0x1ab700d4ced0c005b164c0f789fd09fcbb0156d4c2041b8a3bfbcd961cd1567f"
          ],
          "data": "0x00000000000000000000000000000000000000000000000000000000000000600000000000000000000000000000000000000000000000000000000000000120000000000000000000000000cc1ae8cf5d3904cef3360a9532b477529b177cce000000000000000000000000000000000000000000000000000000000000009901000000000000000100009ce10000000000000000000000004114eccadf3b248da9eee7d8df2d3ba6bb02cbcd00009cad0000000000000000000000008bb305df680eda14e6b25b975bf1a8831acf69ab917b4096bacc9c0a18667bb28b279a5a1b4388763a26d3b6caa1616029fb7a030000000000000000000000001804c8ab1f12e6bbf3894d4083f33e07309d1f3800000000000f424000000000000000000000000000000000000000000000000000000000000000000000000000001600030100110100000000000000000000000000030d4000000000000000000000",
          "blockHash": "0x9f71c05d4c5f2ef6030fef715f6cf1beca7c93ad00de6ab6e3ed7c99a511a676",
          "blockNumber": "0x521214",
          "transactionHash": "0xb3b8d295b331d2cf6bf3b38ee1e40457ed158a713b588b9c0dc3e230f64c43ce",
          "transactionIndex": "0x11",
          "logIndex": "0xc",
          "removed": false
        },
        {
          "address": "0x4114eCCadF3b248DA9EEe7D8dF2d3bA6bB02Cbcd",
          "topics": [
            "0xfff873bb909b73d08a8c1af4b21779e87103bb8ea8cf3b3a0067eb8526b8b80a",
            "0x917b4096bacc9c0a18667bb28b279a5a1b4388763a26d3b6caa1616029fb7a03",
            "0x000000000000000000000000de05a1abb121113a33eed248bd91ddc254d5e9db"
          ],
          "data": "0x0000000000000000000000000000000000000000000000000000000000009cad0000000000000000000000000000000000000000000000000de0b6b3a7640000",
          "blockHash": "0x9f71c05d4c5f2ef6030fef715f6cf1beca7c93ad00de6ab6e3ed7c99a511a676",
          "blockNumber": "0x521214",
          "transactionHash": "0xb3b8d295b331d2cf6bf3b38ee1e40457ed158a713b588b9c0dc3e230f64c43ce",
          "transactionIndex": "0x11",
          "logIndex": "0xd",
          "removed": false
        }
      ],
      "status": "0x1",
      "logsBloom": "0x00000000000000000000000000000000000000000000000034140000020100000000000000000000200000000080000000000000000000000000000000000000000000400000000000000008000000000000000000000000000000000000000000000000000000008200000000000000000000000000004000000010000000000000000000000020000000080000000000000000000004000000000000000000000000008000000000100000000000000000020000400080000440000000000000000002000000000002000000000000000000080000000000000000000000000000040000000000000000000000002000000000400001001000000000000020",
      "type": "0x2",
      "effectiveGasPrice": "0xf9086d01"
    }
  ],
  "libraries": [],
  "pending": [],
  "returns": {},
  "timestamp": 1709096574,
  "chain": 11155111,
  "multi": false,
  "commit": "e19d0a3"
}