{
  "transactions": [
    {
      "hash": "0x19285bd3e44babdb8635cda6286636543e2e6c7b2d058dbecd29355a3136e652",
      "transactionType": "CALL",
      "contractName": "MocaToken",
      "contractAddress": "0x9cb6dc4B71E285e26cbb0605F94B4031fE04C72c",
      "function": "approve(address,uint256)",
      "arguments": [
        "0x4114eCCadF3b248DA9EEe7D8dF2d3bA6bB02Cbcd",
        "1000000000000000000"
      ],
      "transaction": {
        "type": "0x02",
        "from": "0xde05a1abb121113a33eed248bd91ddc254d5e9db",
        "to": "0x9cb6dc4b71e285e26cbb0605f94b4031fe04c72c",
        "gas": "0x1090a",
        "value": "0x0",
        "data": "0x095ea7b30000000000000000000000004114eccadf3b248da9eee7d8df2d3ba6bb02cbcd0000000000000000000000000000000000000000000000000de0b6b3a7640000",
        "nonce": "0x22",
        "accessList": []
      },
      "additionalContracts": [],
      "isFixedGasLimit": false
    },
    {
      "hash": "0xc76c780e0ab4a7ae4cbf1375d3795afbbf2cde09403c64174d1c32b011891420",
      "transactionType": "CALL",
      "contractName": "MocaTokenAdaptor",
      "contractAddress": "0x4114eCCadF3b248DA9EEe7D8dF2d3bA6bB02Cbcd",
      "function": "send((uint32,bytes32,uint256,uint256,bytes,bytes,bytes),(uint256,uint256),address)",
      "arguments": [
        "(40109, 0x000000000000000000000000de05a1abb121113a33eed248bd91ddc254d5e9db, 1000000000000000000, 1000000000000000000, 0x, 0x, 0x)",
        "(9618879737528, 0)",
        "0xdE05a1Abb121113a33eeD248BD91ddC254d5E9Db"
      ],
      "transaction": {
        "type": "0x02",
        "from": "0xde05a1abb121113a33eed248bd91ddc254d5e9db",
        "to": "0x4114eccadf3b248da9eee7d8df2d3ba6bb02cbcd",
        "gas": "0x4c4e3",
        "value": "0x8bf91e8eeb8",
        "data": "0xc7c7f5b30000000000000000000000000000000000000000000000000000000000000080000000000000000000000000000000000000000000000000000008bf91e8eeb80000000000000000000000000000000000000000000000000000000000000000000000000000000000000000de05a1abb121113a33eed248bd91ddc254d5e9db0000000000000000000000000000000000000000000000000000000000009cad000000000000000000000000de05a1abb121113a33eed248bd91ddc254d5e9db0000000000000000000000000000000000000000000000000de0b6b3a76400000000000000000000000000000000000000000000000000000de0b6b3a764000000000000000000000000000000000000000000000000000000000000000000e000000000000000000000000000000000000000000000000000000000000001000000000000000000000000000000000000000000000000000000000000000120000000000000000000000000000000000000000000000000000000000000000000000000000000000000000000000000000000000000000000000000000000000000000000000000000000000000000000000000000000000000000000000000",
        "nonce": "0x23",
        "accessList": []
      },
      "additionalContracts": [],
      "isFixedGasLimit": false
    }
  ],
  "receipts": [
    {
      "transactionHash": "0x19285bd3e44babdb8635cda6286636543e2e6c7b2d058dbecd29355a3136e652",
      "transactionIndex": "0xc",
      "blockHash": "0x0aa3337595ef246fc380878110f9a8691bbb3eb7582512702adeb797fc7c787e",
      "blockNumber": "0x52605b",
      "from": "0xdE05a1Abb121113a33eeD248BD91ddC254d5E9Db",
      "to": "0x9cb6dc4B71E285e26cbb0605F94B4031fE04C72c",
      "cumulativeGasUsed": "0x148aa0",
      "gasUsed": "0xb53a",
      "contractAddress": null,
      "logs": [
        {
          "address": "0x9cb6dc4B71E285e26cbb0605F94B4031fE04C72c",
          "topics": [
            "0x8c5be1e5ebec7d5bd14f71427d1e84f3dd0314c0f7b2291e5b200ac8c7c3b925",
            "0x000000000000000000000000de05a1abb121113a33eed248bd91ddc254d5e9db",
            "0x0000000000000000000000004114eccadf3b248da9eee7d8df2d3ba6bb02cbcd"
          ],
          "data": "0x0000000000000000000000000000000000000000000000000de0b6b3a7640000",
          "blockHash": "0x0aa3337595ef246fc380878110f9a8691bbb3eb7582512702adeb797fc7c787e",
          "blockNumber": "0x52605b",
          "transactionHash": "0x19285bd3e44babdb8635cda6286636543e2e6c7b2d058dbecd29355a3136e652",
          "transactionIndex": "0xc",
          "logIndex": "0x5",
          "removed": false
        }
      ],
      "status": "0x1",
      "logsBloom": "0x00000000000000000000000000000000000000000000000000100000020000000000000000000000000000000000000000000000000000000000000000200000000000000000000000000000000000000000000000000000000000000000000000000000000000000000000000000000000000000000004000000000000000000000000000000020000000000000000000000000000004000000000000000000020000000000000000000000000000000000000000000080000000000000000000000000000000000002000000000000000000000000000000000000000000000010000000000000000000000000000000000000400000000000000000000000",
      "type": "0x2",
      "effectiveGasPrice": "0xb2d1e30e"
    },
    {
      "transactionHash": "0xc76c780e0ab4a7ae4cbf1375d3795afbbf2cde09403c64174d1c32b011891420",
      "transactionIndex": "0xd",
      "blockHash": "0x0aa3337595ef246fc380878110f9a8691bbb3eb7582512702adeb797fc7c787e",
      "blockNumber": "0x52605b",
      "from": "0xdE05a1Abb121113a33eeD248BD91ddC254d5E9Db",
      "to": "0x4114eCCadF3b248DA9EEe7D8dF2d3bA6bB02Cbcd",
      "cumulativeGasUsed": "0x17fe87",
      "gasUsed": "0x373e7",
      "contractAddress": null,
      "logs": [
        {
          "address": "0x9cb6dc4B71E285e26cbb0605F94B4031fE04C72c",
          "topics": [
            "0xddf252ad1be2c89b69c2b068fc378daa952ba7f163c4a11628f55a4df523b3ef",
            "0x000000000000000000000000de05a1abb121113a33eed248bd91ddc254d5e9db",
            "0x0000000000000000000000004114eccadf3b248da9eee7d8df2d3ba6bb02cbcd"
          ],
          "data": "0x0000000000000000000000000000000000000000000000000de0b6b3a7640000",
          "blockHash": "0x0aa3337595ef246fc380878110f9a8691bbb3eb7582512702adeb797fc7c787e",
          "blockNumber": "0x52605b",
          "transactionHash": "0xc76c780e0ab4a7ae4cbf1375d3795afbbf2cde09403c64174d1c32b011891420",
          "transactionIndex": "0xd",
          "logIndex": "0x6",
          "removed": false
        },
        {
          "address": "0xcc1ae8Cf5D3904Cef3360A9532B477529b177cCE",
          "topics": [
            "0x61ed099e74a97a1d7f8bb0952a88ca8b7b8ebd00c126ea04671f92a81213318a"
          ],
          "data": "0x000000000000000000000000718b92b5cb0a5552039b593faf724d182a881eda00000000000000000000000000000000000000000000000000000526eb02cec3",
          "blockHash": "0x0aa3337595ef246fc380878110f9a8691bbb3eb7582512702adeb797fc7c787e",
          "blockNumber": "0x52605b",
          "transactionHash": "0xc76c780e0ab4a7ae4cbf1375d3795afbbf2cde09403c64174d1c32b011891420",
          "transactionIndex": "0xd",
          "logIndex": "0x7",
          "removed": false
        },
        {
          "address": "0xcc1ae8Cf5D3904Cef3360A9532B477529b177cCE",
          "topics": [
            "0x07ea52d82345d6e838192107d8fd7123d9c2ec8e916cd0aad13fd2b60db24644"
          ],
          "data": "0x000000000000000000000000000000000000000000000000000000000000006000000000000000000000000000000000000000000000000000000000000000a000000000000000000000000000000000000000000000000000000000000000c000000000000000000000000000000000000000000000000000000000000000010000000000000000000000008eebf8b423b73bfca51a1db4b7354aa0bfca91930000000000000000000000000000000000000000000000000000000000000000000000000000000000000000000000000000000000000000000000000000000100000000000000000000000000000000000000000000000000000398a6e61ff5",
          "blockHash": "0x0aa3337595ef246fc380878110f9a8691bbb3eb7582512702adeb797fc7c787e",
          "blockNumber": "0x52605b",
          "transactionHash": "0xc76c780e0ab4a7ae4cbf1375d3795afbbf2cde09403c64174d1c32b011891420",
          "transactionIndex": "0xd",
          "logIndex": "0x8",
          "removed": false
        },
        {
          "address": "0x6EDCE65403992e310A62460808c4b910D972f10f",
          "topics": [
            "0x1ab700d4ced0c005b164c0f789fd09fcbb0156d4c2041b8a3bfbcd961cd1567f"
          ],
          "data": "0x00000000000000000000000000000000000000000000000000000000000000600000000000000000000000000000000000000000000000000000000000000120000000000000000000000000cc1ae8cf5d3904cef3360a9532b477529b177cce000000000000000000000000000000000000000000000000000000000000009901000000000000000400009ce10000000000000000000000004114eccadf3b248da9eee7d8df2d3ba6bb02cbcd00009cad0000000000000000000000008bb305df680eda14e6b25b975bf1a8831acf69ab065def5132702347e0e99d689b7f13f136b1b10f77b1ffd3df566ec7a7073e0c000000000000000000000000de05a1abb121113a33eed248bd91ddc254d5e9db00000000000f424000000000000000000000000000000000000000000000000000000000000000000000000000001600030100110100000000000000000000000000030d4000000000000000000000",
          "blockHash": "0x0aa3337595ef246fc380878110f9a8691bbb3eb7582512702adeb797fc7c787e",
          "blockNumber": "0x52605b",
          "transactionHash": "0xc76c780e0ab4a7ae4cbf1375d3795afbbf2cde09403c64174d1c32b011891420",
          "transactionIndex": "0xd",
          "logIndex": "0x9",
          "removed": false
        },
        {
          "address": "0x4114eCCadF3b248DA9EEe7D8dF2d3bA6bB02Cbcd",
          "topics": [
            "0xfff873bb909b73d08a8c1af4b21779e87103bb8ea8cf3b3a0067eb8526b8b80a",
            "0x065def5132702347e0e99d689b7f13f136b1b10f77b1ffd3df566ec7a7073e0c",
            "0x000000000000000000000000de05a1abb121113a33eed248bd91ddc254d5e9db"
          ],
          "data": "0x0000000000000000000000000000000000000000000000000000000000009cad0000000000000000000000000000000000000000000000000de0b6b3a7640000",
          "blockHash": "0x0aa3337595ef246fc380878110f9a8691bbb3eb7582512702adeb797fc7c787e",
          "blockNumber": "0x52605b",
          "transactionHash": "0xc76c780e0ab4a7ae4cbf1375d3795afbbf2cde09403c64174d1c32b011891420",
          "transactionIndex": "0xd",
          "logIndex": "0xa",
          "removed": false
        }
      ],
      "status": "0x1",
      "logsBloom": "0x00000000000000000000000000000000000000000000000034100000020100000000000000000000200000010080000000000000000000000000000000000000000000000000000000000008000000000000000000000000000000000000000000000000000000008200000000000000000000000000004000000010400000000000000000000020000000080000000000000000000004000000000000000000000000008000000000100000000000000000020040400080000440000000000000000002000000000002000000000000000000080000000000000000000000000000040000000000000000000000002000000000400000001000000000000020",
      "type": "0x2",
      "effectiveGasPrice": "0xb2d1e30e"
    }
  ],
  "libraries": [],
  "pending": [],
  "returns": {},
  "timestamp": 1709350993,
  "chain": 11155111,
  "multi": false,
  "commit": "01c9989"
}