{
  "transactions": [
    {
      "hash": "0x5e97034bf8f66537593d9030caae7bcaf03dfa085c0cf58d3272cf36f28af388",
      "transactionType": "CALL",
      "contractName": "MocaTokenAdaptor",
      "contractAddress": "0xD890Cd7CFb5e9aeda39Fa4A3FAf07CeB0B015F3c",
      "function": "setPeer(uint32,bytes32)",
      "arguments": [
        "40109",
        "0x0000000000000000000000008c979ef6a647c91f56654580f1c740c9f047edb2"
      ],
      "transaction": {
        "type": "0x02",
        "from": "0xde05a1abb121113a33eed248bd91ddc254d5e9db",
        "to": "0xd890cd7cfb5e9aeda39fa4a3faf07ceb0b015f3c",
        "gas": "0x10cd8",
        "value": "0x0",
        "data": "0x3400288b0000000000000000000000000000000000000000000000000000000000009cad0000000000000000000000008c979ef6a647c91f56654580f1c740c9f047edb2",
        "nonce": "0x83",
        "accessList": []
      },
      "additionalContracts": [],
      "isFixedGasLimit": false
    }
  ],
  "receipts": [
    {
      "transactionHash": "0x5e97034bf8f66537593d9030caae7bcaf03dfa085c0cf58d3272cf36f28af388",
      "transactionIndex": "0x28",
      "blockHash": "0x2ba1ec16e0f38291bc90a2fddead6711b71a6ed180b27ec229b4c29e649cb4e8",
      "blockNumber": "0x531b44",
      "from": "0xdE05a1Abb121113a33eeD248BD91ddC254d5E9Db",
      "to": "0xD890Cd7CFb5e9aeda39Fa4A3FAf07CeB0B015F3c",
      "cumulativeGasUsed": "0x8a5f74",
      "gasUsed": "0xc2a4",
      "contractAddress": null,
      "logs": [
        {
          "address": "0xD890Cd7CFb5e9aeda39Fa4A3FAf07CeB0B015F3c",
          "topics": [
            "0x238399d427b947898edb290f5ff0f9109849b1c3ba196a42e35f00c50a54b98b"
          ],
          "data": "0x0000000000000000000000000000000000000000000000000000000000009cad0000000000000000000000008c979ef6a647c91f56654580f1c740c9f047edb2",
          "blockHash": "0x2ba1ec16e0f38291bc90a2fddead6711b71a6ed180b27ec229b4c29e649cb4e8",
          "blockNumber": "0x531b44",
          "transactionHash": "0x5e97034bf8f66537593d9030caae7bcaf03dfa085c0cf58d3272cf36f28af388",
          "transactionIndex": "0x28",
          "logIndex": "0xb5",
          "removed": false
        }
      ],
      "status": "0x1",
      "logsBloom": "0x00000000000000000000000000000000000000000000000000000000000000000000000000000000000400000000000000000000000000000800000000000000000000000000000000000000000000000000000002000000000000000000000000000000000000000000000000000000000000000000000000000000000000000000000000000000000000000000000000000000000000000000000000000000000000000000000000000000000000000000000000000000000002000000000000000000000000000000000000000200000000000000000000040000000000000000000000000000000000000000000000000000000000000000000000000000",
      "type": "0x2",
      "effectiveGasPrice": "0xbace9d87"
    }
  ],
  "libraries": [],
  "pending": [],
  "returns": {},
  "timestamp": 1709955604,
  "chain": 11155111,
  "multi": false,
  "commit": "0fb095c"
}