{
  "transactions": [
    {
      "hash": "0x0ea6d0cc71dccf2d1b6c5ef1806ef7157026c383406ba7a002c410ab8f0ccee7",
      "transactionType": "CALL",
      "contractName": "MocaToken",
      "contractAddress": "0xFe149349285995D59Ec3FD6A5080840443906B45",
      "function": "approve(address,uint256)",
      "arguments": [
        "0xa8F355AE124d7120dAEA13239b6cC89FB0376779",
        "1000000000000000000"
      ],
      "transaction": {
        "type": "0x02",
        "from": "0xde05a1abb121113a33eed248bd91ddc254d5e9db",
        "to": "0xfe149349285995d59ec3fd6a5080840443906b45",
        "gas": "0x1090a",
        "value": "0x0",
        "data": "0x095ea7b3000000000000000000000000a8f355ae124d7120daea13239b6cc89fb03767790000000000000000000000000000000000000000000000000de0b6b3a7640000",
        "nonce": "0x123",
        "accessList": []
      },
      "additionalContracts": [],
      "isFixedGasLimit": false
    },
    {
      "hash": "0xcd44c58071d010aad2c656287aef83cea80295c23c04064906766fc4d9cab753",
      "transactionType": "CALL",
      "contractName": "MocaTokenAdapter",
      "contractAddress": "0xa8F355AE124d7120dAEA13239b6cC89FB0376779",
      "function": "send((uint32,bytes32,uint256,uint256,bytes,bytes,bytes),(uint256,uint256),address)",
      "arguments": [
        "(40109, 0x000000000000000000000000de05a1abb121113a33eed248bd91ddc254d5e9db, 1000000000000000000, 1000000000000000000, 0x, 0x, 0x)",
        "(68470422161982, 0)",
        "0xdE05a1Abb121113a33eeD248BD91ddC254d5E9Db"
      ],
      "transaction": {
        "type": "0x02",
        "from": "0xde05a1abb121113a33eed248bd91ddc254d5e9db",
        "to": "0xa8f355ae124d7120daea13239b6cc89fb0376779",
        "gas": "0x551b1",
        "value": "0x3e460330ca3e",
        "data": "0xc7c7f5b3000000000000000000000000000000000000000000000000000000000000008000000000000000000000000000000000000000000000000000003e460330ca3e0000000000000000000000000000000000000000000000000000000000000000000000000000000000000000de05a1abb121113a33eed248bd91ddc254d5e9db0000000000000000000000000000000000000000000000000000000000009cad000000000000000000000000de05a1abb121113a33eed248bd91ddc254d5e9db0000000000000000000000000000000000000000000000000de0b6b3a76400000000000000000000000000000000000000000000000000000de0b6b3a764000000000000000000000000000000000000000000000000000000000000000000e000000000000000000000000000000000000000000000000000000000000001000000000000000000000000000000000000000000000000000000000000000120000000000000000000000000000000000000000000000000000000000000000000000000000000000000000000000000000000000000000000000000000000000000000000000000000000000000000000000000000000000000000000000000",
        "nonce": "0x124",
        "accessList": []
      },
      "additionalContracts": [],
      "isFixedGasLimit": false
    }
  ],
  "receipts": [
    {
      "transactionHash": "0x0ea6d0cc71dccf2d1b6c5ef1806ef7157026c383406ba7a002c410ab8f0ccee7",
      "transactionIndex": "0x3",
      "blockHash": "0x1748be69faf07a11e299657f6f7df6df07ce278af07696068daf8801e84612c5",
      "blockNumber": "0x54af09",
      "from": "0xdE05a1Abb121113a33eeD248BD91ddC254d5E9Db",
      "to": "0xFe149349285995D59Ec3FD6A5080840443906B45",
      "cumulativeGasUsed": "0x478db",
      "gasUsed": "0xb53a",
      "contractAddress": null,
      "logs": [
        {
          "address": "0xFe149349285995D59Ec3FD6A5080840443906B45",
          "topics": [
            "0x8c5be1e5ebec7d5bd14f71427d1e84f3dd0314c0f7b2291e5b200ac8c7c3b925",
            "0x000000000000000000000000de05a1abb121113a33eed248bd91ddc254d5e9db",
            "0x000000000000000000000000a8f355ae124d7120daea13239b6cc89fb0376779"
          ],
          "data": "0x0000000000000000000000000000000000000000000000000de0b6b3a7640000",
          "blockHash": "0x1748be69faf07a11e299657f6f7df6df07ce278af07696068daf8801e84612c5",
          "blockNumber": "0x54af09",
          "transactionHash": "0x0ea6d0cc71dccf2d1b6c5ef1806ef7157026c383406ba7a002c410ab8f0ccee7",
          "transactionIndex": "0x3",
          "logIndex": "0x7",
          "removed": false
        }
      ],
      "status": "0x1",
      "logsBloom": "0x00000000000000000000000000000000000000000000000000100000000000000000000000000000000000000000100000000000000000000000000000200000000080000800000040000000000000000000000000000000000000000000000000000000000000000000000000000000000000000000004000000000000000000000000200000020000000000000000000000000000000000000000000000000020000000000000000000000000000000000000000000000000000000000000000000000000000000000000000000000000000000000000000000000000000000010000000000000800000000000000000000000000000000000000000000000",
      "type": "0x2",
      "effectiveGasPrice": "0xbda19877"
    },
    {
      "transactionHash": "0xcd44c58071d010aad2c656287aef83cea80295c23c04064906766fc4d9cab753",
      "transactionIndex": "0x4",
      "blockHash": "0x1748be69faf07a11e299657f6f7df6df07ce278af07696068daf8801e84612c5",
      "blockNumber": "0x54af09",
      "from": "0xdE05a1Abb121113a33eeD248BD91ddC254d5E9Db",
      "to": "0xa8F355AE124d7120dAEA13239b6cC89FB0376779",
      "cumulativeGasUsed": "0x81bee",
      "gasUsed": "0x3a313",
      "contractAddress": null,
      "logs": [
        {
          "address": "0xFe149349285995D59Ec3FD6A5080840443906B45",
          "topics": [
            "0xddf252ad1be2c89b69c2b068fc378daa952ba7f163c4a11628f55a4df523b3ef",
            "0x000000000000000000000000de05a1abb121113a33eed248bd91ddc254d5e9db",
            "0x000000000000000000000000a8f355ae124d7120daea13239b6cc89fb0376779"
          ],
          "data": "0x0000000000000000000000000000000000000000000000000de0b6b3a7640000",
          "blockHash": "0x1748be69faf07a11e299657f6f7df6df07ce278af07696068daf8801e84612c5",
          "blockNumber": "0x54af09",
          "transactionHash": "0xcd44c58071d010aad2c656287aef83cea80295c23c04064906766fc4d9cab753",
          "transactionIndex": "0x4",
          "logIndex": "0x8",
          "removed": false
        },
        {
          "address": "0xcc1ae8Cf5D3904Cef3360A9532B477529b177cCE",
          "topics": [
            "0x61ed099e74a97a1d7f8bb0952a88ca8b7b8ebd00c126ea04671f92a81213318a"
          ],
          "data": "0x000000000000000000000000718b92b5cb0a5552039b593faf724d182a881eda00000000000000000000000000000000000000000000000000003a940bd9532c",
          "blockHash": "0x1748be69faf07a11e299657f6f7df6df07ce278af07696068daf8801e84612c5",
          "blockNumber": "0x54af09",
          "transactionHash": "0xcd44c58071d010aad2c656287aef83cea80295c23c04064906766fc4d9cab753",
          "transactionIndex": "0x4",
          "logIndex": "0x9",
          "removed": false
        },
        {
          "address": "0xcc1ae8Cf5D3904Cef3360A9532B477529b177cCE",
          "topics": [
            "0x07ea52d82345d6e838192107d8fd7123d9c2ec8e916cd0aad13fd2b60db24644"
          ],
          "data": "0x000000000000000000000000000000000000000000000000000000000000006000000000000000000000000000000000000000000000000000000000000000a000000000000000000000000000000000000000000000000000000000000000c000000000000000000000000000000000000000000000000000000000000000010000000000000000000000008eebf8b423b73bfca51a1db4b7354aa0bfca919300000000000000000000000000000000000000000000000000000000000000000000000000000000000000000000000000000000000000000000000000000001000000000000000000000000000000000000000000000000000003b1f7577712",
          "blockHash": "0x1748be69faf07a11e299657f6f7df6df07ce278af07696068daf8801e84612c5",
          "blockNumber": "0x54af09",
          "transactionHash": "0xcd44c58071d010aad2c656287aef83cea80295c23c04064906766fc4d9cab753",
          "transactionIndex": "0x4",
          "logIndex": "0xa",
          "removed": false
        },
        {
          "address": "0x6EDCE65403992e310A62460808c4b910D972f10f",
          "topics": [
            "0x1ab700d4ced0c005b164c0f789fd09fcbb0156d4c2041b8a3bfbcd961cd1567f"
          ],
          "data": "0x00000000000000000000000000000000000000000000000000000000000000600000000000000000000000000000000000000000000000000000000000000120000000000000000000000000cc1ae8cf5d3904cef3360a9532b477529b177cce000000000000000000000000000000000000000000000000000000000000009901000000000000000b00009ce1000000000000000000000000a8f355ae124d7120daea13239b6cc89fb037677900009cad0000000000000000000000000eb26b982341c37a02812738c6c10eb0b66ef4f7bb4f4059a5c39a188249a3409787d4f5b64d4e46243f9bfcedfbfdc72c61ff1a000000000000000000000000de05a1abb121113a33eed248bd91ddc254d5e9db00000000000f424000000000000000000000000000000000000000000000000000000000000000000000000000001600030100110100000000000000000000000000030d4000000000000000000000",
          "blockHash": "0x1748be69faf07a11e299657f6f7df6df07ce278af07696068daf8801e84612c5",
          "blockNumber": "0x54af09",
          "transactionHash": "0xcd44c58071d010aad2c656287aef83cea80295c23c04064906766fc4d9cab753",
          "transactionIndex": "0x4",
          "logIndex": "0xb",
          "removed": false
        },
        {
          "address": "0xa8F355AE124d7120dAEA13239b6cC89FB0376779",
          "topics": [
            "0xfff873bb909b73d08a8c1af4b21779e87103bb8ea8cf3b3a0067eb8526b8b80a",
            "0xbb4f4059a5c39a188249a3409787d4f5b64d4e46243f9bfcedfbfdc72c61ff1a",
            "0x000000000000000000000000de05a1abb121113a33eed248bd91ddc254d5e9db"
          ],
          "data": "0x0000000000000000000000000000000000000000000000000000000000009cad0000000000000000000000000000000000000000000000000de0b6b3a7640000",
          "blockHash": "0x1748be69faf07a11e299657f6f7df6df07ce278af07696068daf8801e84612c5",
          "blockNumber": "0x54af09",
          "transactionHash": "0xcd44c58071d010aad2c656287aef83cea80295c23c04064906766fc4d9cab753",
          "transactionIndex": "0x4",
          "logIndex": "0xc",
          "removed": false
        }
      ],
      "status": "0x1",
      "logsBloom": "0x00000000000000000000001000000000000000000000000030100000000100000000000000000000200000000080100000000000000000000000000000000000000080000800000040000008000000000000000000080000000000000000000000000000000000008200000000000000000000000000004000000010000000000000000200000020000000080000000000000000000000000000010000000000000000008000000000100000000000000004000000400000000440000000000000000002000000000000000800000000000000080000000000000000000000000000040000000000800000000000002000000000000000000000000000400020",
      "type": "0x2",
      "effectiveGasPrice": "0xbda19877"
    }
  ],
  "libraries": [],
  "pending": [],
  "returns": {},
  "timestamp": 1711266276,
  "chain": 11155111,
  "commit": "44d6322"
}