{
  "transactions": [
    {
      "hash": "0xf3beb5a1ddcd105ca8f33f518cb933d7c32591f804b56cf4709e7042f2ab2d80",
      "transactionType": "CALL",
      "contractName": "MocaTokenAdaptor",
      "contractAddress": "0x4114eCCadF3b248DA9EEe7D8dF2d3bA6bB02Cbcd",
      "function": "setEnforcedOptions((uint32,uint16,bytes)[])",
      "arguments": [
        "[(40109, 1, 0x00030100110100000000000000000000000000030d40), (40161, 2, 0x000301001101000000000000000000000000000f4240)]"
      ],
      "transaction": {
        "type": "0x02",
        "from": "0xde05a1abb121113a33eed248bd91ddc254d5e9db",
        "to": "0x4114eccadf3b248da9eee7d8df2d3ba6bb02cbcd",
        "gas": "0x146d1",
        "value": "0x0",
        "data": "0xb98bd07000000000000000000000000000000000000000000000000000000000000000200000000000000000000000000000000000000000000000000000000000000002000000000000000000000000000000000000000000000000000000000000004000000000000000000000000000000000000000000000000000000000000000e00000000000000000000000000000000000000000000000000000000000009cad00000000000000000000000000000000000000000000000000000000000000010000000000000000000000000000000000000000000000000000000000000060000000000000000000000000000000000000000000000000000000000000001600030100110100000000000000000000000000030d40000000000000000000000000000000000000000000000000000000000000000000000000000000009ce1000000000000000000000000000000000000000000000000000000000000000200000000000000000000000000000000000000000000000000000000000000600000000000000000000000000000000000000000000000000000000000000016000301001101000000000000000000000000000f424000000000000000000000",
        "nonce": "0x30",
        "accessList": []
      },
      "additionalContracts": [],
      "isFixedGasLimit": false
    }
  ],
  "receipts": [
    {
      "transactionHash": "0xf3beb5a1ddcd105ca8f33f518cb933d7c32591f804b56cf4709e7042f2ab2d80",
      "transactionIndex": "0x17",
      "blockHash": "0x40ed9ae677f697d147d269da8310eb4821126c62555719a8f10ecc7e67065920",
      "blockNumber": "0x52b648",
      "from": "0xdE05a1Abb121113a33eeD248BD91ddC254d5E9Db",
      "to": "0x4114eCCadF3b248DA9EEe7D8dF2d3bA6bB02Cbcd",
      "cumulativeGasUsed": "0xa8f85",
      "gasUsed": "0xec9d",
      "contractAddress": null,
      "logs": [
        {
          "address": "0x4114eCCadF3b248DA9EEe7D8dF2d3bA6bB02Cbcd",
          "topics": [
            "0xbe4864a8e820971c0247f5992e2da559595f7bf076a21cb5928d443d2a13b674"
          ],
          "data": "0x00000000000000000000000000000000000000000000000000000000000000200000000000000000000000000000000000000000000000000000000000000002000000000000000000000000000000000000000000000000000000000000004000000000000000000000000000000000000000000000000000000000000000e00000000000000000000000000000000000000000000000000000000000009cad00000000000000000000000000000000000000000000000000000000000000010000000000000000000000000000000000000000000000000000000000000060000000000000000000000000000000000000000000000000000000000000001600030100110100000000000000000000000000030d40000000000000000000000000000000000000000000000000000000000000000000000000000000009ce1000000000000000000000000000000000000000000000000000000000000000200000000000000000000000000000000000000000000000000000000000000600000000000000000000000000000000000000000000000000000000000000016000301001101000000000000000000000000000f424000000000000000000000",
          "blockHash": "0x40ed9ae677f697d147d269da8310eb4821126c62555719a8f10ecc7e67065920",
          "blockNumber": "0x52b648",
          "transactionHash": "0xf3beb5a1ddcd105ca8f33f518cb933d7c32591f804b56cf4709e7042f2ab2d80",
          "transactionIndex": "0x17",
          "logIndex": "0x3",
          "removed": false
        }
      ],
      "status": "0x1",
      "logsBloom": "0x00000000000000000000000000000000000000000000000004000000000000000000000000000000000000000000000000000000000000000000400000000000000000000000000000000000000000000000000000000000000000000000000000000000000000000000000000000000000000000000000000000000000000000000000000000000000000000000000000000000000000000000000000080000000000000000000000000000000000000000020000000000000000000000000000000000000000000000000002000000000000000000000000000000000000000000000000000000000000000000000000000000000000001000000000000000",
      "type": "0x2",
      "effectiveGasPrice": "0xb9b03139"
    }
  ],
  "libraries": [],
  "pending": [],
  "returns": {},
  "timestamp": 1709629767,
  "chain": 11155111,
  "multi": false,
  "commit": "5d3d96c"
}