{
  "transactions": [
    {
      "hash": "0xf8f4f1e34a8f1e7b9f96bed8afa928f29a61f183b431a53ea376966bca2509e5",
      "transactionType": "CALL",
      "contractName": "MocaTokenAdaptor",
      "contractAddress": "0x434D21113d8E99f2A478dAe3e841450ce28a89C8",
      "function": "setEnforcedOptions((uint32,uint16,bytes)[])",
      "arguments": [
        "[(40109, 1, 0x00030100110100000000000000000000000000030d40)]"
      ],
      "transaction": {
        "type": "0x02",
        "from": "0xde05a1abb121113a33eed248bd91ddc254d5e9db",
        "to": "0x434d21113d8e99f2a478dae3e841450ce28a89c8",
        "gas": "0x12f4a",
        "value": "0x0",
        "data": "0xb98bd0700000000000000000000000000000000000000000000000000000000000000020000000000000000000000000000000000000000000000000000000000000000100000000000000000000000000000000000000000000000000000000000000200000000000000000000000000000000000000000000000000000000000009cad00000000000000000000000000000000000000000000000000000000000000010000000000000000000000000000000000000000000000000000000000000060000000000000000000000000000000000000000000000000000000000000001600030100110100000000000000000000000000030d4000000000000000000000",
        "nonce": "0x66",
        "accessList": []
      },
      "additionalContracts": [],
      "isFixedGasLimit": false
    }
  ],
  "receipts": [],
  "libraries": [],
  "pending": [
    "0xf8f4f1e34a8f1e7b9f96bed8afa928f29a61f183b431a53ea376966bca2509e5"
  ],
  "returns": {},
  "timestamp": 1709952072,
  "chain": 11155111,
  "multi": false,
  "commit": "0fb095c"
}