{
  "transactions": [
    {
      "hash": "0xa5922601803bda8b6137b378ccc4882af2bcf55e451590b7d0554e0f770d7d70",
      "transactionType": "CALL",
      "contractName": "MocaTokenAdaptor",
      "contractAddress": "0xC60FDE3964f1bafC4cd0EE9403Cab7F789dDb8A7",
      "function": "setPeer(uint32,bytes32)",
      "arguments": [
        "40109",
        "0x0000000000000000000000008c979ef6a647c91f56654580f1c740c9f047edb2"
      ],
      "transaction": {
        "type": "0x02",
        "from": "0xde05a1abb121113a33eed248bd91ddc254d5e9db",
        "to": "0xc60fde3964f1bafc4cd0ee9403cab7f789ddb8a7",
        "gas": "0x10cd8",
        "value": "0x0",
        "data": "0x3400288b0000000000000000000000000000000000000000000000000000000000009cad0000000000000000000000008c979ef6a647c91f56654580f1c740c9f047edb2",
        "nonce": "0x7f",
        "accessList": []
      },
      "additionalContracts": [],
      "isFixedGasLimit": false
    }
  ],
  "receipts": [
    {
      "transactionHash": "0xa5922601803bda8b6137b378ccc4882af2bcf55e451590b7d0554e0f770d7d70",
      "transactionIndex": "0x21",
      "blockHash": "0xfab1c62ee7cab253cc132f86110297f2ac8af92838b90efdd126f7d70f65e632",
      "blockNumber": "0x531b30",
      "from": "0xdE05a1Abb121113a33eeD248BD91ddC254d5E9Db",
      "to": "0xC60FDE3964f1bafC4cd0EE9403Cab7F789dDb8A7",
      "cumulativeGasUsed": "0x1a849a",
      "gasUsed": "0xc2a4",
      "contractAddress": null,
      "logs": [
        {
          "address": "0xC60FDE3964f1bafC4cd0EE9403Cab7F789dDb8A7",
          "topics": [
            "0x238399d427b947898edb290f5ff0f9109849b1c3ba196a42e35f00c50a54b98b"
          ],
          "data": "0x0000000000000000000000000000000000000000000000000000000000009cad0000000000000000000000008c979ef6a647c91f56654580f1c740c9f047edb2",
          "blockHash": "0xfab1c62ee7cab253cc132f86110297f2ac8af92838b90efdd126f7d70f65e632",
          "blockNumber": "0x531b30",
          "transactionHash": "0xa5922601803bda8b6137b378ccc4882af2bcf55e451590b7d0554e0f770d7d70",
          "transactionIndex": "0x21",
          "logIndex": "0x1f",
          "removed": false
        }
      ],
      "status": "0x1",
      "logsBloom": "0x00000000000010000000000000000000000000000000000000000000000000000000000000000000000000000000000000000000000000000800000000000000000000000000000000000000000000000000000000000000200000000000000000000000000000000000000000000000000000000000000000000000000000000000000000000000000000000000000000000000000000000010000000000000000000000000000000000000000000000000000000000000000002000000000000000000000000000000000000000000000000000000000000040000000000000000000000000000000000000000000000000000000000000000000000000000",
      "type": "0x2",
      "effectiveGasPrice": "0xbb463806"
    }
  ],
  "libraries": [],
  "pending": [],
  "returns": {},
  "timestamp": 1709955361,
  "chain": 11155111,
  "multi": false,
  "commit": "0fb095c"
}