{
  "transactions": [
    {
      "hash": "0x651f486eb40d99e05b7348795c80fe25e1f4b0ca10069602a5c9a3dde4eb7cb3",
      "transactionType": "CALL",
      "contractName": "MocaToken",
      "contractAddress": "0xA2E400CE40C83270d8369eC971D0fc2e46D5056a",
      "function": "approve(address,uint256)",
      "arguments": [
        "0x5a9962874acA3b407aCeB14f64C7eF2C6255C880",
        "1000000000000000000"
      ],
      "transaction": {
        "type": "0x02",
        "from": "0xde05a1abb121113a33eed248bd91ddc254d5e9db",
        "to": "0xa2e400ce40c83270d8369ec971d0fc2e46d5056a",
        "gas": "0x1090a",
        "value": "0x0",
        "data": "0x095ea7b30000000000000000000000005a9962874aca3b407aceb14f64c7ef2c6255c8800000000000000000000000000000000000000000000000000de0b6b3a7640000",
        "nonce": "0xd5",
        "accessList": []
      },
      "additionalContracts": [],
      "isFixedGasLimit": false
    },
    {
      "hash": "0xc10898b2b5550969a205684dabe223d67b853cfb76fd3521f95bd016da781951",
      "transactionType": "CALL",
      "contractName": "MocaTokenAdapter",
      "contractAddress": "0x5a9962874acA3b407aCeB14f64C7eF2C6255C880",
      "function": "send((uint32,bytes32,uint256,uint256,bytes,bytes,bytes),(uint256,uint256),address)",
      "arguments": [
        "(40109, 0x000000000000000000000000de05a1abb121113a33eed248bd91ddc254d5e9db, 1000000000000000000, 1000000000000000000, 0x, 0x, 0x)",
        "(53120796084679, 0)",
        "0xdE05a1Abb121113a33eeD248BD91ddC254d5E9Db"
      ],
      "transaction": {
        "type": "0x02",
        "from": "0xde05a1abb121113a33eed248bd91ddc254d5e9db",
        "to": "0x5a9962874aca3b407aceb14f64c7ef2c6255c880",
        "gas": "0x51625",
        "value": "0x3050262e49c7",
        "data": "0xc7c7f5b3000000000000000000000000000000000000000000000000000000000000008000000000000000000000000000000000000000000000000000003050262e49c70000000000000000000000000000000000000000000000000000000000000000000000000000000000000000de05a1abb121113a33eed248bd91ddc254d5e9db0000000000000000000000000000000000000000000000000000000000009cad000000000000000000000000de05a1abb121113a33eed248bd91ddc254d5e9db0000000000000000000000000000000000000000000000000de0b6b3a76400000000000000000000000000000000000000000000000000000de0b6b3a764000000000000000000000000000000000000000000000000000000000000000000e000000000000000000000000000000000000000000000000000000000000001000000000000000000000000000000000000000000000000000000000000000120000000000000000000000000000000000000000000000000000000000000000000000000000000000000000000000000000000000000000000000000000000000000000000000000000000000000000000000000000000000000000000000000",
        "nonce": "0xd6",
        "accessList": []
      },
      "additionalContracts": [],
      "isFixedGasLimit": false
    }
  ],
  "receipts": [
    {
      "transactionHash": "0x651f486eb40d99e05b7348795c80fe25e1f4b0ca10069602a5c9a3dde4eb7cb3",
      "transactionIndex": "0xc",
      "blockHash": "0x5d28c96fe3785692b83f568c439c0572fae80c17d119933eaeb48ff9a016756e",
      "blockNumber": "0x53ba32",
      "from": "0xdE05a1Abb121113a33eeD248BD91ddC254d5E9Db",
      "to": "0xA2E400CE40C83270d8369eC971D0fc2e46D5056a",
      "cumulativeGasUsed": "0xc6c03",
      "gasUsed": "0xb53a",
      "contractAddress": null,
      "logs": [
        {
          "address": "0xA2E400CE40C83270d8369eC971D0fc2e46D5056a",
          "topics": [
            "0x8c5be1e5ebec7d5bd14f71427d1e84f3dd0314c0f7b2291e5b200ac8c7c3b925",
            "0x000000000000000000000000de05a1abb121113a33eed248bd91ddc254d5e9db",
            "0x0000000000000000000000005a9962874aca3b407aceb14f64c7ef2c6255c880"
          ],
          "data": "0x0000000000000000000000000000000000000000000000000de0b6b3a7640000",
          "blockHash": "0x5d28c96fe3785692b83f568c439c0572fae80c17d119933eaeb48ff9a016756e",
          "blockNumber": "0x53ba32",
          "transactionHash": "0x651f486eb40d99e05b7348795c80fe25e1f4b0ca10069602a5c9a3dde4eb7cb3",
          "transactionIndex": "0xc",
          "logIndex": "0x5",
          "removed": false
        }
      ],
      "status": "0x1",
      "logsBloom": "0x00000000000000000000000000000000000000000000000000100000000000000000000000000000000000000000000000000000000000000000000000200000000000000000000000000000000000000004000000000000000000000000000000000000000000000000000000000000000000000000004001000000000008000000000000000020000000000000000000000000000000000000000000000000020000000000000000000000000000000000000000000000000000000000000000000000000000000000000000000000000400000000000400000000000000000010000000000000000000000000000000000000000000000000000040000000",
      "type": "0x2",
      "effectiveGasPrice": "0xba8139f6"
    },
    {
      "transactionHash": "0xc10898b2b5550969a205684dabe223d67b853cfb76fd3521f95bd016da781951",
      "transactionIndex": "0xd",
      "blockHash": "0x5d28c96fe3785692b83f568c439c0572fae80c17d119933eaeb48ff9a016756e",
      "blockNumber": "0x53ba32",
      "from": "0xdE05a1Abb121113a33eeD248BD91ddC254d5E9Db",
      "to": "0x5a9962874acA3b407aCeB14f64C7eF2C6255C880",
      "cumulativeGasUsed": "0x101abf",
      "gasUsed": "0x3aebc",
      "contractAddress": null,
      "logs": [
        {
          "address": "0xA2E400CE40C83270d8369eC971D0fc2e46D5056a",
          "topics": [
            "0xddf252ad1be2c89b69c2b068fc378daa952ba7f163c4a11628f55a4df523b3ef",
            "0x000000000000000000000000de05a1abb121113a33eed248bd91ddc254d5e9db",
            "0x0000000000000000000000005a9962874aca3b407aceb14f64c7ef2c6255c880"
          ],
          "data": "0x0000000000000000000000000000000000000000000000000de0b6b3a7640000",
          "blockHash": "0x5d28c96fe3785692b83f568c439c0572fae80c17d119933eaeb48ff9a016756e",
          "blockNumber": "0x53ba32",
          "transactionHash": "0xc10898b2b5550969a205684dabe223d67b853cfb76fd3521f95bd016da781951",
          "transactionIndex": "0xd",
          "logIndex": "0x6",
          "removed": false
        },
        {
          "address": "0xcc1ae8Cf5D3904Cef3360A9532B477529b177cCE",
          "topics": [
            "0x61ed099e74a97a1d7f8bb0952a88ca8b7b8ebd00c126ea04671f92a81213318a"
          ],
          "data": "0x000000000000000000000000718b92b5cb0a5552039b593faf724d182a881eda00000000000000000000000000000000000000000000000000002dc8d779adca",
          "blockHash": "0x5d28c96fe3785692b83f568c439c0572fae80c17d119933eaeb48ff9a016756e",
          "blockNumber": "0x53ba32",
          "transactionHash": "0xc10898b2b5550969a205684dabe223d67b853cfb76fd3521f95bd016da781951",
          "transactionIndex": "0xd",
          "logIndex": "0x7",
          "removed": false
        },
        {
          "address": "0xcc1ae8Cf5D3904Cef3360A9532B477529b177cCE",
          "topics": [
            "0x07ea52d82345d6e838192107d8fd7123d9c2ec8e916cd0aad13fd2b60db24644"
          ],
          "data": "0x000000000000000000000000000000000000000000000000000000000000006000000000000000000000000000000000000000000000000000000000000000a000000000000000000000000000000000000000000000000000000000000000c000000000000000000000000000000000000000000000000000000000000000010000000000000000000000008eebf8b423b73bfca51a1db4b7354aa0bfca919300000000000000000000000000000000000000000000000000000000000000000000000000000000000000000000000000000000000000000000000000000001000000000000000000000000000000000000000000000000000002874eb49bfd",
          "blockHash": "0x5d28c96fe3785692b83f568c439c0572fae80c17d119933eaeb48ff9a016756e",
          "blockNumber": "0x53ba32",
          "transactionHash": "0xc10898b2b5550969a205684dabe223d67b853cfb76fd3521f95bd016da781951",
          "transactionIndex": "0xd",
          "logIndex": "0x8",
          "removed": false
        },
        {
          "address": "0x6EDCE65403992e310A62460808c4b910D972f10f",
          "topics": [
            "0x1ab700d4ced0c005b164c0f789fd09fcbb0156d4c2041b8a3bfbcd961cd1567f"
          ],
          "data": "0x00000000000000000000000000000000000000000000000000000000000000600000000000000000000000000000000000000000000000000000000000000120000000000000000000000000cc1ae8cf5d3904cef3360a9532b477529b177cce000000000000000000000000000000000000000000000000000000000000009901000000000000000e00009ce10000000000000000000000005a9962874aca3b407aceb14f64c7ef2c6255c88000009cad000000000000000000000000aa7a95e597a65eb06dae4ed54f1b62e0535d9156a60e00e4f3ce7f1c708757499b21f046c62399316eb94dbbdb11c84d22f4d84a000000000000000000000000de05a1abb121113a33eed248bd91ddc254d5e9db00000000000f424000000000000000000000000000000000000000000000000000000000000000000000000000001600030100110100000000000000000000000000030d4000000000000000000000",
          "blockHash": "0x5d28c96fe3785692b83f568c439c0572fae80c17d119933eaeb48ff9a016756e",
          "blockNumber": "0x53ba32",
          "transactionHash": "0xc10898b2b5550969a205684dabe223d67b853cfb76fd3521f95bd016da781951",
          "transactionIndex": "0xd",
          "logIndex": "0x9",
          "removed": false
        },
        {
          "address": "0x5a9962874acA3b407aCeB14f64C7eF2C6255C880",
          "topics": [
            "0xfff873bb909b73d08a8c1af4b21779e87103bb8ea8cf3b3a0067eb8526b8b80a",
            "0xa60e00e4f3ce7f1c708757499b21f046c62399316eb94dbbdb11c84d22f4d84a",
            "0x000000000000000000000000de05a1abb121113a33eed248bd91ddc254d5e9db"
          ],
          "data": "0x0000000000000000000000000000000000000000000000000000000000009cad0000000000000000000000000000000000000000000000000de0b6b3a7640000",
          "blockHash": "0x5d28c96fe3785692b83f568c439c0572fae80c17d119933eaeb48ff9a016756e",
          "blockNumber": "0x53ba32",
          "transactionHash": "0xc10898b2b5550969a205684dabe223d67b853cfb76fd3521f95bd016da781951",
          "transactionIndex": "0xd",
          "logIndex": "0xa",
          "removed": false
        }
      ],
      "status": "0x1",
      "logsBloom": "0x00000000000000000000000000000000000000000000000030100000000108000000000000002000200000000080000000000000000000000004004000000000000000000000000000000008000000000004000000000000000000000000000000000000000000008200000000000000000000000000004001000010000008000000000000000020000000080000000000000000008000000000000000000000000000008000000000100000000000000000000000400000000440000000000000000002000000000000000000000000000400081000000400000000000000000000040000000000000000000000002000000000000000000000000040000020",
      "type": "0x2",
      "effectiveGasPrice": "0xba8139f6"
    }
  ],
  "libraries": [],
  "pending": [],
  "returns": {},
  "timestamp": 1710457924,
  "chain": 11155111,
  "commit": "564059c"
}