{
  "transactions": [
    {
      "hash": "0x022fc3506b5cfd4cfa399faac02bc1a272f21675333333459786d3c636f1862e",
      "transactionType": "CALL",
      "contractName": "MocaToken",
      "contractAddress": "0xFe149349285995D59Ec3FD6A5080840443906B45",
      "function": "approve(address,uint256)",
      "arguments": [
        "0xa8F355AE124d7120dAEA13239b6cC89FB0376779",
        "1000000000000000000"
      ],
      "transaction": {
        "type": "0x02",
        "from": "0xde05a1abb121113a33eed248bd91ddc254d5e9db",
        "to": "0xfe149349285995d59ec3fd6a5080840443906b45",
        "gas": "0x1090a",
        "value": "0x0",
        "data": "0x095ea7b3000000000000000000000000a8f355ae124d7120daea13239b6cc89fb03767790000000000000000000000000000000000000000000000000de0b6b3a7640000",
        "nonce": "0x111",
        "accessList": []
      },
      "additionalContracts": [],
      "isFixedGasLimit": false
    },
    {
      "hash": "0xd5b9c4c20bfeba04d4321babaf6c54d2cd720289de93cb61bd521be20afd6569",
      "transactionType": "CALL",
      "contractName": "MocaTokenAdapter",
      "contractAddress": "0xa8F355AE124d7120dAEA13239b6cC89FB0376779",
      "function": "send((uint32,bytes32,uint256,uint256,bytes,bytes,bytes),(uint256,uint256),address)",
      "arguments": [
        "(40109, 0x000000000000000000000000de05a1abb121113a33eed248bd91ddc254d5e9db, 1000000000000000000, 1000000000000000000, 0x, 0x, 0x)",
        "(68829977123089, 0)",
        "0xdE05a1Abb121113a33eeD248BD91ddC254d5E9Db"
      ],
      "transaction": {
        "type": "0x02",
        "from": "0xde05a1abb121113a33eed248bd91ddc254d5e9db",
        "to": "0xa8f355ae124d7120daea13239b6cc89fb0376779",
        "gas": "0x551b1",
        "value": "0x3e99ba561911",
        "data": "0xc7c7f5b3000000000000000000000000000000000000000000000000000000000000008000000000000000000000000000000000000000000000000000003e99ba5619110000000000000000000000000000000000000000000000000000000000000000000000000000000000000000de05a1abb121113a33eed248bd91ddc254d5e9db0000000000000000000000000000000000000000000000000000000000009cad000000000000000000000000de05a1abb121113a33eed248bd91ddc254d5e9db0000000000000000000000000000000000000000000000000de0b6b3a76400000000000000000000000000000000000000000000000000000de0b6b3a764000000000000000000000000000000000000000000000000000000000000000000e000000000000000000000000000000000000000000000000000000000000001000000000000000000000000000000000000000000000000000000000000000120000000000000000000000000000000000000000000000000000000000000000000000000000000000000000000000000000000000000000000000000000000000000000000000000000000000000000000000000000000000000000000000000",
        "nonce": "0x112",
        "accessList": []
      },
      "additionalContracts": [],
      "isFixedGasLimit": false
    }
  ],
  "receipts": [
    {
      "transactionHash": "0x022fc3506b5cfd4cfa399faac02bc1a272f21675333333459786d3c636f1862e",
      "transactionIndex": "0x1f",
      "blockHash": "0x43a37ad98605b5d8c826d9672fcdf3293d1d25619e2d27b2008198a19958d1c6",
      "blockNumber": "0x54addd",
      "from": "0xdE05a1Abb121113a33eeD248BD91ddC254d5E9Db",
      "to": "0xFe149349285995D59Ec3FD6A5080840443906B45",
      "cumulativeGasUsed": "0x15566e",
      "gasUsed": "0xb53a",
      "contractAddress": null,
      "logs": [
        {
          "address": "0xFe149349285995D59Ec3FD6A5080840443906B45",
          "topics": [
            "0x8c5be1e5ebec7d5bd14f71427d1e84f3dd0314c0f7b2291e5b200ac8c7c3b925",
            "0x000000000000000000000000de05a1abb121113a33eed248bd91ddc254d5e9db",
            "0x000000000000000000000000a8f355ae124d7120daea13239b6cc89fb0376779"
          ],
          "data": "0x0000000000000000000000000000000000000000000000000de0b6b3a7640000",
          "blockHash": "0x43a37ad98605b5d8c826d9672fcdf3293d1d25619e2d27b2008198a19958d1c6",
          "blockNumber": "0x54addd",
          "transactionHash": "0x022fc3506b5cfd4cfa399faac02bc1a272f21675333333459786d3c636f1862e",
          "transactionIndex": "0x1f",
          "logIndex": "0x17",
          "removed": false
        }
      ],
      "status": "0x1",
      "logsBloom": "0x00000000000000000000000000000000000000000000000000100000000000000000000000000000000000000000100000000000000000000000000000200000000080000800000040000000000000000000000000000000000000000000000000000000000000000000000000000000000000000000004000000000000000000000000200000020000000000000000000000000000000000000000000000000020000000000000000000000000000000000000000000000000000000000000000000000000000000000000000000000000000000000000000000000000000000010000000000000800000000000000000000000000000000000000000000000",
      "type": "0x2",
      "effectiveGasPrice": "0xb859eae5"
    }
  ],
  "libraries": [],
  "pending": [],
  "returns": {},
  "timestamp": 1711262138,
  "chain": 11155111,
  "commit": "44d6322"
}