{
  "transactions": [
    {
      "hash": "0x671ee2ad4b3173ddf9240cd1a1f444f700e023dc7836512c17f13d0765084a80",
      "transactionType": "CALL",
      "contractName": "MocaToken",
      "contractAddress": "0x9cb6dc4B71E285e26cbb0605F94B4031fE04C72c",
      "function": "approve(address,uint256)",
      "arguments": [
        "0x4114eCCadF3b248DA9EEe7D8dF2d3bA6bB02Cbcd",
        "1000000000000000000"
      ],
      "transaction": {
        "type": "0x02",
        "from": "0xde05a1abb121113a33eed248bd91ddc254d5e9db",
        "to": "0x9cb6dc4b71e285e26cbb0605f94b4031fe04c72c",
        "gas": "0x1090a",
        "value": "0x0",
        "data": "0x095ea7b30000000000000000000000004114eccadf3b248da9eee7d8df2d3ba6bb02cbcd0000000000000000000000000000000000000000000000000de0b6b3a7640000",
        "nonce": "0x3f",
        "accessList": []
      },
      "additionalContracts": [],
      "isFixedGasLimit": false
    },
    {
      "hash": "0x78baac117aef22d0c37f5785fcadaeb58e817817038732b84300adf99ae7da53",
      "transactionType": "CALL",
      "contractName": "MocaTokenAdaptor",
      "contractAddress": "0x4114eCCadF3b248DA9EEe7D8dF2d3bA6bB02Cbcd",
      "function": "send((uint32,bytes32,uint256,uint256,bytes,bytes,bytes),(uint256,uint256),address)",
      "arguments": [
        "(40109, 0x000000000000000000000000de05a1abb121113a33eed248bd91ddc254d5e9db, 1000000000000000000, 1000000000000000000, 0x, 0x73656e64414e6443414c4c, 0x)",
        "(68586708816538, 0)",
        "0xdE05a1Abb121113a33eeD248BD91ddC254d5E9Db"
      ],
      "transaction": {
        "type": "0x02",
        "from": "0xde05a1abb121113a33eed248bd91ddc254d5e9db",
        "to": "0x4114eccadf3b248da9eee7d8df2d3ba6bb02cbcd",
        "gas": "0x4ce40",
        "value": "0x3e61166a529a",
        "data": "0xc7c7f5b3000000000000000000000000000000000000000000000000000000000000008000000000000000000000000000000000000000000000000000003e61166a529a0000000000000000000000000000000000000000000000000000000000000000000000000000000000000000de05a1abb121113a33eed248bd91ddc254d5e9db0000000000000000000000000000000000000000000000000000000000009cad000000000000000000000000de05a1abb121113a33eed248bd91ddc254d5e9db0000000000000000000000000000000000000000000000000de0b6b3a76400000000000000000000000000000000000000000000000000000de0b6b3a764000000000000000000000000000000000000000000000000000000000000000000e0000000000000000000000000000000000000000000000000000000000000010000000000000000000000000000000000000000000000000000000000000001400000000000000000000000000000000000000000000000000000000000000000000000000000000000000000000000000000000000000000000000000000000b73656e64414e6443414c4c0000000000000000000000000000000000000000000000000000000000000000000000000000000000000000000000000000000000",
        "nonce": "0x40",
        "accessList": []
      },
      "additionalContracts": [],
      "isFixedGasLimit": false
    }
  ],
  "receipts": [
    {
      "transactionHash": "0x671ee2ad4b3173ddf9240cd1a1f444f700e023dc7836512c17f13d0765084a80",
      "transactionIndex": "0x1c",
      "blockHash": "0xaa2be0702eb647f32da78ba58410ea967030052cb40d2e48ea9dca0c08648e94",
      "blockNumber": "0x52b6a5",
      "from": "0xdE05a1Abb121113a33eeD248BD91ddC254d5E9Db",
      "to": "0x9cb6dc4B71E285e26cbb0605F94B4031fE04C72c",
      "cumulativeGasUsed": "0xa4614",
      "gasUsed": "0xb53a",
      "contractAddress": null,
      "logs": [
        {
          "address": "0x9cb6dc4B71E285e26cbb0605F94B4031fE04C72c",
          "topics": [
            "0x8c5be1e5ebec7d5bd14f71427d1e84f3dd0314c0f7b2291e5b200ac8c7c3b925",
            "0x000000000000000000000000de05a1abb121113a33eed248bd91ddc254d5e9db",
            "0x0000000000000000000000004114eccadf3b248da9eee7d8df2d3ba6bb02cbcd"
          ],
          "data": "0x0000000000000000000000000000000000000000000000000de0b6b3a7640000",
          "blockHash": "0xaa2be0702eb647f32da78ba58410ea967030052cb40d2e48ea9dca0c08648e94",
          "blockNumber": "0x52b6a5",
          "transactionHash": "0x671ee2ad4b3173ddf9240cd1a1f444f700e023dc7836512c17f13d0765084a80",
          "transactionIndex": "0x1c",
          "logIndex": "0x1",
          "removed": false
        }
      ],
      "status": "0x1",
      "logsBloom": "0x00000000000000000000000000000000000000000000000000100000020000000000000000000000000000000000000000000000000000000000000000200000000000000000000000000000000000000000000000000000000000000000000000000000000000000000000000000000000000000000004000000000000000000000000000000020000000000000000000000000000004000000000000000000020000000000000000000000000000000000000000000080000000000000000000000000000000000002000000000000000000000000000000000000000000000010000000000000000000000000000000000000400000000000000000000000",
      "type": "0x2",
      "effectiveGasPrice": "0xbe560011"
    },
    {
      "transactionHash": "0x78baac117aef22d0c37f5785fcadaeb58e817817038732b84300adf99ae7da53",
      "transactionIndex": "0x1d",
      "blockHash": "0xaa2be0702eb647f32da78ba58410ea967030052cb40d2e48ea9dca0c08648e94",
      "blockNumber": "0x52b6a5",
      "from": "0xdE05a1Abb121113a33eeD248BD91ddC254d5E9Db",
      "to": "0x4114eCCadF3b248DA9EEe7D8dF2d3bA6bB02Cbcd",
      "cumulativeGasUsed": "0xdc0c3",
      "gasUsed": "0x37aaf",
      "contractAddress": null,
      "logs": [
        {
          "address": "0x9cb6dc4B71E285e26cbb0605F94B4031fE04C72c",
          "topics": [
            "0xddf252ad1be2c89b69c2b068fc378daa952ba7f163c4a11628f55a4df523b3ef",
            "0x000000000000000000000000de05a1abb121113a33eed248bd91ddc254d5e9db",
            "0x0000000000000000000000004114eccadf3b248da9eee7d8df2d3ba6bb02cbcd"
          ],
          "data": "0x0000000000000000000000000000000000000000000000000de0b6b3a7640000",
          "blockHash": "0xaa2be0702eb647f32da78ba58410ea967030052cb40d2e48ea9dca0c08648e94",
          "blockNumber": "0x52b6a5",
          "transactionHash": "0x78baac117aef22d0c37f5785fcadaeb58e817817038732b84300adf99ae7da53",
          "transactionIndex": "0x1d",
          "logIndex": "0x2",
          "removed": false
        },
        {
          "address": "0xcc1ae8Cf5D3904Cef3360A9532B477529b177cCE",
          "topics": [
            "0x61ed099e74a97a1d7f8bb0952a88ca8b7b8ebd00c126ea04671f92a81213318a"
          ],
          "data": "0x000000000000000000000000718b92b5cb0a5552039b593faf724d182a881eda00000000000000000000000000000000000000000000000000003b0f9604a141",
          "blockHash": "0xaa2be0702eb647f32da78ba58410ea967030052cb40d2e48ea9dca0c08648e94",
          "blockNumber": "0x52b6a5",
          "transactionHash": "0x78baac117aef22d0c37f5785fcadaeb58e817817038732b84300adf99ae7da53",
          "transactionIndex": "0x1d",
          "logIndex": "0x3",
          "removed": false
        },
        {
          "address": "0xcc1ae8Cf5D3904Cef3360A9532B477529b177cCE",
          "topics": [
            "0x07ea52d82345d6e838192107d8fd7123d9c2ec8e916cd0aad13fd2b60db24644"
          ],
          "data": "0x000000000000000000000000000000000000000000000000000000000000006000000000000000000000000000000000000000000000000000000000000000a000000000000000000000000000000000000000000000000000000000000000c000000000000000000000000000000000000000000000000000000000000000010000000000000000000000008eebf8b423b73bfca51a1db4b7354aa0bfca919300000000000000000000000000000000000000000000000000000000000000000000000000000000000000000000000000000000000000000000000000000001000000000000000000000000000000000000000000000000000003518065b159",
          "blockHash": "0xaa2be0702eb647f32da78ba58410ea967030052cb40d2e48ea9dca0c08648e94",
          "blockNumber": "0x52b6a5",
          "transactionHash": "0x78baac117aef22d0c37f5785fcadaeb58e817817038732b84300adf99ae7da53",
          "transactionIndex": "0x1d",
          "logIndex": "0x4",
          "removed": false
        },
        {
          "address": "0x6EDCE65403992e310A62460808c4b910D972f10f",
          "topics": [
            "0x1ab700d4ced0c005b164c0f789fd09fcbb0156d4c2041b8a3bfbcd961cd1567f"
          ],
          "data": "0x00000000000000000000000000000000000000000000000000000000000000600000000000000000000000000000000000000000000000000000000000000160000000000000000000000000cc1ae8cf5d3904cef3360a9532b477529b177cce00000000000000000000000000000000000000000000000000000000000000c401000000000000000c00009ce10000000000000000000000004114eccadf3b248da9eee7d8df2d3ba6bb02cbcd00009cad0000000000000000000000008bb305df680eda14e6b25b975bf1a8831acf69ab7ae22507a03a34af6159c68161caad0efc5c03850fbaa30bd3cae9ae93937093000000000000000000000000de05a1abb121113a33eed248bd91ddc254d5e9db00000000000f4240000000000000000000000000de05a1abb121113a33eed248bd91ddc254d5e9db73656e64414e6443414c4c000000000000000000000000000000000000000000000000000000000000000000000000000000000000000000000000000000000000000000000016000301001101000000000000000000000000000f424000000000000000000000",
          "blockHash": "0xaa2be0702eb647f32da78ba58410ea967030052cb40d2e48ea9dca0c08648e94",
          "blockNumber": "0x52b6a5",
          "transactionHash": "0x78baac117aef22d0c37f5785fcadaeb58e817817038732b84300adf99ae7da53",
          "transactionIndex": "0x1d",
          "logIndex": "0x5",
          "removed": false
        },
        {
          "address": "0x4114eCCadF3b248DA9EEe7D8dF2d3bA6bB02Cbcd",
          "topics": [
            "0xfff873bb909b73d08a8c1af4b21779e87103bb8ea8cf3b3a0067eb8526b8b80a",
            "0x7ae22507a03a34af6159c68161caad0efc5c03850fbaa30bd3cae9ae93937093",
            "0x000000000000000000000000de05a1abb121113a33eed248bd91ddc254d5e9db"
          ],
          "data": "0x0000000000000000000000000000000000000000000000000000000000009cad0000000000000000000000000000000000000000000000000de0b6b3a7640000",
          "blockHash": "0xaa2be0702eb647f32da78ba58410ea967030052cb40d2e48ea9dca0c08648e94",
          "blockNumber": "0x52b6a5",
          "transactionHash": "0x78baac117aef22d0c37f5785fcadaeb58e817817038732b84300adf99ae7da53",
          "transactionIndex": "0x1d",
          "logIndex": "0x6",
          "removed": false
        }
      ],
      "status": "0x1",
      "logsBloom": "0x00000000000000000000000000000000000000000000000034100000020100000000000000000000200000000080000000000000000000000000000000000000000000000000000000000008000000080000000000000000000000000000000000000000000000008200000000000000000000000000004000000010000000000000000000000020000000080000000000000000000004000000000000000000000000008000000000100000000000000000020000400080000440000000000000000002000000000002100000000000000000080000000000000000000000000000040000000000000000000000002000000000400000001000000000000020",
      "type": "0x2",
      "effectiveGasPrice": "0xbe560011"
    }
  ],
  "libraries": [],
  "pending": [],
  "returns": {},
  "timestamp": 1709630969,
  "chain": 11155111,
  "multi": false,
  "commit": "5d3d96c"
}