{
  "transactions": [
    {
      "hash": "0x02e68273a5678829981e5d1e0ae7607967fe01fd8ce7adbf1fef08e506e6d486",
      "transactionType": "CALL",
      "contractName": "MocaTokenAdaptor",
      "contractAddress": "0x4114eCCadF3b248DA9EEe7D8dF2d3bA6bB02Cbcd",
      "function": "setPeer(uint32,bytes32)",
      "arguments": [
        "40109",
        "0x0000000000000000000000008bb305df680eda14e6b25b975bf1a8831acf69ab"
      ],
      "transaction": {
        "type": "0x02",
        "from": "0xde05a1abb121113a33eed248bd91ddc254d5e9db",
        "to": "0x4114eccadf3b248da9eee7d8df2d3ba6bb02cbcd",
        "gas": "0xa508",
        "value": "0x0",
        "data": "0x3400288b0000000000000000000000000000000000000000000000000000000000009cad0000000000000000000000008bb305df680eda14e6b25b975bf1a8831acf69ab",
        "nonce": "0x12",
        "accessList": []
      },
      "additionalContracts": [],
      "isFixedGasLimit": false
    }
  ],
  "receipts": [
    {
      "transactionHash": "0x02e68273a5678829981e5d1e0ae7607967fe01fd8ce7adbf1fef08e506e6d486",
      "transactionIndex": "0xa",
      "blockHash": "0xa7e47a0066a4fd52e7cd4d1bba090ade66db58a5a23348813b82f0e872a739b5",
      "blockNumber": "0x5211eb",
      "from": "0xdE05a1Abb121113a33eeD248BD91ddC254d5E9Db",
      "to": "0x4114eCCadF3b248DA9EEe7D8dF2d3bA6bB02Cbcd",
      "cumulativeGasUsed": "0x44462",
      "gasUsed": "0x777c",
      "contractAddress": null,
      "logs": [
        {
          "address": "0x4114eCCadF3b248DA9EEe7D8dF2d3bA6bB02Cbcd",
          "topics": [
            "0x238399d427b947898edb290f5ff0f9109849b1c3ba196a42e35f00c50a54b98b"
          ],
          "data": "0x0000000000000000000000000000000000000000000000000000000000009cad0000000000000000000000008bb305df680eda14e6b25b975bf1a8831acf69ab",
          "blockHash": "0xa7e47a0066a4fd52e7cd4d1bba090ade66db58a5a23348813b82f0e872a739b5",
          "blockNumber": "0x5211eb",
          "transactionHash": "0x02e68273a5678829981e5d1e0ae7607967fe01fd8ce7adbf1fef08e506e6d486",
          "transactionIndex": "0xa",
          "logIndex": "0x2",
          "removed": false
        }
      ],
      "status": "0x1",
      "logsBloom": "0x00000000000000000000000000000000000000000000000004000000000000000000000000000000000000000000000000000000000000000800000000000000000000000000000000000000000000000000000000000000000000000000000000000000000000000000000000000000000000000000000000000000000000000000000000000000000000000000000000000000000000000000000000000000000000000000000000000000000000000000020000000000000002000000000000000000000000000000000000000000000000000000000000040000000000000000000000000000000000000000000000000000000000001000000000000000",
      "type": "0x2",
      "effectiveGasPrice": "0xec3cf563"
    }
  ],
  "libraries": [],
  "pending": [],
  "returns": {},
  "timestamp": 1709096045,
  "chain": 11155111,
  "multi": false,
  "commit": "e19d0a3"
}