{
  "transactions": [
    {
      "hash": "0x94fd7f551d742750e4af2176f1fbf1fc7ceea2c2248f6e4833c974735cbbc1cc",
      "transactionType": "CALL",
      "contractName": "MocaToken",
      "contractAddress": "0x9B3AD6340a158e6Ce8aC7176eC529D699F40A806",
      "function": "approve(address,uint256)",
      "arguments": [
        "0xD890Cd7CFb5e9aeda39Fa4A3FAf07CeB0B015F3c",
        "1000000000000000000"
      ],
      "transaction": {
        "type": "0x02",
        "from": "0xde05a1abb121113a33eed248bd91ddc254d5e9db",
        "to": "0x9b3ad6340a158e6ce8ac7176ec529d699f40a806",
        "gas": "0x1090a",
        "value": "0x0",
        "data": "0x095ea7b3000000000000000000000000d890cd7cfb5e9aeda39fa4a3faf07ceb0b015f3c0000000000000000000000000000000000000000000000000de0b6b3a7640000",
        "nonce": "0x87",
        "accessList": []
      },
      "additionalContracts": [],
      "isFixedGasLimit": false
    },
    {
      "hash": "0x6f66578b3191b3e68246656b64bc1e0299fa972b10b93af292967c975a8048f4",
      "transactionType": "CALL",
      "contractName": "MocaTokenAdaptor",
      "contractAddress": "0xD890Cd7CFb5e9aeda39Fa4A3FAf07CeB0B015F3c",
      "function": "send((uint32,bytes32,uint256,uint256,bytes,bytes,bytes),(uint256,uint256),address)",
      "arguments": [
        "(40109, 0x000000000000000000000000de05a1abb121113a33eed248bd91ddc254d5e9db, 1000000000000000000, 1000000000000000000, 0x, 0x, 0x)",
        "(61192790326764, 0)",
        "0xdE05a1Abb121113a33eeD248BD91ddC254d5E9Db"
      ],
      "transaction": {
        "type": "0x02",
        "from": "0xde05a1abb121113a33eed248bd91ddc254d5e9db",
        "to": "0xd890cd7cfb5e9aeda39fa4a3faf07ceb0b015f3c",
        "gas": "0x6866d",
        "value": "0x37a78e87bdec",
        "data": "0xc7c7f5b30000000000000000000000000000000000000000000000000000000000000080000000000000000000000000000000000000000000000000000037a78e87bdec0000000000000000000000000000000000000000000000000000000000000000000000000000000000000000de05a1abb121113a33eed248bd91ddc254d5e9db0000000000000000000000000000000000000000000000000000000000009cad000000000000000000000000de05a1abb121113a33eed248bd91ddc254d5e9db0000000000000000000000000000000000000000000000000de0b6b3a76400000000000000000000000000000000000000000000000000000de0b6b3a764000000000000000000000000000000000000000000000000000000000000000000e000000000000000000000000000000000000000000000000000000000000001000000000000000000000000000000000000000000000000000000000000000120000000000000000000000000000000000000000000000000000000000000000000000000000000000000000000000000000000000000000000000000000000000000000000000000000000000000000000000000000000000000000000000000",
        "nonce": "0x88",
        "accessList": []
      },
      "additionalContracts": [],
      "isFixedGasLimit": false
    }
  ],
  "receipts": [
    {
      "transactionHash": "0x94fd7f551d742750e4af2176f1fbf1fc7ceea2c2248f6e4833c974735cbbc1cc",
      "transactionIndex": "0x25",
      "blockHash": "0xe23c5a71b6096ab6c0b0a6dd52f6959451856053b59eb33b1e565a82c7a9ae72",
      "blockNumber": "0x531b77",
      "from": "0xdE05a1Abb121113a33eeD248BD91ddC254d5E9Db",
      "to": "0x9B3AD6340a158e6Ce8aC7176eC529D699F40A806",
      "cumulativeGasUsed": "0xedb45",
      "gasUsed": "0xb53a",
      "contractAddress": null,
      "logs": [
        {
          "address": "0x9B3AD6340a158e6Ce8aC7176eC529D699F40A806",
          "topics": [
            "0x8c5be1e5ebec7d5bd14f71427d1e84f3dd0314c0f7b2291e5b200ac8c7c3b925",
            "0x000000000000000000000000de05a1abb121113a33eed248bd91ddc254d5e9db",
            "0x000000000000000000000000d890cd7cfb5e9aeda39fa4a3faf07ceb0b015f3c"
          ],
          "data": "0x0000000000000000000000000000000000000000000000000de0b6b3a7640000",
          "blockHash": "0xe23c5a71b6096ab6c0b0a6dd52f6959451856053b59eb33b1e565a82c7a9ae72",
          "blockNumber": "0x531b77",
          "transactionHash": "0x94fd7f551d742750e4af2176f1fbf1fc7ceea2c2248f6e4833c974735cbbc1cc",
          "transactionIndex": "0x25",
          "logIndex": "0x1",
          "removed": false
        }
      ],
      "status": "0x1",
      "logsBloom": "0x00000000000000000000000000000000000000000000000000100000400000000000000000000000000000000000000000000000000000000000000000600000000000000000000000000000000000000000000000000000000000000000000000000000000000000000000000000000000000000000004000000000000000000000000000000020000000000000000800000000000000000000000000000000020000000000000000000000000000000000000100000000000000000000080000000000000000000000000000000000000000000000000000000000000000000010000000000000000000000000000000000000000000000000000000000040",
      "type": "0x2",
      "effectiveGasPrice": "0xbac80536"
    },
    {
      "transactionHash": "0x6f66578b3191b3e68246656b64bc1e0299fa972b10b93af292967c975a8048f4",
      "transactionIndex": "0x26",
      "blockHash": "0xe23c5a71b6096ab6c0b0a6dd52f6959451856053b59eb33b1e565a82c7a9ae72",
      "blockNumber": "0x531b77",
      "from": "0xdE05a1Abb121113a33eeD248BD91ddC254d5E9Db",
      "to": "0xD890Cd7CFb5e9aeda39Fa4A3FAf07CeB0B015F3c",
      "cumulativeGasUsed": "0x1394a2",
      "gasUsed": "0x4b95d",
      "contractAddress": null,
      "logs": [
        {
          "address": "0x9B3AD6340a158e6Ce8aC7176eC529D699F40A806",
          "topics": [
            "0xddf252ad1be2c89b69c2b068fc378daa952ba7f163c4a11628f55a4df523b3ef",
            "0x000000000000000000000000de05a1abb121113a33eed248bd91ddc254d5e9db",
            "0x000000000000000000000000d890cd7cfb5e9aeda39fa4a3faf07ceb0b015f3c"
          ],
          "data": "0x0000000000000000000000000000000000000000000000000de0b6b3a7640000",
          "blockHash": "0xe23c5a71b6096ab6c0b0a6dd52f6959451856053b59eb33b1e565a82c7a9ae72",
          "blockNumber": "0x531b77",
          "transactionHash": "0x6f66578b3191b3e68246656b64bc1e0299fa972b10b93af292967c975a8048f4",
          "transactionIndex": "0x26",
          "logIndex": "0x2",
          "removed": false
        },
        {
          "address": "0xcc1ae8Cf5D3904Cef3360A9532B477529b177cCE",
          "topics": [
            "0x61ed099e74a97a1d7f8bb0952a88ca8b7b8ebd00c126ea04671f92a81213318a"
          ],
          "data": "0x000000000000000000000000718b92b5cb0a5552039b593faf724d182a881eda0000000000000000000000000000000000000000000000000000345a7d4343a3",
          "blockHash": "0xe23c5a71b6096ab6c0b0a6dd52f6959451856053b59eb33b1e565a82c7a9ae72",
          "blockNumber": "0x531b77",
          "transactionHash": "0x6f66578b3191b3e68246656b64bc1e0299fa972b10b93af292967c975a8048f4",
          "transactionIndex": "0x26",
          "logIndex": "0x3",
          "removed": false
        },
        {
          "address": "0xcc1ae8Cf5D3904Cef3360A9532B477529b177cCE",
          "topics": [
            "0x07ea52d82345d6e838192107d8fd7123d9c2ec8e916cd0aad13fd2b60db24644"
          ],
          "data": "0x000000000000000000000000000000000000000000000000000000000000006000000000000000000000000000000000000000000000000000000000000000a000000000000000000000000000000000000000000000000000000000000000c000000000000000000000000000000000000000000000000000000000000000010000000000000000000000008eebf8b423b73bfca51a1db4b7354aa0bfca9193000000000000000000000000000000000000000000000000000000000000000000000000000000000000000000000000000000000000000000000000000000010000000000000000000000000000000000000000000000000000034d11447a49",
          "blockHash": "0xe23c5a71b6096ab6c0b0a6dd52f6959451856053b59eb33b1e565a82c7a9ae72",
          "blockNumber": "0x531b77",
          "transactionHash": "0x6f66578b3191b3e68246656b64bc1e0299fa972b10b93af292967c975a8048f4",
          "transactionIndex": "0x26",
          "logIndex": "0x4",
          "removed": false
        },
        {
          "address": "0x6EDCE65403992e310A62460808c4b910D972f10f",
          "topics": [
            "0x1ab700d4ced0c005b164c0f789fd09fcbb0156d4c2041b8a3bfbcd961cd1567f"
          ],
          "data": "0x00000000000000000000000000000000000000000000000000000000000000600000000000000000000000000000000000000000000000000000000000000120000000000000000000000000cc1ae8cf5d3904cef3360a9532b477529b177cce000000000000000000000000000000000000000000000000000000000000009901000000000000000100009ce1000000000000000000000000d890cd7cfb5e9aeda39fa4a3faf07ceb0b015f3c00009cad0000000000000000000000008c979ef6a647c91f56654580f1c740c9f047edb2bc1f38eccbc3b96045d1322cd128c364bc494f990c4c19f9929eeb8eb6abacba000000000000000000000000de05a1abb121113a33eed248bd91ddc254d5e9db00000000000f424000000000000000000000000000000000000000000000000000000000000000000000000000001600030100110100000000000000000000000000030d4000000000000000000000",
          "blockHash": "0xe23c5a71b6096ab6c0b0a6dd52f6959451856053b59eb33b1e565a82c7a9ae72",
          "blockNumber": "0x531b77",
          "transactionHash": "0x6f66578b3191b3e68246656b64bc1e0299fa972b10b93af292967c975a8048f4",
          "transactionIndex": "0x26",
          "logIndex": "0x5",
          "removed": false
        },
        {
          "address": "0xD890Cd7CFb5e9aeda39Fa4A3FAf07CeB0B015F3c",
          "topics": [
            "0xfff873bb909b73d08a8c1af4b21779e87103bb8ea8cf3b3a0067eb8526b8b80a",
            "0xbc1f38eccbc3b96045d1322cd128c364bc494f990c4c19f9929eeb8eb6abacba",
            "0x000000000000000000000000de05a1abb121113a33eed248bd91ddc254d5e9db"
          ],
          "data": "0x0000000000000000000000000000000000000000000000000000000000009cad0000000000000000000000000000000000000000000000000de0b6b3a7640000",
          "blockHash": "0xe23c5a71b6096ab6c0b0a6dd52f6959451856053b59eb33b1e565a82c7a9ae72",
          "blockNumber": "0x531b77",
          "transactionHash": "0x6f66578b3191b3e68246656b64bc1e0299fa972b10b93af292967c975a8048f4",
          "transactionIndex": "0x26",
          "logIndex": "0x6",
          "removed": false
        }
      ],
      "status": "0x1",
      "logsBloom": "0x00000000000000000000000000000000000000000000000030100000400100000000000000000000200400000080000004000000000000000000000000400000000000000000000000000008000000000000000002000000004000000000000000000000000000008200000000000000000000000000004000000010000000000000000000000020000000080000000800000000000000000000000000000000000000008000000000100000000000000000000100400000000440000000080000000002000000000000000000000200000000080000000000000000000000000000040000000000000000000000002000000400000000000000000000000060",
      "type": "0x2",
      "effectiveGasPrice": "0xbac80536"
    }
  ],
  "libraries": [],
  "pending": [],
  "returns": {},
  "timestamp": 1709956218,
  "chain": 11155111,
  "multi": false,
  "commit": "0fb095c"
}