{
  "transactions": [
    {
      "hash": "0x1577c638dbfd6cfae9530ff7fd0f044f53074653e87770fbb343f1a097905799",
      "transactionType": "CALL",
      "contractName": "MocaTokenAdaptor",
      "contractAddress": "0x28B4c6D63C338fE1d82b7Cde98239a33aA5DFca4",
      "function": "setEnforcedOptions((uint32,uint16,bytes)[])",
      "arguments": [
        "[(40109, 1, 0x00030100110100000000000000000000000000030d40)]"
      ],
      "transaction": {
        "type": "0x02",
        "from": "0xde05a1abb121113a33eed248bd91ddc254d5e9db",
        "to": "0x28b4c6d63c338fe1d82b7cde98239a33aa5dfca4",
        "gas": "0x12f4a",
        "value": "0x0",
        "data": "0xb98bd0700000000000000000000000000000000000000000000000000000000000000020000000000000000000000000000000000000000000000000000000000000000100000000000000000000000000000000000000000000000000000000000000200000000000000000000000000000000000000000000000000000000000009cad00000000000000000000000000000000000000000000000000000000000000010000000000000000000000000000000000000000000000000000000000000060000000000000000000000000000000000000000000000000000000000000001600030100110100000000000000000000000000030d4000000000000000000000",
        "nonce": "0x6a",
        "accessList": []
      },
      "additionalContracts": [],
      "isFixedGasLimit": false
    }
  ],
  "receipts": [],
  "libraries": [],
  "pending": [
    "0x1577c638dbfd6cfae9530ff7fd0f044f53074653e87770fbb343f1a097905799"
  ],
  "returns": {},
  "timestamp": 1709952482,
  "chain": 11155111,
  "multi": false,
  "commit": "0fb095c"
}