{
  "transactions": [
    {
      "hash": "0x12b3656ea8b1de76cb4ea22674dc7fd8c7069bf707aff32ad1256bf68585d0ba",
      "transactionType": "CALL",
      "contractName": "MocaToken",
      "contractAddress": "0x9B3AD6340a158e6Ce8aC7176eC529D699F40A806",
      "function": "approve(address,uint256)",
      "arguments": [
        "0xD890Cd7CFb5e9aeda39Fa4A3FAf07CeB0B015F3c",
        "1000000000000000000"
      ],
      "transaction": {
        "type": "0x02",
        "from": "0xde05a1abb121113a33eed248bd91ddc254d5e9db",
        "to": "0x9b3ad6340a158e6ce8ac7176ec529d699f40a806",
        "gas": "0x1090a",
        "value": "0x0",
        "data": "0x095ea7b3000000000000000000000000d890cd7cfb5e9aeda39fa4a3faf07ceb0b015f3c0000000000000000000000000000000000000000000000000de0b6b3a7640000",
        "nonce": "0x90",
        "accessList": []
      },
      "additionalContracts": [],
      "isFixedGasLimit": false
    },
    {
      "hash": "0xc0c034049db2fa20e5a84d3eae45975d6a765b25c014cd2d5c8bc8b8b14cee20",
      "transactionType": "CALL",
      "contractName": "MocaTokenAdaptor",
      "contractAddress": "0xD890Cd7CFb5e9aeda39Fa4A3FAf07CeB0B015F3c",
      "function": "send((uint32,bytes32,uint256,uint256,bytes,bytes,bytes),(uint256,uint256),address)",
      "arguments": [
        "(40109, 0x000000000000000000000000de05a1abb121113a33eed248bd91ddc254d5e9db, 1000000000000000000, 1000000000000000000, 0x0003010031020000000000000000001550f7dca70000000000000000000000000000de05a1abb121113a33eed248bd91ddc254d5e9db, 0x, 0x)",
        "(64742520813014, 0)",
        "0xdE05a1Abb121113a33eeD248BD91ddC254d5E9Db"
      ],
      "transaction": {
        "type": "0x02",
        "from": "0xde05a1abb121113a33eed248bd91ddc254d5e9db",
        "to": "0xd890cd7cfb5e9aeda39fa4a3faf07ceb0b015f3c",
        "gas": "0x52fca",
        "value": "0x3ae20af475d6",
        "data": "0xc7c7f5b3000000000000000000000000000000000000000000000000000000000000008000000000000000000000000000000000000000000000000000003ae20af475d60000000000000000000000000000000000000000000000000000000000000000000000000000000000000000de05a1abb121113a33eed248bd91ddc254d5e9db0000000000000000000000000000000000000000000000000000000000009cad000000000000000000000000de05a1abb121113a33eed248bd91ddc254d5e9db0000000000000000000000000000000000000000000000000de0b6b3a76400000000000000000000000000000000000000000000000000000de0b6b3a764000000000000000000000000000000000000000000000000000000000000000000e00000000000000000000000000000000000000000000000000000000000000140000000000000000000000000000000000000000000000000000000000000016000000000000000000000000000000000000000000000000000000000000000360003010031020000000000000000001550f7dca70000000000000000000000000000de05a1abb121113a33eed248bd91ddc254d5e9db0000000000000000000000000000000000000000000000000000000000000000000000000000000000000000000000000000000000000000000000000000000000000000000000000000",
        "nonce": "0x91",
        "accessList": []
      },
      "additionalContracts": [],
      "isFixedGasLimit": false
    }
  ],
  "receipts": [
    {
      "transactionHash": "0x12b3656ea8b1de76cb4ea22674dc7fd8c7069bf707aff32ad1256bf68585d0ba",
      "transactionIndex": "0xd",
      "blockHash": "0x7461d92ccaf07af4026027da3fc2a735a5c7a83f5bca5aacadee9595494cbd9d",
      "blockNumber": "0x531ca6",
      "from": "0xdE05a1Abb121113a33eeD248BD91ddC254d5E9Db",
      "to": "0x9B3AD6340a158e6Ce8aC7176eC529D699F40A806",
      "cumulativeGasUsed": "0x698a1",
      "gasUsed": "0xb53a",
      "contractAddress": null,
      "logs": [
        {
          "address": "0x9B3AD6340a158e6Ce8aC7176eC529D699F40A806",
          "topics": [
            "0x8c5be1e5ebec7d5bd14f71427d1e84f3dd0314c0f7b2291e5b200ac8c7c3b925",
            "0x000000000000000000000000de05a1abb121113a33eed248bd91ddc254d5e9db",
            "0x000000000000000000000000d890cd7cfb5e9aeda39fa4a3faf07ceb0b015f3c"
          ],
          "data": "0x0000000000000000000000000000000000000000000000000de0b6b3a7640000",
          "blockHash": "0x7461d92ccaf07af4026027da3fc2a735a5c7a83f5bca5aacadee9595494cbd9d",
          "blockNumber": "0x531ca6",
          "transactionHash": "0x12b3656ea8b1de76cb4ea22674dc7fd8c7069bf707aff32ad1256bf68585d0ba",
          "transactionIndex": "0xd",
          "logIndex": "0x3",
          "removed": false
        }
      ],
      "status": "0x1",
      "logsBloom": "0x00000000000000000000000000000000000000000000000000100000400000000000000000000000000000000000000000000000000000000000000000600000000000000000000000000000000000000000000000000000000000000000000000000000000000000000000000000000000000000000004000000000000000000000000000000020000000000000000800000000000000000000000000000000020000000000000000000000000000000000000100000000000000000000080000000000000000000000000000000000000000000000000000000000000000000010000000000000000000000000000000000000000000000000000000000040",
      "type": "0x2",
      "effectiveGasPrice": "0xbc3e1334"
    }
  ],
  "libraries": [],
  "pending": [],
  "returns": {},
  "timestamp": 1709959854,
  "chain": 11155111,
  "multi": false,
  "commit": "0fb095c"
}