{
  "transactions": [
    {
      "hash": "0x8872abbadc4a40c9964395406d5315940620b4c153039bc97f0458be9bd145f6",
      "transactionType": "CALL",
      "contractName": "MocaTokenAdaptor",
      "contractAddress": "0xD890Cd7CFb5e9aeda39Fa4A3FAf07CeB0B015F3c",
      "function": "setEnforcedOptions((uint32,uint16,bytes)[])",
      "arguments": [
        "[(40109, 1, 0x00030100110100000000000000000000000000030d40)]"
      ],
      "transaction": {
        "type": "0x02",
        "from": "0xde05a1abb121113a33eed248bd91ddc254d5e9db",
        "to": "0xd890cd7cfb5e9aeda39fa4a3faf07ceb0b015f3c",
        "gas": "0xb311",
        "value": "0x0",
        "data": "0xb98bd0700000000000000000000000000000000000000000000000000000000000000020000000000000000000000000000000000000000000000000000000000000000100000000000000000000000000000000000000000000000000000000000000200000000000000000000000000000000000000000000000000000000000009cad00000000000000000000000000000000000000000000000000000000000000010000000000000000000000000000000000000000000000000000000000000060000000000000000000000000000000000000000000000000000000000000001600030100110100000000000000000000000000030d4000000000000000000000",
        "nonce": "0x8f",
        "accessList": []
      },
      "additionalContracts": [],
      "isFixedGasLimit": false
    }
  ],
  "receipts": [
    {
      "transactionHash": "0x8872abbadc4a40c9964395406d5315940620b4c153039bc97f0458be9bd145f6",
      "transactionIndex": "0x1c",
      "blockHash": "0xdde8fc8143c81f584cb59e4ec1b82e3d5441d0432c5ab2035e76c5efed41a2a7",
      "blockNumber": "0x531c5b",
      "from": "0xdE05a1Abb121113a33eeD248BD91ddC254d5E9Db",
      "to": "0xD890Cd7CFb5e9aeda39Fa4A3FAf07CeB0B015F3c",
      "cumulativeGasUsed": "0xb6829",
      "gasUsed": "0x81a5",
      "contractAddress": null,
      "logs": [
        {
          "address": "0xD890Cd7CFb5e9aeda39Fa4A3FAf07CeB0B015F3c",
          "topics": [
            "0xbe4864a8e820971c0247f5992e2da559595f7bf076a21cb5928d443d2a13b674"
          ],
          "data": "0x0000000000000000000000000000000000000000000000000000000000000020000000000000000000000000000000000000000000000000000000000000000100000000000000000000000000000000000000000000000000000000000000200000000000000000000000000000000000000000000000000000000000009cad00000000000000000000000000000000000000000000000000000000000000010000000000000000000000000000000000000000000000000000000000000060000000000000000000000000000000000000000000000000000000000000001600030100110100000000000000000000000000030d4000000000000000000000",
          "blockHash": "0xdde8fc8143c81f584cb59e4ec1b82e3d5441d0432c5ab2035e76c5efed41a2a7",
          "blockNumber": "0x531c5b",
          "transactionHash": "0x8872abbadc4a40c9964395406d5315940620b4c153039bc97f0458be9bd145f6",
          "transactionIndex": "0x1c",
          "logIndex": "0x1",
          "removed": false
        }
      ],
      "status": "0x1",
      "logsBloom": "0x00000000000000000000000000000000000000000000000000000000000000000000000000000000000400000000000000000000000000000000400000000000000000000000000000000000000000000000000002000000000000000000000000000000000000000000000000000000000000000000000000000000000000000000000000000000000000000000000000000000000000000000000000080000000000000000000000000000000000000000000000000000000000000000000000000000000000000000000002000200000000000000000000000000000000000000000000000000000000000000000000000000000000000000000000000000",
      "type": "0x2",
      "effectiveGasPrice": "0xb84a6239"
    }
  ],
  "libraries": [],
  "pending": [],
  "returns": {},
  "timestamp": 1709958955,
  "chain": 11155111,
  "multi": false,
  "commit": "0fb095c"
}