{
  "transactions": [
    {
      "hash": "0xa22ad94d0b9fa9dadac9f8a46773f7d6df09f2d91a98a5f5b9ac6ca598cc4141",
      "transactionType": "CALL",
      "contractName": "MocaToken",
      "contractAddress": "0xFe149349285995D59Ec3FD6A5080840443906B45",
      "function": "approve(address,uint256)",
      "arguments": [
        "0xa8F355AE124d7120dAEA13239b6cC89FB0376779",
        "1000000000000000000"
      ],
      "transaction": {
        "type": "0x02",
        "from": "0xde05a1abb121113a33eed248bd91ddc254d5e9db",
        "to": "0xfe149349285995d59ec3fd6a5080840443906b45",
        "gas": "0x1090a",
        "value": "0x0",
        "data": "0x095ea7b3000000000000000000000000a8f355ae124d7120daea13239b6cc89fb03767790000000000000000000000000000000000000000000000000de0b6b3a7640000",
        "nonce": "0x121",
        "accessList": []
      },
      "additionalContracts": [],
      "isFixedGasLimit": false
    },
    {
      "hash": "0xf68edf41f2fd4e1c5054cf8a8f7199a2d40d064f29019d4f6caa892f37e870a2",
      "transactionType": "CALL",
      "contractName": "MocaTokenAdapter",
      "contractAddress": "0xa8F355AE124d7120dAEA13239b6cC89FB0376779",
      "function": "send((uint32,bytes32,uint256,uint256,bytes,bytes,bytes),(uint256,uint256),address)",
      "arguments": [
        "(40109, 0x000000000000000000000000de05a1abb121113a33eed248bd91ddc254d5e9db, 1000000000000000000, 1000000000000000000, 0x, 0x, 0x)",
        "(73285895976014, 0)",
        "0xdE05a1Abb121113a33eeD248BD91ddC254d5E9Db"
      ],
      "transaction": {
        "type": "0x02",
        "from": "0xde05a1abb121113a33eed248bd91ddc254d5e9db",
        "to": "0xa8f355ae124d7120daea13239b6cc89fb0376779",
        "gas": "0x551b1",
        "value": "0x42a733cbf44e",
        "data": "0xc7c7f5b30000000000000000000000000000000000000000000000000000000000000080000000000000000000000000000000000000000000000000000042a733cbf44e0000000000000000000000000000000000000000000000000000000000000000000000000000000000000000de05a1abb121113a33eed248bd91ddc254d5e9db0000000000000000000000000000000000000000000000000000000000009cad000000000000000000000000de05a1abb121113a33eed248bd91ddc254d5e9db0000000000000000000000000000000000000000000000000de0b6b3a76400000000000000000000000000000000000000000000000000000de0b6b3a764000000000000000000000000000000000000000000000000000000000000000000e000000000000000000000000000000000000000000000000000000000000001000000000000000000000000000000000000000000000000000000000000000120000000000000000000000000000000000000000000000000000000000000000000000000000000000000000000000000000000000000000000000000000000000000000000000000000000000000000000000000000000000000000000000000",
        "nonce": "0x122",
        "accessList": []
      },
      "additionalContracts": [],
      "isFixedGasLimit": false
    }
  ],
  "receipts": [
    {
      "transactionHash": "0xa22ad94d0b9fa9dadac9f8a46773f7d6df09f2d91a98a5f5b9ac6ca598cc4141",
      "transactionIndex": "0x19",
      "blockHash": "0x7127b64bb90e1ce3ac5a2b6075853425d95aabb82bb95ac5e7db9c5797a75d02",
      "blockNumber": "0x54aee2",
      "from": "0xdE05a1Abb121113a33eeD248BD91ddC254d5E9Db",
      "to": "0xFe149349285995D59Ec3FD6A5080840443906B45",
      "cumulativeGasUsed": "0x126259",
      "gasUsed": "0xb53a",
      "contractAddress": null,
      "logs": [
        {
          "address": "0xFe149349285995D59Ec3FD6A5080840443906B45",
          "topics": [
            "0x8c5be1e5ebec7d5bd14f71427d1e84f3dd0314c0f7b2291e5b200ac8c7c3b925",
            "0x000000000000000000000000de05a1abb121113a33eed248bd91ddc254d5e9db",
            "0x000000000000000000000000a8f355ae124d7120daea13239b6cc89fb0376779"
          ],
          "data": "0x0000000000000000000000000000000000000000000000000de0b6b3a7640000",
          "blockHash": "0x7127b64bb90e1ce3ac5a2b6075853425d95aabb82bb95ac5e7db9c5797a75d02",
          "blockNumber": "0x54aee2",
          "transactionHash": "0xa22ad94d0b9fa9dadac9f8a46773f7d6df09f2d91a98a5f5b9ac6ca598cc4141",
          "transactionIndex": "0x19",
          "logIndex": "0x1e",
          "removed": false
        }
      ],
      "status": "0x1",
      "logsBloom": "0x00000000000000000000000000000000000000000000000000100000000000000000000000000000000000000000100000000000000000000000000000200000000080000800000040000000000000000000000000000000000000000000000000000000000000000000000000000000000000000000004000000000000000000000000200000020000000000000000000000000000000000000000000000000020000000000000000000000000000000000000000000000000000000000000000000000000000000000000000000000000000000000000000000000000000000010000000000000800000000000000000000000000000000000000000000000",
      "type": "0x2",
      "effectiveGasPrice": "0xb936eb7c"
    },
    {
      "transactionHash": "0xf68edf41f2fd4e1c5054cf8a8f7199a2d40d064f29019d4f6caa892f37e870a2",
      "transactionIndex": "0x1a",
      "blockHash": "0x7127b64bb90e1ce3ac5a2b6075853425d95aabb82bb95ac5e7db9c5797a75d02",
      "blockNumber": "0x54aee2",
      "from": "0xdE05a1Abb121113a33eeD248BD91ddC254d5E9Db",
      "to": "0xa8F355AE124d7120dAEA13239b6cC89FB0376779",
      "cumulativeGasUsed": "0x16056c",
      "gasUsed": "0x3a313",
      "contractAddress": null,
      "logs": [
        {
          "address": "0xFe149349285995D59Ec3FD6A5080840443906B45",
          "topics": [
            "0xddf252ad1be2c89b69c2b068fc378daa952ba7f163c4a11628f55a4df523b3ef",
            "0x000000000000000000000000de05a1abb121113a33eed248bd91ddc254d5e9db",
            "0x000000000000000000000000a8f355ae124d7120daea13239b6cc89fb0376779"
          ],
          "data": "0x0000000000000000000000000000000000000000000000000de0b6b3a7640000",
          "blockHash": "0x7127b64bb90e1ce3ac5a2b6075853425d95aabb82bb95ac5e7db9c5797a75d02",
          "blockNumber": "0x54aee2",
          "transactionHash": "0xf68edf41f2fd4e1c5054cf8a8f7199a2d40d064f29019d4f6caa892f37e870a2",
          "transactionIndex": "0x1a",
          "logIndex": "0x1f",
          "removed": false
        },
        {
          "address": "0xcc1ae8Cf5D3904Cef3360A9532B477529b177cCE",
          "topics": [
            "0x61ed099e74a97a1d7f8bb0952a88ca8b7b8ebd00c126ea04671f92a81213318a"
          ],
          "data": "0x000000000000000000000000718b92b5cb0a5552039b593faf724d182a881eda00000000000000000000000000000000000000000000000000003dd646234d9f",
          "blockHash": "0x7127b64bb90e1ce3ac5a2b6075853425d95aabb82bb95ac5e7db9c5797a75d02",
          "blockNumber": "0x54aee2",
          "transactionHash": "0xf68edf41f2fd4e1c5054cf8a8f7199a2d40d064f29019d4f6caa892f37e870a2",
          "transactionIndex": "0x1a",
          "logIndex": "0x20",
          "removed": false
        },
        {
          "address": "0xcc1ae8Cf5D3904Cef3360A9532B477529b177cCE",
          "topics": [
            "0x07ea52d82345d6e838192107d8fd7123d9c2ec8e916cd0aad13fd2b60db24644"
          ],
          "data": "0x000000000000000000000000000000000000000000000000000000000000006000000000000000000000000000000000000000000000000000000000000000a000000000000000000000000000000000000000000000000000000000000000c000000000000000000000000000000000000000000000000000000000000000010000000000000000000000008eebf8b423b73bfca51a1db4b7354aa0bfca919300000000000000000000000000000000000000000000000000000000000000000000000000000000000000000000000000000000000000000000000000000001000000000000000000000000000000000000000000000000000004d0eda8a6af",
          "blockHash": "0x7127b64bb90e1ce3ac5a2b6075853425d95aabb82bb95ac5e7db9c5797a75d02",
          "blockNumber": "0x54aee2",
          "transactionHash": "0xf68edf41f2fd4e1c5054cf8a8f7199a2d40d064f29019d4f6caa892f37e870a2",
          "transactionIndex": "0x1a",
          "logIndex": "0x21",
          "removed": false
        },
        {
          "address": "0x6EDCE65403992e310A62460808c4b910D972f10f",
          "topics": [
            "0x1ab700d4ced0c005b164c0f789fd09fcbb0156d4c2041b8a3bfbcd961cd1567f"
          ],
          "data": "0x00000000000000000000000000000000000000000000000000000000000000600000000000000000000000000000000000000000000000000000000000000120000000000000000000000000cc1ae8cf5d3904cef3360a9532b477529b177cce000000000000000000000000000000000000000000000000000000000000009901000000000000000a00009ce1000000000000000000000000a8f355ae124d7120daea13239b6cc89fb037677900009cad0000000000000000000000000eb26b982341c37a02812738c6c10eb0b66ef4f78b82d61a1efe7382215a8b19deba3da354f4a55c656975141f05e45a0d2b7930000000000000000000000000de05a1abb121113a33eed248bd91ddc254d5e9db00000000000f424000000000000000000000000000000000000000000000000000000000000000000000000000001600030100110100000000000000000000000000030d4000000000000000000000",
          "blockHash": "0x7127b64bb90e1ce3ac5a2b6075853425d95aabb82bb95ac5e7db9c5797a75d02",
          "blockNumber": "0x54aee2",
          "transactionHash": "0xf68edf41f2fd4e1c5054cf8a8f7199a2d40d064f29019d4f6caa892f37e870a2",
          "transactionIndex": "0x1a",
          "logIndex": "0x22",
          "removed": false
        },
        {
          "address": "0xa8F355AE124d7120dAEA13239b6cC89FB0376779",
          "topics": [
            "0xfff873bb909b73d08a8c1af4b21779e87103bb8ea8cf3b3a0067eb8526b8b80a",
            "0x8b82d61a1efe7382215a8b19deba3da354f4a55c656975141f05e45a0d2b7930",
            "0x000000000000000000000000de05a1abb121113a33eed248bd91ddc254d5e9db"
          ],
          "data": "0x0000000000000000000000000000000000000000000000000000000000009cad0000000000000000000000000000000000000000000000000de0b6b3a7640000",
          "blockHash": "0x7127b64bb90e1ce3ac5a2b6075853425d95aabb82bb95ac5e7db9c5797a75d02",
          "blockNumber": "0x54aee2",
          "transactionHash": "0xf68edf41f2fd4e1c5054cf8a8f7199a2d40d064f29019d4f6caa892f37e870a2",
          "transactionIndex": "0x1a",
          "logIndex": "0x23",
          "removed": false
        }
      ],
      "status": "0x1",
      "logsBloom": "0x00000000000000000000000000000000000000000000000030100000000100000000000000000000200000000080100000000000000000000000000000000000000080000800000040000008000000000000000000080000000000000000000000000000000000008200000000000000000000000000004000000010000000000000000200000020000000080000000000000000000000000000010000000000000000008000000000100000000000000000000000400000000440000000000000000002400000000000000800000000000000080000000000000000000000000000040000000000902000000000002000000000000000000000000000000020",
      "type": "0x2",
      "effectiveGasPrice": "0xb936eb7c"
    }
  ],
  "libraries": [],
  "pending": [],
  "returns": {},
  "timestamp": 1711265729,
  "chain": 11155111,
  "commit": "44d6322"
}