{
  "transactions": [
    {
      "hash": "0xb0c7a760d6c0301822da3f5167820930694ace4a2083dc2dbb8f6f68eb582ecf",
      "transactionType": "CALL",
      "contractName": "MocaTokenAdaptor",
      "contractAddress": "0xC60FDE3964f1bafC4cd0EE9403Cab7F789dDb8A7",
      "function": "setEnforcedOptions((uint32,uint16,bytes)[])",
      "arguments": [
        "[(40109, 1, 0x00030100110100000000000000000000000000030d40)]"
      ],
      "transaction": {
        "type": "0x02",
        "from": "0xde05a1abb121113a33eed248bd91ddc254d5e9db",
        "to": "0xc60fde3964f1bafc4cd0ee9403cab7f789ddb8a7",
        "gas": "0x12f4a",
        "value": "0x0",
        "data": "0xb98bd0700000000000000000000000000000000000000000000000000000000000000020000000000000000000000000000000000000000000000000000000000000000100000000000000000000000000000000000000000000000000000000000000200000000000000000000000000000000000000000000000000000000000009cad00000000000000000000000000000000000000000000000000000000000000010000000000000000000000000000000000000000000000000000000000000060000000000000000000000000000000000000000000000000000000000000001600030100110100000000000000000000000000030d4000000000000000000000",
        "nonce": "0x80",
        "accessList": []
      },
      "additionalContracts": [],
      "isFixedGasLimit": false
    }
  ],
  "receipts": [
    {
      "transactionHash": "0xb0c7a760d6c0301822da3f5167820930694ace4a2083dc2dbb8f6f68eb582ecf",
      "transactionIndex": "0x7",
      "blockHash": "0x820c18e65f265f32d908eb7ecd33290ea60bc00a153042d4f70a429ca7534c4a",
      "blockNumber": "0x531b35",
      "from": "0xdE05a1Abb121113a33eeD248BD91ddC254d5E9Db",
      "to": "0xC60FDE3964f1bafC4cd0EE9403Cab7F789dDb8A7",
      "cumulativeGasUsed": "0x4fb25",
      "gasUsed": "0xcf61",
      "contractAddress": null,
      "logs": [
        {
          "address": "0xC60FDE3964f1bafC4cd0EE9403Cab7F789dDb8A7",
          "topics": [
            "0xbe4864a8e820971c0247f5992e2da559595f7bf076a21cb5928d443d2a13b674"
          ],
          "data": "0x0000000000000000000000000000000000000000000000000000000000000020000000000000000000000000000000000000000000000000000000000000000100000000000000000000000000000000000000000000000000000000000000200000000000000000000000000000000000000000000000000000000000009cad00000000000000000000000000000000000000000000000000000000000000010000000000000000000000000000000000000000000000000000000000000060000000000000000000000000000000000000000000000000000000000000001600030100110100000000000000000000000000030d4000000000000000000000",
          "blockHash": "0x820c18e65f265f32d908eb7ecd33290ea60bc00a153042d4f70a429ca7534c4a",
          "blockNumber": "0x531b35",
          "transactionHash": "0xb0c7a760d6c0301822da3f5167820930694ace4a2083dc2dbb8f6f68eb582ecf",
          "transactionIndex": "0x7",
          "logIndex": "0x1",
          "removed": false
        }
      ],
      "status": "0x1",
      "logsBloom": "0x00000000000010000000000000000000000000000000000000000000000000000000000000000000000000000000000000000000000000000000400000000000000000000000000000000000000000000000000000000000200000000000000000000000000000000000000000000000000000000000000000000000000000000000000000000000000000000000000000000000000000000010000000080000000000000000000000000000000000000000000000000000000000000000000000000000000000000000000002000000000000000000000000000000000000000000000000000000000000000000000000000000000000000000000000000000",
      "type": "0x2",
      "effectiveGasPrice": "0xbb077734"
    }
  ],
  "libraries": [],
  "pending": [],
  "returns": {},
  "timestamp": 1709955425,
  "chain": 11155111,
  "multi": false,
  "commit": "0fb095c"
}