{
  "transactions": [
    {
      "hash": "0xedad2c6342bc92f7430faf0f7c51d4aa1cbbebbb2bea6003a342922384be23c3",
      "transactionType": "CALL",
      "contractName": "MocaTokenAdaptor",
      "contractAddress": "0x434D21113d8E99f2A478dAe3e841450ce28a89C8",
      "function": "setPeer(uint32,bytes32)",
      "arguments": [
        "40109",
        "0x0000000000000000000000004b1adc9fe8b2c5bbd4373be4a4efa1c97b1d0f04"
      ],
      "transaction": {
        "type": "0x02",
        "from": "0xde05a1abb121113a33eed248bd91ddc254d5e9db",
        "to": "0x434d21113d8e99f2a478dae3e841450ce28a89c8",
        "gas": "0x10cd8",
        "value": "0x0",
        "data": "0x3400288b0000000000000000000000000000000000000000000000000000000000009cad0000000000000000000000004b1adc9fe8b2c5bbd4373be4a4efa1c97b1d0f04",
        "nonce": "0x65",
        "accessList": []
      },
      "additionalContracts": [],
      "isFixedGasLimit": false
    }
  ],
  "receipts": [
    {
      "transactionHash": "0xedad2c6342bc92f7430faf0f7c51d4aa1cbbebbb2bea6003a342922384be23c3",
      "transactionIndex": "0x36",
      "blockHash": "0x56c9782003e29d4ed3d8bf2f4eb7b2a7a5875cb5005cb4c584285c11a5b282c5",
      "blockNumber": "0x531a1c",
      "from": "0xdE05a1Abb121113a33eeD248BD91ddC254d5E9Db",
      "to": "0x434D21113d8E99f2A478dAe3e841450ce28a89C8",
      "cumulativeGasUsed": "0x14d4c5",
      "gasUsed": "0xc2a4",
      "contractAddress": null,
      "logs": [
        {
          "address": "0x434D21113d8E99f2A478dAe3e841450ce28a89C8",
          "topics": [
            "0x238399d427b947898edb290f5ff0f9109849b1c3ba196a42e35f00c50a54b98b"
          ],
          "data": "0x0000000000000000000000000000000000000000000000000000000000009cad0000000000000000000000004b1adc9fe8b2c5bbd4373be4a4efa1c97b1d0f04",
          "blockHash": "0x56c9782003e29d4ed3d8bf2f4eb7b2a7a5875cb5005cb4c584285c11a5b282c5",
          "blockNumber": "0x531a1c",
          "transactionHash": "0xedad2c6342bc92f7430faf0f7c51d4aa1cbbebbb2bea6003a342922384be23c3",
          "transactionIndex": "0x36",
          "logIndex": "0x4",
          "removed": false
        }
      ],
      "status": "0x1",
      "logsBloom": "0x00000000000000000000000000000000000000000000000000000000000000000000000000000000000000000000000000000000000000000800000000000000000000000000000000000000000000000000000000000000000000000000000000000000000000000000000000000000000000000000000000000000000000000000000000000000000000000000000000000000000000000000000000000000000000010000000000000000000000000000000000000000000002000000000000000000000100000000000000000000000000000000000000040000000000000000000000000000000000000000000000000000000000000000000010000000",
      "type": "0x2",
      "effectiveGasPrice": "0xbb8bb06f"
    }
  ],
  "libraries": [],
  "pending": [],
  "returns": {},
  "timestamp": 1709952038,
  "chain": 11155111,
  "multi": false,
  "commit": "0fb095c"
}