{
  "transactions": [
    {
      "hash": "0x7d6b072fc8485adf9e47d1f11eb025c0e8d35ce2054243077db6fff62aad8f9f",
      "transactionType": "CALL",
      "contractName": "MocaTokenAdapter",
      "contractAddress": "0xa8F355AE124d7120dAEA13239b6cC89FB0376779",
      "function": "setPeer(uint32,bytes32)",
      "arguments": [
        "40109",
        "0x0000000000000000000000000eb26b982341c37a02812738c6c10eb0b66ef4f7"
      ],
      "transaction": {
        "type": "0x02",
        "from": "0xde05a1abb121113a33eed248bd91ddc254d5e9db",
        "to": "0xa8f355ae124d7120daea13239b6cc89fb0376779",
        "gas": "0x1016a",
        "value": "0x0",
        "data": "0x3400288b0000000000000000000000000000000000000000000000000000000000009cad0000000000000000000000000eb26b982341c37a02812738c6c10eb0b66ef4f7",
        "nonce": "0xff",
        "accessList": []
      },
      "additionalContracts": [],
      "isFixedGasLimit": false
    }
  ],
  "receipts": [
    {
      "transactionHash": "0x7d6b072fc8485adf9e47d1f11eb025c0e8d35ce2054243077db6fff62aad8f9f",
      "transactionIndex": "0xd",
      "blockHash": "0xf50098f6441bd841fd2ca35e2780374d7b683cfd0117373826c2753366eed3c7",
      "blockNumber": "0x548fbe",
      "from": "0xdE05a1Abb121113a33eeD248BD91ddC254d5E9Db",
      "to": "0xa8F355AE124d7120dAEA13239b6cC89FB0376779",
      "cumulativeGasUsed": "0x53f6c",
      "gasUsed": "0xba5e",
      "contractAddress": null,
      "logs": [
        {
          "address": "0xa8F355AE124d7120dAEA13239b6cC89FB0376779",
          "topics": [
            "0x238399d427b947898edb290f5ff0f9109849b1c3ba196a42e35f00c50a54b98b"
          ],
          "data": "0x0000000000000000000000000000000000000000000000000000000000009cad0000000000000000000000000eb26b982341c37a02812738c6c10eb0b66ef4f7",
          "blockHash": "0xf50098f6441bd841fd2ca35e2780374d7b683cfd0117373826c2753366eed3c7",
          "blockNumber": "0x548fbe",
          "transactionHash": "0x7d6b072fc8485adf9e47d1f11eb025c0e8d35ce2054243077db6fff62aad8f9f",
          "transactionIndex": "0xd",
          "logIndex": "0x0",
          "removed": false
        }
      ],
      "status": "0x1",
      "logsBloom": "0x00000000000000000000000000000000000000000000000000000000000000000000000000000000000000000000000000000000000000000800000000000000000000000000000000000000000000000000000000080000000000000000000000000000000000000000000000000000000000000000000000000000000000000000000000000000000000000000000000000000000000000000010000000000000000000000000000000000000000000000000000000000000002000000000000000000000000000000000800000000000000000000000000040000000000000000000000000000000000000000000000000000000000000000000000000000",
      "type": "0x2",
      "effectiveGasPrice": "0xb2d05e24"
    }
  ],
  "libraries": [],
  "pending": [],
  "returns": {},
  "timestamp": 1711161312,
  "chain": 11155111,
  "commit": "847784f"
}