{
  "transactions": [
    {
      "hash": "0xf117d88c5847f6e88008720398ad828c6eda1ff0e2663fd9f479351500495211",
      "transactionType": "CALL",
      "contractName": "MocaToken",
      "contractAddress": "0xA2E400CE40C83270d8369eC971D0fc2e46D5056a",
      "function": "approve(address,uint256)",
      "arguments": [
        "0x5a9962874acA3b407aCeB14f64C7eF2C6255C880",
        "1000000000000000000"
      ],
      "transaction": {
        "type": "0x02",
        "from": "0xde05a1abb121113a33eed248bd91ddc254d5e9db",
        "to": "0xa2e400ce40c83270d8369ec971d0fc2e46d5056a",
        "gas": "0x1090a",
        "value": "0x0",
        "data": "0x095ea7b30000000000000000000000005a9962874aca3b407aceb14f64c7ef2c6255c8800000000000000000000000000000000000000000000000000de0b6b3a7640000",
        "nonce": "0xc9",
        "accessList": []
      },
      "additionalContracts": [],
      "isFixedGasLimit": false
    },
    {
      "hash": "0xae0e051108736e3e1008c78f9e4b01e1830ed49687f86ad144bf10f7a02f9f23",
      "transactionType": "CALL",
      "contractName": "MocaTokenAdapter",
      "contractAddress": "0x5a9962874acA3b407aCeB14f64C7eF2C6255C880",
      "function": "send((uint32,bytes32,uint256,uint256,bytes,bytes,bytes),(uint256,uint256),address)",
      "arguments": [
        "(40109, 0x000000000000000000000000de05a1abb121113a33eed248bd91ddc254d5e9db, 1000000000000000000, 1000000000000000000, 0x, 0x, 0x)",
        "(52114565077428, 0)",
        "0xdE05a1Abb121113a33eeD248BD91ddC254d5E9Db"
      ],
      "transaction": {
        "type": "0x02",
        "from": "0xde05a1abb121113a33eed248bd91ddc254d5e9db",
        "to": "0x5a9962874aca3b407aceb14f64c7ef2c6255c880",
        "gas": "0x51625",
        "value": "0x2f65de2399b4",
        "data": "0xc7c7f5b3000000000000000000000000000000000000000000000000000000000000008000000000000000000000000000000000000000000000000000002f65de2399b40000000000000000000000000000000000000000000000000000000000000000000000000000000000000000de05a1abb121113a33eed248bd91ddc254d5e9db0000000000000000000000000000000000000000000000000000000000009cad000000000000000000000000de05a1abb121113a33eed248bd91ddc254d5e9db0000000000000000000000000000000000000000000000000de0b6b3a76400000000000000000000000000000000000000000000000000000de0b6b3a764000000000000000000000000000000000000000000000000000000000000000000e000000000000000000000000000000000000000000000000000000000000001000000000000000000000000000000000000000000000000000000000000000120000000000000000000000000000000000000000000000000000000000000000000000000000000000000000000000000000000000000000000000000000000000000000000000000000000000000000000000000000000000000000000000000",
        "nonce": "0xca",
        "accessList": []
      },
      "additionalContracts": [],
      "isFixedGasLimit": false
    }
  ],
  "receipts": [
    {
      "transactionHash": "0xf117d88c5847f6e88008720398ad828c6eda1ff0e2663fd9f479351500495211",
      "transactionIndex": "0x2d",
      "blockHash": "0x77d33c6dbcc360266ec90fd34e24ab243421ca7d129bd47f5bc9024438d12b7c",
      "blockNumber": "0x53ac98",
      "from": "0xdE05a1Abb121113a33eeD248BD91ddC254d5E9Db",
      "to": "0xA2E400CE40C83270d8369eC971D0fc2e46D5056a",
      "cumulativeGasUsed": "0x21fc44",
      "gasUsed": "0xb53a",
      "contractAddress": null,
      "logs": [
        {
          "address": "0xA2E400CE40C83270d8369eC971D0fc2e46D5056a",
          "topics": [
            "0x8c5be1e5ebec7d5bd14f71427d1e84f3dd0314c0f7b2291e5b200ac8c7c3b925",
            "0x000000000000000000000000de05a1abb121113a33eed248bd91ddc254d5e9db",
            "0x0000000000000000000000005a9962874aca3b407aceb14f64c7ef2c6255c880"
          ],
          "data": "0x0000000000000000000000000000000000000000000000000de0b6b3a7640000",
          "blockHash": "0x77d33c6dbcc360266ec90fd34e24ab243421ca7d129bd47f5bc9024438d12b7c",
          "blockNumber": "0x53ac98",
          "transactionHash": "0xf117d88c5847f6e88008720398ad828c6eda1ff0e2663fd9f479351500495211",
          "transactionIndex": "0x2d",
          "logIndex": "0x17",
          "removed": false
        }
      ],
      "status": "0x1",
      "logsBloom": "0x00000000000000000000000000000000000000000000000000100000000000000000000000000000000000000000000000000000000000000000000000200000000000000000000000000000000000000004000000000000000000000000000000000000000000000000000000000000000000000000004001000000000008000000000000000020000000000000000000000000000000000000000000000000020000000000000000000000000000000000000000000000000000000000000000000000000000000000000000000000000400000000000400000000000000000010000000000000000000000000000000000000000000000000000040000000",
      "type": "0x2",
      "effectiveGasPrice": "0x182f7a0b2a"
    },
    {
      "transactionHash": "0xae0e051108736e3e1008c78f9e4b01e1830ed49687f86ad144bf10f7a02f9f23",
      "transactionIndex": "0x2e",
      "blockHash": "0x77d33c6dbcc360266ec90fd34e24ab243421ca7d129bd47f5bc9024438d12b7c",
      "blockNumber": "0x53ac98",
      "from": "0xdE05a1Abb121113a33eeD248BD91ddC254d5E9Db",
      "to": "0x5a9962874acA3b407aCeB14f64C7eF2C6255C880",
      "cumulativeGasUsed": "0x25ab00",
      "gasUsed": "0x3aebc",
      "contractAddress": null,
      "logs": [
        {
          "address": "0xA2E400CE40C83270d8369eC971D0fc2e46D5056a",
          "topics": [
            "0xddf252ad1be2c89b69c2b068fc378daa952ba7f163c4a11628f55a4df523b3ef",
            "0x000000000000000000000000de05a1abb121113a33eed248bd91ddc254d5e9db",
            "0x0000000000000000000000005a9962874aca3b407aceb14f64c7ef2c6255c880"
          ],
          "data": "0x0000000000000000000000000000000000000000000000000de0b6b3a7640000",
          "blockHash": "0x77d33c6dbcc360266ec90fd34e24ab243421ca7d129bd47f5bc9024438d12b7c",
          "blockNumber": "0x53ac98",
          "transactionHash": "0xae0e051108736e3e1008c78f9e4b01e1830ed49687f86ad144bf10f7a02f9f23",
          "transactionIndex": "0x2e",
          "logIndex": "0x18",
          "removed": false
        },
        {
          "address": "0xcc1ae8Cf5D3904Cef3360A9532B477529b177cCE",
          "topics": [
            "0x61ed099e74a97a1d7f8bb0952a88ca8b7b8ebd00c126ea04671f92a81213318a"
          ],
          "data": "0x000000000000000000000000718b92b5cb0a5552039b593faf724d182a881eda00000000000000000000000000000000000000000000000000002d1a85f5eedb",
          "blockHash": "0x77d33c6dbcc360266ec90fd34e24ab243421ca7d129bd47f5bc9024438d12b7c",
          "blockNumber": "0x53ac98",
          "transactionHash": "0xae0e051108736e3e1008c78f9e4b01e1830ed49687f86ad144bf10f7a02f9f23",
          "transactionIndex": "0x2e",
          "logIndex": "0x19",
          "removed": false
        },
        {
          "address": "0xcc1ae8Cf5D3904Cef3360A9532B477529b177cCE",
          "topics": [
            "0x07ea52d82345d6e838192107d8fd7123d9c2ec8e916cd0aad13fd2b60db24644"
          ],
          "data": "0x000000000000000000000000000000000000000000000000000000000000006000000000000000000000000000000000000000000000000000000000000000a000000000000000000000000000000000000000000000000000000000000000c000000000000000000000000000000000000000000000000000000000000000010000000000000000000000008eebf8b423b73bfca51a1db4b7354aa0bfca9193000000000000000000000000000000000000000000000000000000000000000000000000000000000000000000000000000000000000000000000000000000010000000000000000000000000000000000000000000000000000024b582daad9",
          "blockHash": "0x77d33c6dbcc360266ec90fd34e24ab243421ca7d129bd47f5bc9024438d12b7c",
          "blockNumber": "0x53ac98",
          "transactionHash": "0xae0e051108736e3e1008c78f9e4b01e1830ed49687f86ad144bf10f7a02f9f23",
          "transactionIndex": "0x2e",
          "logIndex": "0x1a",
          "removed": false
        },
        {
          "address": "0x6EDCE65403992e310A62460808c4b910D972f10f",
          "topics": [
            "0x1ab700d4ced0c005b164c0f789fd09fcbb0156d4c2041b8a3bfbcd961cd1567f"
          ],
          "data": "0x00000000000000000000000000000000000000000000000000000000000000600000000000000000000000000000000000000000000000000000000000000120000000000000000000000000cc1ae8cf5d3904cef3360a9532b477529b177cce000000000000000000000000000000000000000000000000000000000000009901000000000000000800009ce10000000000000000000000005a9962874aca3b407aceb14f64c7ef2c6255c88000009cad000000000000000000000000aa7a95e597a65eb06dae4ed54f1b62e0535d915675211337ffd79dc0df1d39946350176030690d5ef85c077fc4eaebc2555e1ae9000000000000000000000000de05a1abb121113a33eed248bd91ddc254d5e9db00000000000f424000000000000000000000000000000000000000000000000000000000000000000000000000001600030100110100000000000000000000000000030d4000000000000000000000",
          "blockHash": "0x77d33c6dbcc360266ec90fd34e24ab243421ca7d129bd47f5bc9024438d12b7c",
          "blockNumber": "0x53ac98",
          "transactionHash": "0xae0e051108736e3e1008c78f9e4b01e1830ed49687f86ad144bf10f7a02f9f23",
          "transactionIndex": "0x2e",
          "logIndex": "0x1b",
          "removed": false
        },
        {
          "address": "0x5a9962874acA3b407aCeB14f64C7eF2C6255C880",
          "topics": [
            "0xfff873bb909b73d08a8c1af4b21779e87103bb8ea8cf3b3a0067eb8526b8b80a",
            "0x75211337ffd79dc0df1d39946350176030690d5ef85c077fc4eaebc2555e1ae9",
            "0x000000000000000000000000de05a1abb121113a33eed248bd91ddc254d5e9db"
          ],
          "data": "0x0000000000000000000000000000000000000000000000000000000000009cad0000000000000000000000000000000000000000000000000de0b6b3a7640000",
          "blockHash": "0x77d33c6dbcc360266ec90fd34e24ab243421ca7d129bd47f5bc9024438d12b7c",
          "blockNumber": "0x53ac98",
          "transactionHash": "0xae0e051108736e3e1008c78f9e4b01e1830ed49687f86ad144bf10f7a02f9f23",
          "transactionIndex": "0x2e",
          "logIndex": "0x1c",
          "removed": false
        }
      ],
      "status": "0x1",
      "logsBloom": "0x00000000000000000000000000000000000000040000000030100000000100000000000000000000200000000080000000000000000000000004004000000000000000000000000000000008000000000004000000000000000000000000000000000000000000008200000000000010000000000000004001000010000008000000000000000020000000080000000000000000000000000000000000000000000000008000000000100000000000000000000000400000000440000000000000000002000000000000000000000000000404081000000400000000000000000000040000000000000000000000002000000000000000000000000040000020",
      "type": "0x2",
      "effectiveGasPrice": "0x182f7a0b2a"
    }
  ],
  "libraries": [],
  "pending": [],
  "returns": {},
  "timestamp": 1710413587,
  "chain": 11155111,
  "commit": "564059c"
}