{
  "transactions": [
    {
      "hash": "0x4796e388116e9d7f589354790850df8ee22eaa33f3026584c216db4455af1fd2",
      "transactionType": "CALL",
      "contractName": "MocaTokenAdapter",
      "contractAddress": "0xa8F355AE124d7120dAEA13239b6cC89FB0376779",
      "function": "setOutboundLimit(uint32,uint256)",
      "arguments": [
        "40109",
        "10000000000000000000"
      ],
      "transaction": {
        "type": "0x02",
        "from": "0xde05a1abb121113a33eed248bd91ddc254d5e9db",
        "to": "0xa8f355ae124d7120daea13239b6cc89fb0376779",
        "gas": "0x100f0",
        "value": "0x0",
        "data": "0x65d28a6b0000000000000000000000000000000000000000000000000000000000009cad0000000000000000000000000000000000000000000000008ac7230489e80000",
        "nonce": "0x101",
        "accessList": []
      },
      "additionalContracts": [],
      "isFixedGasLimit": false
    },
    {
      "hash": "0x4afb46b15aee48f5e9db55c6b2b96bb3e02fec311327392fea47592ea3dc6988",
      "transactionType": "CALL",
      "contractName": "MocaTokenAdapter",
      "contractAddress": "0xa8F355AE124d7120dAEA13239b6cC89FB0376779",
      "function": "setInboundLimit(uint32,uint256)",
      "arguments": [
        "40109",
        "10000000000000000000"
      ],
      "transaction": {
        "type": "0x02",
        "from": "0xde05a1abb121113a33eed248bd91ddc254d5e9db",
        "to": "0xa8f355ae124d7120daea13239b6cc89fb0376779",
        "gas": "0x1014c",
        "value": "0x0",
        "data": "0x9a2fe9e40000000000000000000000000000000000000000000000000000000000009cad0000000000000000000000000000000000000000000000008ac7230489e80000",
        "nonce": "0x102",
        "accessList": []
      },
      "additionalContracts": [],
      "isFixedGasLimit": false
    }
  ],
  "receipts": [
    {
      "transactionHash": "0x4796e388116e9d7f589354790850df8ee22eaa33f3026584c216db4455af1fd2",
      "transactionIndex": "0x7",
      "blockHash": "0x7355ed9c98f41baf6254ba3fbcabca079680a68cbe4fff67ac81fc8c2faaa934",
      "blockNumber": "0x548fcb",
      "from": "0xdE05a1Abb121113a33eeD248BD91ddC254d5E9Db",
      "to": "0xa8F355AE124d7120dAEA13239b6cC89FB0376779",
      "cumulativeGasUsed": "0x352d7",
      "gasUsed": "0xba05",
      "contractAddress": null,
      "logs": [
        {
          "address": "0xa8F355AE124d7120dAEA13239b6cC89FB0376779",
          "topics": [
            "0x7628c1599617e8f71acfbf363d8064a2a32bdb6e63e074de3250cab57047bf79",
            "0x0000000000000000000000000000000000000000000000000000000000009cad"
          ],
          "data": "0x0000000000000000000000000000000000000000000000008ac7230489e80000",
          "blockHash": "0x7355ed9c98f41baf6254ba3fbcabca079680a68cbe4fff67ac81fc8c2faaa934",
          "blockNumber": "0x548fcb",
          "transactionHash": "0x4796e388116e9d7f589354790850df8ee22eaa33f3026584c216db4455af1fd2",
          "transactionIndex": "0x7",
          "logIndex": "0x0",
          "removed": false
        }
      ],
      "status": "0x1",
      "logsBloom": "0x00000000000000000000000000000000000000000000000000000000000000000000000000000000000000000000000000000000000000000000000000000000000000000000100000000000000000000000000000080000000000000000800000000002000000000000000000000000000000000000000000000000000000000000000000000000000000000000000000000000000000000000010000000000000000000000000000000000000000000000000000000000000000000000000000000000000000000000000800080000000000000000008000000000000000000000000000000000000000000000000000000010000000000000000000000000",
      "type": "0x2",
      "effectiveGasPrice": "0xb2d05e28"
    },
    {
      "transactionHash": "0x4afb46b15aee48f5e9db55c6b2b96bb3e02fec311327392fea47592ea3dc6988",
      "transactionIndex": "0x8",
      "blockHash": "0x7355ed9c98f41baf6254ba3fbcabca079680a68cbe4fff67ac81fc8c2faaa934",
      "blockNumber": "0x548fcb",
      "from": "0xdE05a1Abb121113a33eeD248BD91ddC254d5E9Db",
      "to": "0xa8F355AE124d7120dAEA13239b6cC89FB0376779",
      "cumulativeGasUsed": "0x40d1f",
      "gasUsed": "0xba48",
      "contractAddress": null,
      "logs": [
        {
          "address": "0xa8F355AE124d7120dAEA13239b6cC89FB0376779",
          "topics": [
            "0x9cc3784ef7ab64c61f0abf58d72c2a40ef45b319db540006be0aa3e4610b8433",
            "0x0000000000000000000000000000000000000000000000000000000000009cad"
          ],
          "data": "0x0000000000000000000000000000000000000000000000008ac7230489e80000",
          "blockHash": "0x7355ed9c98f41baf6254ba3fbcabca079680a68cbe4fff67ac81fc8c2faaa934",
          "blockNumber": "0x548fcb",
          "transactionHash": "0x4afb46b15aee48f5e9db55c6b2b96bb3e02fec311327392fea47592ea3dc6988",
          "transactionIndex": "0x8",
          "logIndex": "0x1",
          "removed": false
        }
      ],
      "status": "0x1",
      "logsBloom": "0x00000000000000000000000000000000000000000000000000000000000000000000000000000000000000000000000000000000000000000001000000000000000000000000100000000000000000000000000000080000000000000000000000000002000000000000000000000000000000000000000000000000000000000000000000000000000000000000000000000000000000000000010000008000000000000000000004000000000000000000000000000000000000000000000000000000000000000000000800000000000000000000000000000000000000000000000000000000000000000000000000000010000000000000000000000000",
      "type": "0x2",
      "effectiveGasPrice": "0xb2d05e28"
    }
  ],
  "libraries": [],
  "pending": [],
  "returns": {},
  "timestamp": 1711161481,
  "chain": 11155111,
  "commit": "847784f"
}