{
  "transactions": [
    {
      "hash": "0x92f152093534d4567a7fbdf220bb1a215f41712586f36b9896e254ec016f6d9e",
      "transactionType": "CALL",
      "contractName": "MocaToken",
      "contractAddress": "0xFe149349285995D59Ec3FD6A5080840443906B45",
      "function": "approve(address,uint256)",
      "arguments": [
        "0xa8F355AE124d7120dAEA13239b6cC89FB0376779",
        "1000000000000000000"
      ],
      "transaction": {
        "type": "0x02",
        "from": "0xde05a1abb121113a33eed248bd91ddc254d5e9db",
        "to": "0xfe149349285995d59ec3fd6a5080840443906b45",
        "gas": "0x1090a",
        "value": "0x0",
        "data": "0x095ea7b3000000000000000000000000a8f355ae124d7120daea13239b6cc89fb03767790000000000000000000000000000000000000000000000000de0b6b3a7640000",
        "nonce": "0x103",
        "accessList": []
      },
      "additionalContracts": [],
      "isFixedGasLimit": false
    },
    {
      "hash": "0xe8ab8e6c0f405fe94ad90ad7a607e812efb6540ecc8cfd8e094d113811a98e61",
      "transactionType": "CALL",
      "contractName": "MocaTokenAdapter",
      "contractAddress": "0xa8F355AE124d7120dAEA13239b6cC89FB0376779",
      "function": "send((uint32,bytes32,uint256,uint256,bytes,bytes,bytes),(uint256,uint256),address)",
      "arguments": [
        "(40109, 0x000000000000000000000000de05a1abb121113a33eed248bd91ddc254d5e9db, 1000000000000000000, 1000000000000000000, 0x, 0x, 0x)",
        "(65746297123502, 0)",
        "0xdE05a1Abb121113a33eeD248BD91ddC254d5E9Db"
      ],
      "transaction": {
        "type": "0x02",
        "from": "0xde05a1abb121113a33eed248bd91ddc254d5e9db",
        "to": "0xa8f355ae124d7120daea13239b6cc89fb0376779",
        "gas": "0x6866c",
        "value": "0x3bcbc0af72ae",
        "data": "0xc7c7f5b3000000000000000000000000000000000000000000000000000000000000008000000000000000000000000000000000000000000000000000003bcbc0af72ae0000000000000000000000000000000000000000000000000000000000000000000000000000000000000000de05a1abb121113a33eed248bd91ddc254d5e9db0000000000000000000000000000000000000000000000000000000000009cad000000000000000000000000de05a1abb121113a33eed248bd91ddc254d5e9db0000000000000000000000000000000000000000000000000de0b6b3a76400000000000000000000000000000000000000000000000000000de0b6b3a764000000000000000000000000000000000000000000000000000000000000000000e000000000000000000000000000000000000000000000000000000000000001000000000000000000000000000000000000000000000000000000000000000120000000000000000000000000000000000000000000000000000000000000000000000000000000000000000000000000000000000000000000000000000000000000000000000000000000000000000000000000000000000000000000000000",
        "nonce": "0x104",
        "accessList": []
      },
      "additionalContracts": [],
      "isFixedGasLimit": false
    }
  ],
  "receipts": [
    {
      "transactionHash": "0x92f152093534d4567a7fbdf220bb1a215f41712586f36b9896e254ec016f6d9e",
      "transactionIndex": "0x18",
      "blockHash": "0x632714953a9ece3b25d94819ca79e185dd22ffb74ba3274ac57eb6b37c243ecf",
      "blockNumber": "0x548fd2",
      "from": "0xdE05a1Abb121113a33eeD248BD91ddC254d5E9Db",
      "to": "0xFe149349285995D59Ec3FD6A5080840443906B45",
      "cumulativeGasUsed": "0x1055c7",
      "gasUsed": "0xb53a",
      "contractAddress": null,
      "logs": [
        {
          "address": "0xFe149349285995D59Ec3FD6A5080840443906B45",
          "topics": [
            "0x8c5be1e5ebec7d5bd14f71427d1e84f3dd0314c0f7b2291e5b200ac8c7c3b925",
            "0x000000000000000000000000de05a1abb121113a33eed248bd91ddc254d5e9db",
            "0x000000000000000000000000a8f355ae124d7120daea13239b6cc89fb0376779"
          ],
          "data": "0x0000000000000000000000000000000000000000000000000de0b6b3a7640000",
          "blockHash": "0x632714953a9ece3b25d94819ca79e185dd22ffb74ba3274ac57eb6b37c243ecf",
          "blockNumber": "0x548fd2",
          "transactionHash": "0x92f152093534d4567a7fbdf220bb1a215f41712586f36b9896e254ec016f6d9e",
          "transactionIndex": "0x18",
          "logIndex": "0x8",
          "removed": false
        }
      ],
      "status": "0x1",
      "logsBloom": "0x00000000000000000000000000000000000000000000000000100000000000000000000000000000000000000000100000000000000000000000000000200000000080000800000040000000000000000000000000000000000000000000000000000000000000000000000000000000000000000000004000000000000000000000000200000020000000000000000000000000000000000000000000000000020000000000000000000000000000000000000000000000000000000000000000000000000000000000000000000000000000000000000000000000000000000010000000000000800000000000000000000000000000000000000000000000",
      "type": "0x2",
      "effectiveGasPrice": "0xb2d05e28"
    },
    {
      "transactionHash": "0xe8ab8e6c0f405fe94ad90ad7a607e812efb6540ecc8cfd8e094d113811a98e61",
      "transactionIndex": "0x19",
      "blockHash": "0x632714953a9ece3b25d94819ca79e185dd22ffb74ba3274ac57eb6b37c243ecf",
      "blockNumber": "0x548fd2",
      "from": "0xdE05a1Abb121113a33eeD248BD91ddC254d5E9Db",
      "to": "0xa8F355AE124d7120dAEA13239b6cC89FB0376779",
      "cumulativeGasUsed": "0x150f23",
      "gasUsed": "0x4b95c",
      "contractAddress": null,
      "logs": [
        {
          "address": "0xFe149349285995D59Ec3FD6A5080840443906B45",
          "topics": [
            "0xddf252ad1be2c89b69c2b068fc378daa952ba7f163c4a11628f55a4df523b3ef",
            "0x000000000000000000000000de05a1abb121113a33eed248bd91ddc254d5e9db",
            "0x000000000000000000000000a8f355ae124d7120daea13239b6cc89fb0376779"
          ],
          "data": "0x0000000000000000000000000000000000000000000000000de0b6b3a7640000",
          "blockHash": "0x632714953a9ece3b25d94819ca79e185dd22ffb74ba3274ac57eb6b37c243ecf",
          "blockNumber": "0x548fd2",
          "transactionHash": "0xe8ab8e6c0f405fe94ad90ad7a607e812efb6540ecc8cfd8e094d113811a98e61",
          "transactionIndex": "0x19",
          "logIndex": "0x9",
          "removed": false
        },
        {
          "address": "0xcc1ae8Cf5D3904Cef3360A9532B477529b177cCE",
          "topics": [
            "0x61ed099e74a97a1d7f8bb0952a88ca8b7b8ebd00c126ea04671f92a81213318a"
          ],
          "data": "0x000000000000000000000000718b92b5cb0a5552039b593faf724d182a881eda000000000000000000000000000000000000000000000000000038bc1f26e64d",
          "blockHash": "0x632714953a9ece3b25d94819ca79e185dd22ffb74ba3274ac57eb6b37c243ecf",
          "blockNumber": "0x548fd2",
          "transactionHash": "0xe8ab8e6c0f405fe94ad90ad7a607e812efb6540ecc8cfd8e094d113811a98e61",
          "transactionIndex": "0x19",
          "logIndex": "0xa",
          "removed": false
        },
        {
          "address": "0xcc1ae8Cf5D3904Cef3360A9532B477529b177cCE",
          "topics": [
            "0x07ea52d82345d6e838192107d8fd7123d9c2ec8e916cd0aad13fd2b60db24644"
          ],
          "data": "0x000000000000000000000000000000000000000000000000000000000000006000000000000000000000000000000000000000000000000000000000000000a000000000000000000000000000000000000000000000000000000000000000c000000000000000000000000000000000000000000000000000000000000000010000000000000000000000008eebf8b423b73bfca51a1db4b7354aa0bfca9193000000000000000000000000000000000000000000000000000000000000000000000000000000000000000000000000000000000000000000000000000000010000000000000000000000000000000000000000000000000000030fa1888c61",
          "blockHash": "0x632714953a9ece3b25d94819ca79e185dd22ffb74ba3274ac57eb6b37c243ecf",
          "blockNumber": "0x548fd2",
          "transactionHash": "0xe8ab8e6c0f405fe94ad90ad7a607e812efb6540ecc8cfd8e094d113811a98e61",
          "transactionIndex": "0x19",
          "logIndex": "0xb",
          "removed": false
        },
        {
          "address": "0x6EDCE65403992e310A62460808c4b910D972f10f",
          "topics": [
            "0x1ab700d4ced0c005b164c0f789fd09fcbb0156d4c2041b8a3bfbcd961cd1567f"
          ],
          "data": "0x00000000000000000000000000000000000000000000000000000000000000600000000000000000000000000000000000000000000000000000000000000120000000000000000000000000cc1ae8cf5d3904cef3360a9532b477529b177cce000000000000000000000000000000000000000000000000000000000000009901000000000000000100009ce1000000000000000000000000a8f355ae124d7120daea13239b6cc89fb037677900009cad0000000000000000000000000eb26b982341c37a02812738c6c10eb0b66ef4f7ff313f4a7010989a654dc6317a180443de4069204114109d1339bc07cb65409b000000000000000000000000de05a1abb121113a33eed248bd91ddc254d5e9db00000000000f424000000000000000000000000000000000000000000000000000000000000000000000000000001600030100110100000000000000000000000000030d4000000000000000000000",
          "blockHash": "0x632714953a9ece3b25d94819ca79e185dd22ffb74ba3274ac57eb6b37c243ecf",
          "blockNumber": "0x548fd2",
          "transactionHash": "0xe8ab8e6c0f405fe94ad90ad7a607e812efb6540ecc8cfd8e094d113811a98e61",
          "transactionIndex": "0x19",
          "logIndex": "0xc",
          "removed": false
        },
        {
          "address": "0xa8F355AE124d7120dAEA13239b6cC89FB0376779",
          "topics": [
            "0xfff873bb909b73d08a8c1af4b21779e87103bb8ea8cf3b3a0067eb8526b8b80a",
            "0xff313f4a7010989a654dc6317a180443de4069204114109d1339bc07cb65409b",
            "0x000000000000000000000000de05a1abb121113a33eed248bd91ddc254d5e9db"
          ],
          "data": "0x0000000000000000000000000000000000000000000000000000000000009cad0000000000000000000000000000000000000000000000000de0b6b3a7640000",
          "blockHash": "0x632714953a9ece3b25d94819ca79e185dd22ffb74ba3274ac57eb6b37c243ecf",
          "blockNumber": "0x548fd2",
          "transactionHash": "0xe8ab8e6c0f405fe94ad90ad7a607e812efb6540ecc8cfd8e094d113811a98e61",
          "transactionIndex": "0x19",
          "logIndex": "0xd",
          "removed": false
        }
      ],
      "status": "0x1",
      "logsBloom": "0x00000000000000000000000000000000000000000000000030100000000100000000000000000000200000000080100080000000000000000000000000000000000080000800000040000008000000000000000000080000000000000000000000000000000000008200000000000000000000000000004000000010000000000000000200000020000000080000000000000000000000000000010000000000000000008000000000100000000000000000000000400000000440000000000000000002400000000000020800000000000000080000000000000000000000000000040000000000800000000000002000000000000000000000000000000020",
      "type": "0x2",
      "effectiveGasPrice": "0xb2d05e28"
    }
  ],
  "libraries": [],
  "pending": [],
  "returns": {},
  "timestamp": 1711161577,
  "chain": 11155111,
  "commit": "847784f"
}