{
  "transactions": [
    {
      "hash": "0x163ea0a1725d578736bb07214ce898f2b7eb1d4b5c916d1246b7eae893286d21",
      "transactionType": "CALL",
      "contractName": "MocaOFT",
      "contractAddress": "0x4b1ADc9Fe8b2C5BBD4373be4a4Efa1C97b1D0F04",
      "function": "setPeer(uint32,bytes32)",
      "arguments": [
        "40161",
        "0x000000000000000000000000cf44f1342947da99307366c601af1b442013fe52"
      ],
      "transaction": {
        "type": "0x02",
        "from": "0xde05a1abb121113a33eed248bd91ddc254d5e9db",
        "to": "0x4b1adc9fe8b2c5bbd4373be4a4efa1c97b1d0f04",
        "gas": "0x11ceb",
        "value": "0x0",
        "data": "0x3400288b0000000000000000000000000000000000000000000000000000000000009ce1000000000000000000000000cf44f1342947da99307366c601af1b442013fe52",
        "nonce": "0x26",
        "accessList": []
      },
      "additionalContracts": [],
      "isFixedGasLimit": false
    }
  ],
  "receipts": [],
  "libraries": [],
  "pending": [
    "0x163ea0a1725d578736bb07214ce898f2b7eb1d4b5c916d1246b7eae893286d21"
  ],
  "returns": {},
  "timestamp": 1709951779,
  "chain": 80001,
  "multi": false,
  "commit": "0fb095c"
}