{
  "transactions": [
    {
      "hash": "0x0340355b295ba3633768466c0200c817868a15b75d4738bef1db1616da14b7d0",
      "transactionType": "CALL",
      "contractName": "MocaOFT",
      "contractAddress": "0x2525427274ee7Ba2dBABFfa4C813F1630D7aF504",
      "function": "setPeer(uint32,bytes32)",
      "arguments": [
        "40161",
        "0x00000000000000000000000028b4c6d63c338fe1d82b7cde98239a33aa5dfca4"
      ],
      "transaction": {
        "type": "0x02",
        "from": "0xde05a1abb121113a33eed248bd91ddc254d5e9db",
        "to": "0x2525427274ee7ba2dbabffa4c813f1630d7af504",
        "gas": "0x11ceb",
        "value": "0x0",
        "data": "0x3400288b0000000000000000000000000000000000000000000000000000000000009ce100000000000000000000000028b4c6d63c338fe1d82b7cde98239a33aa5dfca4",
        "nonce": "0x2a",
        "accessList": []
      },
      "additionalContracts": [],
      "isFixedGasLimit": false
    }
  ],
  "receipts": [
    {
      "transactionHash": "0x0340355b295ba3633768466c0200c817868a15b75d4738bef1db1616da14b7d0",
      "transactionIndex": "0x0",
      "blockHash": "0xfbe45ed87c95129f36898496ff6491b181fb4d2dd7416aff1db1bd1f309b24cc",
      "blockNumber": "0x2ca95cd",
      "from": "0xdE05a1Abb121113a33eeD248BD91ddC254d5E9Db",
      "to": "0x2525427274ee7Ba2dBABFfa4C813F1630D7aF504",
      "cumulativeGasUsed": "0xc2d1",
      "gasUsed": "0xc2d1",
      "contractAddress": null,
      "logs": [
        {
          "address": "0x2525427274ee7Ba2dBABFfa4C813F1630D7aF504",
          "topics": [
            "0x238399d427b947898edb290f5ff0f9109849b1c3ba196a42e35f00c50a54b98b"
          ],
          "data": "0x0000000000000000000000000000000000000000000000000000000000009ce100000000000000000000000028b4c6d63c338fe1d82b7cde98239a33aa5dfca4",
          "blockHash": "0xfbe45ed87c95129f36898496ff6491b181fb4d2dd7416aff1db1bd1f309b24cc",
          "blockNumber": "0x2ca95cd",
          "transactionHash": "0x0340355b295ba3633768466c0200c817868a15b75d4738bef1db1616da14b7d0",
          "transactionIndex": "0x0",
          "logIndex": "0x0",
          "removed": false
        },
        {
          "address": "0x0000000000000000000000000000000000001010",
          "topics": [
            "0x4dfe1bbbcf077ddc3e01291eea2d5c70c2b422b415d95645b9adcfd678cb1d63",
            "0x0000000000000000000000000000000000000000000000000000000000001010",
            "0x000000000000000000000000de05a1abb121113a33eed248bd91ddc254d5e9db",
            "0x000000000000000000000000c275dc8be39f50d12f66b6a63629c39da5bae5bd"
          ],
          "data": "0x0000000000000000000000000000000000000000000000000006cbcab7f0816100000000000000000000000000000000000000000000000014cef339efd9c94900000000000000000000000000000000000000000000148a908b1c588082468100000000000000000000000000000000000000000000000014c8276f37e947e800000000000000000000000000000000000000000000148a9091e8233872c7e2",
          "blockHash": "0xfbe45ed87c95129f36898496ff6491b181fb4d2dd7416aff1db1bd1f309b24cc",
          "blockNumber": "0x2ca95cd",
          "transactionHash": "0x0340355b295ba3633768466c0200c817868a15b75d4738bef1db1616da14b7d0",
          "transactionIndex": "0x0",
          "logIndex": "0x1",
          "removed": false
        }
      ],
      "status": "0x1",
      "logsBloom": "0x00000000000000000000000000000000000000000000000000100000000000000000000000000000000000000000000000008000802000000800000000000000000000000000000000000000000080800000000000000000040100000000000000000000000000000000000000000000000000000000004080000000000000010000000000000020000000000000000000000000000000000000000000000000200000000000000000000000000000000000000000000000000042000000004000000000000000000001000000000000000000000000000000140000000000000000000000000000000000000000000000000000000000000000000000100000",
      "type": "0x2",
      "effectiveGasPrice": "0x8ee2fd9a0"
    }
  ],
  "libraries": [],
  "pending": [],
  "returns": {},
  "timestamp": 1709952461,
  "chain": 80001,
  "multi": false,
  "commit": "0fb095c"
}