{
  "transactions": [
    {
      "hash": "0xdb03817c219346c09dbd093318ef74e1244b232d8022dbfd4c74df124b54e91a",
      "transactionType": "CALL",
      "contractName": "MocaOFT",
      "contractAddress": "0xaa7A95e597a65EB06DaE4eD54f1b62e0535d9156",
      "function": "setOutboundLimit(uint32,uint256)",
      "arguments": [
        "40161",
        "10000000000000000000"
      ],
      "transaction": {
        "type": "0x02",
        "from": "0xde05a1abb121113a33eed248bd91ddc254d5e9db",
        "to": "0xaa7a95e597a65eb06dae4ed54f1b62e0535d9156",
        "gas": "0x100d0",
        "value": "0x0",
        "data": "0x65d28a6b0000000000000000000000000000000000000000000000000000000000009ce10000000000000000000000000000000000000000000000008ac7230489e80000",
        "nonce": "0x47",
        "accessList": []
      },
      "additionalContracts": [],
      "isFixedGasLimit": false
    },
    {
      "hash": "0xcbce69a09a90a957bc49a26fb9631eeb8f74a8f150e8bf45ee882f40a96a46ad",
      "transactionType": "CALL",
      "contractName": "MocaOFT",
      "contractAddress": "0xaa7A95e597a65EB06DaE4eD54f1b62e0535d9156",
      "function": "setInboundLimit(uint32,uint256)",
      "arguments": [
        "40161",
        "10000000000000000000"
      ],
      "transaction": {
        "type": "0x02",
        "from": "0xde05a1abb121113a33eed248bd91ddc254d5e9db",
        "to": "0xaa7a95e597a65eb06dae4ed54f1b62e0535d9156",
        "gas": "0x1104f",
        "value": "0x0",
        "data": "0x9a2fe9e40000000000000000000000000000000000000000000000000000000000009ce10000000000000000000000000000000000000000000000008ac7230489e80000",
        "nonce": "0x48",
        "accessList": []
      },
      "additionalContracts": [],
      "isFixedGasLimit": false
    }
  ],
  "receipts": [],
  "libraries": [],
  "pending": [
    "0xdb03817c219346c09dbd093318ef74e1244b232d8022dbfd4c74df124b54e91a",
    "0xcbce69a09a90a957bc49a26fb9631eeb8f74a8f150e8bf45ee882f40a96a46ad"
  ],
  "returns": {},
  "timestamp": 1710242910,
  "chain": 80001,
  "multi": false,
  "commit": "88dccd9"
}