{
  "transactions": [
    {
      "hash": "0xae978f8fc5718aa90f889572621f9a5c1ab4d29003fd48c341ddac79e4913859",
      "transactionType": "CALL",
      "contractName": "MocaOFT",
      "contractAddress": "0x8BB305DF680edA14E6b25b975Bf1a8831AcF69ab",
      "function": "setEnforcedOptions((uint32,uint16,bytes)[])",
      "arguments": [
        "[(40161, 1, 0x00030100110100000000000000000000000000030d40), (40161, 2, 0x00030100110100000000000000000000000000061a80)]"
      ],
      "transaction": {
        "type": "0x02",
        "from": "0xde05a1abb121113a33eed248bd91ddc254d5e9db",
        "to": "0x8bb305df680eda14e6b25b975bf1a8831acf69ab",
        "gas": "0x15a4c",
        "value": "0x0",
        "data": "0xb98bd07000000000000000000000000000000000000000000000000000000000000000200000000000000000000000000000000000000000000000000000000000000002000000000000000000000000000000000000000000000000000000000000004000000000000000000000000000000000000000000000000000000000000000e00000000000000000000000000000000000000000000000000000000000009ce100000000000000000000000000000000000000000000000000000000000000010000000000000000000000000000000000000000000000000000000000000060000000000000000000000000000000000000000000000000000000000000001600030100110100000000000000000000000000030d40000000000000000000000000000000000000000000000000000000000000000000000000000000009ce100000000000000000000000000000000000000000000000000000000000000020000000000000000000000000000000000000000000000000000000000000060000000000000000000000000000000000000000000000000000000000000001600030100110100000000000000000000000000061a8000000000000000000000",
        "nonce": "0x1f",
        "accessList": []
      },
      "additionalContracts": [],
      "isFixedGasLimit": false
    }
  ],
  "receipts": [
    {
      "transactionHash": "0xae978f8fc5718aa90f889572621f9a5c1ab4d29003fd48c341ddac79e4913859",
      "transactionIndex": "0x1",
      "blockHash": "0xe52d4612402ae76bfee6f63740dddb5bbb1235f9bb151ca3a9f5a988aefb980d",
      "blockNumber": "0x2c7bec9",
      "from": "0xdE05a1Abb121113a33eeD248BD91ddC254d5E9Db",
      "to": "0x8BB305DF680edA14E6b25b975Bf1a8831AcF69ab",
      "cumulativeGasUsed": "0x337cb",
      "gasUsed": "0xecc9",
      "contractAddress": null,
      "logs": [
        {
          "address": "0x8BB305DF680edA14E6b25b975Bf1a8831AcF69ab",
          "topics": [
            "0xbe4864a8e820971c0247f5992e2da559595f7bf076a21cb5928d443d2a13b674"
          ],
          "data": "0x00000000000000000000000000000000000000000000000000000000000000200000000000000000000000000000000000000000000000000000000000000002000000000000000000000000000000000000000000000000000000000000004000000000000000000000000000000000000000000000000000000000000000e00000000000000000000000000000000000000000000000000000000000009ce100000000000000000000000000000000000000000000000000000000000000010000000000000000000000000000000000000000000000000000000000000060000000000000000000000000000000000000000000000000000000000000001600030100110100000000000000000000000000030d40000000000000000000000000000000000000000000000000000000000000000000000000000000009ce100000000000000000000000000000000000000000000000000000000000000020000000000000000000000000000000000000000000000000000000000000060000000000000000000000000000000000000000000000000000000000000001600030100110100000000000000000000000000061a8000000000000000000000",
          "blockHash": "0xe52d4612402ae76bfee6f63740dddb5bbb1235f9bb151ca3a9f5a988aefb980d",
          "blockNumber": "0x2c7bec9",
          "transactionHash": "0xae978f8fc5718aa90f889572621f9a5c1ab4d29003fd48c341ddac79e4913859",
          "transactionIndex": "0x1",
          "logIndex": "0x2",
          "removed": false
        },
        {
          "address": "0x0000000000000000000000000000000000001010",
          "topics": [
            "0x4dfe1bbbcf077ddc3e01291eea2d5c70c2b422b415d95645b9adcfd678cb1d63",
            "0x0000000000000000000000000000000000000000000000000000000000001010",
            "0x000000000000000000000000de05a1abb121113a33eed248bd91ddc254d5e9db",
            "0x0000000000000000000000005082f249cdb2f2c1ee035e4f423c46ea2dab3ab1"
          ],
          "data": "0x000000000000000000000000000000000000000000000000000675ecda920c0000000000000000000000000000000000000000000000000008bc80d4f73bd37f00000000000000000000000000000000000000000000070505a27eb89a73cab800000000000000000000000000000000000000000000000008b60ae81ca9c77f00000000000000000000000000000000000000000000070505a8f4a57505d6b8",
          "blockHash": "0xe52d4612402ae76bfee6f63740dddb5bbb1235f9bb151ca3a9f5a988aefb980d",
          "blockNumber": "0x2c7bec9",
          "transactionHash": "0xae978f8fc5718aa90f889572621f9a5c1ab4d29003fd48c341ddac79e4913859",
          "transactionIndex": "0x1",
          "logIndex": "0x3",
          "removed": false
        }
      ],
      "status": "0x1",
      "logsBloom": "0x00000000000000000000000000000000000000000000000000100000020000000000000002000000000000000000000000008000200000000000400000000000000000000000000000000000000000800000800000000000000100000000000000000000000000000000000000000000000000000000004080000000000000000000000000000020000000000000000000000000000000000000000000080000200000000000000000000000000000000010000000000000000000000000004000000000000000000001000002000000000000000000000000100000000000000000000000000080000000000000000000000000000000000000000000100000",
      "type": "0x2",
      "effectiveGasPrice": "0x6fc23ac0f"
    }
  ],
  "libraries": [],
  "pending": [],
  "returns": {},
  "timestamp": 1709548763,
  "chain": 80001,
  "multi": false,
  "commit": "4bd401e"
}