{
  "transactions": [
    {
      "hash": "0x423adc4ba30434cfe7cd7fc80812884dda0d009848133dd78d4fe68568b8f3da",
      "transactionType": "CALL",
      "contractName": "MocaOFT",
      "contractAddress": "0x8BB305DF680edA14E6b25b975Bf1a8831AcF69ab",
      "function": "setEnforcedOptions((uint32,uint16,bytes)[])",
      "arguments": [
        "[(40161, 1, 0x00030100110100000000000000000000000000030d40), (40161, 2, 0x000301001101000000000000000000000000000f4240)]"
      ],
      "transaction": {
        "type": "0x02",
        "from": "0xde05a1abb121113a33eed248bd91ddc254d5e9db",
        "to": "0x8bb305df680eda14e6b25b975bf1a8831acf69ab",
        "gas": "0xeaca",
        "value": "0x0",
        "data": "0xb98bd07000000000000000000000000000000000000000000000000000000000000000200000000000000000000000000000000000000000000000000000000000000002000000000000000000000000000000000000000000000000000000000000004000000000000000000000000000000000000000000000000000000000000000e00000000000000000000000000000000000000000000000000000000000009ce100000000000000000000000000000000000000000000000000000000000000010000000000000000000000000000000000000000000000000000000000000060000000000000000000000000000000000000000000000000000000000000001600030100110100000000000000000000000000030d40000000000000000000000000000000000000000000000000000000000000000000000000000000009ce1000000000000000000000000000000000000000000000000000000000000000200000000000000000000000000000000000000000000000000000000000000600000000000000000000000000000000000000000000000000000000000000016000301001101000000000000000000000000000f424000000000000000000000",
        "nonce": "0x23",
        "accessList": []
      },
      "additionalContracts": [],
      "isFixedGasLimit": false
    }
  ],
  "receipts": [
    {
      "transactionHash": "0x423adc4ba30434cfe7cd7fc80812884dda0d009848133dd78d4fe68568b8f3da",
      "transactionIndex": "0x0",
      "blockHash": "0xe1844b120644d13cd53a8ed7046da8d80fa469a49d6299b2a933c10f6ceb8ca5",
      "blockNumber": "0x2c8c287",
      "from": "0xdE05a1Abb121113a33eeD248BD91ddC254d5E9Db",
      "to": "0x8BB305DF680edA14E6b25b975Bf1a8831AcF69ab",
      "cumulativeGasUsed": "0xa9fd",
      "gasUsed": "0xa9fd",
      "contractAddress": null,
      "logs": [
        {
          "address": "0x8BB305DF680edA14E6b25b975Bf1a8831AcF69ab",
          "topics": [
            "0xbe4864a8e820971c0247f5992e2da559595f7bf076a21cb5928d443d2a13b674"
          ],
          "data": "0x00000000000000000000000000000000000000000000000000000000000000200000000000000000000000000000000000000000000000000000000000000002000000000000000000000000000000000000000000000000000000000000004000000000000000000000000000000000000000000000000000000000000000e00000000000000000000000000000000000000000000000000000000000009ce100000000000000000000000000000000000000000000000000000000000000010000000000000000000000000000000000000000000000000000000000000060000000000000000000000000000000000000000000000000000000000000001600030100110100000000000000000000000000030d40000000000000000000000000000000000000000000000000000000000000000000000000000000009ce1000000000000000000000000000000000000000000000000000000000000000200000000000000000000000000000000000000000000000000000000000000600000000000000000000000000000000000000000000000000000000000000016000301001101000000000000000000000000000f424000000000000000000000",
          "blockHash": "0xe1844b120644d13cd53a8ed7046da8d80fa469a49d6299b2a933c10f6ceb8ca5",
          "blockNumber": "0x2c8c287",
          "transactionHash": "0x423adc4ba30434cfe7cd7fc80812884dda0d009848133dd78d4fe68568b8f3da",
          "transactionIndex": "0x0",
          "logIndex": "0x0",
          "removed": false
        },
        {
          "address": "0x0000000000000000000000000000000000001010",
          "topics": [
            "0x4dfe1bbbcf077ddc3e01291eea2d5c70c2b422b415d95645b9adcfd678cb1d63",
            "0x0000000000000000000000000000000000000000000000000000000000001010",
            "0x000000000000000000000000de05a1abb121113a33eed248bd91ddc254d5e9db",
            "0x000000000000000000000000c26880a0af2ea0c7e8130e6ec47af756465452e8"
          ],
          "data": "0x0000000000000000000000000000000000000000000000000004a35abbccfc0000000000000000000000000000000000000000000000000016882022efcc912d0000000000000000000000000000000000000000000023ef7dc59c0ecba5b62100000000000000000000000000000000000000000000000016837cc833ff952d0000000000000000000000000000000000000000000023ef7dca3f698772b221",
          "blockHash": "0xe1844b120644d13cd53a8ed7046da8d80fa469a49d6299b2a933c10f6ceb8ca5",
          "blockNumber": "0x2c8c287",
          "transactionHash": "0x423adc4ba30434cfe7cd7fc80812884dda0d009848133dd78d4fe68568b8f3da",
          "transactionIndex": "0x0",
          "logIndex": "0x1",
          "removed": false
        }
      ],
      "status": "0x1",
      "logsBloom": "0x00000000000000020000000000000000000000000000000000100000000000000000000000000000000000000000000000008000200000000000400000000000000000000000000000000000000000800000800000000000000100000000000000000000000000000000000000000000000000000000004080000000000000000000000000000020000000000000000000000000000000000000000000080000200000000000000020000000000000000011000000000000000000000000004000000000000000000001000002000000000000000000000000100000000000000000000000000000000000000000000000000000000000000000000000100000",
      "type": "0x2",
      "effectiveGasPrice": "0x6fc23ac0f"
    }
  ],
  "libraries": [],
  "pending": [],
  "returns": {},
  "timestamp": 1709692438,
  "chain": 80001,
  "multi": false,
  "commit": "409afdd"
}