{
  "transactions": [
    {
      "hash": "0xdfa776a8238201d4cfa3cb53eb15f8c04df0f2ca4efe34e847d7ced78cee3193",
      "transactionType": "CALL",
      "contractName": "MocaOFT",
      "contractAddress": "0x4b1ADc9Fe8b2C5BBD4373be4a4Efa1C97b1D0F04",
      "function": "setPeer(uint32,bytes32)",
      "arguments": [
        "40161",
        "0x000000000000000000000000434d21113d8e99f2a478dae3e841450ce28a89c8"
      ],
      "transaction": {
        "type": "0x02",
        "from": "0xde05a1abb121113a33eed248bd91ddc254d5e9db",
        "to": "0x4b1adc9fe8b2c5bbd4373be4a4efa1c97b1d0f04",
        "gas": "0xb0d3",
        "value": "0x0",
        "data": "0x3400288b0000000000000000000000000000000000000000000000000000000000009ce1000000000000000000000000434d21113d8e99f2a478dae3e841450ce28a89c8",
        "nonce": "0x27",
        "accessList": []
      },
      "additionalContracts": [],
      "isFixedGasLimit": false
    }
  ],
  "receipts": [],
  "libraries": [],
  "pending": [
    "0xdfa776a8238201d4cfa3cb53eb15f8c04df0f2ca4efe34e847d7ced78cee3193"
  ],
  "returns": {},
  "timestamp": 1709952027,
  "chain": 80001,
  "multi": false,
  "commit": "0fb095c"
}