{
  "transactions": [
    {
      "hash": "0x0340355b295ba3633768466c0200c817868a15b75d4738bef1db1616da14b7d0",
      "transactionType": "CALL",
      "contractName": "MocaOFT",
      "contractAddress": "0x2525427274ee7Ba2dBABFfa4C813F1630D7aF504",
      "function": "setPeer(uint32,bytes32)",
      "arguments": [
        "40161",
        "0x00000000000000000000000028b4c6d63c338fe1d82b7cde98239a33aa5dfca4"
      ],
      "transaction": {
        "type": "0x02",
        "from": "0xde05a1abb121113a33eed248bd91ddc254d5e9db",
        "to": "0x2525427274ee7ba2dbabffa4c813f1630d7af504",
        "gas": "0x11ceb",
        "value": "0x0",
        "data": "0x3400288b0000000000000000000000000000000000000000000000000000000000009ce100000000000000000000000028b4c6d63c338fe1d82b7cde98239a33aa5dfca4",
        "nonce": "0x2a",
        "accessList": []
      },
      "additionalContracts": [],
      "isFixedGasLimit": false
    }
  ],
  "receipts": [],
  "libraries": [],
  "pending": [
    "0x0340355b295ba3633768466c0200c817868a15b75d4738bef1db1616da14b7d0"
  ],
  "returns": {},
  "timestamp": 1709952454,
  "chain": 80001,
  "multi": false,
  "commit": "0fb095c"
}