{
  "transactions": [
    {
      "hash": "0x1635059377ad6b930d7bb1010cca068ea1283c3da9d9a91c5c3fbd586755309e",
      "transactionType": "CALL",
      "contractName": "MocaOFT",
      "contractAddress": "0x8BB305DF680edA14E6b25b975Bf1a8831AcF69ab",
      "function": "setPeer(uint32,bytes32)",
      "arguments": [
        "40161",
        "0x0000000000000000000000004114eccadf3b248da9eee7d8df2d3ba6bb02cbcd"
      ],
      "transaction": {
        "type": "0x02",
        "from": "0xde05a1abb121113a33eed248bd91ddc254d5e9db",
        "to": "0x8bb305df680eda14e6b25b975bf1a8831acf69ab",
        "gas": "0x1104f",
        "value": "0x0",
        "data": "0x3400288b0000000000000000000000000000000000000000000000000000000000009ce10000000000000000000000004114eccadf3b248da9eee7d8df2d3ba6bb02cbcd",
        "nonce": "0x19",
        "accessList": []
      },
      "additionalContracts": [],
      "isFixedGasLimit": false
    }
  ],
  "receipts": [
    {
      "transactionHash": "0x1635059377ad6b930d7bb1010cca068ea1283c3da9d9a91c5c3fbd586755309e",
      "transactionIndex": "0x0",
      "blockHash": "0xec372ba725bec45ae14ef5975be9ae9ee757eb3b47279537edf143bb6833e62f",
      "blockNumber": "0x2c4a2f8",
      "from": "0xdE05a1Abb121113a33eeD248BD91ddC254d5E9Db",
      "to": "0x8BB305DF680edA14E6b25b975Bf1a8831AcF69ab",
      "cumulativeGasUsed": "0xba32",
      "gasUsed": "0xba32",
      "contractAddress": null,
      "logs": [
        {
          "address": "0x8BB305DF680edA14E6b25b975Bf1a8831AcF69ab",
          "topics": [
            "0x238399d427b947898edb290f5ff0f9109849b1c3ba196a42e35f00c50a54b98b"
          ],
          "data": "0x0000000000000000000000000000000000000000000000000000000000009ce10000000000000000000000004114eccadf3b248da9eee7d8df2d3ba6bb02cbcd",
          "blockHash": "0xec372ba725bec45ae14ef5975be9ae9ee757eb3b47279537edf143bb6833e62f",
          "blockNumber": "0x2c4a2f8",
          "transactionHash": "0x1635059377ad6b930d7bb1010cca068ea1283c3da9d9a91c5c3fbd586755309e",
          "transactionIndex": "0x0",
          "logIndex": "0x0",
          "removed": false
        },
        {
          "address": "0x0000000000000000000000000000000000001010",
          "topics": [
            "0x4dfe1bbbcf077ddc3e01291eea2d5c70c2b422b415d95645b9adcfd678cb1d63",
            "0x0000000000000000000000000000000000000000000000000000000000001010",
            "0x000000000000000000000000de05a1abb121113a33eed248bd91ddc254d5e9db",
            "0x000000000000000000000000c26880a0af2ea0c7e8130e6ec47af756465452e8"
          ],
          "data": "0x0000000000000000000000000000000000000000000000000005148f29ef98000000000000000000000000000000000000000000000000000a00664e0feed7930000000000000000000000000000000000000000000023cbb77cd7e72b5b1d7a00000000000000000000000000000000000000000000000009fb51bee5ff3f930000000000000000000000000000000000000000000023cbb781ec76554ab57a",
          "blockHash": "0xec372ba725bec45ae14ef5975be9ae9ee757eb3b47279537edf143bb6833e62f",
          "blockNumber": "0x2c4a2f8",
          "transactionHash": "0x1635059377ad6b930d7bb1010cca068ea1283c3da9d9a91c5c3fbd586755309e",
          "transactionIndex": "0x0",
          "logIndex": "0x1",
          "removed": false
        }
      ],
      "status": "0x1",
      "logsBloom": "0x00000000000000020000000000000000000000000000000000100000000000000000000000000000000000000000000000008000200000000800000000000000000000000000000000000000000000800000800000000000000100000000000000000000000000000000000000000000000000000000004080000000000000000000000000000020000000000000000000000000000000000000000000000000200000000000000020000000000000000011000000000000000002000000004000000000000000000001000000000000000000000000000000140000000000000000000000000000000000000000000000000000000000000000000000100000",
      "type": "0x2",
      "effectiveGasPrice": "0x6fc23ac0f"
    }
  ],
  "libraries": [],
  "pending": [],
  "returns": {},
  "timestamp": 1709096078,
  "chain": 80001,
  "multi": false,
  "commit": "e19d0a3"
}