{
  "transactions": [
    {
      "hash": "0x436d0a1e7cb4955047a764ea279a65d4da0ddbbfa56eec5b371d83869c21d175",
      "transactionType": "CALL",
      "contractName": "MocaOFT",
      "contractAddress": "0x8c979EF6a647c91F56654580f1C740c9f047edb2",
      "function": "setPeer(uint32,bytes32)",
      "arguments": [
        "40161",
        "0x000000000000000000000000c60fde3964f1bafc4cd0ee9403cab7f789ddb8a7"
      ],
      "transaction": {
        "type": "0x02",
        "from": "0xde05a1abb121113a33eed248bd91ddc254d5e9db",
        "to": "0x8c979ef6a647c91f56654580f1c740c9f047edb2",
        "gas": "0x11ceb",
        "value": "0x0",
        "data": "0x3400288b0000000000000000000000000000000000000000000000000000000000009ce1000000000000000000000000c60fde3964f1bafc4cd0ee9403cab7f789ddb8a7",
        "nonce": "0x31",
        "accessList": []
      },
      "additionalContracts": [],
      "isFixedGasLimit": false
    }
  ],
  "receipts": [],
  "libraries": [],
  "pending": [
    "0x436d0a1e7cb4955047a764ea279a65d4da0ddbbfa56eec5b371d83869c21d175"
  ],
  "returns": {},
  "timestamp": 1709955371,
  "chain": 80001,
  "multi": false,
  "commit": "0fb095c"
}