{
  "transactions": [
    {
      "hash": "0x077423fbdbcddb510f4dddd3736d6846aae35d8a23706a8e6ea08e5a6b197546",
      "transactionType": "CALL",
      "contractName": "MocaOFT",
      "contractAddress": "0x2525427274ee7Ba2dBABFfa4C813F1630D7aF504",
      "function": "setEnforcedOptions((uint32,uint16,bytes)[])",
      "arguments": [
        "[(40161, 1, 0x00030100110100000000000000000000000000030d40), (40161, 2, 0x000301001101000000000000000000000000000f4240)]"
      ],
      "transaction": {
        "type": "0x02",
        "from": "0xde05a1abb121113a33eed248bd91ddc254d5e9db",
        "to": "0x2525427274ee7ba2dbabffa4c813f1630d7af504",
        "gas": "0x1b24e",
        "value": "0x0",
        "data": "0xb98bd07000000000000000000000000000000000000000000000000000000000000000200000000000000000000000000000000000000000000000000000000000000002000000000000000000000000000000000000000000000000000000000000004000000000000000000000000000000000000000000000000000000000000000e00000000000000000000000000000000000000000000000000000000000009ce100000000000000000000000000000000000000000000000000000000000000010000000000000000000000000000000000000000000000000000000000000060000000000000000000000000000000000000000000000000000000000000001600030100110100000000000000000000000000030d40000000000000000000000000000000000000000000000000000000000000000000000000000000009ce1000000000000000000000000000000000000000000000000000000000000000200000000000000000000000000000000000000000000000000000000000000600000000000000000000000000000000000000000000000000000000000000016000301001101000000000000000000000000000f424000000000000000000000",
        "nonce": "0x2b",
        "accessList": []
      },
      "additionalContracts": [],
      "isFixedGasLimit": false
    }
  ],
  "receipts": [
    {
      "transactionHash": "0x077423fbdbcddb510f4dddd3736d6846aae35d8a23706a8e6ea08e5a6b197546",
      "transactionIndex": "0x1",
      "blockHash": "0xa4bad6debc80c5c9bc49d9e711fdf589568e790f609ebc1a533b5b22f571a76c",
      "blockNumber": "0x2ca95dc",
      "from": "0xdE05a1Abb121113a33eeD248BD91ddC254d5E9Db",
      "to": "0x2525427274ee7Ba2dBABFfa4C813F1630D7aF504",
      "cumulativeGasUsed": "0x40a16",
      "gasUsed": "0x13a6f",
      "contractAddress": null,
      "logs": [
        {
          "address": "0x2525427274ee7Ba2dBABFfa4C813F1630D7aF504",
          "topics": [
            "0xbe4864a8e820971c0247f5992e2da559595f7bf076a21cb5928d443d2a13b674"
          ],
          "data": "0x00000000000000000000000000000000000000000000000000000000000000200000000000000000000000000000000000000000000000000000000000000002000000000000000000000000000000000000000000000000000000000000004000000000000000000000000000000000000000000000000000000000000000e00000000000000000000000000000000000000000000000000000000000009ce100000000000000000000000000000000000000000000000000000000000000010000000000000000000000000000000000000000000000000000000000000060000000000000000000000000000000000000000000000000000000000000001600030100110100000000000000000000000000030d40000000000000000000000000000000000000000000000000000000000000000000000000000000009ce1000000000000000000000000000000000000000000000000000000000000000200000000000000000000000000000000000000000000000000000000000000600000000000000000000000000000000000000000000000000000000000000016000301001101000000000000000000000000000f424000000000000000000000",
          "blockHash": "0xa4bad6debc80c5c9bc49d9e711fdf589568e790f609ebc1a533b5b22f571a76c",
          "blockNumber": "0x2ca95dc",
          "transactionHash": "0x077423fbdbcddb510f4dddd3736d6846aae35d8a23706a8e6ea08e5a6b197546",
          "transactionIndex": "0x1",
          "logIndex": "0x2",
          "removed": false
        },
        {
          "address": "0x0000000000000000000000000000000000001010",
          "topics": [
            "0x4dfe1bbbcf077ddc3e01291eea2d5c70c2b422b415d95645b9adcfd678cb1d63",
            "0x0000000000000000000000000000000000000000000000000000000000001010",
            "0x000000000000000000000000de05a1abb121113a33eed248bd91ddc254d5e9db",
            "0x000000000000000000000000cfef2a3dc244ef7d0fb93c45e762d671445c4569"
          ],
          "data": "0x000000000000000000000000000000000000000000000000000c8602825dd7b300000000000000000000000000000000000000000000000014c8276f37dddda90000000000000000000000000000000000000000000001da90119b451ae8e49800000000000000000000000000000000000000000000000014bba16cb58005f60000000000000000000000000000000000000000000001da901e21479d46bc4b",
          "blockHash": "0xa4bad6debc80c5c9bc49d9e711fdf589568e790f609ebc1a533b5b22f571a76c",
          "blockNumber": "0x2ca95dc",
          "transactionHash": "0x077423fbdbcddb510f4dddd3736d6846aae35d8a23706a8e6ea08e5a6b197546",
          "transactionIndex": "0x1",
          "logIndex": "0x3",
          "removed": false
        }
      ],
      "status": "0x1",
      "logsBloom": "0x00000000010000000000000000000000000000000000000000100000000000000000000000000000000000000000000000008000800000000000400000000000000000000000000000000000000080800000000000000000020100000000000000000000000000000000000000000000000000000000004080000000000000010000000000000020000000000000000000000000000000000000000000080000200000000000000000000000000000000000000000000000000000000000004000000000000000000001000002000000000000000000000000100000000000000000000000000000000000000000000000000000000000000000040000100000",
      "type": "0x2",
      "effectiveGasPrice": "0xa3236690c"
    }
  ],
  "libraries": [],
  "pending": [],
  "returns": {},
  "timestamp": 1709952493,
  "chain": 80001,
  "multi": false,
  "commit": "0fb095c"
}