{
  "transactions": [
    {
      "hash": "0x8553481fe84acdcabace3b0beec3383499d247ef9ccc333f05db01cc05d0e178",
      "transactionType": "CALL",
      "contractName": "MocaOFT",
      "contractAddress": "0x8BB305DF680edA14E6b25b975Bf1a8831AcF69ab",
      "function": "send((uint32,bytes32,uint256,uint256,bytes,bytes,bytes),(uint256,uint256),address)",
      "arguments": [
        "(40161, 0x000000000000000000000000de05a1abb121113a33eed248bd91ddc254d5e9db, 1000000000000000000, 1000000000000000000, 0x, 0x, 0x)",
        "(1707419598228876231, 0)",
        "0xdE05a1Abb121113a33eeD248BD91ddC254d5E9Db"
      ],
      "transaction": {
        "type": "0x02",
        "from": "0xde05a1abb121113a33eed248bd91ddc254d5e9db",
        "to": "0x8bb305df680eda14e6b25b975bf1a8831acf69ab",
        "gas": "0x54eb6",
        "value": "0x17b1f9140af8ebc7",
        "data": "0xc7c7f5b3000000000000000000000000000000000000000000000000000000000000008000000000000000000000000000000000000000000000000017b1f9140af8ebc70000000000000000000000000000000000000000000000000000000000000000000000000000000000000000de05a1abb121113a33eed248bd91ddc254d5e9db0000000000000000000000000000000000000000000000000000000000009ce1000000000000000000000000de05a1abb121113a33eed248bd91ddc254d5e9db0000000000000000000000000000000000000000000000000de0b6b3a76400000000000000000000000000000000000000000000000000000de0b6b3a764000000000000000000000000000000000000000000000000000000000000000000e000000000000000000000000000000000000000000000000000000000000001000000000000000000000000000000000000000000000000000000000000000120000000000000000000000000000000000000000000000000000000000000000000000000000000000000000000000000000000000000000000000000000000000000000000000000000000000000000000000000000000000000000000000000",
        "nonce": "0x24",
        "accessList": []
      },
      "additionalContracts": [],
      "isFixedGasLimit": false
    }
  ],
  "receipts": [],
  "libraries": [],
  "pending": [
    "0x8553481fe84acdcabace3b0beec3383499d247ef9ccc333f05db01cc05d0e178"
  ],
  "returns": {},
  "timestamp": 1709797706,
  "chain": 80001,
  "multi": false,
  "commit": "0de5090"
}