{
  "transactions": [
    {
      "hash": "0x8b51cf67e61eb17fb3f9b3a4507a162ef144738195d8b1f98b0e7b708a720bc6",
      "transactionType": "CALL",
      "contractName": "MocaOFT",
      "contractAddress": "0x8c979EF6a647c91F56654580f1C740c9f047edb2",
      "function": "setPeer(uint32,bytes32)",
      "arguments": [
        "40161",
        "0x000000000000000000000000d890cd7cfb5e9aeda39fa4a3faf07ceb0b015f3c"
      ],
      "transaction": {
        "type": "0x02",
        "from": "0xde05a1abb121113a33eed248bd91ddc254d5e9db",
        "to": "0x8c979ef6a647c91f56654580f1c740c9f047edb2",
        "gas": "0xa1b7",
        "value": "0x0",
        "data": "0x3400288b0000000000000000000000000000000000000000000000000000000000009ce1000000000000000000000000d890cd7cfb5e9aeda39fa4a3faf07ceb0b015f3c",
        "nonce": "0x44",
        "accessList": []
      },
      "additionalContracts": [],
      "isFixedGasLimit": false
    }
  ],
  "receipts": [],
  "libraries": [],
  "pending": [
    "0x8b51cf67e61eb17fb3f9b3a4507a162ef144738195d8b1f98b0e7b708a720bc6"
  ],
  "returns": {},
  "timestamp": 1710242579,
  "chain": 80001,
  "multi": false,
  "commit": "88dccd9"
}