{
  "transactions": [
    {
      "hash": "0x8553481fe84acdcabace3b0beec3383499d247ef9ccc333f05db01cc05d0e178",
      "transactionType": "CALL",
      "contractName": "MocaOFT",
      "contractAddress": "0x8BB305DF680edA14E6b25b975Bf1a8831AcF69ab",
      "function": "send((uint32,bytes32,uint256,uint256,bytes,bytes,bytes),(uint256,uint256),address)",
      "arguments": [
        "(40161, 0x000000000000000000000000de05a1abb121113a33eed248bd91ddc254d5e9db, 1000000000000000000, 1000000000000000000, 0x, 0x, 0x)",
        "(1707419598228876231, 0)",
        "0xdE05a1Abb121113a33eeD248BD91ddC254d5E9Db"
      ],
      "transaction": {
        "type": "0x02",
        "from": "0xde05a1abb121113a33eed248bd91ddc254d5e9db",
        "to": "0x8bb305df680eda14e6b25b975bf1a8831acf69ab",
        "gas": "0x54eb6",
        "value": "0x17b1f9140af8ebc7",
        "data": "0xc7c7f5b3000000000000000000000000000000000000000000000000000000000000008000000000000000000000000000000000000000000000000017b1f9140af8ebc70000000000000000000000000000000000000000000000000000000000000000000000000000000000000000de05a1abb121113a33eed248bd91ddc254d5e9db0000000000000000000000000000000000000000000000000000000000009ce1000000000000000000000000de05a1abb121113a33eed248bd91ddc254d5e9db0000000000000000000000000000000000000000000000000de0b6b3a76400000000000000000000000000000000000000000000000000000de0b6b3a764000000000000000000000000000000000000000000000000000000000000000000e000000000000000000000000000000000000000000000000000000000000001000000000000000000000000000000000000000000000000000000000000000120000000000000000000000000000000000000000000000000000000000000000000000000000000000000000000000000000000000000000000000000000000000000000000000000000000000000000000000000000000000000000000000000",
        "nonce": "0x24",
        "accessList": []
      },
      "additionalContracts": [],
      "isFixedGasLimit": false
    }
  ],
  "receipts": [
    {
      "transactionHash": "0x8553481fe84acdcabace3b0beec3383499d247ef9ccc333f05db01cc05d0e178",
      "transactionIndex": "0x0",
      "blockHash": "0xd4ebc2b6b44a6de52962dd4d860c1a1ec6152abc0e72f11530e2722a648e223f",
      "blockNumber": "0x2c97db3",
      "from": "0xdE05a1Abb121113a33eeD248BD91ddC254d5E9Db",
      "to": "0x8BB305DF680edA14E6b25b975Bf1a8831AcF69ab",
      "cumulativeGasUsed": "0x3a109",
      "gasUsed": "0x3a109",
      "contractAddress": null,
      "logs": [
        {
          "address": "0x0000000000000000000000000000000000001010",
          "topics": [
            "0xe6497e3ee548a3372136af2fcb0696db31fc6cf20260707645068bd3fe97f3c4",
            "0x0000000000000000000000000000000000000000000000000000000000001010",
            "0x000000000000000000000000de05a1abb121113a33eed248bd91ddc254d5e9db",
            "0x0000000000000000000000008bb305df680eda14e6b25b975bf1a8831acf69ab"
          ],
          "data": "0x00000000000000000000000000000000000000000000000017b1f9140af8ebc7000000000000000000000000000000000000000000000000243f20ff5f45bab000000000000000000000000000000000000000000000000000000000000000000000000000000000000000000000000000000000000000000c8d27eb544ccee900000000000000000000000000000000000000000000000017b1f9140af8ebc7",
          "blockHash": "0xd4ebc2b6b44a6de52962dd4d860c1a1ec6152abc0e72f11530e2722a648e223f",
          "blockNumber": "0x2c97db3",
          "transactionHash": "0x8553481fe84acdcabace3b0beec3383499d247ef9ccc333f05db01cc05d0e178",
          "transactionIndex": "0x0",
          "logIndex": "0x0",
          "removed": false
        },
        {
          "address": "0x8BB305DF680edA14E6b25b975Bf1a8831AcF69ab",
          "topics": [
            "0xddf252ad1be2c89b69c2b068fc378daa952ba7f163c4a11628f55a4df523b3ef",
            "0x000000000000000000000000de05a1abb121113a33eed248bd91ddc254d5e9db",
            "0x0000000000000000000000000000000000000000000000000000000000000000"
          ],
          "data": "0x0000000000000000000000000000000000000000000000000de0b6b3a7640000",
          "blockHash": "0xd4ebc2b6b44a6de52962dd4d860c1a1ec6152abc0e72f11530e2722a648e223f",
          "blockNumber": "0x2c97db3",
          "transactionHash": "0x8553481fe84acdcabace3b0beec3383499d247ef9ccc333f05db01cc05d0e178",
          "transactionIndex": "0x0",
          "logIndex": "0x1",
          "removed": false
        },
        {
          "address": "0x0000000000000000000000000000000000001010",
          "topics": [
            "0xe6497e3ee548a3372136af2fcb0696db31fc6cf20260707645068bd3fe97f3c4",
            "0x0000000000000000000000000000000000000000000000000000000000001010",
            "0x0000000000000000000000008bb305df680eda14e6b25b975bf1a8831acf69ab",
            "0x0000000000000000000000006edce65403992e310a62460808c4b910d972f10f"
          ],
          "data": "0x00000000000000000000000000000000000000000000000017b1f9140af8ebc700000000000000000000000000000000000000000000000017b1f9140af8ebc70000000000000000000000000000000000000000000000000000000000000000000000000000000000000000000000000000000000000000000000000000000000000000000000000000000000000000000000000000000017b1f9140af8ebc7",
          "blockHash": "0xd4ebc2b6b44a6de52962dd4d860c1a1ec6152abc0e72f11530e2722a648e223f",
          "blockNumber": "0x2c97db3",
          "transactionHash": "0x8553481fe84acdcabace3b0beec3383499d247ef9ccc333f05db01cc05d0e178",
          "transactionIndex": "0x0",
          "logIndex": "0x2",
          "removed": false
        },
        {
          "address": "0x5d9F8BCf9e07BabF517f2988986FF3bB7b233bc1",
          "topics": [
            "0x61ed099e74a97a1d7f8bb0952a88ca8b7b8ebd00c126ea04671f92a81213318a"
          ],
          "data": "0x000000000000000000000000264473487c23cc846118840472d35aebf54e447500000000000000000000000000000000000000000000000011a16bf11b8b97ea",
          "blockHash": "0xd4ebc2b6b44a6de52962dd4d860c1a1ec6152abc0e72f11530e2722a648e223f",
          "blockNumber": "0x2c97db3",
          "transactionHash": "0x8553481fe84acdcabace3b0beec3383499d247ef9ccc333f05db01cc05d0e178",
          "transactionIndex": "0x0",
          "logIndex": "0x3",
          "removed": false
        },
        {
          "address": "0x5d9F8BCf9e07BabF517f2988986FF3bB7b233bc1",
          "topics": [
            "0x07ea52d82345d6e838192107d8fd7123d9c2ec8e916cd0aad13fd2b60db24644"
          ],
          "data": "0x000000000000000000000000000000000000000000000000000000000000006000000000000000000000000000000000000000000000000000000000000000a000000000000000000000000000000000000000000000000000000000000000c0000000000000000000000000000000000000000000000000000000000000000100000000000000000000000067a822f55c5f6e439550b9c4ea39e406480a40f30000000000000000000000000000000000000000000000000000000000000000000000000000000000000000000000000000000000000000000000000000000100000000000000000000000000000000000000000000000006108d22ef6d53dd",
          "blockHash": "0xd4ebc2b6b44a6de52962dd4d860c1a1ec6152abc0e72f11530e2722a648e223f",
          "blockNumber": "0x2c97db3",
          "transactionHash": "0x8553481fe84acdcabace3b0beec3383499d247ef9ccc333f05db01cc05d0e178",
          "transactionIndex": "0x0",
          "logIndex": "0x4",
          "removed": false
        },
        {
          "address": "0x6EDCE65403992e310A62460808c4b910D972f10f",
          "topics": [
            "0x1ab700d4ced0c005b164c0f789fd09fcbb0156d4c2041b8a3bfbcd961cd1567f"
          ],
          "data": "0x000000000000000000000000000000000000000000000000000000000000006000000000000000000000000000000000000000000000000000000000000001200000000000000000000000005d9f8bcf9e07babf517f2988986ff3bb7b233bc1000000000000000000000000000000000000000000000000000000000000009901000000000000000100009cad0000000000000000000000008bb305df680eda14e6b25b975bf1a8831acf69ab00009ce10000000000000000000000004114eccadf3b248da9eee7d8df2d3ba6bb02cbcd8b43741c30f8f5d259fb865ef666e24e2f9e2005932f1f1821f9441003ab5b7d000000000000000000000000de05a1abb121113a33eed248bd91ddc254d5e9db00000000000f424000000000000000000000000000000000000000000000000000000000000000000000000000001600030100110100000000000000000000000000030d4000000000000000000000",
          "blockHash": "0xd4ebc2b6b44a6de52962dd4d860c1a1ec6152abc0e72f11530e2722a648e223f",
          "blockNumber": "0x2c97db3",
          "transactionHash": "0x8553481fe84acdcabace3b0beec3383499d247ef9ccc333f05db01cc05d0e178",
          "transactionIndex": "0x0",
          "logIndex": "0x5",
          "removed": false
        },
        {
          "address": "0x0000000000000000000000000000000000001010",
          "topics": [
            "0xe6497e3ee548a3372136af2fcb0696db31fc6cf20260707645068bd3fe97f3c4",
            "0x0000000000000000000000000000000000000000000000000000000000001010",
            "0x0000000000000000000000006edce65403992e310a62460808c4b910d972f10f",
            "0x0000000000000000000000005d9f8bcf9e07babf517f2988986ff3bb7b233bc1"
          ],
          "data": "0x00000000000000000000000000000000000000000000000017b1f9140af8ebc700000000000000000000000000000000000000000000000017b1f9140af8ebc7000000000000000000000000000000000000000000000009e6f19c9d9250de570000000000000000000000000000000000000000000000000000000000000000000000000000000000000000000000000000000000000009fea395b19d49ca1e",
          "blockHash": "0xd4ebc2b6b44a6de52962dd4d860c1a1ec6152abc0e72f11530e2722a648e223f",
          "blockNumber": "0x2c97db3",
          "transactionHash": "0x8553481fe84acdcabace3b0beec3383499d247ef9ccc333f05db01cc05d0e178",
          "transactionIndex": "0x0",
          "logIndex": "0x6",
          "removed": false
        },
        {
          "address": "0x8BB305DF680edA14E6b25b975Bf1a8831AcF69ab",
          "topics": [
            "0xfff873bb909b73d08a8c1af4b21779e87103bb8ea8cf3b3a0067eb8526b8b80a",
            "0x8b43741c30f8f5d259fb865ef666e24e2f9e2005932f1f1821f9441003ab5b7d",
            "0x000000000000000000000000de05a1abb121113a33eed248bd91ddc254d5e9db"
          ],
          "data": "0x0000000000000000000000000000000000000000000000000000000000009ce10000000000000000000000000000000000000000000000000de0b6b3a7640000",
          "blockHash": "0xd4ebc2b6b44a6de52962dd4d860c1a1ec6152abc0e72f11530e2722a648e223f",
          "blockNumber": "0x2c97db3",
          "transactionHash": "0x8553481fe84acdcabace3b0beec3383499d247ef9ccc333f05db01cc05d0e178",
          "transactionIndex": "0x0",
          "logIndex": "0x7",
          "removed": false
        },
        {
          "address": "0x0000000000000000000000000000000000001010",
          "topics": [
            "0x4dfe1bbbcf077ddc3e01291eea2d5c70c2b422b415d95645b9adcfd678cb1d63",
            "0x0000000000000000000000000000000000000000000000000000000000001010",
            "0x000000000000000000000000de05a1abb121113a33eed248bd91ddc254d5e9db",
            "0x000000000000000000000000be188d6641e8b680743a4815dfa0f6208038960f"
          ],
          "data": "0x0000000000000000000000000000000000000000000000000019593c506d0c000000000000000000000000000000000000000000000000002464337bdb599f5a0000000000000000000000000000000000000000000036b26a77ad8230fb4a1f000000000000000000000000000000000000000000000000244ada3f8aec935a0000000000000000000000000000000000000000000036b26a9106be8168561f",
          "blockHash": "0xd4ebc2b6b44a6de52962dd4d860c1a1ec6152abc0e72f11530e2722a648e223f",
          "blockNumber": "0x2c97db3",
          "transactionHash": "0x8553481fe84acdcabace3b0beec3383499d247ef9ccc333f05db01cc05d0e178",
          "transactionIndex": "0x0",
          "logIndex": "0x8",
          "removed": false
        }
      ],
      "status": "0x1",
      "logsBloom": "0x0000000000000000000000000000000000000000000000003010000000000000000800000000000020000010008000000000e000200000000000000000002000000000000000000000000008000000800000800000000000000100000000004000010000020004008200000000000800000000000000004080000010000000000000000000000020000000080000000000000000000080000000000000000000200000008000000004300000000000000098000000400000000440000200004000000002000000000001000000000000000000000000801200108040000020000000040000000000000000000008002008000000000000000000000000100000",
      "type": "0x2",
      "effectiveGasPrice": "0x6fc23ac0f"
    }
  ],
  "libraries": [],
  "pending": [],
  "returns": {},
  "timestamp": 1709797713,
  "chain": 80001,
  "multi": false,
  "commit": "0de5090"
}