{
  "transactions": [
    {
      "hash": "0xe27189fce0f5528fbb05a1ca1369e2d35e4d8a161651a3a9cabaf1917d606d40",
      "transactionType": "CALL",
      "contractName": "MocaOFT",
      "contractAddress": "0xaa7A95e597a65EB06DaE4eD54f1b62e0535d9156",
      "function": "setEnforcedOptions((uint32,uint16,bytes)[])",
      "arguments": [
        "[(40161, 1, 0x00030100110100000000000000000000000000030d40), (40161, 2, 0x000301001303000000000000000000000000000000000000)]"
      ],
      "transaction": {
        "type": "0x02",
        "from": "0xde05a1abb121113a33eed248bd91ddc254d5e9db",
        "to": "0xaa7a95e597a65eb06dae4ed54f1b62e0535d9156",
        "gas": "0x1cba6",
        "value": "0x0",
        "data": "0xb98bd07000000000000000000000000000000000000000000000000000000000000000200000000000000000000000000000000000000000000000000000000000000002000000000000000000000000000000000000000000000000000000000000004000000000000000000000000000000000000000000000000000000000000000e00000000000000000000000000000000000000000000000000000000000009ce100000000000000000000000000000000000000000000000000000000000000010000000000000000000000000000000000000000000000000000000000000060000000000000000000000000000000000000000000000000000000000000001600030100110100000000000000000000000000030d40000000000000000000000000000000000000000000000000000000000000000000000000000000009ce10000000000000000000000000000000000000000000000000000000000000002000000000000000000000000000000000000000000000000000000000000006000000000000000000000000000000000000000000000000000000000000000180003010013030000000000000000000000000000000000000000000000000000",
        "nonce": "0x46",
        "accessList": []
      },
      "additionalContracts": [],
      "isFixedGasLimit": false
    }
  ],
  "receipts": [],
  "libraries": [],
  "pending": [
    "0xe27189fce0f5528fbb05a1ca1369e2d35e4d8a161651a3a9cabaf1917d606d40"
  ],
  "returns": {},
  "timestamp": 1710242846,
  "chain": 80001,
  "multi": false,
  "commit": "88dccd9"
}