{
  "transactions": [
    {
      "hash": "0x8b51cf67e61eb17fb3f9b3a4507a162ef144738195d8b1f98b0e7b708a720bc6",
      "transactionType": "CALL",
      "contractName": "MocaOFT",
      "contractAddress": "0x8c979EF6a647c91F56654580f1C740c9f047edb2",
      "function": "setPeer(uint32,bytes32)",
      "arguments": [
        "40161",
        "0x000000000000000000000000d890cd7cfb5e9aeda39fa4a3faf07ceb0b015f3c"
      ],
      "transaction": {
        "type": "0x02",
        "from": "0xde05a1abb121113a33eed248bd91ddc254d5e9db",
        "to": "0x8c979ef6a647c91f56654580f1c740c9f047edb2",
        "gas": "0xa1b7",
        "value": "0x0",
        "data": "0x3400288b0000000000000000000000000000000000000000000000000000000000009ce1000000000000000000000000d890cd7cfb5e9aeda39fa4a3faf07ceb0b015f3c",
        "nonce": "0x44",
        "accessList": []
      },
      "additionalContracts": [],
      "isFixedGasLimit": false
    }
  ],
  "receipts": [
    {
      "transactionHash": "0x8b51cf67e61eb17fb3f9b3a4507a162ef144738195d8b1f98b0e7b708a720bc6",
      "transactionIndex": "0x0",
      "blockHash": "0x757617ec93bd27d6a89e0160c2f53b73951493188c4281caf7ebfd32270b844b",
      "blockNumber": "0x2cc8940",
      "from": "0xdE05a1Abb121113a33eeD248BD91ddC254d5E9Db",
      "to": "0x8c979EF6a647c91F56654580f1C740c9f047edb2",
      "cumulativeGasUsed": "0x7515",
      "gasUsed": "0x7515",
      "contractAddress": null,
      "logs": [
        {
          "address": "0x8c979EF6a647c91F56654580f1C740c9f047edb2",
          "topics": [
            "0x238399d427b947898edb290f5ff0f9109849b1c3ba196a42e35f00c50a54b98b"
          ],
          "data": "0x0000000000000000000000000000000000000000000000000000000000009ce1000000000000000000000000d890cd7cfb5e9aeda39fa4a3faf07ceb0b015f3c",
          "blockHash": "0x757617ec93bd27d6a89e0160c2f53b73951493188c4281caf7ebfd32270b844b",
          "blockNumber": "0x2cc8940",
          "transactionHash": "0x8b51cf67e61eb17fb3f9b3a4507a162ef144738195d8b1f98b0e7b708a720bc6",
          "transactionIndex": "0x0",
          "logIndex": "0x0",
          "removed": false
        },
        {
          "address": "0x0000000000000000000000000000000000001010",
          "topics": [
            "0x4dfe1bbbcf077ddc3e01291eea2d5c70c2b422b415d95645b9adcfd678cb1d63",
            "0x0000000000000000000000000000000000000000000000000000000000001010",
            "0x000000000000000000000000de05a1abb121113a33eed248bd91ddc254d5e9db",
            "0x000000000000000000000000f903ba9e006193c1527bfbe65fe2123704ea3f99"
          ],
          "data": "0x000000000000000000000000000000000000000000000000000331cefc891c000000000000000000000000000000000000000000000000001bd46fc8a38a2a7100000000000000000000000000000000000000000000139bd526964fea4ed0270000000000000000000000000000000000000000000000001bd13df9a7010e7100000000000000000000000000000000000000000000139bd529c81ee6d7ec27",
          "blockHash": "0x757617ec93bd27d6a89e0160c2f53b73951493188c4281caf7ebfd32270b844b",
          "blockNumber": "0x2cc8940",
          "transactionHash": "0x8b51cf67e61eb17fb3f9b3a4507a162ef144738195d8b1f98b0e7b708a720bc6",
          "transactionIndex": "0x0",
          "logIndex": "0x1",
          "removed": false
        }
      ],
      "status": "0x1",
      "logsBloom": "0x00000000000000000000000000000000000000000000000000100010000000000000000000000020000000000000000000008000000000000800000000000000000000000000000000000000000000800000002000000000000100000000000000000000000000000000001000000000000000000000004080000000000000000000000000000020000000000000000000000000000000000000000000000000200000000000000000000000000000000000000000000000000002000001004000000000000000000001000000000000000000000000000000140000001000000000000000000000000000000000000000000000000000000000000000100000",
      "type": "0x2",
      "effectiveGasPrice": "0x6fc23ac0f"
    }
  ],
  "libraries": [],
  "pending": [],
  "returns": {},
  "timestamp": 1710242586,
  "chain": 80001,
  "multi": false,
  "commit": "88dccd9"
}