{
  "transactions": [
    {
      "hash": "0xdf8d571d2746ef1ea7f9550070b3b4f1cf12197480ff4867dd2700bfebac9fda",
      "transactionType": "CALL",
      "contractName": "MocaOFT",
      "contractAddress": "0x4b1ADc9Fe8b2C5BBD4373be4a4Efa1C97b1D0F04",
      "function": "setEnforcedOptions((uint32,uint16,bytes)[])",
      "arguments": [
        "[(40161, 1, 0x00030100110100000000000000000000000000030d40), (40161, 2, 0x000301001101000000000000000000000000000f4240)]"
      ],
      "transaction": {
        "type": "0x02",
        "from": "0xde05a1abb121113a33eed248bd91ddc254d5e9db",
        "to": "0x4b1adc9fe8b2c5bbd4373be4a4efa1c97b1d0f04",
        "gas": "0x1b24e",
        "value": "0x0",
        "data": "0xb98bd07000000000000000000000000000000000000000000000000000000000000000200000000000000000000000000000000000000000000000000000000000000002000000000000000000000000000000000000000000000000000000000000004000000000000000000000000000000000000000000000000000000000000000e00000000000000000000000000000000000000000000000000000000000009ce100000000000000000000000000000000000000000000000000000000000000010000000000000000000000000000000000000000000000000000000000000060000000000000000000000000000000000000000000000000000000000000001600030100110100000000000000000000000000030d40000000000000000000000000000000000000000000000000000000000000000000000000000000009ce1000000000000000000000000000000000000000000000000000000000000000200000000000000000000000000000000000000000000000000000000000000600000000000000000000000000000000000000000000000000000000000000016000301001101000000000000000000000000000f424000000000000000000000",
        "nonce": "0x28",
        "accessList": []
      },
      "additionalContracts": [],
      "isFixedGasLimit": false
    }
  ],
  "receipts": [
    {
      "transactionHash": "0xdf8d571d2746ef1ea7f9550070b3b4f1cf12197480ff4867dd2700bfebac9fda",
      "transactionIndex": "0x0",
      "blockHash": "0xc751267a234eacfebdc3e597b7e2bf54c99992db8dc21f73cd02c2af1d9794c0",
      "blockNumber": "0x2ca951b",
      "from": "0xdE05a1Abb121113a33eeD248BD91ddC254d5E9Db",
      "to": "0x4b1ADc9Fe8b2C5BBD4373be4a4Efa1C97b1D0F04",
      "cumulativeGasUsed": "0x13a6f",
      "gasUsed": "0x13a6f",
      "contractAddress": null,
      "logs": [
        {
          "address": "0x4b1ADc9Fe8b2C5BBD4373be4a4Efa1C97b1D0F04",
          "topics": [
            "0xbe4864a8e820971c0247f5992e2da559595f7bf076a21cb5928d443d2a13b674"
          ],
          "data": "0x00000000000000000000000000000000000000000000000000000000000000200000000000000000000000000000000000000000000000000000000000000002000000000000000000000000000000000000000000000000000000000000004000000000000000000000000000000000000000000000000000000000000000e00000000000000000000000000000000000000000000000000000000000009ce100000000000000000000000000000000000000000000000000000000000000010000000000000000000000000000000000000000000000000000000000000060000000000000000000000000000000000000000000000000000000000000001600030100110100000000000000000000000000030d40000000000000000000000000000000000000000000000000000000000000000000000000000000009ce1000000000000000000000000000000000000000000000000000000000000000200000000000000000000000000000000000000000000000000000000000000600000000000000000000000000000000000000000000000000000000000000016000301001101000000000000000000000000000f424000000000000000000000",
          "blockHash": "0xc751267a234eacfebdc3e597b7e2bf54c99992db8dc21f73cd02c2af1d9794c0",
          "blockNumber": "0x2ca951b",
          "transactionHash": "0xdf8d571d2746ef1ea7f9550070b3b4f1cf12197480ff4867dd2700bfebac9fda",
          "transactionIndex": "0x0",
          "logIndex": "0x0",
          "removed": false
        },
        {
          "address": "0x0000000000000000000000000000000000001010",
          "topics": [
            "0x4dfe1bbbcf077ddc3e01291eea2d5c70c2b422b415d95645b9adcfd678cb1d63",
            "0x0000000000000000000000000000000000000000000000000000000000001010",
            "0x000000000000000000000000de05a1abb121113a33eed248bd91ddc254d5e9db",
            "0x000000000000000000000000c275dc8be39f50d12f66b6a63629c39da5bae5bd"
          ],
          "data": "0x0000000000000000000000000000000000000000000000000008944b146f940000000000000000000000000000000000000000000000000018d185481c1a4ba900000000000000000000000000000000000000000000148a7d844bce2cd5983900000000000000000000000000000000000000000000000018c8f0fd07aab7a900000000000000000000000000000000000000000000148a7d8ce01941452c39",
          "blockHash": "0xc751267a234eacfebdc3e597b7e2bf54c99992db8dc21f73cd02c2af1d9794c0",
          "blockNumber": "0x2ca951b",
          "transactionHash": "0xdf8d571d2746ef1ea7f9550070b3b4f1cf12197480ff4867dd2700bfebac9fda",
          "transactionIndex": "0x0",
          "logIndex": "0x1",
          "removed": false
        }
      ],
      "status": "0x1",
      "logsBloom": "0x0000000000000000000000000000000000000000000000020010000000000000000000000000000000000000000000000000800000a000000000400000000000000000000000000000000000000000800000000000000000040100000000000000000000000000000000000000000000000000000000004080000000000000000000000000000020000000000000000000000000000000000000000000080000200000000000000000000000000000000000000000000000000040000000004000000000000000000001000002000000000000000000000000100000000000000000000000000000000000000000004000000000000000000000000000100000",
      "type": "0x2",
      "effectiveGasPrice": "0x6fc23ac0f"
    }
  ],
  "libraries": [],
  "pending": [],
  "returns": {},
  "timestamp": 1709952085,
  "chain": 80001,
  "multi": false,
  "commit": "0fb095c"
}