{
  "transactions": [
    {
      "hash": "0x436d0a1e7cb4955047a764ea279a65d4da0ddbbfa56eec5b371d83869c21d175",
      "transactionType": "CALL",
      "contractName": "MocaOFT",
      "contractAddress": "0x8c979EF6a647c91F56654580f1C740c9f047edb2",
      "function": "setPeer(uint32,bytes32)",
      "arguments": [
        "40161",
        "0x000000000000000000000000c60fde3964f1bafc4cd0ee9403cab7f789ddb8a7"
      ],
      "transaction": {
        "type": "0x02",
        "from": "0xde05a1abb121113a33eed248bd91ddc254d5e9db",
        "to": "0x8c979ef6a647c91f56654580f1c740c9f047edb2",
        "gas": "0x11ceb",
        "value": "0x0",
        "data": "0x3400288b0000000000000000000000000000000000000000000000000000000000009ce1000000000000000000000000c60fde3964f1bafc4cd0ee9403cab7f789ddb8a7",
        "nonce": "0x31",
        "accessList": []
      },
      "additionalContracts": [],
      "isFixedGasLimit": false
    }
  ],
  "receipts": [
    {
      "transactionHash": "0x436d0a1e7cb4955047a764ea279a65d4da0ddbbfa56eec5b371d83869c21d175",
      "transactionIndex": "0x4",
      "blockHash": "0xf6e37d7dd0e6bbafc69e76bf77070e2433a48c24d940bfae19ef7e10a33cb9d2",
      "blockNumber": "0x2ca9b29",
      "from": "0xdE05a1Abb121113a33eeD248BD91ddC254d5E9Db",
      "to": "0x8c979EF6a647c91F56654580f1C740c9f047edb2",
      "cumulativeGasUsed": "0xf7241",
      "gasUsed": "0xc2d1",
      "contractAddress": null,
      "logs": [
        {
          "address": "0x8c979EF6a647c91F56654580f1C740c9f047edb2",
          "topics": [
            "0x238399d427b947898edb290f5ff0f9109849b1c3ba196a42e35f00c50a54b98b"
          ],
          "data": "0x0000000000000000000000000000000000000000000000000000000000009ce1000000000000000000000000c60fde3964f1bafc4cd0ee9403cab7f789ddb8a7",
          "blockHash": "0xf6e37d7dd0e6bbafc69e76bf77070e2433a48c24d940bfae19ef7e10a33cb9d2",
          "blockNumber": "0x2ca9b29",
          "transactionHash": "0x436d0a1e7cb4955047a764ea279a65d4da0ddbbfa56eec5b371d83869c21d175",
          "transactionIndex": "0x4",
          "logIndex": "0x7",
          "removed": false
        },
        {
          "address": "0x0000000000000000000000000000000000001010",
          "topics": [
            "0x4dfe1bbbcf077ddc3e01291eea2d5c70c2b422b415d95645b9adcfd678cb1d63",
            "0x0000000000000000000000000000000000000000000000000000000000001010",
            "0x000000000000000000000000de05a1abb121113a33eed248bd91ddc254d5e9db",
            "0x000000000000000000000000c26880a0af2ea0c7e8130e6ec47af756465452e8"
          ],
          "data": "0x000000000000000000000000000000000000000000000000000550c6e1776c000000000000000000000000000000000000000000000000001300c890ff2d321b000000000000000000000000000000000000000000002405639b5bfad9bd706400000000000000000000000000000000000000000000000012fb77ca1db5c61b00000000000000000000000000000000000000000000240563a0acc1bb34dc64",
          "blockHash": "0xf6e37d7dd0e6bbafc69e76bf77070e2433a48c24d940bfae19ef7e10a33cb9d2",
          "blockNumber": "0x2ca9b29",
          "transactionHash": "0x436d0a1e7cb4955047a764ea279a65d4da0ddbbfa56eec5b371d83869c21d175",
          "transactionIndex": "0x4",
          "logIndex": "0x8",
          "removed": false
        }
      ],
      "status": "0x1",
      "logsBloom": "0x00000000000000020000000000000000000000000000000000100000000000000000000000000000000000000000000000008000000000000800000000000000000000000000000000000000000000800000002000000000000100000000000000000000000000000000001000000000000000000000004080000000000000000000000000000020000000000000000000000000000000000000000000000000200000000000000020000000000000000001000000000000000002000001004000000000000000000001000000000000000000000000000000140000000000000000000000000000000000000000000000000000000000000000000000100000",
      "type": "0x2",
      "effectiveGasPrice": "0x6fc23ac0f"
    }
  ],
  "libraries": [],
  "pending": [],
  "returns": {},
  "timestamp": 1709955378,
  "chain": 80001,
  "multi": false,
  "commit": "0fb095c"
}