{
  "transactions": [
    {
      "hash": "0xb5f7b194a1f4d0b132770c5087ccf5d3d62cb30ba1bc751471b549147a42f933",
      "transactionType": "CALL",
      "contractName": "MocaOFT",
      "contractAddress": "0x8c979EF6a647c91F56654580f1C740c9f047edb2",
      "function": "setPeer(uint32,bytes32)",
      "arguments": [
        "40161",
        "0x000000000000000000000000d890cd7cfb5e9aeda39fa4a3faf07ceb0b015f3c"
      ],
      "transaction": {
        "type": "0x02",
        "from": "0xde05a1abb121113a33eed248bd91ddc254d5e9db",
        "to": "0x8c979ef6a647c91f56654580f1c740c9f047edb2",
        "gas": "0xb0d3",
        "value": "0x0",
        "data": "0x3400288b0000000000000000000000000000000000000000000000000000000000009ce1000000000000000000000000d890cd7cfb5e9aeda39fa4a3faf07ceb0b015f3c",
        "nonce": "0x32",
        "accessList": []
      },
      "additionalContracts": [],
      "isFixedGasLimit": false
    }
  ],
  "receipts": [
    {
      "transactionHash": "0xb5f7b194a1f4d0b132770c5087ccf5d3d62cb30ba1bc751471b549147a42f933",
      "transactionIndex": "0x2",
      "blockHash": "0x0395b9cb06eb439913b388252b0887bfbcdcd277730f67bef8ac5f63f8a5b21f",
      "blockNumber": "0x2ca9b90",
      "from": "0xdE05a1Abb121113a33eeD248BD91ddC254d5E9Db",
      "to": "0x8c979EF6a647c91F56654580f1C740c9f047edb2",
      "cumulativeGasUsed": "0x7e8fe",
      "gasUsed": "0x8005",
      "contractAddress": null,
      "logs": [
        {
          "address": "0x8c979EF6a647c91F56654580f1C740c9f047edb2",
          "topics": [
            "0x238399d427b947898edb290f5ff0f9109849b1c3ba196a42e35f00c50a54b98b"
          ],
          "data": "0x0000000000000000000000000000000000000000000000000000000000009ce1000000000000000000000000d890cd7cfb5e9aeda39fa4a3faf07ceb0b015f3c",
          "blockHash": "0x0395b9cb06eb439913b388252b0887bfbcdcd277730f67bef8ac5f63f8a5b21f",
          "blockNumber": "0x2ca9b90",
          "transactionHash": "0xb5f7b194a1f4d0b132770c5087ccf5d3d62cb30ba1bc751471b549147a42f933",
          "transactionIndex": "0x2",
          "logIndex": "0x7",
          "removed": false
        },
        {
          "address": "0x0000000000000000000000000000000000001010",
          "topics": [
            "0x4dfe1bbbcf077ddc3e01291eea2d5c70c2b422b415d95645b9adcfd678cb1d63",
            "0x0000000000000000000000000000000000000000000000000000000000001010",
            "0x000000000000000000000000de05a1abb121113a33eed248bd91ddc254d5e9db",
            "0x000000000000000000000000cfef2a3dc244ef7d0fb93c45e762d671445c4569"
          ],
          "data": "0x00000000000000000000000000000000000000000000000000037e34c2b25c0000000000000000000000000000000000000000000000000012fb77ca1daa5bdc0000000000000000000000000000000000000000000001dadb1b0efb92250e6900000000000000000000000000000000000000000000000012f7f9955af7ffdc0000000000000000000000000000000000000000000001dadb1e8d3054d76a69",
          "blockHash": "0x0395b9cb06eb439913b388252b0887bfbcdcd277730f67bef8ac5f63f8a5b21f",
          "blockNumber": "0x2ca9b90",
          "transactionHash": "0xb5f7b194a1f4d0b132770c5087ccf5d3d62cb30ba1bc751471b549147a42f933",
          "transactionIndex": "0x2",
          "logIndex": "0x8",
          "removed": false
        }
      ],
      "status": "0x1",
      "logsBloom": "0x00000000010000000000000000000000000000000000000000100000000000000000000000000000000000000000000000008000000000000800000000000000000000000000000000000000000000800000002000000000020100000000000000000000000000000000001000000000000000000000004080000000000000000000000000000020000000000000000000000000000000000000000000000000200000000000000000000000000000000000000000000000000002000001004000000000000000000001000000000000000000000000000000140000000000000000000000000000000000000000000000000000000000000000040000100000",
      "type": "0x2",
      "effectiveGasPrice": "0x6fc23ac0f"
    }
  ],
  "libraries": [],
  "pending": [],
  "returns": {},
  "timestamp": 1709955597,
  "chain": 80001,
  "multi": false,
  "commit": "0fb095c"
}