{
  "transactions": [
    {
      "hash": "0xa1073d6c7e5124da271ac8153029ecaecfd20b31c000dc4812624e9853832db9",
      "transactionType": "CALL",
      "contractName": "MocaOFT",
      "contractAddress": "0x0EB26b982341c37A02812738C6c10EB0b66ef4F7",
      "function": "setPeer(uint32,bytes32)",
      "arguments": [
        "40161",
        "0x000000000000000000000000a8f355ae124d7120daea13239b6cc89fb0376779"
      ],
      "transaction": {
        "type": "0x02",
        "from": "0xde05a1abb121113a33eed248bd91ddc254d5e9db",
        "to": "0x0eb26b982341c37a02812738c6c10eb0b66ef4f7",
        "gas": "0xaede",
        "value": "0x0",
        "data": "0x3400288b0000000000000000000000000000000000000000000000000000000000009ce1000000000000000000000000a8f355ae124d7120daea13239b6cc89fb0376779",
        "nonce": "0x4f",
        "accessList": []
      },
      "additionalContracts": [],
      "isFixedGasLimit": false
    }
  ],
  "receipts": [
    {
      "transactionHash": "0xa1073d6c7e5124da271ac8153029ecaecfd20b31c000dc4812624e9853832db9",
      "transactionIndex": "0x6",
      "blockHash": "0x8d21082698ee3a4087cc4e7685d373030e0b2f26ae6ca16838e1d00ed9b1335b",
      "blockNumber": "0x2d2ce50",
      "from": "0xdE05a1Abb121113a33eeD248BD91ddC254d5E9Db",
      "to": "0x0EB26b982341c37A02812738C6c10EB0b66ef4F7",
      "cumulativeGasUsed": "0x16b9f4",
      "gasUsed": "0x7792",
      "contractAddress": null,
      "logs": [
        {
          "address": "0x0EB26b982341c37A02812738C6c10EB0b66ef4F7",
          "topics": [
            "0x238399d427b947898edb290f5ff0f9109849b1c3ba196a42e35f00c50a54b98b"
          ],
          "data": "0x0000000000000000000000000000000000000000000000000000000000009ce1000000000000000000000000a8f355ae124d7120daea13239b6cc89fb0376779",
          "blockHash": "0x8d21082698ee3a4087cc4e7685d373030e0b2f26ae6ca16838e1d00ed9b1335b",
          "blockNumber": "0x2d2ce50",
          "transactionHash": "0xa1073d6c7e5124da271ac8153029ecaecfd20b31c000dc4812624e9853832db9",
          "transactionIndex": "0x6",
          "logIndex": "0x1c",
          "removed": false
        },
        {
          "address": "0x0000000000000000000000000000000000001010",
          "topics": [
            "0x4dfe1bbbcf077ddc3e01291eea2d5c70c2b422b415d95645b9adcfd678cb1d63",
            "0x0000000000000000000000000000000000000000000000000000000000001010",
            "0x000000000000000000000000de05a1abb121113a33eed248bd91ddc254d5e9db",
            "0x0000000000000000000000005082f249cdb2f2c1ee035e4f423c46ea2dab3ab1"
          ],
          "data": "0x00000000000000000000000000000000000000000000000000034330614c180000000000000000000000000000000000000000000000000019fa2db09413b1d40000000000000000000000000000000000000000000007e38473586babc7617700000000000000000000000000000000000000000000000019f6ea8032c799d40000000000000000000000000000000000000000000007e384769b9c0d137977",
          "blockHash": "0x8d21082698ee3a4087cc4e7685d373030e0b2f26ae6ca16838e1d00ed9b1335b",
          "blockNumber": "0x2d2ce50",
          "transactionHash": "0xa1073d6c7e5124da271ac8153029ecaecfd20b31c000dc4812624e9853832db9",
          "transactionIndex": "0x6",
          "logIndex": "0x1d",
          "removed": false
        }
      ],
      "status": "0x1",
      "logsBloom": "0x00000000000000000000000000000000000000000000000000100000020000000000000002000000000000000000000000008000000000000800000000000000000000000000000000000000000000800000040000000000000100000000000000000000000000000000000000000000000100000000004080000000000000000000000000000020000000000000000000000000000000000000000000000000200000000000000000000000000000000000000000000000000002000200004000000000000000000001000000000000000000000000000000140000000000000000000000000080000000000000000000000000000000000000000000100000",
      "type": "0x2",
      "effectiveGasPrice": "0x6fc23ac0f"
    }
  ],
  "libraries": [],
  "pending": [],
  "returns": {},
  "timestamp": 1711161311,
  "chain": 80001,
  "commit": "847784f"
}