{
  "transactions": [
    {
      "hash": "0x611c0606f96b9020e81c696831ca0d01a11a4a07b765c98b4086baae427ac2ab",
      "transactionType": "CALL",
      "contractName": "MocaOFT",
      "contractAddress": "0x8c979EF6a647c91F56654580f1C740c9f047edb2",
      "function": "setOutboundCap(uint32,uint256)",
      "arguments": [
        "40109",
        "10000000000000000000"
      ],
      "transaction": {
        "type": "0x02",
        "from": "0xde05a1abb121113a33eed248bd91ddc254d5e9db",
        "to": "0x8c979ef6a647c91f56654580f1c740c9f047edb2",
        "gas": "0x10ff1",
        "value": "0x0",
        "data": "0x048849750000000000000000000000000000000000000000000000000000000000009cad0000000000000000000000000000000000000000000000008ac7230489e80000",
        "nonce": "0x34",
        "accessList": []
      },
      "additionalContracts": [],
      "isFixedGasLimit": false
    },
    {
      "hash": "0xe269df61826cadaa69adb2a5806a027f5d54dd03d0918c7931bf9d0e1f5672b0",
      "transactionType": "CALL",
      "contractName": "MocaOFT",
      "contractAddress": "0x8c979EF6a647c91F56654580f1C740c9f047edb2",
      "function": "setInboundCap(uint32,uint256)",
      "arguments": [
        "40109",
        "10000000000000000000"
      ],
      "transaction": {
        "type": "0x02",
        "from": "0xde05a1abb121113a33eed248bd91ddc254d5e9db",
        "to": "0x8c979ef6a647c91f56654580f1c740c9f047edb2",
        "gas": "0x10ff0",
        "value": "0x0",
        "data": "0x256008550000000000000000000000000000000000000000000000000000000000009cad0000000000000000000000000000000000000000000000008ac7230489e80000",
        "nonce": "0x35",
        "accessList": []
      },
      "additionalContracts": [],
      "isFixedGasLimit": false
    }
  ],
  "receipts": [
    {
      "transactionHash": "0x611c0606f96b9020e81c696831ca0d01a11a4a07b765c98b4086baae427ac2ab",
      "transactionIndex": "0x2",
      "blockHash": "0xba962919bb34faa5a3ed3e9a3327c899c73ba180e1af0c31b419e0a03ad24942",
      "blockNumber": "0x2ca9c2e",
      "from": "0xdE05a1Abb121113a33eeD248BD91ddC254d5E9Db",
      "to": "0x8c979EF6a647c91F56654580f1C740c9f047edb2",
      "cumulativeGasUsed": "0x967b6",
      "gasUsed": "0xb9f2",
      "contractAddress": null,
      "logs": [
        {
          "address": "0x8c979EF6a647c91F56654580f1C740c9f047edb2",
          "topics": [
            "0x7628c1599617e8f71acfbf363d8064a2a32bdb6e63e074de3250cab57047bf79",
            "0x0000000000000000000000000000000000000000000000000000000000009cad"
          ],
          "data": "0x0000000000000000000000000000000000000000000000008ac7230489e80000",
          "blockHash": "0xba962919bb34faa5a3ed3e9a3327c899c73ba180e1af0c31b419e0a03ad24942",
          "blockNumber": "0x2ca9c2e",
          "transactionHash": "0x611c0606f96b9020e81c696831ca0d01a11a4a07b765c98b4086baae427ac2ab",
          "transactionIndex": "0x2",
          "logIndex": "0x6",
          "removed": false
        },
        {
          "address": "0x0000000000000000000000000000000000001010",
          "topics": [
            "0x4dfe1bbbcf077ddc3e01291eea2d5c70c2b422b415d95645b9adcfd678cb1d63",
            "0x0000000000000000000000000000000000000000000000000000000000001010",
            "0x000000000000000000000000de05a1abb121113a33eed248bd91ddc254d5e9db",
            "0x000000000000000000000000c26880a0af2ea0c7e8130e6ec47af756465452e8"
          ],
          "data": "0x000000000000000000000000000000000000000000000000000512d02104980000000000000000000000000000000000000000000000000012ef654a466e7f100000000000000000000000000000000000000000000024057730b6970cbdedb600000000000000000000000000000000000000000000000012ea527a2569e7100000000000000000000000000000000000000000000024057735c9672dc285b6",
          "blockHash": "0xba962919bb34faa5a3ed3e9a3327c899c73ba180e1af0c31b419e0a03ad24942",
          "blockNumber": "0x2ca9c2e",
          "transactionHash": "0x611c0606f96b9020e81c696831ca0d01a11a4a07b765c98b4086baae427ac2ab",
          "transactionIndex": "0x2",
          "logIndex": "0x7",
          "removed": false
        }
      ],
      "status": "0x1",
      "logsBloom": "0x00000000000000020000000000000000000000000000000000100000000000000000000000000000000000000000000000008000000000000000000000000000000000000000100000000000000000800000002000000000000100000000800000000002000000000000001000000000000000000000004080000000000000000000000000000020000000000000000000000000000000000000000000000000200000000000000020000000000000000001000000000000000000000001004000000000000000000001000000080000000000000000008000100000000000000000000000000000000000000000000000000010000000000000000000100000",
      "type": "0x2",
      "effectiveGasPrice": "0x6fc23ac0f"
    },
    {
      "transactionHash": "0xe269df61826cadaa69adb2a5806a027f5d54dd03d0918c7931bf9d0e1f5672b0",
      "transactionIndex": "0x3",
      "blockHash": "0xba962919bb34faa5a3ed3e9a3327c899c73ba180e1af0c31b419e0a03ad24942",
      "blockNumber": "0x2ca9c2e",
      "from": "0xdE05a1Abb121113a33eeD248BD91ddC254d5E9Db",
      "to": "0x8c979EF6a647c91F56654580f1C740c9f047edb2",
      "cumulativeGasUsed": "0xa21a7",
      "gasUsed": "0xb9f1",
      "contractAddress": null,
      "logs": [
        {
          "address": "0x8c979EF6a647c91F56654580f1C740c9f047edb2",
          "topics": [
            "0x9cc3784ef7ab64c61f0abf58d72c2a40ef45b319db540006be0aa3e4610b8433",
            "0x0000000000000000000000000000000000000000000000000000000000009cad"
          ],
          "data": "0x0000000000000000000000000000000000000000000000008ac7230489e80000",
          "blockHash": "0xba962919bb34faa5a3ed3e9a3327c899c73ba180e1af0c31b419e0a03ad24942",
          "blockNumber": "0x2ca9c2e",
          "transactionHash": "0xe269df61826cadaa69adb2a5806a027f5d54dd03d0918c7931bf9d0e1f5672b0",
          "transactionIndex": "0x3",
          "logIndex": "0x8",
          "removed": false
        },
        {
          "address": "0x0000000000000000000000000000000000001010",
          "topics": [
            "0x4dfe1bbbcf077ddc3e01291eea2d5c70c2b422b415d95645b9adcfd678cb1d63",
            "0x0000000000000000000000000000000000000000000000000000000000001010",
            "0x000000000000000000000000de05a1abb121113a33eed248bd91ddc254d5e9db",
            "0x000000000000000000000000c26880a0af2ea0c7e8130e6ec47af756465452e8"
          ],
          "data": "0x000000000000000000000000000000000000000000000000000512c924e0ec0000000000000000000000000000000000000000000000000012ea527a255f01e20000000000000000000000000000000000000000000024057735c9672dc285b600000000000000000000000000000000000000000000000012e53fb1007e15e2000000000000000000000000000000000000000000002405773adc3052a371b6",
          "blockHash": "0xba962919bb34faa5a3ed3e9a3327c899c73ba180e1af0c31b419e0a03ad24942",
          "blockNumber": "0x2ca9c2e",
          "transactionHash": "0xe269df61826cadaa69adb2a5806a027f5d54dd03d0918c7931bf9d0e1f5672b0",
          "transactionIndex": "0x3",
          "logIndex": "0x9",
          "removed": false
        }
      ],
      "status": "0x1",
      "logsBloom": "0x00000000000000020000000000000000000000000000000000100000000000000000000000000000000000000000000000008000000000000001000000000000000000000000100000000000000000800000002000000000000100000000000000000002000000000000001000000000000000000000004080000000000000000000000000000020000000000000000000000000000000000000000000008000200000000000000024000000000000000001000000000000000000000001004000000000000000000001000000000000000000000000000000100000000000000000000000000000000000000000000000000010000000000000000000100000",
      "type": "0x2",
      "effectiveGasPrice": "0x6fc23ac0f"
    }
  ],
  "libraries": [],
  "pending": [],
  "returns": {},
  "timestamp": 1709955933,
  "chain": 80001,
  "multi": false,
  "commit": "0fb095c"
}