{
  "transactions": [
    {
      "hash": "0x8c588e454355a0214cbec318ae7fe237357a4be9a5082b840ed64a63fb7ea411",
      "transactionType": "CALL",
      "contractName": "MocaOFT",
      "contractAddress": "0x8BB305DF680edA14E6b25b975Bf1a8831AcF69ab",
      "function": "setPeer(uint32,bytes32)",
      "arguments": [
        "40161",
        "0x0000000000000000000000000000000000000000000000000000000000000000"
      ],
      "transaction": {
        "type": "0x02",
        "from": "0xde05a1abb121113a33eed248bd91ddc254d5e9db",
        "to": "0x8bb305df680eda14e6b25b975bf1a8831acf69ab",
        "gas": "0x89b9",
        "value": "0x0",
        "data": "0x3400288b0000000000000000000000000000000000000000000000000000000000009ce10000000000000000000000000000000000000000000000000000000000000000",
        "nonce": "0x1e",
        "accessList": []
      },
      "additionalContracts": [],
      "isFixedGasLimit": false
    }
  ],
  "receipts": [
    {
      "transactionHash": "0x8c588e454355a0214cbec318ae7fe237357a4be9a5082b840ed64a63fb7ea411",
      "transactionIndex": "0x10",
      "blockHash": "0xea21cbb741d15bb2b750d9268f4ffc5f5e5290da4c21a661af7b54d7d3a44a39",
      "blockNumber": "0x2c66ab0",
      "from": "0xdE05a1Abb121113a33eeD248BD91ddC254d5E9Db",
      "to": "0x8BB305DF680edA14E6b25b975Bf1a8831AcF69ab",
      "cumulativeGasUsed": "0x1aa961",
      "gasUsed": "0x63b6",
      "contractAddress": null,
      "logs": [
        {
          "address": "0x8BB305DF680edA14E6b25b975Bf1a8831AcF69ab",
          "topics": [
            "0x238399d427b947898edb290f5ff0f9109849b1c3ba196a42e35f00c50a54b98b"
          ],
          "data": "0x0000000000000000000000000000000000000000000000000000000000009ce10000000000000000000000000000000000000000000000000000000000000000",
          "blockHash": "0xea21cbb741d15bb2b750d9268f4ffc5f5e5290da4c21a661af7b54d7d3a44a39",
          "blockNumber": "0x2c66ab0",
          "transactionHash": "0x8c588e454355a0214cbec318ae7fe237357a4be9a5082b840ed64a63fb7ea411",
          "transactionIndex": "0x10",
          "logIndex": "0x2a",
          "removed": false
        },
        {
          "address": "0x0000000000000000000000000000000000001010",
          "topics": [
            "0x4dfe1bbbcf077ddc3e01291eea2d5c70c2b422b415d95645b9adcfd678cb1d63",
            "0x0000000000000000000000000000000000000000000000000000000000001010",
            "0x000000000000000000000000de05a1abb121113a33eed248bd91ddc254d5e9db",
            "0x000000000000000000000000c26880a0af2ea0c7e8130e6ec47af756465452e8"
          ],
          "data": "0x00000000000000000000000000000000000000000000000000032b0e61c8aa3a00000000000000000000000000000000000000000000000008bfabe3590a55630000000000000000000000000000000000000000000023db612c4c05ded17d3b00000000000000000000000000000000000000000000000008bc80d4f741ab290000000000000000000000000000000000000000000023db612f7714409a2775",
          "blockHash": "0xea21cbb741d15bb2b750d9268f4ffc5f5e5290da4c21a661af7b54d7d3a44a39",
          "blockNumber": "0x2c66ab0",
          "transactionHash": "0x8c588e454355a0214cbec318ae7fe237357a4be9a5082b840ed64a63fb7ea411",
          "transactionIndex": "0x10",
          "logIndex": "0x2b",
          "removed": false
        }
      ],
      "status": "0x1",
      "logsBloom": "0x00000000000000020000000000000000000000000000000000100000000000000000000000000000000000000000000000008000200000000800000000000000000000000000000000000000000000800000800000000000000100000000000000000000000000000000000000000000000000000000004080000000000000000000000000000020000000000000000000000000000000000000000000000000200000000000000020000000000000000011000000000000000002000000004000000000000000000001000000000000000000000000000000140000000000000000000000000000000000000000000000000000000000000000000000100000",
      "type": "0x2",
      "effectiveGasPrice": "0x82252b276"
    }
  ],
  "libraries": [],
  "pending": [],
  "returns": {},
  "timestamp": 1709351062,
  "chain": 80001,
  "multi": false,
  "commit": "01c9989"
}