{
  "transactions": [
    {
      "hash": "0x73229608bf526448390731e15404f5db8260e85d189f50cef6c92ab99154522f",
      "transactionType": "CALL",
      "contractName": "MocaOFT",
      "contractAddress": "0x0EB26b982341c37A02812738C6c10EB0b66ef4F7",
      "function": "setOutboundLimit(uint32,uint256)",
      "arguments": [
        "40161",
        "10000000000000000000"
      ],
      "transaction": {
        "type": "0x02",
        "from": "0xde05a1abb121113a33eed248bd91ddc254d5e9db",
        "to": "0x0eb26b982341c37a02812738c6c10eb0b66ef4f7",
        "gas": "0x100f0",
        "value": "0x0",
        "data": "0x65d28a6b0000000000000000000000000000000000000000000000000000000000009ce10000000000000000000000000000000000000000000000008ac7230489e80000",
        "nonce": "0x51",
        "accessList": []
      },
      "additionalContracts": [],
      "isFixedGasLimit": false
    },
    {
      "hash": "0x8f4122f3978747d2b9c2d9a0aa8b5c61a4468eb31f46a847a20f08ff6773237c",
      "transactionType": "CALL",
      "contractName": "MocaOFT",
      "contractAddress": "0x0EB26b982341c37A02812738C6c10EB0b66ef4F7",
      "function": "setInboundLimit(uint32,uint256)",
      "arguments": [
        "40161",
        "10000000000000000000"
      ],
      "transaction": {
        "type": "0x02",
        "from": "0xde05a1abb121113a33eed248bd91ddc254d5e9db",
        "to": "0x0eb26b982341c37a02812738c6c10eb0b66ef4f7",
        "gas": "0x1104f",
        "value": "0x0",
        "data": "0x9a2fe9e40000000000000000000000000000000000000000000000000000000000009ce10000000000000000000000000000000000000000000000008ac7230489e80000",
        "nonce": "0x52",
        "accessList": []
      },
      "additionalContracts": [],
      "isFixedGasLimit": false
    }
  ],
  "receipts": [
    {
      "transactionHash": "0x73229608bf526448390731e15404f5db8260e85d189f50cef6c92ab99154522f",
      "transactionIndex": "0x2",
      "blockHash": "0xb6aa250a1d538fe3817f2a2aeaf569f88a8e5e758a58ea21757caad56b064772",
      "blockNumber": "0x2d2cea2",
      "from": "0xdE05a1Abb121113a33eeD248BD91ddC254d5E9Db",
      "to": "0x0EB26b982341c37A02812738C6c10EB0b66ef4F7",
      "cumulativeGasUsed": "0x256e0",
      "gasUsed": "0xba05",
      "contractAddress": null,
      "logs": [
        {
          "address": "0x0EB26b982341c37A02812738C6c10EB0b66ef4F7",
          "topics": [
            "0x7628c1599617e8f71acfbf363d8064a2a32bdb6e63e074de3250cab57047bf79",
            "0x0000000000000000000000000000000000000000000000000000000000009ce1"
          ],
          "data": "0x0000000000000000000000000000000000000000000000008ac7230489e80000",
          "blockHash": "0xb6aa250a1d538fe3817f2a2aeaf569f88a8e5e758a58ea21757caad56b064772",
          "blockNumber": "0x2d2cea2",
          "transactionHash": "0x73229608bf526448390731e15404f5db8260e85d189f50cef6c92ab99154522f",
          "transactionIndex": "0x2",
          "logIndex": "0x4",
          "removed": false
        },
        {
          "address": "0x0000000000000000000000000000000000001010",
          "topics": [
            "0x4dfe1bbbcf077ddc3e01291eea2d5c70c2b422b415d95645b9adcfd678cb1d63",
            "0x0000000000000000000000000000000000000000000000000000000000001010",
            "0x000000000000000000000000de05a1abb121113a33eed248bd91ddc254d5e9db",
            "0x000000000000000000000000f903ba9e006193c1527bfbe65fe2123704ea3f99"
          ],
          "data": "0x00000000000000000000000000000000000000000000000000051354d7aa5c0000000000000000000000000000000000000000000000000019ee5696e83200970000000000000000000000000000000000000000000013c6cdb4aa817ee4740d00000000000000000000000000000000000000000000000019e943421087a4970000000000000000000000000000000000000000000013c6cdb9bdd6568ed00d",
          "blockHash": "0xb6aa250a1d538fe3817f2a2aeaf569f88a8e5e758a58ea21757caad56b064772",
          "blockNumber": "0x2d2cea2",
          "transactionHash": "0x73229608bf526448390731e15404f5db8260e85d189f50cef6c92ab99154522f",
          "transactionIndex": "0x2",
          "logIndex": "0x5",
          "removed": false
        }
      ],
      "status": "0x1",
      "logsBloom": "0x00000000000000000000000000000000000000000000000000100010000000000000000000000020000000000000000000008000000000000000000000000000000000000000000000000000000000800000040000000000000100000000800000000000000000000000000000800000000100100000004080000000000000000000000000000020000000000000000000000000000000000000000000000000200000000000000000000000000000000000000000000000000000000200004000000000000000000001000000080000000000000000008000100000001000000000000000000000000000000000000200000000000000000000000000100000",
      "type": "0x2",
      "effectiveGasPrice": "0x6fc23ac0f"
    },
    {
      "transactionHash": "0x8f4122f3978747d2b9c2d9a0aa8b5c61a4468eb31f46a847a20f08ff6773237c",
      "transactionIndex": "0x3",
      "blockHash": "0xb6aa250a1d538fe3817f2a2aeaf569f88a8e5e758a58ea21757caad56b064772",
      "blockNumber": "0x2d2cea2",
      "from": "0xdE05a1Abb121113a33eeD248BD91ddC254d5E9Db",
      "to": "0x0EB26b982341c37A02812738C6c10EB0b66ef4F7",
      "cumulativeGasUsed": "0x31112",
      "gasUsed": "0xba32",
      "contractAddress": null,
      "logs": [
        {
          "address": "0x0EB26b982341c37A02812738C6c10EB0b66ef4F7",
          "topics": [
            "0x9cc3784ef7ab64c61f0abf58d72c2a40ef45b319db540006be0aa3e4610b8433",
            "0x0000000000000000000000000000000000000000000000000000000000009ce1"
          ],
          "data": "0x0000000000000000000000000000000000000000000000008ac7230489e80000",
          "blockHash": "0xb6aa250a1d538fe3817f2a2aeaf569f88a8e5e758a58ea21757caad56b064772",
          "blockNumber": "0x2d2cea2",
          "transactionHash": "0x8f4122f3978747d2b9c2d9a0aa8b5c61a4468eb31f46a847a20f08ff6773237c",
          "transactionIndex": "0x3",
          "logIndex": "0x6",
          "removed": false
        },
        {
          "address": "0x0000000000000000000000000000000000001010",
          "topics": [
            "0x4dfe1bbbcf077ddc3e01291eea2d5c70c2b422b415d95645b9adcfd678cb1d63",
            "0x0000000000000000000000000000000000000000000000000000000000001010",
            "0x000000000000000000000000de05a1abb121113a33eed248bd91ddc254d5e9db",
            "0x000000000000000000000000f903ba9e006193c1527bfbe65fe2123704ea3f99"
          ],
          "data": "0x0000000000000000000000000000000000000000000000000005148f29ef980000000000000000000000000000000000000000000000000019e94342107cbe4c0000000000000000000000000000000000000000000013c6cdb9bdd6568ed00d00000000000000000000000000000000000000000000000019e42eb2e68d264c0000000000000000000000000000000000000000000013c6cdbed265807e680d",
          "blockHash": "0xb6aa250a1d538fe3817f2a2aeaf569f88a8e5e758a58ea21757caad56b064772",
          "blockNumber": "0x2d2cea2",
          "transactionHash": "0x8f4122f3978747d2b9c2d9a0aa8b5c61a4468eb31f46a847a20f08ff6773237c",
          "transactionIndex": "0x3",
          "logIndex": "0x7",
          "removed": false
        }
      ],
      "status": "0x1",
      "logsBloom": "0x00000000000000000000000000000000000000000000000000100010000000000000000000000020000000000000000000008000000000000001000000000000000000000000000000000000000000800000040000000000000100000000000000000000000000000000000000800000000100100000004080000000000000000000000000000020000000000000000000000000000000000000000000008000200000000000000004000000000000000000000000000000000000000200004000000000000000000001000000000000000000000000000000100000001000000000000000000000000000000000000200000000000000000000000000100000",
      "type": "0x2",
      "effectiveGasPrice": "0x6fc23ac0f"
    }
  ],
  "libraries": [],
  "pending": [],
  "returns": {},
  "timestamp": 1711161486,
  "chain": 80001,
  "commit": "847784f"
}