{
  "transactions": [
    {
      "hash": "0x46008fbd029203398eb6131ef51e8eb2648db02d49b7876c09564575d194775d",
      "transactionType": "CALL",
      "contractName": "MocaOFT",
      "contractAddress": "0x0EB26b982341c37A02812738C6c10EB0b66ef4F7",
      "function": "setPeer(uint32,bytes32)",
      "arguments": [
        "40161",
        "0x0000000000000000000000000000000000000000000000000000000000000000"
      ],
      "transaction": {
        "type": "0x02",
        "from": "0xde05a1abb121113a33eed248bd91ddc254d5e9db",
        "to": "0x0eb26b982341c37a02812738c6c10eb0b66ef4f7",
        "gas": "0x9213",
        "value": "0x0",
        "data": "0x3400288b0000000000000000000000000000000000000000000000000000000000009ce10000000000000000000000000000000000000000000000000000000000000000",
        "nonce": "0x58",
        "accessList": []
      },
      "additionalContracts": [],
      "isFixedGasLimit": false
    }
  ],
  "receipts": [
    {
      "transactionHash": "0x46008fbd029203398eb6131ef51e8eb2648db02d49b7876c09564575d194775d",
      "transactionIndex": "0x1",
      "blockHash": "0xd6ec550c44c6628d048422bfa14c5a668dd78ebe4927519bb98a0750fb18ae8c",
      "blockNumber": "0x2d2fe3d",
      "from": "0xdE05a1Abb121113a33eeD248BD91ddC254d5E9Db",
      "to": "0x0EB26b982341c37A02812738C6c10EB0b66ef4F7",
      "cumulativeGasUsed": "0xb5ea",
      "gasUsed": "0x63e2",
      "contractAddress": null,
      "logs": [
        {
          "address": "0x0EB26b982341c37A02812738C6c10EB0b66ef4F7",
          "topics": [
            "0x238399d427b947898edb290f5ff0f9109849b1c3ba196a42e35f00c50a54b98b"
          ],
          "data": "0x0000000000000000000000000000000000000000000000000000000000009ce10000000000000000000000000000000000000000000000000000000000000000",
          "blockHash": "0xd6ec550c44c6628d048422bfa14c5a668dd78ebe4927519bb98a0750fb18ae8c",
          "blockNumber": "0x2d2fe3d",
          "transactionHash": "0x46008fbd029203398eb6131ef51e8eb2648db02d49b7876c09564575d194775d",
          "transactionIndex": "0x1",
          "logIndex": "0x2",
          "removed": false
        },
        {
          "address": "0x0000000000000000000000000000000000001010",
          "topics": [
            "0x4dfe1bbbcf077ddc3e01291eea2d5c70c2b422b415d95645b9adcfd678cb1d63",
            "0x0000000000000000000000000000000000000000000000000000000000001010",
            "0x000000000000000000000000de05a1abb121113a33eed248bd91ddc254d5e9db",
            "0x0000000000000000000000005082f249cdb2f2c1ee035e4f423c46ea2dab3ab1"
          ],
          "data": "0x0000000000000000000000000000000000000000000000000002b9ac6301d80000000000000000000000000000000000000000000000000025ff9528ed8645ab0000000000000000000000000000000000000000000007e68d68a7076981200500000000000000000000000000000000000000000000000025fcdb7c8a846dab0000000000000000000000000000000000000000000007e68d6b60b3cc82f805",
          "blockHash": "0xd6ec550c44c6628d048422bfa14c5a668dd78ebe4927519bb98a0750fb18ae8c",
          "blockNumber": "0x2d2fe3d",
          "transactionHash": "0x46008fbd029203398eb6131ef51e8eb2648db02d49b7876c09564575d194775d",
          "transactionIndex": "0x1",
          "logIndex": "0x3",
          "removed": false
        }
      ],
      "status": "0x1",
      "logsBloom": "0x00000000000000000000000000000000000000000000000000100000020000000000000002000000000000000000000000008000000000000800000000000000000000000000000000000000000000800000040000000000000100000000000000000000000000000000000000000000000100000000004080000000000000000000000000000020000000000000000000000000000000000000000000000000200000000000000000000000000000000000000000000000000002000200004000000000000000000001000000000000000000000000000000140000000000000000000000000080000000000000000000000000000000000000000000100000",
      "type": "0x2",
      "effectiveGasPrice": "0x6fc23ac0f"
    }
  ],
  "libraries": [],
  "pending": [],
  "returns": {},
  "timestamp": 1711187873,
  "chain": 80001,
  "commit": "44d6322"
}