{
  "transactions": [
    {
      "hash": "0xb76b39c4026105803cd2067bcafa1d6459d887a30a96f30b98d6b5a568615a3b",
      "transactionType": "CALL",
      "contractName": "MocaOFT",
      "contractAddress": "0x8BB305DF680edA14E6b25b975Bf1a8831AcF69ab",
      "function": "setEnforcedOptions((uint32,uint16,bytes)[])",
      "arguments": [
        "[(40161, 1, 0x00030100110100000000000000000000000000030d40)]"
      ],
      "transaction": {
        "type": "0x02",
        "from": "0xde05a1abb121113a33eed248bd91ddc254d5e9db",
        "to": "0x8bb305df680eda14e6b25b975bf1a8831acf69ab",
        "gas": "0x12f2a",
        "value": "0x0",
        "data": "0xb98bd0700000000000000000000000000000000000000000000000000000000000000020000000000000000000000000000000000000000000000000000000000000000100000000000000000000000000000000000000000000000000000000000000200000000000000000000000000000000000000000000000000000000000009ce100000000000000000000000000000000000000000000000000000000000000010000000000000000000000000000000000000000000000000000000000000060000000000000000000000000000000000000000000000000000000000000001600030100110100000000000000000000000000030d4000000000000000000000",
        "nonce": "0x1a",
        "accessList": []
      },
      "additionalContracts": [],
      "isFixedGasLimit": false
    }
  ],
  "receipts": [
    {
      "transactionHash": "0xb76b39c4026105803cd2067bcafa1d6459d887a30a96f30b98d6b5a568615a3b",
      "transactionIndex": "0x1",
      "blockHash": "0x88fce9db0672a8260b33f61f480d92e4ed37b5a4914dbf704ca482de8278bbb5",
      "blockNumber": "0x2c4a355",
      "from": "0xdE05a1Abb121113a33eeD248BD91ddC254d5E9Db",
      "to": "0x8BB305DF680edA14E6b25b975Bf1a8831AcF69ab",
      "cumulativeGasUsed": "0x1fa0f",
      "gasUsed": "0xcf4b",
      "contractAddress": null,
      "logs": [
        {
          "address": "0x8BB305DF680edA14E6b25b975Bf1a8831AcF69ab",
          "topics": [
            "0xbe4864a8e820971c0247f5992e2da559595f7bf076a21cb5928d443d2a13b674"
          ],
          "data": "0x0000000000000000000000000000000000000000000000000000000000000020000000000000000000000000000000000000000000000000000000000000000100000000000000000000000000000000000000000000000000000000000000200000000000000000000000000000000000000000000000000000000000009ce100000000000000000000000000000000000000000000000000000000000000010000000000000000000000000000000000000000000000000000000000000060000000000000000000000000000000000000000000000000000000000000001600030100110100000000000000000000000000030d4000000000000000000000",
          "blockHash": "0x88fce9db0672a8260b33f61f480d92e4ed37b5a4914dbf704ca482de8278bbb5",
          "blockNumber": "0x2c4a355",
          "transactionHash": "0xb76b39c4026105803cd2067bcafa1d6459d887a30a96f30b98d6b5a568615a3b",
          "transactionIndex": "0x1",
          "logIndex": "0x3",
          "removed": false
        },
        {
          "address": "0x0000000000000000000000000000000000001010",
          "topics": [
            "0x4dfe1bbbcf077ddc3e01291eea2d5c70c2b422b415d95645b9adcfd678cb1d63",
            "0x0000000000000000000000000000000000000000000000000000000000001010",
            "0x000000000000000000000000de05a1abb121113a33eed248bd91ddc254d5e9db",
            "0x000000000000000000000000f903ba9e006193c1527bfbe65fe2123704ea3f99"
          ],
          "data": "0x0000000000000000000000000000000000000000000000000005a7ecb687640000000000000000000000000000000000000000000000000009fb51bee5f456a50000000000000000000000000000000000000000000013576b92bccbee5ed94500000000000000000000000000000000000000000000000009f5a9d22f6cf2a50000000000000000000000000000000000000000000013576b9864b8a4e63d45",
          "blockHash": "0x88fce9db0672a8260b33f61f480d92e4ed37b5a4914dbf704ca482de8278bbb5",
          "blockNumber": "0x2c4a355",
          "transactionHash": "0xb76b39c4026105803cd2067bcafa1d6459d887a30a96f30b98d6b5a568615a3b",
          "transactionIndex": "0x1",
          "logIndex": "0x4",
          "removed": false
        }
      ],
      "status": "0x1",
      "logsBloom": "0x00000000000000000000000000000000000000000000000000100010000000000000000000000020000000000000000000008000200000000000400000000000000000000000000000000000000000800000800000000000000100000000000000000000000000000000000000000000000000000000004080000000000000000000000000000020000000000000000000000000000000000000000000080000200000000000000000000000000000000010000000000000000000000000004000000000000000000001000002000000000000000000000000100000001000000000000000000000000000000000000000000000000000000000000000100000",
      "type": "0x2",
      "effectiveGasPrice": "0x6fc23ac0f"
    }
  ],
  "libraries": [],
  "pending": [],
  "returns": {},
  "timestamp": 1709096278,
  "chain": 80001,
  "multi": false,
  "commit": "e19d0a3"
}