{
  "transactions": [
    {
      "hash": "0x163ea0a1725d578736bb07214ce898f2b7eb1d4b5c916d1246b7eae893286d21",
      "transactionType": "CALL",
      "contractName": "MocaOFT",
      "contractAddress": "0x4b1ADc9Fe8b2C5BBD4373be4a4Efa1C97b1D0F04",
      "function": "setPeer(uint32,bytes32)",
      "arguments": [
        "40161",
        "0x000000000000000000000000cf44f1342947da99307366c601af1b442013fe52"
      ],
      "transaction": {
        "type": "0x02",
        "from": "0xde05a1abb121113a33eed248bd91ddc254d5e9db",
        "to": "0x4b1adc9fe8b2c5bbd4373be4a4efa1c97b1d0f04",
        "gas": "0x11ceb",
        "value": "0x0",
        "data": "0x3400288b0000000000000000000000000000000000000000000000000000000000009ce1000000000000000000000000cf44f1342947da99307366c601af1b442013fe52",
        "nonce": "0x26",
        "accessList": []
      },
      "additionalContracts": [],
      "isFixedGasLimit": false
    }
  ],
  "receipts": [
    {
      "transactionHash": "0x163ea0a1725d578736bb07214ce898f2b7eb1d4b5c916d1246b7eae893286d21",
      "transactionIndex": "0x3",
      "blockHash": "0x26f8b093870b24d6d77df9f1dd06e809ac4fc55abd68ff3df24d1dc1395c1b62",
      "blockNumber": "0x2ca948f",
      "from": "0xdE05a1Abb121113a33eeD248BD91ddC254d5E9Db",
      "to": "0x4b1ADc9Fe8b2C5BBD4373be4a4Efa1C97b1D0F04",
      "cumulativeGasUsed": "0xb0ea9",
      "gasUsed": "0xc2d1",
      "contractAddress": null,
      "logs": [
        {
          "address": "0x4b1ADc9Fe8b2C5BBD4373be4a4Efa1C97b1D0F04",
          "topics": [
            "0x238399d427b947898edb290f5ff0f9109849b1c3ba196a42e35f00c50a54b98b"
          ],
          "data": "0x0000000000000000000000000000000000000000000000000000000000009ce1000000000000000000000000cf44f1342947da99307366c601af1b442013fe52",
          "blockHash": "0x26f8b093870b24d6d77df9f1dd06e809ac4fc55abd68ff3df24d1dc1395c1b62",
          "blockNumber": "0x2ca948f",
          "transactionHash": "0x163ea0a1725d578736bb07214ce898f2b7eb1d4b5c916d1246b7eae893286d21",
          "transactionIndex": "0x3",
          "logIndex": "0x5",
          "removed": false
        },
        {
          "address": "0x0000000000000000000000000000000000001010",
          "topics": [
            "0x4dfe1bbbcf077ddc3e01291eea2d5c70c2b422b415d95645b9adcfd678cb1d63",
            "0x0000000000000000000000000000000000000000000000000000000000001010",
            "0x000000000000000000000000de05a1abb121113a33eed248bd91ddc254d5e9db",
            "0x0000000000000000000000005082f249cdb2f2c1ee035e4f423c46ea2dab3ab1"
          ],
          "data": "0x000000000000000000000000000000000000000000000000000550c6e1776c0000000000000000000000000000000000000000000000000018da5443c056fe3300000000000000000000000000000000000000000000074666db5240ec63cf2700000000000000000000000000000000000000000000000018d5037cdedf923300000000000000000000000000000000000000000000074666e0a307cddb3b27",
          "blockHash": "0x26f8b093870b24d6d77df9f1dd06e809ac4fc55abd68ff3df24d1dc1395c1b62",
          "blockNumber": "0x2ca948f",
          "transactionHash": "0x163ea0a1725d578736bb07214ce898f2b7eb1d4b5c916d1246b7eae893286d21",
          "transactionIndex": "0x3",
          "logIndex": "0x6",
          "removed": false
        }
      ],
      "status": "0x1",
      "logsBloom": "0x00000000000000000000000000000000000000000000000200100000020000000000000002000000000000000000000000008000008000000800000000000000000000000000000000000000000000800000000000000000000100000000000000000000000000000000000000000000000000000000004080000000000000000000000000000020000000000000000000000000000000000000000000000000200000000000000000000000000000000000000000000000000002000000004000000000000000000001000000000000000000000000000000140000000000000000000000000080000000000000004000000000000000000000000000100000",
      "type": "0x2",
      "effectiveGasPrice": "0x6fc23ac0f"
    }
  ],
  "libraries": [],
  "pending": [],
  "returns": {},
  "timestamp": 1709951787,
  "chain": 80001,
  "multi": false,
  "commit": "0fb095c"
}