{
  "transactions": [
    {
      "hash": "0xbd0d6c3f29995e95479571c264a1de46087e4b100683cbf5ebf80441efb30c08",
      "transactionType": "CALL",
      "contractName": "MocaOFT",
      "contractAddress": "0x0EB26b982341c37A02812738C6c10EB0b66ef4F7",
      "function": "setPeer(uint32,bytes32)",
      "arguments": [
        "40161",
        "0x00000000000000000000000012ef6fdb919f956f265955a8c112caebaec4b3d1"
      ],
      "transaction": {
        "type": "0x02",
        "from": "0xde05a1abb121113a33eed248bd91ddc254d5e9db",
        "to": "0x0eb26b982341c37a02812738c6c10eb0b66ef4f7",
        "gas": "0x1016a",
        "value": "0x0",
        "data": "0x3400288b0000000000000000000000000000000000000000000000000000000000009ce100000000000000000000000012ef6fdb919f956f265955a8c112caebaec4b3d1",
        "nonce": "0x4e",
        "accessList": []
      },
      "additionalContracts": [],
      "isFixedGasLimit": false
    }
  ],
  "receipts": [
    {
      "transactionHash": "0xbd0d6c3f29995e95479571c264a1de46087e4b100683cbf5ebf80441efb30c08",
      "transactionIndex": "0x0",
      "blockHash": "0x921c2def3e280785a440db477f01685eb3a9beb0a1458b9c0ada463e3347e2fd",
      "blockNumber": "0x2d2cd63",
      "from": "0xdE05a1Abb121113a33eeD248BD91ddC254d5E9Db",
      "to": "0x0EB26b982341c37A02812738C6c10EB0b66ef4F7",
      "cumulativeGasUsed": "0xba5e",
      "gasUsed": "0xba5e",
      "contractAddress": null,
      "logs": [
        {
          "address": "0x0EB26b982341c37A02812738C6c10EB0b66ef4F7",
          "topics": [
            "0x238399d427b947898edb290f5ff0f9109849b1c3ba196a42e35f00c50a54b98b"
          ],
          "data": "0x0000000000000000000000000000000000000000000000000000000000009ce100000000000000000000000012ef6fdb919f956f265955a8c112caebaec4b3d1",
          "blockHash": "0x921c2def3e280785a440db477f01685eb3a9beb0a1458b9c0ada463e3347e2fd",
          "blockNumber": "0x2d2cd63",
          "transactionHash": "0xbd0d6c3f29995e95479571c264a1de46087e4b100683cbf5ebf80441efb30c08",
          "transactionIndex": "0x0",
          "logIndex": "0x0",
          "removed": false
        },
        {
          "address": "0x0000000000000000000000000000000000001010",
          "topics": [
            "0x4dfe1bbbcf077ddc3e01291eea2d5c70c2b422b415d95645b9adcfd678cb1d63",
            "0x0000000000000000000000000000000000000000000000000000000000001010",
            "0x000000000000000000000000de05a1abb121113a33eed248bd91ddc254d5e9db",
            "0x0000000000000000000000005082f249cdb2f2c1ee035e4f423c46ea2dab3ab1"
          ],
          "data": "0x000000000000000000000000000000000000000000000000000515c28011280000000000000000000000000000000000000000000000000019ff4373142fc5560000000000000000000000000000000000000000000007e36d88ff03b889150000000000000000000000000000000000000000000000000019fa2db0941e9d560000000000000000000000000000000000000000000007e36d8e14c6389a3d00",
          "blockHash": "0x921c2def3e280785a440db477f01685eb3a9beb0a1458b9c0ada463e3347e2fd",
          "blockNumber": "0x2d2cd63",
          "transactionHash": "0xbd0d6c3f29995e95479571c264a1de46087e4b100683cbf5ebf80441efb30c08",
          "transactionIndex": "0x0",
          "logIndex": "0x1",
          "removed": false
        }
      ],
      "status": "0x1",
      "logsBloom": "0x00000000000000000000000000000000000000000000000000100000020000000000000002000000000000000000000000008000000000000800000000000000000000000000000000000000000000800000040000000000000100000000000000000000000000000000000000000000000100000000004080000000000000000000000000000020000000000000000000000000000000000000000000000000200000000000000000000000000000000000000000000000000002000200004000000000000000000001000000000000000000000000000000140000000000000000000000000080000000000000000000000000000000000000000000100000",
      "type": "0x2",
      "effectiveGasPrice": "0x6fc23ac0f"
    }
  ],
  "libraries": [],
  "pending": [],
  "returns": {},
  "timestamp": 1711160810,
  "chain": 80001,
  "commit": "847784f"
}