{
  "transactions": [
    {
      "hash": "0xe27189fce0f5528fbb05a1ca1369e2d35e4d8a161651a3a9cabaf1917d606d40",
      "transactionType": "CALL",
      "contractName": "MocaOFT",
      "contractAddress": "0xaa7A95e597a65EB06DaE4eD54f1b62e0535d9156",
      "function": "setEnforcedOptions((uint32,uint16,bytes)[])",
      "arguments": [
        "[(40161, 1, 0x00030100110100000000000000000000000000030d40), (40161, 2, 0x000301001303000000000000000000000000000000000000)]"
      ],
      "transaction": {
        "type": "0x02",
        "from": "0xde05a1abb121113a33eed248bd91ddc254d5e9db",
        "to": "0xaa7a95e597a65eb06dae4ed54f1b62e0535d9156",
        "gas": "0x1cba6",
        "value": "0x0",
        "data": "0xb98bd07000000000000000000000000000000000000000000000000000000000000000200000000000000000000000000000000000000000000000000000000000000002000000000000000000000000000000000000000000000000000000000000004000000000000000000000000000000000000000000000000000000000000000e00000000000000000000000000000000000000000000000000000000000009ce100000000000000000000000000000000000000000000000000000000000000010000000000000000000000000000000000000000000000000000000000000060000000000000000000000000000000000000000000000000000000000000001600030100110100000000000000000000000000030d40000000000000000000000000000000000000000000000000000000000000000000000000000000009ce10000000000000000000000000000000000000000000000000000000000000002000000000000000000000000000000000000000000000000000000000000006000000000000000000000000000000000000000000000000000000000000000180003010013030000000000000000000000000000000000000000000000000000",
        "nonce": "0x46",
        "accessList": []
      },
      "additionalContracts": [],
      "isFixedGasLimit": false
    }
  ],
  "receipts": [
    {
      "transactionHash": "0xe27189fce0f5528fbb05a1ca1369e2d35e4d8a161651a3a9cabaf1917d606d40",
      "transactionIndex": "0x2",
      "blockHash": "0x669f46f73af5b4a114dbd9d22f56f8a34d0c6846c2c187cb0ec147bf84728512",
      "blockNumber": "0x2cc89a8",
      "from": "0xdE05a1Abb121113a33eeD248BD91ddC254d5E9Db",
      "to": "0xaa7A95e597a65EB06DaE4eD54f1b62e0535d9156",
      "cumulativeGasUsed": "0x4aee6",
      "gasUsed": "0x13a4b",
      "contractAddress": null,
      "logs": [
        {
          "address": "0xaa7A95e597a65EB06DaE4eD54f1b62e0535d9156",
          "topics": [
            "0xbe4864a8e820971c0247f5992e2da559595f7bf076a21cb5928d443d2a13b674"
          ],
          "data": "0x00000000000000000000000000000000000000000000000000000000000000200000000000000000000000000000000000000000000000000000000000000002000000000000000000000000000000000000000000000000000000000000004000000000000000000000000000000000000000000000000000000000000000e00000000000000000000000000000000000000000000000000000000000009ce100000000000000000000000000000000000000000000000000000000000000010000000000000000000000000000000000000000000000000000000000000060000000000000000000000000000000000000000000000000000000000000001600030100110100000000000000000000000000030d40000000000000000000000000000000000000000000000000000000000000000000000000000000009ce10000000000000000000000000000000000000000000000000000000000000002000000000000000000000000000000000000000000000000000000000000006000000000000000000000000000000000000000000000000000000000000000180003010013030000000000000000000000000000000000000000000000000000",
          "blockHash": "0x669f46f73af5b4a114dbd9d22f56f8a34d0c6846c2c187cb0ec147bf84728512",
          "blockNumber": "0x2cc89a8",
          "transactionHash": "0xe27189fce0f5528fbb05a1ca1369e2d35e4d8a161651a3a9cabaf1917d606d40",
          "transactionIndex": "0x2",
          "logIndex": "0x9",
          "removed": false
        },
        {
          "address": "0x0000000000000000000000000000000000001010",
          "topics": [
            "0x4dfe1bbbcf077ddc3e01291eea2d5c70c2b422b415d95645b9adcfd678cb1d63",
            "0x0000000000000000000000000000000000000000000000000000000000001010",
            "0x000000000000000000000000de05a1abb121113a33eed248bd91ddc254d5e9db",
            "0x000000000000000000000000f903ba9e006193c1527bfbe65fe2123704ea3f99"
          ],
          "data": "0x0000000000000000000000000000000000000000000000000008934f9f6b64000000000000000000000000000000000000000000000000001bcbee661b98ee8b00000000000000000000000000000000000000000000139bef374e496fc497770000000000000000000000000000000000000000000000001bc35b167c2d8a8b00000000000000000000000000000000000000000000139bef3fe1990f2ffb77",
          "blockHash": "0x669f46f73af5b4a114dbd9d22f56f8a34d0c6846c2c187cb0ec147bf84728512",
          "blockNumber": "0x2cc89a8",
          "transactionHash": "0xe27189fce0f5528fbb05a1ca1369e2d35e4d8a161651a3a9cabaf1917d606d40",
          "transactionIndex": "0x2",
          "logIndex": "0xa",
          "removed": false
        }
      ],
      "status": "0x1",
      "logsBloom": "0x00000000000000000000000000000000000000000000000000100010000000000000000000000020000000000000000000008000000000000000400000000000000000000000000000000000000000800000000000000000000100000400000000020000000000000000000000000000000000000000004080000000000000000000000000000820000000000000000000000000000000000000000000080000200000000000000000000000000000000000000000000000000000000000004000000000000000000001000002000000000000000000000000100000001000000000000000000000000000000000000000000000000000000000000000100000",
      "type": "0x2",
      "effectiveGasPrice": "0x6fc23ac10"
    }
  ],
  "libraries": [],
  "pending": [],
  "returns": {},
  "timestamp": 1710242861,
  "chain": 80001,
  "multi": false,
  "commit": "88dccd9"
}