{
  "transactions": [
    {
      "hash": "0x7850b143e6faa93ec539ad9688d1b019abae658c2d982c625d6b9bdd8e0b3706",
      "transactionType": "CALL",
      "contractName": "MocaOFT",
      "contractAddress": "0xaa7A95e597a65EB06DaE4eD54f1b62e0535d9156",
      "function": "setPeer(uint32,bytes32)",
      "arguments": [
        "40161",
        "0x0000000000000000000000005a9962874aca3b407aceb14f64c7ef2c6255c880"
      ],
      "transaction": {
        "type": "0x02",
        "from": "0xde05a1abb121113a33eed248bd91ddc254d5e9db",
        "to": "0xaa7a95e597a65eb06dae4ed54f1b62e0535d9156",
        "gas": "0x10cd9",
        "value": "0x0",
        "data": "0x3400288b0000000000000000000000000000000000000000000000000000000000009ce10000000000000000000000005a9962874aca3b407aceb14f64c7ef2c6255c880",
        "nonce": "0x45",
        "accessList": []
      },
      "additionalContracts": [],
      "isFixedGasLimit": false
    }
  ],
  "receipts": [
    {
      "transactionHash": "0x7850b143e6faa93ec539ad9688d1b019abae658c2d982c625d6b9bdd8e0b3706",
      "transactionIndex": "0x5",
      "blockHash": "0xf50ce52db1f2d0f9d7f04496b58fcb49f9d41f0e576f25a791627b58761a33fe",
      "blockNumber": "0x2cc897f",
      "from": "0xdE05a1Abb121113a33eeD248BD91ddC254d5E9Db",
      "to": "0xaa7A95e597a65EB06DaE4eD54f1b62e0535d9156",
      "cumulativeGasUsed": "0x24f3b1",
      "gasUsed": "0xc2a5",
      "contractAddress": null,
      "logs": [
        {
          "address": "0xaa7A95e597a65EB06DaE4eD54f1b62e0535d9156",
          "topics": [
            "0x238399d427b947898edb290f5ff0f9109849b1c3ba196a42e35f00c50a54b98b"
          ],
          "data": "0x0000000000000000000000000000000000000000000000000000000000009ce10000000000000000000000005a9962874aca3b407aceb14f64c7ef2c6255c880",
          "blockHash": "0xf50ce52db1f2d0f9d7f04496b58fcb49f9d41f0e576f25a791627b58761a33fe",
          "blockNumber": "0x2cc897f",
          "transactionHash": "0x7850b143e6faa93ec539ad9688d1b019abae658c2d982c625d6b9bdd8e0b3706",
          "transactionIndex": "0x5",
          "logIndex": "0xf",
          "removed": false
        },
        {
          "address": "0x0000000000000000000000000000000000001010",
          "topics": [
            "0x4dfe1bbbcf077ddc3e01291eea2d5c70c2b422b415d95645b9adcfd678cb1d63",
            "0x0000000000000000000000000000000000000000000000000000000000001010",
            "0x000000000000000000000000de05a1abb121113a33eed248bd91ddc254d5e9db",
            "0x0000000000000000000000004ce0f825810371ea57fbcba98b2be98e730c10df"
          ],
          "data": "0x00000000000000000000000000000000000000000000000000054f938b55dc000000000000000000000000000000000000000000000000001bd13df9a6fa32360000000000000000000000000000000000000000000000ca670dbaeb50611bdc0000000000000000000000000000000000000000000000001bcbee661ba456360000000000000000000000000000000000000000000000ca67130a7edbb6f7dc",
          "blockHash": "0xf50ce52db1f2d0f9d7f04496b58fcb49f9d41f0e576f25a791627b58761a33fe",
          "blockNumber": "0x2cc897f",
          "transactionHash": "0x7850b143e6faa93ec539ad9688d1b019abae658c2d982c625d6b9bdd8e0b3706",
          "transactionIndex": "0x5",
          "logIndex": "0x10",
          "removed": false
        }
      ],
      "status": "0x1",
      "logsBloom": "0x00000000000000000000000000000000000000000000000000100000000000000000000000000000000000000000000000008000000000000800000000000000000000000000000000000000000000800000000000000000000100000400000000020000000000000000000000000000000004000000004080000000000000000000000000000820000000000000000000000000000000000000000000000000200000000000000000000000000000000000000040000000000002000000004000000000000000000001000000000000000000000000000000140000001000000000000000000000000000000000000000000000000000000000000000100000",
      "type": "0x2",
      "effectiveGasPrice": "0x6fc23ac0f"
    }
  ],
  "libraries": [],
  "pending": [],
  "returns": {},
  "timestamp": 1710242750,
  "chain": 80001,
  "multi": false,
  "commit": "88dccd9"
}