{
  "transactions": [
    {
      "hash": "0x3d33f0c037d66aa024b649114b129d93c541b548f5614cc94c8627442b6ed91b",
      "transactionType": "CALL",
      "contractName": "MocaOFT",
      "contractAddress": "0x8c979EF6a647c91F56654580f1C740c9f047edb2",
      "function": "setOutboundCap(uint32,uint256)",
      "arguments": [
        "40161",
        "10000000000000000000"
      ],
      "transaction": {
        "type": "0x02",
        "from": "0xde05a1abb121113a33eed248bd91ddc254d5e9db",
        "to": "0x8c979ef6a647c91f56654580f1c740c9f047edb2",
        "gas": "0x10ff1",
        "value": "0x0",
        "data": "0x048849750000000000000000000000000000000000000000000000000000000000009ce10000000000000000000000000000000000000000000000008ac7230489e80000",
        "nonce": "0x36",
        "accessList": []
      },
      "additionalContracts": [],
      "isFixedGasLimit": false
    },
    {
      "hash": "0x003d169b7223d8ac5b35b1e2ebd3b591aaa55a3d189622aef0356683bc76e27d",
      "transactionType": "CALL",
      "contractName": "MocaOFT",
      "contractAddress": "0x8c979EF6a647c91F56654580f1C740c9f047edb2",
      "function": "setInboundCap(uint32,uint256)",
      "arguments": [
        "40161",
        "10000000000000000000"
      ],
      "transaction": {
        "type": "0x02",
        "from": "0xde05a1abb121113a33eed248bd91ddc254d5e9db",
        "to": "0x8c979ef6a647c91f56654580f1c740c9f047edb2",
        "gas": "0x10ff0",
        "value": "0x0",
        "data": "0x256008550000000000000000000000000000000000000000000000000000000000009ce10000000000000000000000000000000000000000000000008ac7230489e80000",
        "nonce": "0x37",
        "accessList": []
      },
      "additionalContracts": [],
      "isFixedGasLimit": false
    }
  ],
  "receipts": [
    {
      "transactionHash": "0x3d33f0c037d66aa024b649114b129d93c541b548f5614cc94c8627442b6ed91b",
      "transactionIndex": "0x2",
      "blockHash": "0x81f3549e2641f36c97e609eaf608246d310dd6ed876efbc865443e23da57204d",
      "blockNumber": "0x2ca9c3e",
      "from": "0xdE05a1Abb121113a33eeD248BD91ddC254d5E9Db",
      "to": "0x8c979EF6a647c91F56654580f1C740c9f047edb2",
      "cumulativeGasUsed": "0x3dbad",
      "gasUsed": "0xb9f2",
      "contractAddress": null,
      "logs": [
        {
          "address": "0x8c979EF6a647c91F56654580f1C740c9f047edb2",
          "topics": [
            "0x7628c1599617e8f71acfbf363d8064a2a32bdb6e63e074de3250cab57047bf79",
            "0x0000000000000000000000000000000000000000000000000000000000009ce1"
          ],
          "data": "0x0000000000000000000000000000000000000000000000008ac7230489e80000",
          "blockHash": "0x81f3549e2641f36c97e609eaf608246d310dd6ed876efbc865443e23da57204d",
          "blockNumber": "0x2ca9c3e",
          "transactionHash": "0x3d33f0c037d66aa024b649114b129d93c541b548f5614cc94c8627442b6ed91b",
          "transactionIndex": "0x2",
          "logIndex": "0x4",
          "removed": false
        },
        {
          "address": "0x0000000000000000000000000000000000001010",
          "topics": [
            "0x4dfe1bbbcf077ddc3e01291eea2d5c70c2b422b415d95645b9adcfd678cb1d63",
            "0x0000000000000000000000000000000000000000000000000000000000001010",
            "0x000000000000000000000000de05a1abb121113a33eed248bd91ddc254d5e9db",
            "0x000000000000000000000000c275dc8be39f50d12f66b6a63629c39da5bae5bd"
          ],
          "data": "0x000000000000000000000000000000000000000000000000000512d02104980000000000000000000000000000000000000000000000000012e53fb1007330c300000000000000000000000000000000000000000000148ae541f28213057a9100000000000000000000000000000000000000000000000012e02ce0df6e98c300000000000000000000000000000000000000000000148ae5470552340a1291",
          "blockHash": "0x81f3549e2641f36c97e609eaf608246d310dd6ed876efbc865443e23da57204d",
          "blockNumber": "0x2ca9c3e",
          "transactionHash": "0x3d33f0c037d66aa024b649114b129d93c541b548f5614cc94c8627442b6ed91b",
          "transactionIndex": "0x2",
          "logIndex": "0x5",
          "removed": false
        }
      ],
      "status": "0x1",
      "logsBloom": "0x00000000000000000000000000000000000000000000000000100000000000000000000000000000000000000000000000008000002000000000000000000000000000000000000000000000000000800000002000000000040100000000800000000000000000000000001000800000000000100000004080000000000000000000000000000020000000000000000000000000000000000000000000000000200000000000000000000000000000000000000000000000000040000001004000000000000000000001000000080000000000000000008000100000000000000000000000000000000000000000000200000000000000000000000000100000",
      "type": "0x2",
      "effectiveGasPrice": "0x6fc23ac0f"
    },
    {
      "transactionHash": "0x003d169b7223d8ac5b35b1e2ebd3b591aaa55a3d189622aef0356683bc76e27d",
      "transactionIndex": "0x3",
      "blockHash": "0x81f3549e2641f36c97e609eaf608246d310dd6ed876efbc865443e23da57204d",
      "blockNumber": "0x2ca9c3e",
      "from": "0xdE05a1Abb121113a33eeD248BD91ddC254d5E9Db",
      "to": "0x8c979EF6a647c91F56654580f1C740c9f047edb2",
      "cumulativeGasUsed": "0x4959e",
      "gasUsed": "0xb9f1",
      "contractAddress": null,
      "logs": [
        {
          "address": "0x8c979EF6a647c91F56654580f1C740c9f047edb2",
          "topics": [
            "0x9cc3784ef7ab64c61f0abf58d72c2a40ef45b319db540006be0aa3e4610b8433",
            "0x0000000000000000000000000000000000000000000000000000000000009ce1"
          ],
          "data": "0x0000000000000000000000000000000000000000000000008ac7230489e80000",
          "blockHash": "0x81f3549e2641f36c97e609eaf608246d310dd6ed876efbc865443e23da57204d",
          "blockNumber": "0x2ca9c3e",
          "transactionHash": "0x003d169b7223d8ac5b35b1e2ebd3b591aaa55a3d189622aef0356683bc76e27d",
          "transactionIndex": "0x3",
          "logIndex": "0x6",
          "removed": false
        },
        {
          "address": "0x0000000000000000000000000000000000001010",
          "topics": [
            "0x4dfe1bbbcf077ddc3e01291eea2d5c70c2b422b415d95645b9adcfd678cb1d63",
            "0x0000000000000000000000000000000000000000000000000000000000001010",
            "0x000000000000000000000000de05a1abb121113a33eed248bd91ddc254d5e9db",
            "0x000000000000000000000000c275dc8be39f50d12f66b6a63629c39da5bae5bd"
          ],
          "data": "0x000000000000000000000000000000000000000000000000000512c924e0ec0000000000000000000000000000000000000000000000000012e02ce0df63b39500000000000000000000000000000000000000000000148ae5470552340a129100000000000000000000000000000000000000000000000012db1a17ba82c79500000000000000000000000000000000000000000000148ae54c181b58eafe91",
          "blockHash": "0x81f3549e2641f36c97e609eaf608246d310dd6ed876efbc865443e23da57204d",
          "blockNumber": "0x2ca9c3e",
          "transactionHash": "0x003d169b7223d8ac5b35b1e2ebd3b591aaa55a3d189622aef0356683bc76e27d",
          "transactionIndex": "0x3",
          "logIndex": "0x7",
          "removed": false
        }
      ],
      "status": "0x1",
      "logsBloom": "0x00000000000000000000000000000000000000000000000000100000000000000000000000000000000000000000000000008000002000000001000000000000000000000000000000000000000000800000002000000000040100000000000000000000000000000000001000800000000000100000004080000000000000000000000000000020000000000000000000000000000000000000000000008000200000000000000004000000000000000000000000000000000040000001004000000000000000000001000000000000000000000000000000100000000000000000000000000000000000000000000200000000000000000000000000100000",
      "type": "0x2",
      "effectiveGasPrice": "0x6fc23ac0f"
    }
  ],
  "libraries": [],
  "pending": [],
  "returns": {},
  "timestamp": 1709955967,
  "chain": 80001,
  "multi": false,
  "commit": "0fb095c"
}