{
  "transactions": [
    {
      "hash": "0xdb03817c219346c09dbd093318ef74e1244b232d8022dbfd4c74df124b54e91a",
      "transactionType": "CALL",
      "contractName": "MocaOFT",
      "contractAddress": "0xaa7A95e597a65EB06DaE4eD54f1b62e0535d9156",
      "function": "setOutboundLimit(uint32,uint256)",
      "arguments": [
        "40161",
        "10000000000000000000"
      ],
      "transaction": {
        "type": "0x02",
        "from": "0xde05a1abb121113a33eed248bd91ddc254d5e9db",
        "to": "0xaa7a95e597a65eb06dae4ed54f1b62e0535d9156",
        "gas": "0x100d0",
        "value": "0x0",
        "data": "0x65d28a6b0000000000000000000000000000000000000000000000000000000000009ce10000000000000000000000000000000000000000000000008ac7230489e80000",
        "nonce": "0x47",
        "accessList": []
      },
      "additionalContracts": [],
      "isFixedGasLimit": false
    },
    {
      "hash": "0xcbce69a09a90a957bc49a26fb9631eeb8f74a8f150e8bf45ee882f40a96a46ad",
      "transactionType": "CALL",
      "contractName": "MocaOFT",
      "contractAddress": "0xaa7A95e597a65EB06DaE4eD54f1b62e0535d9156",
      "function": "setInboundLimit(uint32,uint256)",
      "arguments": [
        "40161",
        "10000000000000000000"
      ],
      "transaction": {
        "type": "0x02",
        "from": "0xde05a1abb121113a33eed248bd91ddc254d5e9db",
        "to": "0xaa7a95e597a65eb06dae4ed54f1b62e0535d9156",
        "gas": "0x1104f",
        "value": "0x0",
        "data": "0x9a2fe9e40000000000000000000000000000000000000000000000000000000000009ce10000000000000000000000000000000000000000000000008ac7230489e80000",
        "nonce": "0x48",
        "accessList": []
      },
      "additionalContracts": [],
      "isFixedGasLimit": false
    }
  ],
  "receipts": [
    {
      "transactionHash": "0xdb03817c219346c09dbd093318ef74e1244b232d8022dbfd4c74df124b54e91a",
      "transactionIndex": "0x0",
      "blockHash": "0x07851ab44c786c5875d31a69a581868d6d65f7c5a414f7a4dc5596fdda420b4e",
      "blockNumber": "0x2cc89be",
      "from": "0xdE05a1Abb121113a33eeD248BD91ddC254d5E9Db",
      "to": "0xaa7A95e597a65EB06DaE4eD54f1b62e0535d9156",
      "cumulativeGasUsed": "0xb9ef",
      "gasUsed": "0xb9ef",
      "contractAddress": null,
      "logs": [
        {
          "address": "0xaa7A95e597a65EB06DaE4eD54f1b62e0535d9156",
          "topics": [
            "0x7628c1599617e8f71acfbf363d8064a2a32bdb6e63e074de3250cab57047bf79",
            "0x0000000000000000000000000000000000000000000000000000000000009ce1"
          ],
          "data": "0x0000000000000000000000000000000000000000000000008ac7230489e80000",
          "blockHash": "0x07851ab44c786c5875d31a69a581868d6d65f7c5a414f7a4dc5596fdda420b4e",
          "blockNumber": "0x2cc89be",
          "transactionHash": "0xdb03817c219346c09dbd093318ef74e1244b232d8022dbfd4c74df124b54e91a",
          "transactionIndex": "0x0",
          "logIndex": "0x0",
          "removed": false
        },
        {
          "address": "0x0000000000000000000000000000000000001010",
          "topics": [
            "0x4dfe1bbbcf077ddc3e01291eea2d5c70c2b422b415d95645b9adcfd678cb1d63",
            "0x0000000000000000000000000000000000000000000000000000000000001010",
            "0x000000000000000000000000de05a1abb121113a33eed248bd91ddc254d5e9db",
            "0x000000000000000000000000be188d6641e8b680743a4815dfa0f6208038960f"
          ],
          "data": "0x000000000000000000000000000000000000000000000000000512bb2c9994000000000000000000000000000000000000000000000000001bc35b167c19e5db0000000000000000000000000000000000000000000036ca4102af35eaa704210000000000000000000000000000000000000000000000001bbe485b4f8051db0000000000000000000000000000000000000000000036ca4107c1f117409821",
          "blockHash": "0x07851ab44c786c5875d31a69a581868d6d65f7c5a414f7a4dc5596fdda420b4e",
          "blockNumber": "0x2cc89be",
          "transactionHash": "0xdb03817c219346c09dbd093318ef74e1244b232d8022dbfd4c74df124b54e91a",
          "transactionIndex": "0x0",
          "logIndex": "0x1",
          "removed": false
        }
      ],
      "status": "0x1",
      "logsBloom": "0x00000000000000000000000000000000000000000000000000100000000000000000000000000000000000000000000000008000000000000000000000000000000000000000000000000000000000800000000000000000000100000400804000020000000000000000000000800000000000100000004080000000000000000000000000000820000000000000000000000000000080000000000000000000200000000000000000000000000000000000000000000000000000000000004000000000000000000001000000080000000000000000008000100040000000000000000000000000000000000000000200000000000000000000000000100000",
      "type": "0x2",
      "effectiveGasPrice": "0x6fc23ac10"
    },
    {
      "transactionHash": "0xcbce69a09a90a957bc49a26fb9631eeb8f74a8f150e8bf45ee882f40a96a46ad",
      "transactionIndex": "0x1",
      "blockHash": "0x07851ab44c786c5875d31a69a581868d6d65f7c5a414f7a4dc5596fdda420b4e",
      "blockNumber": "0x2cc89be",
      "from": "0xdE05a1Abb121113a33eeD248BD91ddC254d5E9Db",
      "to": "0xaa7A95e597a65EB06DaE4eD54f1b62e0535d9156",
      "cumulativeGasUsed": "0x17421",
      "gasUsed": "0xba32",
      "contractAddress": null,
      "logs": [
        {
          "address": "0xaa7A95e597a65EB06DaE4eD54f1b62e0535d9156",
          "topics": [
            "0x9cc3784ef7ab64c61f0abf58d72c2a40ef45b319db540006be0aa3e4610b8433",
            "0x0000000000000000000000000000000000000000000000000000000000009ce1"
          ],
          "data": "0x0000000000000000000000000000000000000000000000008ac7230489e80000",
          "blockHash": "0x07851ab44c786c5875d31a69a581868d6d65f7c5a414f7a4dc5596fdda420b4e",
          "blockNumber": "0x2cc89be",
          "transactionHash": "0xcbce69a09a90a957bc49a26fb9631eeb8f74a8f150e8bf45ee882f40a96a46ad",
          "transactionIndex": "0x1",
          "logIndex": "0x2",
          "removed": false
        },
        {
          "address": "0x0000000000000000000000000000000000001010",
          "topics": [
            "0x4dfe1bbbcf077ddc3e01291eea2d5c70c2b422b415d95645b9adcfd678cb1d63",
            "0x0000000000000000000000000000000000000000000000000000000000001010",
            "0x000000000000000000000000de05a1abb121113a33eed248bd91ddc254d5e9db",
            "0x000000000000000000000000be188d6641e8b680743a4815dfa0f6208038960f"
          ],
          "data": "0x0000000000000000000000000000000000000000000000000005148f29ef98000000000000000000000000000000000000000000000000001bbe485b4f74b2eb0000000000000000000000000000000000000000000036ca4107c1f1174098210000000000000000000000000000000000000000000000001bb933cc25851aeb0000000000000000000000000000000000000000000036ca410cd68041303021",
          "blockHash": "0x07851ab44c786c5875d31a69a581868d6d65f7c5a414f7a4dc5596fdda420b4e",
          "blockNumber": "0x2cc89be",
          "transactionHash": "0xcbce69a09a90a957bc49a26fb9631eeb8f74a8f150e8bf45ee882f40a96a46ad",
          "transactionIndex": "0x1",
          "logIndex": "0x3",
          "removed": false
        }
      ],
      "status": "0x1",
      "logsBloom": "0x00000000000000000000000000000000000000000000000000100000000000000000000000000000000000000000000000008000000000000001000000000000000000000000000000000000000000800000000000000000000100000400004000020000000000000000000000800000000000100000004080000000000000000000000000000820000000000000000000000000000080000000000000008000200000000000000004000000000000000000000000000000000000000000004000000000000000000001000000000000000000000000000000100040000000000000000000000000000000000000000200000000000000000000000000100000",
      "type": "0x2",
      "effectiveGasPrice": "0x6fc23ac10"
    }
  ],
  "libraries": [],
  "pending": [],
  "returns": {},
  "timestamp": 1710242918,
  "chain": 80001,
  "multi": false,
  "commit": "88dccd9"
}