{
  "transactions": [
    {
      "hash": "0x7850b143e6faa93ec539ad9688d1b019abae658c2d982c625d6b9bdd8e0b3706",
      "transactionType": "CALL",
      "contractName": "MocaOFT",
      "contractAddress": "0xaa7A95e597a65EB06DaE4eD54f1b62e0535d9156",
      "function": "setPeer(uint32,bytes32)",
      "arguments": [
        "40161",
        "0x0000000000000000000000005a9962874aca3b407aceb14f64c7ef2c6255c880"
      ],
      "transaction": {
        "type": "0x02",
        "from": "0xde05a1abb121113a33eed248bd91ddc254d5e9db",
        "to": "0xaa7a95e597a65eb06dae4ed54f1b62e0535d9156",
        "gas": "0x10cd9",
        "value": "0x0",
        "data": "0x3400288b0000000000000000000000000000000000000000000000000000000000009ce10000000000000000000000005a9962874aca3b407aceb14f64c7ef2c6255c880",
        "nonce": "0x45",
        "accessList": []
      },
      "additionalContracts": [],
      "isFixedGasLimit": false
    }
  ],
  "receipts": [],
  "libraries": [],
  "pending": [
    "0x7850b143e6faa93ec539ad9688d1b019abae658c2d982c625d6b9bdd8e0b3706"
  ],
  "returns": {},
  "timestamp": 1710242743,
  "chain": 80001,
  "multi": false,
  "commit": "88dccd9"
}