{
  "transactions": [
    {
      "hash": "0x65928ba03ec005bedd65c7f7cdd68f2605b40ab54be238ee0c58e02819fbe441",
      "transactionType": "CALL",
      "contractName": "MocaOFT",
      "contractAddress": "0x0EB26b982341c37A02812738C6c10EB0b66ef4F7",
      "function": "setOutboundLimit(uint32,uint256)",
      "arguments": [
        "40161",
        "10000000000000000000"
      ],
      "transaction": {
        "type": "0x02",
        "from": "0xde05a1abb121113a33eed248bd91ddc254d5e9db",
        "to": "0x0eb26b982341c37a02812738c6c10eb0b66ef4f7",
        "gas": "0x9e5d",
        "value": "0x0",
        "data": "0x65d28a6b0000000000000000000000000000000000000000000000000000000000009ce10000000000000000000000000000000000000000000000008ac7230489e80000",
        "nonce": "0x5c",
        "accessList": []
      },
      "additionalContracts": [],
      "isFixedGasLimit": false
    },
    {
      "hash": "0xbcfe50c5a861fcd0a099b702fb5f010eac60d4e57f988e9a86a052c942439df9",
      "transactionType": "CALL",
      "contractName": "MocaOFT",
      "contractAddress": "0x0EB26b982341c37A02812738C6c10EB0b66ef4F7",
      "function": "setInboundLimit(uint32,uint256)",
      "arguments": [
        "40161",
        "10000000000000000000"
      ],
      "transaction": {
        "type": "0x02",
        "from": "0xde05a1abb121113a33eed248bd91ddc254d5e9db",
        "to": "0x0eb26b982341c37a02812738c6c10eb0b66ef4f7",
        "gas": "0x95cf",
        "value": "0x0",
        "data": "0x9a2fe9e40000000000000000000000000000000000000000000000000000000000009ce10000000000000000000000000000000000000000000000008ac7230489e80000",
        "nonce": "0x5d",
        "accessList": []
      },
      "additionalContracts": [],
      "isFixedGasLimit": false
    }
  ],
  "receipts": [
    {
      "transactionHash": "0x65928ba03ec005bedd65c7f7cdd68f2605b40ab54be238ee0c58e02819fbe441",
      "transactionIndex": "0x4",
      "blockHash": "0x44d7e00f080dd3db41fe126b36eb3542dadc4f388812756c33d3d43fc3000ffc",
      "blockNumber": "0x2d38950",
      "from": "0xdE05a1Abb121113a33eeD248BD91ddC254d5E9Db",
      "to": "0x0EB26b982341c37A02812738C6c10EB0b66ef4F7",
      "cumulativeGasUsed": "0x131289",
      "gasUsed": "0x6c49",
      "contractAddress": null,
      "logs": [
        {
          "address": "0x0EB26b982341c37A02812738C6c10EB0b66ef4F7",
          "topics": [
            "0x7628c1599617e8f71acfbf363d8064a2a32bdb6e63e074de3250cab57047bf79",
            "0x0000000000000000000000000000000000000000000000000000000000009ce1"
          ],
          "data": "0x0000000000000000000000000000000000000000000000008ac7230489e80000",
          "blockHash": "0x44d7e00f080dd3db41fe126b36eb3542dadc4f388812756c33d3d43fc3000ffc",
          "blockNumber": "0x2d38950",
          "transactionHash": "0x65928ba03ec005bedd65c7f7cdd68f2605b40ab54be238ee0c58e02819fbe441",
          "transactionIndex": "0x4",
          "logIndex": "0x9",
          "removed": false
        },
        {
          "address": "0x0000000000000000000000000000000000001010",
          "topics": [
            "0x4dfe1bbbcf077ddc3e01291eea2d5c70c2b422b415d95645b9adcfd678cb1d63",
            "0x0000000000000000000000000000000000000000000000000000000000001010",
            "0x000000000000000000000000de05a1abb121113a33eed248bd91ddc254d5e9db",
            "0x000000000000000000000000c275dc8be39f50d12f66b6a63629c39da5bae5bd"
          ],
          "data": "0x0000000000000000000000000000000000000000000000000002f45cf2bc0c0000000000000000000000000000000000000000000000000025f2dedc92c9d4430000000000000000000000000000000000000000000014bc5c92f6e615af8f0600000000000000000000000000000000000000000000000025efea7fa00dc8430000000000000000000000000000000000000000000014bc5c95eb43086b9b06",
          "blockHash": "0x44d7e00f080dd3db41fe126b36eb3542dadc4f388812756c33d3d43fc3000ffc",
          "blockNumber": "0x2d38950",
          "transactionHash": "0x65928ba03ec005bedd65c7f7cdd68f2605b40ab54be238ee0c58e02819fbe441",
          "transactionIndex": "0x4",
          "logIndex": "0xa",
          "removed": false
        }
      ],
      "status": "0x1",
      "logsBloom": "0x00000000000000000000000000000000000000000000000000100000000000000000000000000000000000000000000000008000002000000000000000000000000000000000000000000000000000800000040000000000040100000000800000000000000000000000000000800000000100100000004080000000000000000000000000000020000000000000000000000000000000000000000000000000200000000000000000000000000000000000000000000000000040000200004000000000000000000001000000080000000000000000008000100000000000000000000000000000000000000000000200000000000000000000000000100000",
      "type": "0x2",
      "effectiveGasPrice": "0x6fc23ac0f"
    },
    {
      "transactionHash": "0xbcfe50c5a861fcd0a099b702fb5f010eac60d4e57f988e9a86a052c942439df9",
      "transactionIndex": "0x5",
      "blockHash": "0xe59770a229ed557d9162f5f307ce9b80c90efe1851c5fe4b462bb226e5ff2fb8",
      "blockNumber": "0x2d38951",
      "from": "0xdE05a1Abb121113a33eeD248BD91ddC254d5E9Db",
      "to": "0x0EB26b982341c37A02812738C6c10EB0b66ef4F7",
      "cumulativeGasUsed": "0xb8b04",
      "gasUsed": "0x6c76",
      "contractAddress": null,
      "logs": [
        {
          "address": "0x0EB26b982341c37A02812738C6c10EB0b66ef4F7",
          "topics": [
            "0x9cc3784ef7ab64c61f0abf58d72c2a40ef45b319db540006be0aa3e4610b8433",
            "0x0000000000000000000000000000000000000000000000000000000000009ce1"
          ],
          "data": "0x0000000000000000000000000000000000000000000000008ac7230489e80000",
          "blockHash": "0xe59770a229ed557d9162f5f307ce9b80c90efe1851c5fe4b462bb226e5ff2fb8",
          "blockNumber": "0x2d38951",
          "transactionHash": "0xbcfe50c5a861fcd0a099b702fb5f010eac60d4e57f988e9a86a052c942439df9",
          "transactionIndex": "0x5",
          "logIndex": "0x15",
          "removed": false
        },
        {
          "address": "0x0000000000000000000000000000000000001010",
          "topics": [
            "0x4dfe1bbbcf077ddc3e01291eea2d5c70c2b422b415d95645b9adcfd678cb1d63",
            "0x0000000000000000000000000000000000000000000000000000000000001010",
            "0x000000000000000000000000de05a1abb121113a33eed248bd91ddc254d5e9db",
            "0x000000000000000000000000c275dc8be39f50d12f66b6a63629c39da5bae5bd"
          ],
          "data": "0x0000000000000000000000000000000000000000000000000002f5974501480000000000000000000000000000000000000000000000000025efea7fa0076ffc0000000000000000000000000000000000000000000014bc5e9b826403ae134b00000000000000000000000000000000000000000000000025ecf4e85b0627fc0000000000000000000000000000000000000000000014bc5e9e77fb48af5b4b",
          "blockHash": "0xe59770a229ed557d9162f5f307ce9b80c90efe1851c5fe4b462bb226e5ff2fb8",
          "blockNumber": "0x2d38951",
          "transactionHash": "0xbcfe50c5a861fcd0a099b702fb5f010eac60d4e57f988e9a86a052c942439df9",
          "transactionIndex": "0x5",
          "logIndex": "0x16",
          "removed": false
        }
      ],
      "status": "0x1",
      "logsBloom": "0x00000000000000000000000000000000000000000000000000100000000000000000000000000000000000000000000000008000002000000001000000000000000000000000000000000000000000800000040000000000040100000000000000000000000000000000000000800000000100100000004080000000000000000000000000000020000000000000000000000000000000000000000000008000200000000000000004000000000000000000000000000000000040000200004000000000000000000001000000000000000000000000000000100000000000000000000000000000000000000000000200000000000000000000000000100000",
      "type": "0x2",
      "effectiveGasPrice": "0x6fc23ac0f"
    }
  ],
  "libraries": [],
  "pending": [],
  "returns": {},
  "timestamp": 1711267652,
  "chain": 80001,
  "commit": "44d6322"
}