{
  "transactions": [
    {
      "hash": "0xdf8d571d2746ef1ea7f9550070b3b4f1cf12197480ff4867dd2700bfebac9fda",
      "transactionType": "CALL",
      "contractName": "MocaOFT",
      "contractAddress": "0x4b1ADc9Fe8b2C5BBD4373be4a4Efa1C97b1D0F04",
      "function": "setEnforcedOptions((uint32,uint16,bytes)[])",
      "arguments": [
        "[(40161, 1, 0x00030100110100000000000000000000000000030d40), (40161, 2, 0x000301001101000000000000000000000000000f4240)]"
      ],
      "transaction": {
        "type": "0x02",
        "from": "0xde05a1abb121113a33eed248bd91ddc254d5e9db",
        "to": "0x4b1adc9fe8b2c5bbd4373be4a4efa1c97b1d0f04",
        "gas": "0x1b24e",
        "value": "0x0",
        "data": "0xb98bd07000000000000000000000000000000000000000000000000000000000000000200000000000000000000000000000000000000000000000000000000000000002000000000000000000000000000000000000000000000000000000000000004000000000000000000000000000000000000000000000000000000000000000e00000000000000000000000000000000000000000000000000000000000009ce100000000000000000000000000000000000000000000000000000000000000010000000000000000000000000000000000000000000000000000000000000060000000000000000000000000000000000000000000000000000000000000001600030100110100000000000000000000000000030d40000000000000000000000000000000000000000000000000000000000000000000000000000000009ce1000000000000000000000000000000000000000000000000000000000000000200000000000000000000000000000000000000000000000000000000000000600000000000000000000000000000000000000000000000000000000000000016000301001101000000000000000000000000000f424000000000000000000000",
        "nonce": "0x28",
        "accessList": []
      },
      "additionalContracts": [],
      "isFixedGasLimit": false
    }
  ],
  "receipts": [],
  "libraries": [],
  "pending": [
    "0xdf8d571d2746ef1ea7f9550070b3b4f1cf12197480ff4867dd2700bfebac9fda"
  ],
  "returns": {},
  "timestamp": 1709952077,
  "chain": 80001,
  "multi": false,
  "commit": "0fb095c"
}