{
  "transactions": [
    {
      "hash": "0x30642b157d218cb75194f97ad2679d7a51b0379c223851b61925c5676872b241",
      "transactionType": "CALL",
      "contractName": "MocaOFT",
      "contractAddress": "0x0EB26b982341c37A02812738C6c10EB0b66ef4F7",
      "function": "setEnforcedOptions((uint32,uint16,bytes)[])",
      "arguments": [
        "[(40161, 1, 0x00030100110100000000000000000000000000030d40), (40161, 2, 0x000301001303000000000000000000000000000000000000)]"
      ],
      "transaction": {
        "type": "0x02",
        "from": "0xde05a1abb121113a33eed248bd91ddc254d5e9db",
        "to": "0x0eb26b982341c37a02812738c6c10eb0b66ef4f7",
        "gas": "0x1cbc7",
        "value": "0x0",
        "data": "0xb98bd07000000000000000000000000000000000000000000000000000000000000000200000000000000000000000000000000000000000000000000000000000000002000000000000000000000000000000000000000000000000000000000000004000000000000000000000000000000000000000000000000000000000000000e00000000000000000000000000000000000000000000000000000000000009ce100000000000000000000000000000000000000000000000000000000000000010000000000000000000000000000000000000000000000000000000000000060000000000000000000000000000000000000000000000000000000000000001600030100110100000000000000000000000000030d40000000000000000000000000000000000000000000000000000000000000000000000000000000009ce10000000000000000000000000000000000000000000000000000000000000002000000000000000000000000000000000000000000000000000000000000006000000000000000000000000000000000000000000000000000000000000000180003010013030000000000000000000000000000000000000000000000000000",
        "nonce": "0x50",
        "accessList": []
      },
      "additionalContracts": [],
      "isFixedGasLimit": false
    }
  ],
  "receipts": [
    {
      "transactionHash": "0x30642b157d218cb75194f97ad2679d7a51b0379c223851b61925c5676872b241",
      "transactionIndex": "0x0",
      "blockHash": "0x8b701183224169d16c99c7186d844802a3b29530af14a70b778c09be462f72af",
      "blockNumber": "0x2d2ce7f",
      "from": "0xdE05a1Abb121113a33eeD248BD91ddC254d5E9Db",
      "to": "0x0EB26b982341c37A02812738C6c10EB0b66ef4F7",
      "cumulativeGasUsed": "0x13a61",
      "gasUsed": "0x13a61",
      "contractAddress": null,
      "logs": [
        {
          "address": "0x0EB26b982341c37A02812738C6c10EB0b66ef4F7",
          "topics": [
            "0xbe4864a8e820971c0247f5992e2da559595f7bf076a21cb5928d443d2a13b674"
          ],
          "data": "0x00000000000000000000000000000000000000000000000000000000000000200000000000000000000000000000000000000000000000000000000000000002000000000000000000000000000000000000000000000000000000000000004000000000000000000000000000000000000000000000000000000000000000e00000000000000000000000000000000000000000000000000000000000009ce100000000000000000000000000000000000000000000000000000000000000010000000000000000000000000000000000000000000000000000000000000060000000000000000000000000000000000000000000000000000000000000001600030100110100000000000000000000000000030d40000000000000000000000000000000000000000000000000000000000000000000000000000000009ce10000000000000000000000000000000000000000000000000000000000000002000000000000000000000000000000000000000000000000000000000000006000000000000000000000000000000000000000000000000000000000000000180003010013030000000000000000000000000000000000000000000000000000",
          "blockHash": "0x8b701183224169d16c99c7186d844802a3b29530af14a70b778c09be462f72af",
          "blockNumber": "0x2d2ce7f",
          "transactionHash": "0x30642b157d218cb75194f97ad2679d7a51b0379c223851b61925c5676872b241",
          "transactionIndex": "0x0",
          "logIndex": "0x0",
          "removed": false
        },
        {
          "address": "0x0000000000000000000000000000000000001010",
          "topics": [
            "0x4dfe1bbbcf077ddc3e01291eea2d5c70c2b422b415d95645b9adcfd678cb1d63",
            "0x0000000000000000000000000000000000000000000000000000000000001010",
            "0x000000000000000000000000de05a1abb121113a33eed248bd91ddc254d5e9db",
            "0x00000000000000000000000022b64229c41429a023549fdab3385893b579327a"
          ],
          "data": "0x000000000000000000000000000000000000000000000000000893e94a7c2c0000000000000000000000000000000000000000000000000019f6ea8032c0984600000000000000000000000000000000000000000000008054e376c3024e353f00000000000000000000000000000000000000000000000019ee5696e8446c4600000000000000000000000000000000000000000000008054ec0aac4cca613f",
          "blockHash": "0x8b701183224169d16c99c7186d844802a3b29530af14a70b778c09be462f72af",
          "blockNumber": "0x2d2ce7f",
          "transactionHash": "0x30642b157d218cb75194f97ad2679d7a51b0379c223851b61925c5676872b241",
          "transactionIndex": "0x0",
          "logIndex": "0x1",
          "removed": false
        }
      ],
      "status": "0x1",
      "logsBloom": "0x00000000000000000000000000000000000000000000000000100000000000000000000000000000000000000000000000008000000000000000400000000000000000000000000000000000000000800000040000000000000100000000000000000000000000000000000000000000000100000000004080000000000000000000000000200020000000000000000000000000000000000000010000080000200000000000000000000000000000000000000000000000000000002200004000000000000000000001000002000000000000000000000000100000000000000000000000000000000000000000000000000000000000000000000000100000",
      "type": "0x2",
      "effectiveGasPrice": "0x6fc23ac0f"
    }
  ],
  "libraries": [],
  "pending": [],
  "returns": {},
  "timestamp": 1711161411,
  "chain": 80001,
  "commit": "847784f"
}