{
  "transactions": [
    {
      "hash": "0x20f9fe91aa7f681d48e18a63a34f5759501e5c1367c7dccec84563919e570c7b",
      "transactionType": "CALL",
      "contractName": "MocaOFT",
      "contractAddress": "0x7d7b79b59Ffb5c684a8baD8fB1729AAA27883DDe",
      "function": "setPeer(uint32,bytes32)",
      "arguments": [
        "40161",
        "0x000000000000000000000000c8011cb9cfca55b822e56dd048dc960abd6424ce"
      ],
      "transaction": {
        "type": "0x02",
        "from": "0xde05a1abb121113a33eed248bd91ddc254d5e9db",
        "to": "0x7d7b79b59ffb5c684a8bad8fb1729aaa27883dde",
        "gas": "0x1104f",
        "value": "0x0",
        "data": "0x3400288b0000000000000000000000000000000000000000000000000000000000009ce1000000000000000000000000c8011cb9cfca55b822e56dd048dc960abd6424ce",
        "nonce": "0x1c",
        "accessList": []
      },
      "additionalContracts": [],
      "isFixedGasLimit": false
    }
  ],
  "receipts": [],
  "libraries": [],
  "pending": [
    "0x20f9fe91aa7f681d48e18a63a34f5759501e5c1367c7dccec84563919e570c7b"
  ],
  "returns": {},
  "timestamp": 1709101716,
  "chain": 80001,
  "multi": false,
  "commit": "045a50e"
}