{
  "transactions": [
    {
      "hash": "0x7b7d16e7b649500f1e801a61e7e3b128ac2320dd5969aeec3264911f39759476",
      "transactionType": "CALL",
      "contractName": "MocaOFT",
      "contractAddress": "0xE415dCa40E5587AF6DeC72683a55ebEbA911Ba6e",
      "function": "setEnforcedOptions((uint32,uint16,bytes)[])",
      "arguments": [
        "[(40161, 1, 0x00030100110100000000000000000000000000030d40), (40161, 2, 0x000301001303000000000000000000000000000000000000)]"
      ],
      "transaction": {
        "type": "0x02",
        "from": "0xde05a1abb121113a33eed248bd91ddc254d5e9db",
        "to": "0xe415dca40e5587af6dec72683a55ebeba911ba6e",
        "gas": "0x1cbc7",
        "value": "0x0",
        "data": "0xb98bd07000000000000000000000000000000000000000000000000000000000000000200000000000000000000000000000000000000000000000000000000000000002000000000000000000000000000000000000000000000000000000000000004000000000000000000000000000000000000000000000000000000000000000e00000000000000000000000000000000000000000000000000000000000009ce100000000000000000000000000000000000000000000000000000000000000010000000000000000000000000000000000000000000000000000000000000060000000000000000000000000000000000000000000000000000000000000001600030100110100000000000000000000000000030d40000000000000000000000000000000000000000000000000000000000000000000000000000000009ce10000000000000000000000000000000000000000000000000000000000000002000000000000000000000000000000000000000000000000000000000000006000000000000000000000000000000000000000000000000000000000000000180003010013030000000000000000000000000000000000000000000000000000",
        "nonce": "0x55",
        "accessList": []
      },
      "additionalContracts": [],
      "isFixedGasLimit": false
    }
  ],
  "receipts": [
    {
      "transactionHash": "0x7b7d16e7b649500f1e801a61e7e3b128ac2320dd5969aeec3264911f39759476",
      "transactionIndex": "0x0",
      "blockHash": "0x64314bf07ee92b574bda7a48f7a6a86a5da1de09f6bc7b55be517ade7aceb7d8",
      "blockNumber": "0x2d2cf7b",
      "from": "0xdE05a1Abb121113a33eeD248BD91ddC254d5E9Db",
      "to": "0xE415dCa40E5587AF6DeC72683a55ebEbA911Ba6e",
      "cumulativeGasUsed": "0x13a61",
      "gasUsed": "0x13a61",
      "contractAddress": null,
      "logs": [
        {
          "address": "0xE415dCa40E5587AF6DeC72683a55ebEbA911Ba6e",
          "topics": [
            "0xbe4864a8e820971c0247f5992e2da559595f7bf076a21cb5928d443d2a13b674"
          ],
          "data": "0x00000000000000000000000000000000000000000000000000000000000000200000000000000000000000000000000000000000000000000000000000000002000000000000000000000000000000000000000000000000000000000000004000000000000000000000000000000000000000000000000000000000000000e00000000000000000000000000000000000000000000000000000000000009ce100000000000000000000000000000000000000000000000000000000000000010000000000000000000000000000000000000000000000000000000000000060000000000000000000000000000000000000000000000000000000000000001600030100110100000000000000000000000000030d40000000000000000000000000000000000000000000000000000000000000000000000000000000009ce10000000000000000000000000000000000000000000000000000000000000002000000000000000000000000000000000000000000000000000000000000006000000000000000000000000000000000000000000000000000000000000000180003010013030000000000000000000000000000000000000000000000000000",
          "blockHash": "0x64314bf07ee92b574bda7a48f7a6a86a5da1de09f6bc7b55be517ade7aceb7d8",
          "blockNumber": "0x2d2cf7b",
          "transactionHash": "0x7b7d16e7b649500f1e801a61e7e3b128ac2320dd5969aeec3264911f39759476",
          "transactionIndex": "0x0",
          "logIndex": "0x0",
          "removed": false
        },
        {
          "address": "0x0000000000000000000000000000000000001010",
          "topics": [
            "0x4dfe1bbbcf077ddc3e01291eea2d5c70c2b422b415d95645b9adcfd678cb1d63",
            "0x0000000000000000000000000000000000000000000000000000000000001010",
            "0x000000000000000000000000de05a1abb121113a33eed248bd91ddc254d5e9db",
            "0x0000000000000000000000005082f249cdb2f2c1ee035e4f423c46ea2dab3ab1"
          ],
          "data": "0x000000000000000000000000000000000000000000000000000893e94a7c2c00000000000000000000000000000000000000000000000000261250f639c4a0930000000000000000000000000000000000000000000007e3a0af5700ae677b520000000000000000000000000000000000000000000000002609bd0cef4874930000000000000000000000000000000000000000000007e3a0b7eae9f8e3a752",
          "blockHash": "0x64314bf07ee92b574bda7a48f7a6a86a5da1de09f6bc7b55be517ade7aceb7d8",
          "blockNumber": "0x2d2cf7b",
          "transactionHash": "0x7b7d16e7b649500f1e801a61e7e3b128ac2320dd5969aeec3264911f39759476",
          "transactionIndex": "0x0",
          "logIndex": "0x1",
          "removed": false
        }
      ],
      "status": "0x1",
      "logsBloom": "0x00000000000000000000000000000000000000000000000000100000020000000000000002000000000000000000000000008000000000000000400000000000000000000000000000000000000000800000000000000000000100000000000000000000000000000000000000000000000100000000004080000000000000000000000000000020000000000000000000000010000000000000000000080000200000000000000000000000000000000000000000000000000000000000004000000000000000000001000002000000000000010000000000100000000000000000000000000080000000000000000000000000000000000000000000100000",
      "type": "0x2",
      "effectiveGasPrice": "0x6fc23ac0f"
    }
  ],
  "libraries": [],
  "pending": [],
  "returns": {},
  "timestamp": 1711161951,
  "chain": 80001,
  "commit": "847784f"
}