{
  "transactions": [
    {
      "hash": "0x74874ebb0c40538a040bfded5ff820ae54f3bd75edca2d404bd74f62492ac658",
      "transactionType": "CALL",
      "contractName": "MocaOFT",
      "contractAddress": "0x1fA47369FCA4e2bc1054C3783682605604eE92aD",
      "function": "setEnforcedOptions((uint32,uint16,bytes)[])",
      "arguments": [
        "[(40161, 1, 0x00030100110100000000000000000000000000030d40), (40161, 2, 0x000301001303000000000000000000000000000000000000)]"
      ],
      "transaction": {
        "type": "0x02",
        "from": "0xde05a1abb121113a33eed248bd91ddc254d5e9db",
        "to": "0x1fa47369fca4e2bc1054c3783682605604ee92ad",
        "gas": "0xe847",
        "value": "0x0",
        "data": "0xb98bd07000000000000000000000000000000000000000000000000000000000000000200000000000000000000000000000000000000000000000000000000000000002000000000000000000000000000000000000000000000000000000000000004000000000000000000000000000000000000000000000000000000000000000e00000000000000000000000000000000000000000000000000000000000009ce100000000000000000000000000000000000000000000000000000000000000010000000000000000000000000000000000000000000000000000000000000060000000000000000000000000000000000000000000000000000000000000001600030100110100000000000000000000000000030d40000000000000000000000000000000000000000000000000000000000000000000000000000000009ce10000000000000000000000000000000000000000000000000000000000000002000000000000000000000000000000000000000000000000000000000000006000000000000000000000000000000000000000000000000000000000000000180003010013030000000000000000000000000000000000000000000000000000",
        "nonce": "0x3d",
        "accessList": []
      },
      "additionalContracts": [],
      "isFixedGasLimit": false
    }
  ],
  "receipts": [
    {
      "transactionHash": "0x74874ebb0c40538a040bfded5ff820ae54f3bd75edca2d404bd74f62492ac658",
      "transactionIndex": "0x0",
      "blockHash": "0xfccd87d2cc3ed959b5d1ab89da33acf7bed9313f9105dfd7bb7280ec38b327bb",
      "blockNumber": "0x2cc8726",
      "from": "0xdE05a1Abb121113a33eeD248BD91ddC254d5E9Db",
      "to": "0x1fA47369FCA4e2bc1054C3783682605604eE92aD",
      "cumulativeGasUsed": "0x9ed3",
      "gasUsed": "0x9ed3",
      "contractAddress": null,
      "logs": [
        {
          "address": "0x1fA47369FCA4e2bc1054C3783682605604eE92aD",
          "topics": [
            "0xbe4864a8e820971c0247f5992e2da559595f7bf076a21cb5928d443d2a13b674"
          ],
          "data": "0x00000000000000000000000000000000000000000000000000000000000000200000000000000000000000000000000000000000000000000000000000000002000000000000000000000000000000000000000000000000000000000000004000000000000000000000000000000000000000000000000000000000000000e00000000000000000000000000000000000000000000000000000000000009ce100000000000000000000000000000000000000000000000000000000000000010000000000000000000000000000000000000000000000000000000000000060000000000000000000000000000000000000000000000000000000000000001600030100110100000000000000000000000000030d40000000000000000000000000000000000000000000000000000000000000000000000000000000009ce10000000000000000000000000000000000000000000000000000000000000002000000000000000000000000000000000000000000000000000000000000006000000000000000000000000000000000000000000000000000000000000000180003010013030000000000000000000000000000000000000000000000000000",
          "blockHash": "0xfccd87d2cc3ed959b5d1ab89da33acf7bed9313f9105dfd7bb7280ec38b327bb",
          "blockNumber": "0x2cc8726",
          "transactionHash": "0x74874ebb0c40538a040bfded5ff820ae54f3bd75edca2d404bd74f62492ac658",
          "transactionIndex": "0x0",
          "logIndex": "0x0",
          "removed": false
        },
        {
          "address": "0x0000000000000000000000000000000000001010",
          "topics": [
            "0x4dfe1bbbcf077ddc3e01291eea2d5c70c2b422b415d95645b9adcfd678cb1d63",
            "0x0000000000000000000000000000000000000000000000000000000000001010",
            "0x000000000000000000000000de05a1abb121113a33eed248bd91ddc254d5e9db",
            "0x000000000000000000000000c275dc8be39f50d12f66b6a63629c39da5bae5bd"
          ],
          "data": "0x0000000000000000000000000000000000000000000000000004555fd58ec4000000000000000000000000000000000000000000000000001f2f256fed63b5ac0000000000000000000000000000000000000000000014947b40a8c6458f67c20000000000000000000000000000000000000000000000001f2ad01017d4f1ac0000000000000000000000000000000000000000000014947b44fe261b1e2bc2",
          "blockHash": "0xfccd87d2cc3ed959b5d1ab89da33acf7bed9313f9105dfd7bb7280ec38b327bb",
          "blockNumber": "0x2cc8726",
          "transactionHash": "0x74874ebb0c40538a040bfded5ff820ae54f3bd75edca2d404bd74f62492ac658",
          "transactionIndex": "0x0",
          "logIndex": "0x1",
          "removed": false
        }
      ],
      "status": "0x1",
      "logsBloom": "0x00000000000000000000000000000000000000000000000000100000000000000000000000000000000000000000000000008000002000000000400000000000000000000000000000000000000000800000000000000000040100000000000000000000000000000000000000000000000000001000004080000000000000000000000000000020000000000000000000000000000000000000000000080000200000000000000000000000000000000000000000000000000040000000004000000000000000000001000002000000800000000000000000100000000000000080000000000000000000000000000000000000000000000000000000100000",
      "type": "0x2",
      "effectiveGasPrice": "0x6fc23ac0f"
    }
  ],
  "libraries": [],
  "pending": [],
  "returns": {},
  "timestamp": 1710241155,
  "chain": 80001,
  "multi": false,
  "commit": "88dccd9"
}