{
  "transactions": [
    {
      "hash": "0x0e1e97bb384a26b046686a7e924edb1444f584a674d771c34958458be02c0779",
      "transactionType": "CALL",
      "contractName": "MocaOFT",
      "contractAddress": "0x1fA47369FCA4e2bc1054C3783682605604eE92aD",
      "function": "setPeer(uint32,bytes32)",
      "arguments": [
        "40161",
        "0x0000000000000000000000003637a64b2422350f312858ba3ebb9312a5516d23"
      ],
      "transaction": {
        "type": "0x02",
        "from": "0xde05a1abb121113a33eed248bd91ddc254d5e9db",
        "to": "0x1fa47369fca4e2bc1054c3783682605604ee92ad",
        "gas": "0x11ceb",
        "value": "0x0",
        "data": "0x3400288b0000000000000000000000000000000000000000000000000000000000009ce10000000000000000000000003637a64b2422350f312858ba3ebb9312a5516d23",
        "nonce": "0x39",
        "accessList": []
      },
      "additionalContracts": [],
      "isFixedGasLimit": false
    }
  ],
  "receipts": [
    {
      "transactionHash": "0x0e1e97bb384a26b046686a7e924edb1444f584a674d771c34958458be02c0779",
      "transactionIndex": "0x0",
      "blockHash": "0xe76e2ba82eac4dccd47017257c089934607e7c124fe8f930a261059c17abd470",
      "blockNumber": "0x2cac3aa",
      "from": "0xdE05a1Abb121113a33eeD248BD91ddC254d5E9Db",
      "to": "0x1fA47369FCA4e2bc1054C3783682605604eE92aD",
      "cumulativeGasUsed": "0xc2d1",
      "gasUsed": "0xc2d1",
      "contractAddress": null,
      "logs": [
        {
          "address": "0x1fA47369FCA4e2bc1054C3783682605604eE92aD",
          "topics": [
            "0x238399d427b947898edb290f5ff0f9109849b1c3ba196a42e35f00c50a54b98b"
          ],
          "data": "0x0000000000000000000000000000000000000000000000000000000000009ce10000000000000000000000003637a64b2422350f312858ba3ebb9312a5516d23",
          "blockHash": "0xe76e2ba82eac4dccd47017257c089934607e7c124fe8f930a261059c17abd470",
          "blockNumber": "0x2cac3aa",
          "transactionHash": "0x0e1e97bb384a26b046686a7e924edb1444f584a674d771c34958458be02c0779",
          "transactionIndex": "0x0",
          "logIndex": "0x0",
          "removed": false
        },
        {
          "address": "0x0000000000000000000000000000000000001010",
          "topics": [
            "0x4dfe1bbbcf077ddc3e01291eea2d5c70c2b422b415d95645b9adcfd678cb1d63",
            "0x0000000000000000000000000000000000000000000000000000000000001010",
            "0x000000000000000000000000de05a1abb121113a33eed248bd91ddc254d5e9db",
            "0x000000000000000000000000cfef2a3dc244ef7d0fb93c45e762d671445c4569"
          ],
          "data": "0x000000000000000000000000000000000000000000000000000550c6e1776c00000000000000000000000000000000000000000000000000115127743054a89d0000000000000000000000000000000000000000000001db895ab7397f1af5cb000000000000000000000000000000000000000000000000114bd6ad4edd3c9d0000000000000000000000000000000000000000000001db89600800609261cb",
          "blockHash": "0xe76e2ba82eac4dccd47017257c089934607e7c124fe8f930a261059c17abd470",
          "blockNumber": "0x2cac3aa",
          "transactionHash": "0x0e1e97bb384a26b046686a7e924edb1444f584a674d771c34958458be02c0779",
          "transactionIndex": "0x0",
          "logIndex": "0x1",
          "removed": false
        }
      ],
      "status": "0x1",
      "logsBloom": "0x00000000010000000000000000000000000000000000000000100000000000000000000000000000000000000000000000008000000000000800000000000000000000000000000000000000000000800000000000000000020100000000000000000000000000000000000000000000000000001000004080000000000000000000000000000020000000000000000000000000000000000000000000000000200000000000000000000000000000000000000000000000000002000000004000000000000000000001000000000000800000000000000000140000000000000080000000000000000000000000000000000000000000000000040000100000",
      "type": "0x2",
      "effectiveGasPrice": "0x6fc23ac0f"
    }
  ],
  "libraries": [],
  "pending": [],
  "returns": {},
  "timestamp": 1709979882,
  "chain": 80001,
  "multi": false,
  "commit": "4230a88"
}