{
  "transactions": [
    {
      "hash": "0x6eddc6a92037bfa993e8262031bd6b1baa36a1248c8dd59257c543ff5728018c",
      "transactionType": "CALL",
      "contractName": "MocaOFT",
      "contractAddress": "0xE415dCa40E5587AF6DeC72683a55ebEbA911Ba6e",
      "function": "setOutboundLimit(uint32,uint256)",
      "arguments": [
        "40161",
        "10000000000000000000"
      ],
      "transaction": {
        "type": "0x02",
        "from": "0xde05a1abb121113a33eed248bd91ddc254d5e9db",
        "to": "0xe415dca40e5587af6dec72683a55ebeba911ba6e",
        "gas": "0x100f0",
        "value": "0x0",
        "data": "0x65d28a6b0000000000000000000000000000000000000000000000000000000000009ce10000000000000000000000000000000000000000000000008ac7230489e80000",
        "nonce": "0x56",
        "accessList": []
      },
      "additionalContracts": [],
      "isFixedGasLimit": false
    },
    {
      "hash": "0xfd2203cdb0240e92e3fb0e69f753fbb6143ebbc7541aea4bf008d4a6374ad9d2",
      "transactionType": "CALL",
      "contractName": "MocaOFT",
      "contractAddress": "0xE415dCa40E5587AF6DeC72683a55ebEbA911Ba6e",
      "function": "setInboundLimit(uint32,uint256)",
      "arguments": [
        "40161",
        "10000000000000000000"
      ],
      "transaction": {
        "type": "0x02",
        "from": "0xde05a1abb121113a33eed248bd91ddc254d5e9db",
        "to": "0xe415dca40e5587af6dec72683a55ebeba911ba6e",
        "gas": "0x1104f",
        "value": "0x0",
        "data": "0x9a2fe9e40000000000000000000000000000000000000000000000000000000000009ce10000000000000000000000000000000000000000000000008ac7230489e80000",
        "nonce": "0x57",
        "accessList": []
      },
      "additionalContracts": [],
      "isFixedGasLimit": false
    }
  ],
  "receipts": [
    {
      "transactionHash": "0x6eddc6a92037bfa993e8262031bd6b1baa36a1248c8dd59257c543ff5728018c",
      "transactionIndex": "0x0",
      "blockHash": "0xb1c27bfab05696254468b77173d5d86090a0bb73798df117e254d05201e3f91b",
      "blockNumber": "0x2d2cfc3",
      "from": "0xdE05a1Abb121113a33eeD248BD91ddC254d5E9Db",
      "to": "0xE415dCa40E5587AF6DeC72683a55ebEbA911Ba6e",
      "cumulativeGasUsed": "0xba05",
      "gasUsed": "0xba05",
      "contractAddress": null,
      "logs": [
        {
          "address": "0xE415dCa40E5587AF6DeC72683a55ebEbA911Ba6e",
          "topics": [
            "0x7628c1599617e8f71acfbf363d8064a2a32bdb6e63e074de3250cab57047bf79",
            "0x0000000000000000000000000000000000000000000000000000000000009ce1"
          ],
          "data": "0x0000000000000000000000000000000000000000000000008ac7230489e80000",
          "blockHash": "0xb1c27bfab05696254468b77173d5d86090a0bb73798df117e254d05201e3f91b",
          "blockNumber": "0x2d2cfc3",
          "transactionHash": "0x6eddc6a92037bfa993e8262031bd6b1baa36a1248c8dd59257c543ff5728018c",
          "transactionIndex": "0x0",
          "logIndex": "0x0",
          "removed": false
        },
        {
          "address": "0x0000000000000000000000000000000000001010",
          "topics": [
            "0x4dfe1bbbcf077ddc3e01291eea2d5c70c2b422b415d95645b9adcfd678cb1d63",
            "0x0000000000000000000000000000000000000000000000000000000000001010",
            "0x000000000000000000000000de05a1abb121113a33eed248bd91ddc254d5e9db",
            "0x000000000000000000000000c275dc8be39f50d12f66b6a63629c39da5bae5bd"
          ],
          "data": "0x00000000000000000000000000000000000000000000000000051354d7aa5c000000000000000000000000000000000000000000000000002609bd0cef3608e40000000000000000000000000000000000000000000014b7b7b78f1de92ee18f0000000000000000000000000000000000000000000000002604a9b8178bace40000000000000000000000000000000000000000000014b7b7bca272c0d93d8f",
          "blockHash": "0xb1c27bfab05696254468b77173d5d86090a0bb73798df117e254d05201e3f91b",
          "blockNumber": "0x2d2cfc3",
          "transactionHash": "0x6eddc6a92037bfa993e8262031bd6b1baa36a1248c8dd59257c543ff5728018c",
          "transactionIndex": "0x0",
          "logIndex": "0x1",
          "removed": false
        }
      ],
      "status": "0x1",
      "logsBloom": "0x00000000000000000000000000000000000000000000000000100000000000000000000000000000000000000000000000008000002000000000000000000000000000000000000000000000000000800000000000000000040100000000800000000000000000000000000000800000000100100000004080000000000000000000000000000020000000000000000000000010000000000000000000000000200000000000000000000000000000000000000000000000000040000000004000000000000000000001000000080000000000010000008000100000000000000000000000000000000000000000000200000000000000000000000000100000",
      "type": "0x2",
      "effectiveGasPrice": "0x6fc23ac0f"
    },
    {
      "transactionHash": "0xfd2203cdb0240e92e3fb0e69f753fbb6143ebbc7541aea4bf008d4a6374ad9d2",
      "transactionIndex": "0x1",
      "blockHash": "0xbe697143b188dc048ff448d8239146dc23c8e213959250c909259c7ad4776034",
      "blockNumber": "0x2d2cfc4",
      "from": "0xdE05a1Abb121113a33eeD248BD91ddC254d5E9Db",
      "to": "0xE415dCa40E5587AF6DeC72683a55ebEbA911Ba6e",
      "cumulativeGasUsed": "0x1e502",
      "gasUsed": "0xba32",
      "contractAddress": null,
      "logs": [
        {
          "address": "0xE415dCa40E5587AF6DeC72683a55ebEbA911Ba6e",
          "topics": [
            "0x9cc3784ef7ab64c61f0abf58d72c2a40ef45b319db540006be0aa3e4610b8433",
            "0x0000000000000000000000000000000000000000000000000000000000009ce1"
          ],
          "data": "0x0000000000000000000000000000000000000000000000008ac7230489e80000",
          "blockHash": "0xbe697143b188dc048ff448d8239146dc23c8e213959250c909259c7ad4776034",
          "blockNumber": "0x2d2cfc4",
          "transactionHash": "0xfd2203cdb0240e92e3fb0e69f753fbb6143ebbc7541aea4bf008d4a6374ad9d2",
          "transactionIndex": "0x1",
          "logIndex": "0x3",
          "removed": false
        },
        {
          "address": "0x0000000000000000000000000000000000001010",
          "topics": [
            "0x4dfe1bbbcf077ddc3e01291eea2d5c70c2b422b415d95645b9adcfd678cb1d63",
            "0x0000000000000000000000000000000000000000000000000000000000001010",
            "0x000000000000000000000000de05a1abb121113a33eed248bd91ddc254d5e9db",
            "0x000000000000000000000000c275dc8be39f50d12f66b6a63629c39da5bae5bd"
          ],
          "data": "0x0000000000000000000000000000000000000000000000000005148f29ef98000000000000000000000000000000000000000000000000002604a9b81780c6990000000000000000000000000000000000000000000014b7b7c4cb8d619cd4df00000000000000000000000000000000000000000000000025ff9528ed912e990000000000000000000000000000000000000000000014b7b7c9e01c8b8c6cdf",
          "blockHash": "0xbe697143b188dc048ff448d8239146dc23c8e213959250c909259c7ad4776034",
          "blockNumber": "0x2d2cfc4",
          "transactionHash": "0xfd2203cdb0240e92e3fb0e69f753fbb6143ebbc7541aea4bf008d4a6374ad9d2",
          "transactionIndex": "0x1",
          "logIndex": "0x4",
          "removed": false
        }
      ],
      "status": "0x1",
      "logsBloom": "0x00000000000000000000000000000000000000000000000000100000000000000000000000000000000000000000000000008000002000000001000000000000000000000000000000000000000000800000000000000000040100000000000000000000000000000000000000800000000100100000004080000000000000000000000000000020000000000000000000000010000000000000000000008000200000000000000004000000000000000000000000000000000040000000004000000000000000000001000000000000000000010000000000100000000000000000000000000000000000000000000200000000000000000000000000100000",
      "type": "0x2",
      "effectiveGasPrice": "0x6fc23ac0f"
    }
  ],
  "libraries": [],
  "pending": [],
  "returns": {},
  "timestamp": 1711162106,
  "chain": 80001,
  "commit": "847784f"
}