{
  "transactions": [
    {
      "hash": "0x10f7617278368d4fb58d35fa443420e570a03d43ef5393ea7ac300f17f6e466a",
      "transactionType": "CALL",
      "contractName": "MocaOFT",
      "contractAddress": "0x2525427274ee7Ba2dBABFfa4C813F1630D7aF504",
      "function": "setEnforcedOptions((uint32,uint16,bytes)[])",
      "arguments": [
        "[(40161, 1, 0x00030100110100000000000000000000000000030d40)]"
      ],
      "transaction": {
        "type": "0x02",
        "from": "0xde05a1abb121113a33eed248bd91ddc254d5e9db",
        "to": "0x2525427274ee7ba2dbabffa4c813f1630d7af504",
        "gas": "0xbd5a",
        "value": "0x0",
        "data": "0xb98bd0700000000000000000000000000000000000000000000000000000000000000020000000000000000000000000000000000000000000000000000000000000000100000000000000000000000000000000000000000000000000000000000000200000000000000000000000000000000000000000000000000000000000009ce100000000000000000000000000000000000000000000000000000000000000010000000000000000000000000000000000000000000000000000000000000060000000000000000000000000000000000000000000000000000000000000001600030100110100000000000000000000000000030d4000000000000000000000",
        "nonce": "0x2d",
        "accessList": []
      },
      "additionalContracts": [],
      "isFixedGasLimit": false
    }
  ],
  "receipts": [
    {
      "transactionHash": "0x10f7617278368d4fb58d35fa443420e570a03d43ef5393ea7ac300f17f6e466a",
      "transactionIndex": "0x2",
      "blockHash": "0x4913ed24aa1c10ef417753db7268cf708ff805bcf5d2b27e8e917e95d16c4e92",
      "blockNumber": "0x2ca9656",
      "from": "0xdE05a1Abb121113a33eeD248BD91ddC254d5E9Db",
      "to": "0x2525427274ee7Ba2dBABFfa4C813F1630D7aF504",
      "cumulativeGasUsed": "0x48647",
      "gasUsed": "0x8179",
      "contractAddress": null,
      "logs": [
        {
          "address": "0x2525427274ee7Ba2dBABFfa4C813F1630D7aF504",
          "topics": [
            "0xbe4864a8e820971c0247f5992e2da559595f7bf076a21cb5928d443d2a13b674"
          ],
          "data": "0x0000000000000000000000000000000000000000000000000000000000000020000000000000000000000000000000000000000000000000000000000000000100000000000000000000000000000000000000000000000000000000000000200000000000000000000000000000000000000000000000000000000000009ce100000000000000000000000000000000000000000000000000000000000000010000000000000000000000000000000000000000000000000000000000000060000000000000000000000000000000000000000000000000000000000000001600030100110100000000000000000000000000030d4000000000000000000000",
          "blockHash": "0x4913ed24aa1c10ef417753db7268cf708ff805bcf5d2b27e8e917e95d16c4e92",
          "blockNumber": "0x2ca9656",
          "transactionHash": "0x10f7617278368d4fb58d35fa443420e570a03d43ef5393ea7ac300f17f6e466a",
          "transactionIndex": "0x2",
          "logIndex": "0x5",
          "removed": false
        },
        {
          "address": "0x0000000000000000000000000000000000001010",
          "topics": [
            "0x4dfe1bbbcf077ddc3e01291eea2d5c70c2b422b415d95645b9adcfd678cb1d63",
            "0x0000000000000000000000000000000000000000000000000000000000001010",
            "0x000000000000000000000000de05a1abb121113a33eed248bd91ddc254d5e9db",
            "0x000000000000000000000000c26880a0af2ea0c7e8130e6ec47af756465452e8"
          ],
          "data": "0x0000000000000000000000000000000000000000000000000009af1dc03a05b100000000000000000000000000000000000000000000000014b075744958e20e000000000000000000000000000000000000000000002405210bdf55c6a89baa00000000000000000000000000000000000000000000000014a6c656891edc5d00000000000000000000000000000000000000000000240521158e7386e2a15b",
          "blockHash": "0x4913ed24aa1c10ef417753db7268cf708ff805bcf5d2b27e8e917e95d16c4e92",
          "blockNumber": "0x2ca9656",
          "transactionHash": "0x10f7617278368d4fb58d35fa443420e570a03d43ef5393ea7ac300f17f6e466a",
          "transactionIndex": "0x2",
          "logIndex": "0x6",
          "removed": false
        }
      ],
      "status": "0x1",
      "logsBloom": "0x00000000000000020000000000000000000000000000000000100000000000000000000000000000000000000000000000008000800000000000400000000000000000000000000000000000000080800000000000000000000100000000000000000000000000000000000000000000000000000000004080000000000000010000000000000020000000000000000000000000000000000000000000080000200000000000000020000000000000000001000000000000000000000000004000000000000000000001000002000000000000000000000000100000000000000000000000000000000000000000000000000000000000000000000000100000",
      "type": "0x2",
      "effectiveGasPrice": "0x1325d61008"
    }
  ],
  "libraries": [],
  "pending": [],
  "returns": {},
  "timestamp": 1709952755,
  "chain": 80001,
  "multi": false,
  "commit": "0fb095c"
}