{
  "transactions": [
    {
      "hash": "0x1f5b222acc4c872677394aeea60b13e5b1b80b6a96ac0164e2151a3674698e80",
      "transactionType": "CALL",
      "contractName": "MocaOFT",
      "contractAddress": "0x7d7b79b59Ffb5c684a8baD8fB1729AAA27883DDe",
      "function": "setEnforcedOptions((uint32,uint16,bytes)[])",
      "arguments": [
        "[(40161, 1, 0x00030100110100000000000000000000000000030d40)]"
      ],
      "transaction": {
        "type": "0x02",
        "from": "0xde05a1abb121113a33eed248bd91ddc254d5e9db",
        "to": "0x7d7b79b59ffb5c684a8bad8fb1729aaa27883dde",
        "gas": "0x12f2a",
        "value": "0x0",
        "data": "0xb98bd0700000000000000000000000000000000000000000000000000000000000000020000000000000000000000000000000000000000000000000000000000000000100000000000000000000000000000000000000000000000000000000000000200000000000000000000000000000000000000000000000000000000000009ce100000000000000000000000000000000000000000000000000000000000000010000000000000000000000000000000000000000000000000000000000000060000000000000000000000000000000000000000000000000000000000000001600030100110100000000000000000000000000030d4000000000000000000000",
        "nonce": "0x1d",
        "accessList": []
      },
      "additionalContracts": [],
      "isFixedGasLimit": false
    }
  ],
  "receipts": [],
  "libraries": [],
  "pending": [
    "0x1f5b222acc4c872677394aeea60b13e5b1b80b6a96ac0164e2151a3674698e80"
  ],
  "returns": {},
  "timestamp": 1709101823,
  "chain": 80001,
  "multi": false,
  "commit": "045a50e"
}