{
  "transactions": [
    {
      "hash": "0x0a4b9dc9ee098b0163aecdfb51760673c64f7257a9c34f41723ea66d8beb9c19",
      "transactionType": "CALL",
      "contractName": "MocaOFT",
      "contractAddress": "0x2525427274ee7Ba2dBABFfa4C813F1630D7aF504",
      "function": "setPeer(uint32,bytes32)",
      "arguments": [
        "40161",
        "0x00000000000000000000000065b974b35db51ee52b73391047bcfb43a462e75d"
      ],
      "transaction": {
        "type": "0x02",
        "from": "0xde05a1abb121113a33eed248bd91ddc254d5e9db",
        "to": "0x2525427274ee7ba2dbabffa4c813f1630d7af504",
        "gas": "0xb0d3",
        "value": "0x0",
        "data": "0x3400288b0000000000000000000000000000000000000000000000000000000000009ce100000000000000000000000065b974b35db51ee52b73391047bcfb43a462e75d",
        "nonce": "0x2c",
        "accessList": []
      },
      "additionalContracts": [],
      "isFixedGasLimit": false
    }
  ],
  "receipts": [
    {
      "transactionHash": "0x0a4b9dc9ee098b0163aecdfb51760673c64f7257a9c34f41723ea66d8beb9c19",
      "transactionIndex": "0x1",
      "blockHash": "0x2e619ceb9b171255a81d56b7c983940bcc3faf5f5af1e9dbedfceaf2006cb44e",
      "blockNumber": "0x2ca9647",
      "from": "0xdE05a1Abb121113a33eeD248BD91ddC254d5E9Db",
      "to": "0x2525427274ee7Ba2dBABFfa4C813F1630D7aF504",
      "cumulativeGasUsed": "0x14a66",
      "gasUsed": "0x8005",
      "contractAddress": null,
      "logs": [
        {
          "address": "0x2525427274ee7Ba2dBABFfa4C813F1630D7aF504",
          "topics": [
            "0x238399d427b947898edb290f5ff0f9109849b1c3ba196a42e35f00c50a54b98b"
          ],
          "data": "0x0000000000000000000000000000000000000000000000000000000000009ce100000000000000000000000065b974b35db51ee52b73391047bcfb43a462e75d",
          "blockHash": "0x2e619ceb9b171255a81d56b7c983940bcc3faf5f5af1e9dbedfceaf2006cb44e",
          "blockNumber": "0x2ca9647",
          "transactionHash": "0x0a4b9dc9ee098b0163aecdfb51760673c64f7257a9c34f41723ea66d8beb9c19",
          "transactionIndex": "0x1",
          "logIndex": "0x2",
          "removed": false
        },
        {
          "address": "0x0000000000000000000000000000000000001010",
          "topics": [
            "0x4dfe1bbbcf077ddc3e01291eea2d5c70c2b422b415d95645b9adcfd678cb1d63",
            "0x0000000000000000000000000000000000000000000000000000000000001010",
            "0x000000000000000000000000de05a1abb121113a33eed248bd91ddc254d5e9db",
            "0x0000000000000000000000004ce0f825810371ea57fbcba98b2be98e730c10df"
          ],
          "data": "0x000000000000000000000000000000000000000000000000000b2bf86c0d371c00000000000000000000000000000000000000000000000014bba16cb56d99750000000000000000000000000000000000000000000000c644d55d11f3a0696500000000000000000000000000000000000000000000000014b07574496062590000000000000000000000000000000000000000000000c644e0890a5fada081",
          "blockHash": "0x2e619ceb9b171255a81d56b7c983940bcc3faf5f5af1e9dbedfceaf2006cb44e",
          "blockNumber": "0x2ca9647",
          "transactionHash": "0x0a4b9dc9ee098b0163aecdfb51760673c64f7257a9c34f41723ea66d8beb9c19",
          "transactionIndex": "0x1",
          "logIndex": "0x3",
          "removed": false
        }
      ],
      "status": "0x1",
      "logsBloom": "0x00000000000000000000000000000000000000000000000000100000000000000000000000000000000000000000000000008000800000000800000000000000000000000000000000000000000080800000000000000000000100000000000000000000000000000000000000000000000004000000004080000000000000010000000000000020000000000000000000000000000000000000000000000000200000000000000000000000000000000000000040000000000002000000004000000000000000000001000000000000000000000000000000140000001000000000000000000000000000000000000000000000000000000000000000100000",
      "type": "0x2",
      "effectiveGasPrice": "0x165711717b"
    }
  ],
  "libraries": [],
  "pending": [],
  "returns": {},
  "timestamp": 1709952722,
  "chain": 80001,
  "multi": false,
  "commit": "0fb095c"
}