{
  "transactions": [
    {
      "hash": "0xeac712aa3443d0f4555a7583ee4c1c1d3af8cfeeb26e2e2edee2b1b74d22d29f",
      "transactionType": "CALL",
      "contractName": "MocaOFT",
      "contractAddress": "0xff891133F96a54d2B20F2ff56988C1caDB508D13",
      "function": "setOutboundLimit(uint32,uint256)",
      "arguments": [
        "40161",
        "10000000000000000000"
      ],
      "transaction": {
        "type": "0x02",
        "from": "0xde05a1abb121113a33eed248bd91ddc254d5e9db",
        "to": "0xff891133f96a54d2b20f2ff56988c1cadb508d13",
        "gas": "0x100d0",
        "value": "0x0",
        "data": "0x65d28a6b0000000000000000000000000000000000000000000000000000000000009ce10000000000000000000000000000000000000000000000008ac7230489e80000",
        "nonce": "0x41",
        "accessList": []
      },
      "additionalContracts": [],
      "isFixedGasLimit": false
    },
    {
      "hash": "0x4fe4a636c94bfa1902543b9f51a78ab51b80d1d2a2eb4f654ede504455d47da8",
      "transactionType": "CALL",
      "contractName": "MocaOFT",
      "contractAddress": "0xff891133F96a54d2B20F2ff56988C1caDB508D13",
      "function": "setInboundLimit(uint32,uint256)",
      "arguments": [
        "40161",
        "10000000000000000000"
      ],
      "transaction": {
        "type": "0x02",
        "from": "0xde05a1abb121113a33eed248bd91ddc254d5e9db",
        "to": "0xff891133f96a54d2b20f2ff56988c1cadb508d13",
        "gas": "0x1104f",
        "value": "0x0",
        "data": "0x9a2fe9e40000000000000000000000000000000000000000000000000000000000009ce10000000000000000000000000000000000000000000000008ac7230489e80000",
        "nonce": "0x42",
        "accessList": []
      },
      "additionalContracts": [],
      "isFixedGasLimit": false
    }
  ],
  "receipts": [],
  "libraries": [],
  "pending": [
    "0xeac712aa3443d0f4555a7583ee4c1c1d3af8cfeeb26e2e2edee2b1b74d22d29f",
    "0x4fe4a636c94bfa1902543b9f51a78ab51b80d1d2a2eb4f654ede504455d47da8"
  ],
  "returns": {},
  "timestamp": 1710242149,
  "chain": 80001,
  "multi": false,
  "commit": "88dccd9"
}