{
  "transactions": [
    {
      "hash": "0x2e731e4091cd7d300367671fb148d93fe514a4e9c0ba9d1456f19f561abaa962",
      "transactionType": "CALL",
      "contractName": "MocaOFT",
      "contractAddress": "0xff891133F96a54d2B20F2ff56988C1caDB508D13",
      "function": "setEnforcedOptions((uint32,uint16,bytes)[])",
      "arguments": [
        "[(40161, 1, 0x00030100110100000000000000000000000000030d40), (40161, 2, 0x000301001303000000000000000000000000000000000000)]"
      ],
      "transaction": {
        "type": "0x02",
        "from": "0xde05a1abb121113a33eed248bd91ddc254d5e9db",
        "to": "0xff891133f96a54d2b20f2ff56988c1cadb508d13",
        "gas": "0x1cba6",
        "value": "0x0",
        "data": "0xb98bd07000000000000000000000000000000000000000000000000000000000000000200000000000000000000000000000000000000000000000000000000000000002000000000000000000000000000000000000000000000000000000000000004000000000000000000000000000000000000000000000000000000000000000e00000000000000000000000000000000000000000000000000000000000009ce100000000000000000000000000000000000000000000000000000000000000010000000000000000000000000000000000000000000000000000000000000060000000000000000000000000000000000000000000000000000000000000001600030100110100000000000000000000000000030d40000000000000000000000000000000000000000000000000000000000000000000000000000000009ce10000000000000000000000000000000000000000000000000000000000000002000000000000000000000000000000000000000000000000000000000000006000000000000000000000000000000000000000000000000000000000000000180003010013030000000000000000000000000000000000000000000000000000",
        "nonce": "0x40",
        "accessList": []
      },
      "additionalContracts": [],
      "isFixedGasLimit": false
    }
  ],
  "receipts": [],
  "libraries": [],
  "pending": [
    "0x2e731e4091cd7d300367671fb148d93fe514a4e9c0ba9d1456f19f561abaa962"
  ],
  "returns": {},
  "timestamp": 1710241739,
  "chain": 80001,
  "multi": false,
  "commit": "88dccd9"
}