{
  "transactions": [
    {
      "hash": "0xee81100e7fc7d1d2187c74b7df782b364c4a58d333d8dbbe195cfa42456fb5ed",
      "transactionType": "CALL",
      "contractName": "MocaOFT",
      "contractAddress": "0x2525427274ee7Ba2dBABFfa4C813F1630D7aF504",
      "function": "setPeer(uint32,bytes32)",
      "arguments": [
        "40161",
        "0x00000000000000000000000065b974b35db51ee52b73391047bcfb43a462e75d"
      ],
      "transaction": {
        "type": "0x02",
        "from": "0xde05a1abb121113a33eed248bd91ddc254d5e9db",
        "to": "0x2525427274ee7ba2dbabffa4c813f1630d7af504",
        "gas": "0xa1b7",
        "value": "0x0",
        "data": "0x3400288b0000000000000000000000000000000000000000000000000000000000009ce100000000000000000000000065b974b35db51ee52b73391047bcfb43a462e75d",
        "nonce": "0x2e",
        "accessList": []
      },
      "additionalContracts": [],
      "isFixedGasLimit": false
    }
  ],
  "receipts": [],
  "libraries": [],
  "pending": [
    "0xee81100e7fc7d1d2187c74b7df782b364c4a58d333d8dbbe195cfa42456fb5ed"
  ],
  "returns": {},
  "timestamp": 1709954489,
  "chain": 80001,
  "multi": false,
  "commit": "0fb095c"
}