{
  "transactions": [
    {
      "hash": "0x0e1e97bb384a26b046686a7e924edb1444f584a674d771c34958458be02c0779",
      "transactionType": "CALL",
      "contractName": "MocaOFT",
      "contractAddress": "0x1fA47369FCA4e2bc1054C3783682605604eE92aD",
      "function": "setPeer(uint32,bytes32)",
      "arguments": [
        "40161",
        "0x0000000000000000000000003637a64b2422350f312858ba3ebb9312a5516d23"
      ],
      "transaction": {
        "type": "0x02",
        "from": "0xde05a1abb121113a33eed248bd91ddc254d5e9db",
        "to": "0x1fa47369fca4e2bc1054c3783682605604ee92ad",
        "gas": "0x11ceb",
        "value": "0x0",
        "data": "0x3400288b0000000000000000000000000000000000000000000000000000000000009ce10000000000000000000000003637a64b2422350f312858ba3ebb9312a5516d23",
        "nonce": "0x39",
        "accessList": []
      },
      "additionalContracts": [],
      "isFixedGasLimit": false
    }
  ],
  "receipts": [],
  "libraries": [],
  "pending": [
    "0x0e1e97bb384a26b046686a7e924edb1444f584a674d771c34958458be02c0779"
  ],
  "returns": {},
  "timestamp": 1709979876,
  "chain": 80001,
  "multi": false,
  "commit": "4230a88"
}