{
  "transactions": [
    {
      "hash": "0x519048d64aec977dfdb9fc85b69bf5037406e23226dff99e45727791b81a1970",
      "transactionType": "CALL",
      "contractName": "MocaOFT",
      "contractAddress": "0xE415dCa40E5587AF6DeC72683a55ebEbA911Ba6e",
      "function": "setPeer(uint32,bytes32)",
      "arguments": [
        "40161",
        "0x000000000000000000000000b440a7367dfeb307cb2e7e3cb80625157126a5ca"
      ],
      "transaction": {
        "type": "0x02",
        "from": "0xde05a1abb121113a33eed248bd91ddc254d5e9db",
        "to": "0xe415dca40e5587af6dec72683a55ebeba911ba6e",
        "gas": "0x1016a",
        "value": "0x0",
        "data": "0x3400288b0000000000000000000000000000000000000000000000000000000000009ce1000000000000000000000000b440a7367dfeb307cb2e7e3cb80625157126a5ca",
        "nonce": "0x54",
        "accessList": []
      },
      "additionalContracts": [],
      "isFixedGasLimit": false
    }
  ],
  "receipts": [
    {
      "transactionHash": "0x519048d64aec977dfdb9fc85b69bf5037406e23226dff99e45727791b81a1970",
      "transactionIndex": "0x0",
      "blockHash": "0x318aaace18de751f2ef7ce7b5bfa24a76758064c1f14f49e4cdd44d72adb4192",
      "blockNumber": "0x2d2cf54",
      "from": "0xdE05a1Abb121113a33eeD248BD91ddC254d5E9Db",
      "to": "0xE415dCa40E5587AF6DeC72683a55ebEbA911Ba6e",
      "cumulativeGasUsed": "0xba5e",
      "gasUsed": "0xba5e",
      "contractAddress": null,
      "logs": [
        {
          "address": "0xE415dCa40E5587AF6DeC72683a55ebEbA911Ba6e",
          "topics": [
            "0x238399d427b947898edb290f5ff0f9109849b1c3ba196a42e35f00c50a54b98b"
          ],
          "data": "0x0000000000000000000000000000000000000000000000000000000000009ce1000000000000000000000000b440a7367dfeb307cb2e7e3cb80625157126a5ca",
          "blockHash": "0x318aaace18de751f2ef7ce7b5bfa24a76758064c1f14f49e4cdd44d72adb4192",
          "blockNumber": "0x2d2cf54",
          "transactionHash": "0x519048d64aec977dfdb9fc85b69bf5037406e23226dff99e45727791b81a1970",
          "transactionIndex": "0x0",
          "logIndex": "0x0",
          "removed": false
        },
        {
          "address": "0x0000000000000000000000000000000000001010",
          "topics": [
            "0x4dfe1bbbcf077ddc3e01291eea2d5c70c2b422b415d95645b9adcfd678cb1d63",
            "0x0000000000000000000000000000000000000000000000000000000000001010",
            "0x000000000000000000000000de05a1abb121113a33eed248bd91ddc254d5e9db",
            "0x000000000000000000000000f903ba9e006193c1527bfbe65fe2123704ea3f99"
          ],
          "data": "0x000000000000000000000000000000000000000000000000000515c280112800000000000000000000000000000000000000000000000000261766b8b9e0b4150000000000000000000000000000000000000000000013c6cf65a4c9bb2982f5000000000000000000000000000000000000000000000000261250f639cf8c150000000000000000000000000000000000000000000013c6cf6aba8c3b3aaaf5",
          "blockHash": "0x318aaace18de751f2ef7ce7b5bfa24a76758064c1f14f49e4cdd44d72adb4192",
          "blockNumber": "0x2d2cf54",
          "transactionHash": "0x519048d64aec977dfdb9fc85b69bf5037406e23226dff99e45727791b81a1970",
          "transactionIndex": "0x0",
          "logIndex": "0x1",
          "removed": false
        }
      ],
      "status": "0x1",
      "logsBloom": "0x00000000000000000000000000000000000000000000000000100010000000000000000000000020000000000000000000008000000000000800000000000000000000000000000000000000000000800000000000000000000100000000000000000000000000000000000000000000000100000000004080000000000000000000000000000020000000000000000000000010000000000000000000000000200000000000000000000000000000000000000000000000000002000000004000000000000000000001000000000000000000010000000000140000001000000000000000000000000000000000000000000000000000000000000000100000",
      "type": "0x2",
      "effectiveGasPrice": "0x6fc23ac0f"
    }
  ],
  "libraries": [],
  "pending": [],
  "returns": {},
  "timestamp": 1711161866,
  "chain": 80001,
  "commit": "847784f"
}