{
  "transactions": [
    {
      "hash": "0xeac712aa3443d0f4555a7583ee4c1c1d3af8cfeeb26e2e2edee2b1b74d22d29f",
      "transactionType": "CALL",
      "contractName": "MocaOFT",
      "contractAddress": "0xff891133F96a54d2B20F2ff56988C1caDB508D13",
      "function": "setOutboundLimit(uint32,uint256)",
      "arguments": [
        "40161",
        "10000000000000000000"
      ],
      "transaction": {
        "type": "0x02",
        "from": "0xde05a1abb121113a33eed248bd91ddc254d5e9db",
        "to": "0xff891133f96a54d2b20f2ff56988c1cadb508d13",
        "gas": "0x100d0",
        "value": "0x0",
        "data": "0x65d28a6b0000000000000000000000000000000000000000000000000000000000009ce10000000000000000000000000000000000000000000000008ac7230489e80000",
        "nonce": "0x41",
        "accessList": []
      },
      "additionalContracts": [],
      "isFixedGasLimit": false
    },
    {
      "hash": "0x4fe4a636c94bfa1902543b9f51a78ab51b80d1d2a2eb4f654ede504455d47da8",
      "transactionType": "CALL",
      "contractName": "MocaOFT",
      "contractAddress": "0xff891133F96a54d2B20F2ff56988C1caDB508D13",
      "function": "setInboundLimit(uint32,uint256)",
      "arguments": [
        "40161",
        "10000000000000000000"
      ],
      "transaction": {
        "type": "0x02",
        "from": "0xde05a1abb121113a33eed248bd91ddc254d5e9db",
        "to": "0xff891133f96a54d2b20f2ff56988c1cadb508d13",
        "gas": "0x1104f",
        "value": "0x0",
        "data": "0x9a2fe9e40000000000000000000000000000000000000000000000000000000000009ce10000000000000000000000000000000000000000000000008ac7230489e80000",
        "nonce": "0x42",
        "accessList": []
      },
      "additionalContracts": [],
      "isFixedGasLimit": false
    }
  ],
  "receipts": [
    {
      "transactionHash": "0xeac712aa3443d0f4555a7583ee4c1c1d3af8cfeeb26e2e2edee2b1b74d22d29f",
      "transactionIndex": "0x1",
      "blockHash": "0x03d45c1d56997133b5d0d9c3fbf76f3a50f13bab7a3df0e6801e7dac0858d594",
      "blockNumber": "0x2cc88a2",
      "from": "0xdE05a1Abb121113a33eeD248BD91ddC254d5E9Db",
      "to": "0xff891133F96a54d2B20F2ff56988C1caDB508D13",
      "cumulativeGasUsed": "0x364f5",
      "gasUsed": "0xb9ef",
      "contractAddress": null,
      "logs": [
        {
          "address": "0xff891133F96a54d2B20F2ff56988C1caDB508D13",
          "topics": [
            "0x7628c1599617e8f71acfbf363d8064a2a32bdb6e63e074de3250cab57047bf79",
            "0x0000000000000000000000000000000000000000000000000000000000009ce1"
          ],
          "data": "0x0000000000000000000000000000000000000000000000008ac7230489e80000",
          "blockHash": "0x03d45c1d56997133b5d0d9c3fbf76f3a50f13bab7a3df0e6801e7dac0858d594",
          "blockNumber": "0x2cc88a2",
          "transactionHash": "0xeac712aa3443d0f4555a7583ee4c1c1d3af8cfeeb26e2e2edee2b1b74d22d29f",
          "transactionIndex": "0x1",
          "logIndex": "0x3",
          "removed": false
        },
        {
          "address": "0x0000000000000000000000000000000000001010",
          "topics": [
            "0x4dfe1bbbcf077ddc3e01291eea2d5c70c2b422b415d95645b9adcfd678cb1d63",
            "0x0000000000000000000000000000000000000000000000000000000000001010",
            "0x000000000000000000000000de05a1abb121113a33eed248bd91ddc254d5e9db",
            "0x0000000000000000000000005082f249cdb2f2c1ee035e4f423c46ea2dab3ab1"
          ],
          "data": "0x000000000000000000000000000000000000000000000000000512bb2c9994000000000000000000000000000000000000000000000000001d7dc21ff38a797d00000000000000000000000000000000000000000000076943ded01d18e7493e0000000000000000000000000000000000000000000000001d78af64c6f0e57d00000000000000000000000000000000000000000000076943e3e2d84580dd3e",
          "blockHash": "0x03d45c1d56997133b5d0d9c3fbf76f3a50f13bab7a3df0e6801e7dac0858d594",
          "blockNumber": "0x2cc88a2",
          "transactionHash": "0xeac712aa3443d0f4555a7583ee4c1c1d3af8cfeeb26e2e2edee2b1b74d22d29f",
          "transactionIndex": "0x1",
          "logIndex": "0x4",
          "removed": false
        }
      ],
      "status": "0x1",
      "logsBloom": "0x00000000000001000000000000000000000000000000000000100000020000000000000002000000000000000000000000008000000000000000000000000000000000000000000000000000000000800000000000000000000100000000800008000000000000000000000000800000000000100000004080000000000000000000000000000020000000000000000000000000000000000000000000000000200000000000000000000000000000000000000000000000000000000000004000000000000000000001000000080000000000000000008000100000000000000000000000000080040000000000000200000000000000000000000000100000",
      "type": "0x2",
      "effectiveGasPrice": "0x6fc23ac0f"
    },
    {
      "transactionHash": "0x4fe4a636c94bfa1902543b9f51a78ab51b80d1d2a2eb4f654ede504455d47da8",
      "transactionIndex": "0x2",
      "blockHash": "0x03d45c1d56997133b5d0d9c3fbf76f3a50f13bab7a3df0e6801e7dac0858d594",
      "blockNumber": "0x2cc88a2",
      "from": "0xdE05a1Abb121113a33eeD248BD91ddC254d5E9Db",
      "to": "0xff891133F96a54d2B20F2ff56988C1caDB508D13",
      "cumulativeGasUsed": "0x41f27",
      "gasUsed": "0xba32",
      "contractAddress": null,
      "logs": [
        {
          "address": "0xff891133F96a54d2B20F2ff56988C1caDB508D13",
          "topics": [
            "0x9cc3784ef7ab64c61f0abf58d72c2a40ef45b319db540006be0aa3e4610b8433",
            "0x0000000000000000000000000000000000000000000000000000000000009ce1"
          ],
          "data": "0x0000000000000000000000000000000000000000000000008ac7230489e80000",
          "blockHash": "0x03d45c1d56997133b5d0d9c3fbf76f3a50f13bab7a3df0e6801e7dac0858d594",
          "blockNumber": "0x2cc88a2",
          "transactionHash": "0x4fe4a636c94bfa1902543b9f51a78ab51b80d1d2a2eb4f654ede504455d47da8",
          "transactionIndex": "0x2",
          "logIndex": "0x5",
          "removed": false
        },
        {
          "address": "0x0000000000000000000000000000000000001010",
          "topics": [
            "0x4dfe1bbbcf077ddc3e01291eea2d5c70c2b422b415d95645b9adcfd678cb1d63",
            "0x0000000000000000000000000000000000000000000000000000000000001010",
            "0x000000000000000000000000de05a1abb121113a33eed248bd91ddc254d5e9db",
            "0x0000000000000000000000005082f249cdb2f2c1ee035e4f423c46ea2dab3ab1"
          ],
          "data": "0x0000000000000000000000000000000000000000000000000005148f29ef98000000000000000000000000000000000000000000000000001d78af64c6e6007c00000000000000000000000000000000000000000000076943e3e2d84580dd3e0000000000000000000000000000000000000000000000001d739ad59cf6687c00000000000000000000000000000000000000000000076943e8f7676f70753e",
          "blockHash": "0x03d45c1d56997133b5d0d9c3fbf76f3a50f13bab7a3df0e6801e7dac0858d594",
          "blockNumber": "0x2cc88a2",
          "transactionHash": "0x4fe4a636c94bfa1902543b9f51a78ab51b80d1d2a2eb4f654ede504455d47da8",
          "transactionIndex": "0x2",
          "logIndex": "0x6",
          "removed": false
        }
      ],
      "status": "0x1",
      "logsBloom": "0x00000000000001000000000000000000000000000000000000100000020000000000000002000000000000000000000000008000000000000001000000000000000000000000000000000000000000800000000000000000000100000000000008000000000000000000000000800000000000100000004080000000000000000000000000000020000000000000000000000000000000000000000000008000200000000000000004000000000000000000000000000000000000000000004000000000000000000001000000000000000000000000000000100000000000000000000000000080040000000000000200000000000000000000000000100000",
      "type": "0x2",
      "effectiveGasPrice": "0x6fc23ac0f"
    }
  ],
  "libraries": [],
  "pending": [],
  "returns": {},
  "timestamp": 1710242157,
  "chain": 80001,
  "multi": false,
  "commit": "88dccd9"
}