{
  "transactions": [
    {
      "hash": "0xe766d8a646200f756f81610a335c25f87549fddb110da5edec0bf032645fff81",
      "transactionType": "CALL",
      "contractName": "MocaOFT",
      "contractAddress": "0xff891133F96a54d2B20F2ff56988C1caDB508D13",
      "function": "setPeer(uint32,bytes32)",
      "arguments": [
        "40161",
        "0x0000000000000000000000005348e3eeabe88d801cd6cd734d9ed390b9f5cb5c"
      ],
      "transaction": {
        "type": "0x02",
        "from": "0xde05a1abb121113a33eed248bd91ddc254d5e9db",
        "to": "0xff891133f96a54d2b20f2ff56988c1cadb508d13",
        "gas": "0x10cd9",
        "value": "0x0",
        "data": "0x3400288b0000000000000000000000000000000000000000000000000000000000009ce10000000000000000000000005348e3eeabe88d801cd6cd734d9ed390b9f5cb5c",
        "nonce": "0x3f",
        "accessList": []
      },
      "additionalContracts": [],
      "isFixedGasLimit": false
    }
  ],
  "receipts": [
    {
      "transactionHash": "0xe766d8a646200f756f81610a335c25f87549fddb110da5edec0bf032645fff81",
      "transactionIndex": "0x6",
      "blockHash": "0xeff97d5e5002a66d700445f105e81db586a1103594f5705af527eb61e62a26e0",
      "blockNumber": "0x2cc87ae",
      "from": "0xdE05a1Abb121113a33eeD248BD91ddC254d5E9Db",
      "to": "0xff891133F96a54d2B20F2ff56988C1caDB508D13",
      "cumulativeGasUsed": "0x10c505",
      "gasUsed": "0xc2a5",
      "contractAddress": null,
      "logs": [
        {
          "address": "0xff891133F96a54d2B20F2ff56988C1caDB508D13",
          "topics": [
            "0x238399d427b947898edb290f5ff0f9109849b1c3ba196a42e35f00c50a54b98b"
          ],
          "data": "0x0000000000000000000000000000000000000000000000000000000000009ce10000000000000000000000005348e3eeabe88d801cd6cd734d9ed390b9f5cb5c",
          "blockHash": "0xeff97d5e5002a66d700445f105e81db586a1103594f5705af527eb61e62a26e0",
          "blockNumber": "0x2cc87ae",
          "transactionHash": "0xe766d8a646200f756f81610a335c25f87549fddb110da5edec0bf032645fff81",
          "transactionIndex": "0x6",
          "logIndex": "0x16",
          "removed": false
        },
        {
          "address": "0x0000000000000000000000000000000000001010",
          "topics": [
            "0x4dfe1bbbcf077ddc3e01291eea2d5c70c2b422b415d95645b9adcfd678cb1d63",
            "0x0000000000000000000000000000000000000000000000000000000000001010",
            "0x000000000000000000000000de05a1abb121113a33eed248bd91ddc254d5e9db",
            "0x000000000000000000000000be188d6641e8b680743a4815dfa0f6208038960f"
          ],
          "data": "0x00000000000000000000000000000000000000000000000000054f938b55dc000000000000000000000000000000000000000000000000001d8ba5031e6a4e320000000000000000000000000000000000000000000036ca36019a207da79a150000000000000000000000000000000000000000000000001d86556f931472320000000000000000000000000000000000000000000036ca3606e9b408fd7615",
          "blockHash": "0xeff97d5e5002a66d700445f105e81db586a1103594f5705af527eb61e62a26e0",
          "blockNumber": "0x2cc87ae",
          "transactionHash": "0xe766d8a646200f756f81610a335c25f87549fddb110da5edec0bf032645fff81",
          "transactionIndex": "0x6",
          "logIndex": "0x17",
          "removed": false
        }
      ],
      "status": "0x1",
      "logsBloom": "0x00000000000001000000000000000000000000000000000000100000000000000000000000000000000000000000000000008000000000000800000000000000000000000000000000000000000000800000000000000000000100000000004008000000000000000000000000000000000000000000004080000000000000000000000000000020000000000000000000000000000080000000000000000000200000000000000000000000000000000000000000000000000002000000004000000000000000000001000000000000000000000000000000140040000000000000000000000000040000000000000000000000000000000000000000100000",
      "type": "0x2",
      "effectiveGasPrice": "0x6fc23ac10"
    }
  ],
  "libraries": [],
  "pending": [],
  "returns": {},
  "timestamp": 1710241509,
  "chain": 80001,
  "multi": false,
  "commit": "88dccd9"
}