{
  "transactions": [
    {
      "hash": "0x221446b0675a1d215534ff9ab96f8152efeeecf09916693201b4e593f2a66b22",
      "transactionType": "CALL",
      "contractName": "MocaOFT",
      "contractAddress": "0x2525427274ee7Ba2dBABFfa4C813F1630D7aF504",
      "function": "setEnforcedOptions((uint32,uint16,bytes)[])",
      "arguments": [
        "[(40161, 1, 0x00030100110100000000000000000000000000030d40)]"
      ],
      "transaction": {
        "type": "0x02",
        "from": "0xde05a1abb121113a33eed248bd91ddc254d5e9db",
        "to": "0x2525427274ee7ba2dbabffa4c813f1630d7af504",
        "gas": "0xbd5a",
        "value": "0x0",
        "data": "0xb98bd0700000000000000000000000000000000000000000000000000000000000000020000000000000000000000000000000000000000000000000000000000000000100000000000000000000000000000000000000000000000000000000000000200000000000000000000000000000000000000000000000000000000000009ce100000000000000000000000000000000000000000000000000000000000000010000000000000000000000000000000000000000000000000000000000000060000000000000000000000000000000000000000000000000000000000000001600030100110100000000000000000000000000030d4000000000000000000000",
        "nonce": "0x2f",
        "accessList": []
      },
      "additionalContracts": [],
      "isFixedGasLimit": false
    }
  ],
  "receipts": [],
  "libraries": [],
  "pending": [
    "0x221446b0675a1d215534ff9ab96f8152efeeecf09916693201b4e593f2a66b22"
  ],
  "returns": {},
  "timestamp": 1709954682,
  "chain": 80001,
  "multi": false,
  "commit": "0fb095c"
}