{
  "transactions": [
    {
      "hash": "0x221446b0675a1d215534ff9ab96f8152efeeecf09916693201b4e593f2a66b22",
      "transactionType": "CALL",
      "contractName": "MocaOFT",
      "contractAddress": "0x2525427274ee7Ba2dBABFfa4C813F1630D7aF504",
      "function": "setEnforcedOptions((uint32,uint16,bytes)[])",
      "arguments": [
        "[(40161, 1, 0x00030100110100000000000000000000000000030d40)]"
      ],
      "transaction": {
        "type": "0x02",
        "from": "0xde05a1abb121113a33eed248bd91ddc254d5e9db",
        "to": "0x2525427274ee7ba2dbabffa4c813f1630d7af504",
        "gas": "0xbd5a",
        "value": "0x0",
        "data": "0xb98bd0700000000000000000000000000000000000000000000000000000000000000020000000000000000000000000000000000000000000000000000000000000000100000000000000000000000000000000000000000000000000000000000000200000000000000000000000000000000000000000000000000000000000009ce100000000000000000000000000000000000000000000000000000000000000010000000000000000000000000000000000000000000000000000000000000060000000000000000000000000000000000000000000000000000000000000001600030100110100000000000000000000000000030d4000000000000000000000",
        "nonce": "0x2f",
        "accessList": []
      },
      "additionalContracts": [],
      "isFixedGasLimit": false
    }
  ],
  "receipts": [
    {
      "transactionHash": "0x221446b0675a1d215534ff9ab96f8152efeeecf09916693201b4e593f2a66b22",
      "transactionIndex": "0x1",
      "blockHash": "0x134187e8cca6856a99d2a79ca9e3f57a701ce25688f06f6075133c392cc57ea4",
      "blockNumber": "0x2ca99e5",
      "from": "0xdE05a1Abb121113a33eeD248BD91ddC254d5E9Db",
      "to": "0x2525427274ee7Ba2dBABFfa4C813F1630D7aF504",
      "cumulativeGasUsed": "0xd381",
      "gasUsed": "0x8179",
      "contractAddress": null,
      "logs": [
        {
          "address": "0x2525427274ee7Ba2dBABFfa4C813F1630D7aF504",
          "topics": [
            "0xbe4864a8e820971c0247f5992e2da559595f7bf076a21cb5928d443d2a13b674"
          ],
          "data": "0x0000000000000000000000000000000000000000000000000000000000000020000000000000000000000000000000000000000000000000000000000000000100000000000000000000000000000000000000000000000000000000000000200000000000000000000000000000000000000000000000000000000000009ce100000000000000000000000000000000000000000000000000000000000000010000000000000000000000000000000000000000000000000000000000000060000000000000000000000000000000000000000000000000000000000000001600030100110100000000000000000000000000030d4000000000000000000000",
          "blockHash": "0x134187e8cca6856a99d2a79ca9e3f57a701ce25688f06f6075133c392cc57ea4",
          "blockNumber": "0x2ca99e5",
          "transactionHash": "0x221446b0675a1d215534ff9ab96f8152efeeecf09916693201b4e593f2a66b22",
          "transactionIndex": "0x1",
          "logIndex": "0x2",
          "removed": false
        },
        {
          "address": "0x0000000000000000000000000000000000001010",
          "topics": [
            "0x4dfe1bbbcf077ddc3e01291eea2d5c70c2b422b415d95645b9adcfd678cb1d63",
            "0x0000000000000000000000000000000000000000000000000000000000001010",
            "0x000000000000000000000000de05a1abb121113a33eed248bd91ddc254d5e9db",
            "0x000000000000000000000000c275dc8be39f50d12f66b6a63629c39da5bae5bd"
          ],
          "data": "0x0000000000000000000000000000000000000000000000000003885b26884c0000000000000000000000000000000000000000000000000014a394878c874e0b00000000000000000000000000000000000000000000148ac6546eb25e75b8bd00000000000000000000000000000000000000000000000014a00c2c65ff020b00000000000000000000000000000000000000000000148ac657f70d84fe04bd",
          "blockHash": "0x134187e8cca6856a99d2a79ca9e3f57a701ce25688f06f6075133c392cc57ea4",
          "blockNumber": "0x2ca99e5",
          "transactionHash": "0x221446b0675a1d215534ff9ab96f8152efeeecf09916693201b4e593f2a66b22",
          "transactionIndex": "0x1",
          "logIndex": "0x3",
          "removed": false
        }
      ],
      "status": "0x1",
      "logsBloom": "0x00000000000000000000000000000000000000000000000000100000000000000000000000000000000000000000000000008000802000000000400000000000000000000000000000000000000080800000000000000000040100000000000000000000000000000000000000000000000000000000004080000000000000010000000000000020000000000000000000000000000000000000000000080000200000000000000000000000000000000000000000000000000040000000004000000000000000000001000002000000000000000000000000100000000000000000000000000000000000000000000000000000000000000000000000100000",
      "type": "0x2",
      "effectiveGasPrice": "0x6fc23ac0f"
    }
  ],
  "libraries": [],
  "pending": [],
  "returns": {},
  "timestamp": 1709954691,
  "chain": 80001,
  "multi": false,
  "commit": "0fb095c"
}