{
  "transactions": [
    {
      "hash": "0x1f5b222acc4c872677394aeea60b13e5b1b80b6a96ac0164e2151a3674698e80",
      "transactionType": "CALL",
      "contractName": "MocaOFT",
      "contractAddress": "0x7d7b79b59Ffb5c684a8baD8fB1729AAA27883DDe",
      "function": "setEnforcedOptions((uint32,uint16,bytes)[])",
      "arguments": [
        "[(40161, 1, 0x00030100110100000000000000000000000000030d40)]"
      ],
      "transaction": {
        "type": "0x02",
        "from": "0xde05a1abb121113a33eed248bd91ddc254d5e9db",
        "to": "0x7d7b79b59ffb5c684a8bad8fb1729aaa27883dde",
        "gas": "0x12f2a",
        "value": "0x0",
        "data": "0xb98bd0700000000000000000000000000000000000000000000000000000000000000020000000000000000000000000000000000000000000000000000000000000000100000000000000000000000000000000000000000000000000000000000000200000000000000000000000000000000000000000000000000000000000009ce100000000000000000000000000000000000000000000000000000000000000010000000000000000000000000000000000000000000000000000000000000060000000000000000000000000000000000000000000000000000000000000001600030100110100000000000000000000000000030d4000000000000000000000",
        "nonce": "0x1d",
        "accessList": []
      },
      "additionalContracts": [],
      "isFixedGasLimit": false
    }
  ],
  "receipts": [
    {
      "transactionHash": "0x1f5b222acc4c872677394aeea60b13e5b1b80b6a96ac0164e2151a3674698e80",
      "transactionIndex": "0x0",
      "blockHash": "0xf44c1ed069921a3f9ee3015df466b7f2e3fd8f6d743d001e5951739662205d6e",
      "blockNumber": "0x2c4ad8a",
      "from": "0xdE05a1Abb121113a33eeD248BD91ddC254d5E9Db",
      "to": "0x7d7b79b59Ffb5c684a8baD8fB1729AAA27883DDe",
      "cumulativeGasUsed": "0xcf4b",
      "gasUsed": "0xcf4b",
      "contractAddress": null,
      "logs": [
        {
          "address": "0x7d7b79b59Ffb5c684a8baD8fB1729AAA27883DDe",
          "topics": [
            "0xbe4864a8e820971c0247f5992e2da559595f7bf076a21cb5928d443d2a13b674"
          ],
          "data": "0x0000000000000000000000000000000000000000000000000000000000000020000000000000000000000000000000000000000000000000000000000000000100000000000000000000000000000000000000000000000000000000000000200000000000000000000000000000000000000000000000000000000000009ce100000000000000000000000000000000000000000000000000000000000000010000000000000000000000000000000000000000000000000000000000000060000000000000000000000000000000000000000000000000000000000000001600030100110100000000000000000000000000030d4000000000000000000000",
          "blockHash": "0xf44c1ed069921a3f9ee3015df466b7f2e3fd8f6d743d001e5951739662205d6e",
          "blockNumber": "0x2c4ad8a",
          "transactionHash": "0x1f5b222acc4c872677394aeea60b13e5b1b80b6a96ac0164e2151a3674698e80",
          "transactionIndex": "0x0",
          "logIndex": "0x0",
          "removed": false
        },
        {
          "address": "0x0000000000000000000000000000000000001010",
          "topics": [
            "0x4dfe1bbbcf077ddc3e01291eea2d5c70c2b422b415d95645b9adcfd678cb1d63",
            "0x0000000000000000000000000000000000000000000000000000000000001010",
            "0x000000000000000000000000de05a1abb121113a33eed248bd91ddc254d5e9db",
            "0x000000000000000000000000cfef2a3dc244ef7d0fb93c45e762d671445c4569"
          ],
          "data": "0x0000000000000000000000000000000000000000000000000005a7ecb687640000000000000000000000000000000000000000000000000008c553d00f9ddec80000000000000000000000000000000000000000000001a426e46f7ca0dd3d2100000000000000000000000000000000000000000000000008bfabe359167ac80000000000000000000000000000000000000000000001a426ea17695764a121",
          "blockHash": "0xf44c1ed069921a3f9ee3015df466b7f2e3fd8f6d743d001e5951739662205d6e",
          "blockNumber": "0x2c4ad8a",
          "transactionHash": "0x1f5b222acc4c872677394aeea60b13e5b1b80b6a96ac0164e2151a3674698e80",
          "transactionIndex": "0x0",
          "logIndex": "0x1",
          "removed": false
        }
      ],
      "status": "0x1",
      "logsBloom": "0x00000000010000000000000000000000000000000000000000100000000000000000000000000000000000000000000000008000020000000000400000000000000000000000000000000000000000800000000000000000020100000000000000000000000000000000000000800000000000000000004080000000000001000000000000000020000000000000000000000000000000000000000000080000200000000000000000000000000000000000000000000000000000000000004000000000000000000001000002000000000000000000000000100000000000000000000000000000000000000000000000000000000000000000040000100000",
      "type": "0x2",
      "effectiveGasPrice": "0x6fc23ac0f"
    }
  ],
  "libraries": [],
  "pending": [],
  "returns": {},
  "timestamp": 1709101829,
  "chain": 80001,
  "multi": false,
  "commit": "045a50e"
}