{
  "transactions": [
    {
      "hash": "0x2e731e4091cd7d300367671fb148d93fe514a4e9c0ba9d1456f19f561abaa962",
      "transactionType": "CALL",
      "contractName": "MocaOFT",
      "contractAddress": "0xff891133F96a54d2B20F2ff56988C1caDB508D13",
      "function": "setEnforcedOptions((uint32,uint16,bytes)[])",
      "arguments": [
        "[(40161, 1, 0x00030100110100000000000000000000000000030d40), (40161, 2, 0x000301001303000000000000000000000000000000000000)]"
      ],
      "transaction": {
        "type": "0x02",
        "from": "0xde05a1abb121113a33eed248bd91ddc254d5e9db",
        "to": "0xff891133f96a54d2b20f2ff56988c1cadb508d13",
        "gas": "0x1cba6",
        "value": "0x0",
        "data": "0xb98bd07000000000000000000000000000000000000000000000000000000000000000200000000000000000000000000000000000000000000000000000000000000002000000000000000000000000000000000000000000000000000000000000004000000000000000000000000000000000000000000000000000000000000000e00000000000000000000000000000000000000000000000000000000000009ce100000000000000000000000000000000000000000000000000000000000000010000000000000000000000000000000000000000000000000000000000000060000000000000000000000000000000000000000000000000000000000000001600030100110100000000000000000000000000030d40000000000000000000000000000000000000000000000000000000000000000000000000000000009ce10000000000000000000000000000000000000000000000000000000000000002000000000000000000000000000000000000000000000000000000000000006000000000000000000000000000000000000000000000000000000000000000180003010013030000000000000000000000000000000000000000000000000000",
        "nonce": "0x40",
        "accessList": []
      },
      "additionalContracts": [],
      "isFixedGasLimit": false
    }
  ],
  "receipts": [
    {
      "transactionHash": "0x2e731e4091cd7d300367671fb148d93fe514a4e9c0ba9d1456f19f561abaa962",
      "transactionIndex": "0x0",
      "blockHash": "0x0c5dff03d5316641463c5b15c27fdadf248635d5ef6cb7db9307170c93be72f0",
      "blockNumber": "0x2cc8810",
      "from": "0xdE05a1Abb121113a33eeD248BD91ddC254d5E9Db",
      "to": "0xff891133F96a54d2B20F2ff56988C1caDB508D13",
      "cumulativeGasUsed": "0x13a4b",
      "gasUsed": "0x13a4b",
      "contractAddress": null,
      "logs": [
        {
          "address": "0xff891133F96a54d2B20F2ff56988C1caDB508D13",
          "topics": [
            "0xbe4864a8e820971c0247f5992e2da559595f7bf076a21cb5928d443d2a13b674"
          ],
          "data": "0x00000000000000000000000000000000000000000000000000000000000000200000000000000000000000000000000000000000000000000000000000000002000000000000000000000000000000000000000000000000000000000000004000000000000000000000000000000000000000000000000000000000000000e00000000000000000000000000000000000000000000000000000000000009ce100000000000000000000000000000000000000000000000000000000000000010000000000000000000000000000000000000000000000000000000000000060000000000000000000000000000000000000000000000000000000000000001600030100110100000000000000000000000000030d40000000000000000000000000000000000000000000000000000000000000000000000000000000009ce10000000000000000000000000000000000000000000000000000000000000002000000000000000000000000000000000000000000000000000000000000006000000000000000000000000000000000000000000000000000000000000000180003010013030000000000000000000000000000000000000000000000000000",
          "blockHash": "0x0c5dff03d5316641463c5b15c27fdadf248635d5ef6cb7db9307170c93be72f0",
          "blockNumber": "0x2cc8810",
          "transactionHash": "0x2e731e4091cd7d300367671fb148d93fe514a4e9c0ba9d1456f19f561abaa962",
          "transactionIndex": "0x0",
          "logIndex": "0x0",
          "removed": false
        },
        {
          "address": "0x0000000000000000000000000000000000001010",
          "topics": [
            "0x4dfe1bbbcf077ddc3e01291eea2d5c70c2b422b415d95645b9adcfd678cb1d63",
            "0x0000000000000000000000000000000000000000000000000000000000001010",
            "0x000000000000000000000000de05a1abb121113a33eed248bd91ddc254d5e9db",
            "0x0000000000000000000000004ce0f825810371ea57fbcba98b2be98e730c10df"
          ],
          "data": "0x0000000000000000000000000000000000000000000000000008934f9f6b64000000000000000000000000000000000000000000000000001d86556f930847e20000000000000000000000000000000000000000000000ca4e978ef4b7ff69280000000000000000000000000000000000000000000000001d7dc21ff39ce3e20000000000000000000000000000000000000000000000ca4ea02244576acd28",
          "blockHash": "0x0c5dff03d5316641463c5b15c27fdadf248635d5ef6cb7db9307170c93be72f0",
          "blockNumber": "0x2cc8810",
          "transactionHash": "0x2e731e4091cd7d300367671fb148d93fe514a4e9c0ba9d1456f19f561abaa962",
          "transactionIndex": "0x0",
          "logIndex": "0x1",
          "removed": false
        }
      ],
      "status": "0x1",
      "logsBloom": "0x00000000000001000000000000000000000000000000000000100000000000000000000000000000000000000000000000008000000000000000400000000000000000000000000000000000000000800000000000000000000100000000000008000000000000000000000000000000000004000000004080000000000000000000000000000020000000000000000000000000000000000000000000080000200000000000000000000000000000000000000040000000000000000000004000000000000000000001000002000000000000000000000000100000001000000000000000000000040000000000000000000000000000000000000000100000",
      "type": "0x2",
      "effectiveGasPrice": "0x6fc23ac0f"
    }
  ],
  "libraries": [],
  "pending": [],
  "returns": {},
  "timestamp": 1710241753,
  "chain": 80001,
  "multi": false,
  "commit": "88dccd9"
}