{
  "transactions": [
    {
      "hash": "0x8aba79807214270b4db21b946187008e3a327946a4b09ccbe628db6936458857",
      "transactionType": "CALL",
      "contractName": "MocaOFT",
      "contractAddress": "0x1fA47369FCA4e2bc1054C3783682605604eE92aD",
      "function": "setEnforcedOptions((uint32,uint16,bytes)[])",
      "arguments": [
        "[(40161, 1, 0x00030100110100000000000000000000000000030d40), (40161, 2, 0x000301001303000000000000000000000000000000000000)]"
      ],
      "transaction": {
        "type": "0x02",
        "from": "0xde05a1abb121113a33eed248bd91ddc254d5e9db",
        "to": "0x1fa47369fca4e2bc1054c3783682605604ee92ad",
        "gas": "0x1cba6",
        "value": "0x0",
        "data": "0xb98bd07000000000000000000000000000000000000000000000000000000000000000200000000000000000000000000000000000000000000000000000000000000002000000000000000000000000000000000000000000000000000000000000004000000000000000000000000000000000000000000000000000000000000000e00000000000000000000000000000000000000000000000000000000000009ce100000000000000000000000000000000000000000000000000000000000000010000000000000000000000000000000000000000000000000000000000000060000000000000000000000000000000000000000000000000000000000000001600030100110100000000000000000000000000030d40000000000000000000000000000000000000000000000000000000000000000000000000000000009ce10000000000000000000000000000000000000000000000000000000000000002000000000000000000000000000000000000000000000000000000000000006000000000000000000000000000000000000000000000000000000000000000180003010013030000000000000000000000000000000000000000000000000000",
        "nonce": "0x3a",
        "accessList": []
      },
      "additionalContracts": [],
      "isFixedGasLimit": false
    }
  ],
  "receipts": [
    {
      "transactionHash": "0x8aba79807214270b4db21b946187008e3a327946a4b09ccbe628db6936458857",
      "transactionIndex": "0x1",
      "blockHash": "0x620c8f405d895d39e24542aa99fb5421c7a3c6d5e5918ec0321ae163b096369c",
      "blockNumber": "0x2cac3c8",
      "from": "0xdE05a1Abb121113a33eeD248BD91ddC254d5E9Db",
      "to": "0x1fA47369FCA4e2bc1054C3783682605604eE92aD",
      "cumulativeGasUsed": "0x384a8",
      "gasUsed": "0x13a4b",
      "contractAddress": null,
      "logs": [
        {
          "address": "0x1fA47369FCA4e2bc1054C3783682605604eE92aD",
          "topics": [
            "0xbe4864a8e820971c0247f5992e2da559595f7bf076a21cb5928d443d2a13b674"
          ],
          "data": "0x00000000000000000000000000000000000000000000000000000000000000200000000000000000000000000000000000000000000000000000000000000002000000000000000000000000000000000000000000000000000000000000004000000000000000000000000000000000000000000000000000000000000000e00000000000000000000000000000000000000000000000000000000000009ce100000000000000000000000000000000000000000000000000000000000000010000000000000000000000000000000000000000000000000000000000000060000000000000000000000000000000000000000000000000000000000000001600030100110100000000000000000000000000030d40000000000000000000000000000000000000000000000000000000000000000000000000000000009ce10000000000000000000000000000000000000000000000000000000000000002000000000000000000000000000000000000000000000000000000000000006000000000000000000000000000000000000000000000000000000000000000180003010013030000000000000000000000000000000000000000000000000000",
          "blockHash": "0x620c8f405d895d39e24542aa99fb5421c7a3c6d5e5918ec0321ae163b096369c",
          "blockNumber": "0x2cac3c8",
          "transactionHash": "0x8aba79807214270b4db21b946187008e3a327946a4b09ccbe628db6936458857",
          "transactionIndex": "0x1",
          "logIndex": "0x3",
          "removed": false
        },
        {
          "address": "0x0000000000000000000000000000000000001010",
          "topics": [
            "0x4dfe1bbbcf077ddc3e01291eea2d5c70c2b422b415d95645b9adcfd678cb1d63",
            "0x0000000000000000000000000000000000000000000000000000000000001010",
            "0x000000000000000000000000de05a1abb121113a33eed248bd91ddc254d5e9db",
            "0x000000000000000000000000be188d6641e8b680743a4815dfa0f6208038960f"
          ],
          "data": "0x0000000000000000000000000000000000000000000000000008934f9f6b6400000000000000000000000000000000000000000000000000114bd6ad4ed1d25e0000000000000000000000000000000000000000000036bf69250598d89675060000000000000000000000000000000000000000000000001143435daf666e5e0000000000000000000000000000000000000000000036bf692d98e87801d906",
          "blockHash": "0x620c8f405d895d39e24542aa99fb5421c7a3c6d5e5918ec0321ae163b096369c",
          "blockNumber": "0x2cac3c8",
          "transactionHash": "0x8aba79807214270b4db21b946187008e3a327946a4b09ccbe628db6936458857",
          "transactionIndex": "0x1",
          "logIndex": "0x4",
          "removed": false
        }
      ],
      "status": "0x1",
      "logsBloom": "0x00000000000000000000000000000000000000000000000000100000000000000000000000000000000000000000000000008000000000000000400000000000000000000000000000000000000000800000000000000000000100000000004000000000000000000000000000000000000000001000004080000000000000000000000000000020000000000000000000000000000080000000000000080000200000000000000000000000000000000000000000000000000000000000004000000000000000000001000002000000800000000000000000100040000000000080000000000000000000000000000000000000000000000000000000100000",
      "type": "0x2",
      "effectiveGasPrice": "0x6fc23ac0f"
    }
  ],
  "libraries": [],
  "pending": [],
  "returns": {},
  "timestamp": 1709979944,
  "chain": 80001,
  "multi": false,
  "commit": "4230a88"
}