{
  "transactions": [
    {
      "hash": "0xe766d8a646200f756f81610a335c25f87549fddb110da5edec0bf032645fff81",
      "transactionType": "CALL",
      "contractName": "MocaOFT",
      "contractAddress": "0xff891133F96a54d2B20F2ff56988C1caDB508D13",
      "function": "setPeer(uint32,bytes32)",
      "arguments": [
        "40161",
        "0x0000000000000000000000005348e3eeabe88d801cd6cd734d9ed390b9f5cb5c"
      ],
      "transaction": {
        "type": "0x02",
        "from": "0xde05a1abb121113a33eed248bd91ddc254d5e9db",
        "to": "0xff891133f96a54d2b20f2ff56988c1cadb508d13",
        "gas": "0x10cd9",
        "value": "0x0",
        "data": "0x3400288b0000000000000000000000000000000000000000000000000000000000009ce10000000000000000000000005348e3eeabe88d801cd6cd734d9ed390b9f5cb5c",
        "nonce": "0x3f",
        "accessList": []
      },
      "additionalContracts": [],
      "isFixedGasLimit": false
    }
  ],
  "receipts": [],
  "libraries": [],
  "pending": [
    "0xe766d8a646200f756f81610a335c25f87549fddb110da5edec0bf032645fff81"
  ],
  "returns": {},
  "timestamp": 1710241501,
  "chain": 80001,
  "multi": false,
  "commit": "88dccd9"
}