{
  "transactions": [
    {
      "hash": "0x13b4d8d931ec7d109a08ccf0024ae9a12b09d01a26ef47be5da1476604582231",
      "transactionType": "CALL",
      "contractName": "MocaOFT",
      "contractAddress": "0x1fA47369FCA4e2bc1054C3783682605604eE92aD",
      "function": "setOutboundCap(uint32,uint256)",
      "arguments": [
        "40161",
        "10000000000000000000"
      ],
      "transaction": {
        "type": "0x02",
        "from": "0xde05a1abb121113a33eed248bd91ddc254d5e9db",
        "to": "0x1fa47369fca4e2bc1054c3783682605604ee92ad",
        "gas": "0x10ff1",
        "value": "0x0",
        "data": "0x048849750000000000000000000000000000000000000000000000000000000000009ce10000000000000000000000000000000000000000000000008ac7230489e80000",
        "nonce": "0x3b",
        "accessList": []
      },
      "additionalContracts": [],
      "isFixedGasLimit": false
    },
    {
      "hash": "0x3a3c15633c186f41254eb484a6e582266e108c0a63462957ac4e47ec731b981b",
      "transactionType": "CALL",
      "contractName": "MocaOFT",
      "contractAddress": "0x1fA47369FCA4e2bc1054C3783682605604eE92aD",
      "function": "setInboundCap(uint32,uint256)",
      "arguments": [
        "40161",
        "10000000000000000000"
      ],
      "transaction": {
        "type": "0x02",
        "from": "0xde05a1abb121113a33eed248bd91ddc254d5e9db",
        "to": "0x1fa47369fca4e2bc1054c3783682605604ee92ad",
        "gas": "0x10ff0",
        "value": "0x0",
        "data": "0x256008550000000000000000000000000000000000000000000000000000000000009ce10000000000000000000000000000000000000000000000008ac7230489e80000",
        "nonce": "0x3c",
        "accessList": []
      },
      "additionalContracts": [],
      "isFixedGasLimit": false
    }
  ],
  "receipts": [
    {
      "transactionHash": "0x13b4d8d931ec7d109a08ccf0024ae9a12b09d01a26ef47be5da1476604582231",
      "transactionIndex": "0x2",
      "blockHash": "0xae49209b80f0083de11e5a5a5b82f4768f4bb98eaf9a00c4ba95afed1961fbdd",
      "blockNumber": "0x2cac46b",
      "from": "0xdE05a1Abb121113a33eeD248BD91ddC254d5E9Db",
      "to": "0x1fA47369FCA4e2bc1054C3783682605604eE92aD",
      "cumulativeGasUsed": "0x15e02",
      "gasUsed": "0xb9f2",
      "contractAddress": null,
      "logs": [
        {
          "address": "0x1fA47369FCA4e2bc1054C3783682605604eE92aD",
          "topics": [
            "0x7628c1599617e8f71acfbf363d8064a2a32bdb6e63e074de3250cab57047bf79",
            "0x0000000000000000000000000000000000000000000000000000000000009ce1"
          ],
          "data": "0x0000000000000000000000000000000000000000000000008ac7230489e80000",
          "blockHash": "0xae49209b80f0083de11e5a5a5b82f4768f4bb98eaf9a00c4ba95afed1961fbdd",
          "blockNumber": "0x2cac46b",
          "transactionHash": "0x13b4d8d931ec7d109a08ccf0024ae9a12b09d01a26ef47be5da1476604582231",
          "transactionIndex": "0x2",
          "logIndex": "0x4",
          "removed": false
        },
        {
          "address": "0x0000000000000000000000000000000000001010",
          "topics": [
            "0x4dfe1bbbcf077ddc3e01291eea2d5c70c2b422b415d95645b9adcfd678cb1d63",
            "0x0000000000000000000000000000000000000000000000000000000000001010",
            "0x000000000000000000000000de05a1abb121113a33eed248bd91ddc254d5e9db",
            "0x0000000000000000000000005082f249cdb2f2c1ee035e4f423c46ea2dab3ab1"
          ],
          "data": "0x000000000000000000000000000000000000000000000000000512d0210498000000000000000000000000000000000000000000000000001143435daf5403f900000000000000000000000000000000000000000000074aa8a292dd1b7d2b8c000000000000000000000000000000000000000000000000113e308d8e4f6bf900000000000000000000000000000000000000000000074aa8a7a5ad3c81c38c",
          "blockHash": "0xae49209b80f0083de11e5a5a5b82f4768f4bb98eaf9a00c4ba95afed1961fbdd",
          "blockNumber": "0x2cac46b",
          "transactionHash": "0x13b4d8d931ec7d109a08ccf0024ae9a12b09d01a26ef47be5da1476604582231",
          "transactionIndex": "0x2",
          "logIndex": "0x5",
          "removed": false
        }
      ],
      "status": "0x1",
      "logsBloom": "0x00000000000000000000000000000000000000000000000000100000020000000000000002000000000000000000000000008000000000000000000000000000000000000000000000000000000000800000000000000000000100000000800000000000000000000000000000800000000000101000004080000000000000000000000000000020000000000000000000000000000000000000000000000000200000000000000000000000000000000000000000000000000000000000004000000000000000000001000000080000800000000000008000100000000000000080000000000080000000000000000200000000000000000000000000100000",
      "type": "0x2",
      "effectiveGasPrice": "0x6fc23ac0f"
    },
    {
      "transactionHash": "0x3a3c15633c186f41254eb484a6e582266e108c0a63462957ac4e47ec731b981b",
      "transactionIndex": "0x1",
      "blockHash": "0x687c4df3e4f900dae6f952cf72f7980ae852a0eee116293b8312f0841003ec7f",
      "blockNumber": "0x2cac46c",
      "from": "0xdE05a1Abb121113a33eeD248BD91ddC254d5E9Db",
      "to": "0x1fA47369FCA4e2bc1054C3783682605604eE92aD",
      "cumulativeGasUsed": "0x110e88",
      "gasUsed": "0xb9f1",
      "contractAddress": null,
      "logs": [
        {
          "address": "0x1fA47369FCA4e2bc1054C3783682605604eE92aD",
          "topics": [
            "0x9cc3784ef7ab64c61f0abf58d72c2a40ef45b319db540006be0aa3e4610b8433",
            "0x0000000000000000000000000000000000000000000000000000000000009ce1"
          ],
          "data": "0x0000000000000000000000000000000000000000000000008ac7230489e80000",
          "blockHash": "0x687c4df3e4f900dae6f952cf72f7980ae852a0eee116293b8312f0841003ec7f",
          "blockNumber": "0x2cac46c",
          "transactionHash": "0x3a3c15633c186f41254eb484a6e582266e108c0a63462957ac4e47ec731b981b",
          "transactionIndex": "0x1",
          "logIndex": "0x1",
          "removed": false
        },
        {
          "address": "0x0000000000000000000000000000000000001010",
          "topics": [
            "0x4dfe1bbbcf077ddc3e01291eea2d5c70c2b422b415d95645b9adcfd678cb1d63",
            "0x0000000000000000000000000000000000000000000000000000000000001010",
            "0x000000000000000000000000de05a1abb121113a33eed248bd91ddc254d5e9db",
            "0x0000000000000000000000005082f249cdb2f2c1ee035e4f423c46ea2dab3ab1"
          ],
          "data": "0x000000000000000000000000000000000000000000000000000512c924e0ec00000000000000000000000000000000000000000000000000113e308d8e4486cb00000000000000000000000000000000000000000000074aaa2f28f223c5db7400000000000000000000000000000000000000000000000011391dc469639acb00000000000000000000000000000000000000000000074aaa343bbb48a6c774",
          "blockHash": "0x687c4df3e4f900dae6f952cf72f7980ae852a0eee116293b8312f0841003ec7f",
          "blockNumber": "0x2cac46c",
          "transactionHash": "0x3a3c15633c186f41254eb484a6e582266e108c0a63462957ac4e47ec731b981b",
          "transactionIndex": "0x1",
          "logIndex": "0x2",
          "removed": false
        }
      ],
      "status": "0x1",
      "logsBloom": "0x00000000000000000000000000000000000000000000000000100000020000000000000002000000000000000000000000008000000000000001000000000000000000000000000000000000000000800000000000000000000100000000000000000000000000000000000000800000000000101000004080000000000000000000000000000020000000000000000000000000000000000000000000008000200000000000000004000000000000000000000000000000000000000000004000000000000000000001000000000000800000000000000000100000000000000080000000000080000000000000000200000000000000000000000000100000",
      "type": "0x2",
      "effectiveGasPrice": "0x6fc23ac0f"
    }
  ],
  "libraries": [],
  "pending": [],
  "returns": {},
  "timestamp": 1709980326,
  "chain": 80001,
  "multi": false,
  "commit": "4230a88"
}