{
  "transactions": [
    {
      "hash": "0x20f9fe91aa7f681d48e18a63a34f5759501e5c1367c7dccec84563919e570c7b",
      "transactionType": "CALL",
      "contractName": "MocaOFT",
      "contractAddress": "0x7d7b79b59Ffb5c684a8baD8fB1729AAA27883DDe",
      "function": "setPeer(uint32,bytes32)",
      "arguments": [
        "40161",
        "0x000000000000000000000000c8011cb9cfca55b822e56dd048dc960abd6424ce"
      ],
      "transaction": {
        "type": "0x02",
        "from": "0xde05a1abb121113a33eed248bd91ddc254d5e9db",
        "to": "0x7d7b79b59ffb5c684a8bad8fb1729aaa27883dde",
        "gas": "0x1104f",
        "value": "0x0",
        "data": "0x3400288b0000000000000000000000000000000000000000000000000000000000009ce1000000000000000000000000c8011cb9cfca55b822e56dd048dc960abd6424ce",
        "nonce": "0x1c",
        "accessList": []
      },
      "additionalContracts": [],
      "isFixedGasLimit": false
    }
  ],
  "receipts": [
    {
      "transactionHash": "0x20f9fe91aa7f681d48e18a63a34f5759501e5c1367c7dccec84563919e570c7b",
      "transactionIndex": "0x0",
      "blockHash": "0x995ba91b78f6797a98132d6229c27514bace0f7ae575bc80a21c184087c7f6d9",
      "blockNumber": "0x2c4ad58",
      "from": "0xdE05a1Abb121113a33eeD248BD91ddC254d5E9Db",
      "to": "0x7d7b79b59Ffb5c684a8baD8fB1729AAA27883DDe",
      "cumulativeGasUsed": "0xba32",
      "gasUsed": "0xba32",
      "contractAddress": null,
      "logs": [
        {
          "address": "0x7d7b79b59Ffb5c684a8baD8fB1729AAA27883DDe",
          "topics": [
            "0x238399d427b947898edb290f5ff0f9109849b1c3ba196a42e35f00c50a54b98b"
          ],
          "data": "0x0000000000000000000000000000000000000000000000000000000000009ce1000000000000000000000000c8011cb9cfca55b822e56dd048dc960abd6424ce",
          "blockHash": "0x995ba91b78f6797a98132d6229c27514bace0f7ae575bc80a21c184087c7f6d9",
          "blockNumber": "0x2c4ad58",
          "transactionHash": "0x20f9fe91aa7f681d48e18a63a34f5759501e5c1367c7dccec84563919e570c7b",
          "transactionIndex": "0x0",
          "logIndex": "0x0",
          "removed": false
        },
        {
          "address": "0x0000000000000000000000000000000000001010",
          "topics": [
            "0x4dfe1bbbcf077ddc3e01291eea2d5c70c2b422b415d95645b9adcfd678cb1d63",
            "0x0000000000000000000000000000000000000000000000000000000000001010",
            "0x000000000000000000000000de05a1abb121113a33eed248bd91ddc254d5e9db",
            "0x0000000000000000000000005082f249cdb2f2c1ee035e4f423c46ea2dab3ab1"
          ],
          "data": "0x0000000000000000000000000000000000000000000000000005148f29ef980000000000000000000000000000000000000000000000000008ca685f39985fb60000000000000000000000000000000000000000000006be4dfb6c92cf3f8c5d00000000000000000000000000000000000000000000000008c553d00fa8c7b60000000000000000000000000000000000000000000006be4e008121f92f245d",
          "blockHash": "0x995ba91b78f6797a98132d6229c27514bace0f7ae575bc80a21c184087c7f6d9",
          "blockNumber": "0x2c4ad58",
          "transactionHash": "0x20f9fe91aa7f681d48e18a63a34f5759501e5c1367c7dccec84563919e570c7b",
          "transactionIndex": "0x0",
          "logIndex": "0x1",
          "removed": false
        }
      ],
      "status": "0x1",
      "logsBloom": "0x00000000000000000000000000000000000000000000000000100000020000000000000002000000000000000000000000008000020000000800000000000000000000000000000000000000000000800000000000000000000100000000000000000000000000000000000000800000000000000000004080000000000001000000000000000020000000000000000000000000000000000000000000000000200000000000000000000000000000000000000000000000000002000000004000000000000000000001000000000000000000000000000000140000000000000000000000000080000000000000000000000000000000000000000000100000",
      "type": "0x2",
      "effectiveGasPrice": "0x6fc23ac0f"
    }
  ],
  "libraries": [],
  "pending": [],
  "returns": {},
  "timestamp": 1709101723,
  "chain": 80001,
  "multi": false,
  "commit": "045a50e"
}