{
  "transactions": [
    {
      "hash": "0xee81100e7fc7d1d2187c74b7df782b364c4a58d333d8dbbe195cfa42456fb5ed",
      "transactionType": "CALL",
      "contractName": "MocaOFT",
      "contractAddress": "0x2525427274ee7Ba2dBABFfa4C813F1630D7aF504",
      "function": "setPeer(uint32,bytes32)",
      "arguments": [
        "40161",
        "0x00000000000000000000000065b974b35db51ee52b73391047bcfb43a462e75d"
      ],
      "transaction": {
        "type": "0x02",
        "from": "0xde05a1abb121113a33eed248bd91ddc254d5e9db",
        "to": "0x2525427274ee7ba2dbabffa4c813f1630d7af504",
        "gas": "0xa1b7",
        "value": "0x0",
        "data": "0x3400288b0000000000000000000000000000000000000000000000000000000000009ce100000000000000000000000065b974b35db51ee52b73391047bcfb43a462e75d",
        "nonce": "0x2e",
        "accessList": []
      },
      "additionalContracts": [],
      "isFixedGasLimit": false
    }
  ],
  "receipts": [
    {
      "transactionHash": "0xee81100e7fc7d1d2187c74b7df782b364c4a58d333d8dbbe195cfa42456fb5ed",
      "transactionIndex": "0x1",
      "blockHash": "0x313fc16278aba4554b4d44de4d89d297d560e29b8a134f1195ce7d81e51658fe",
      "blockNumber": "0x2ca998a",
      "from": "0xdE05a1Abb121113a33eeD248BD91ddC254d5E9Db",
      "to": "0x2525427274ee7Ba2dBABFfa4C813F1630D7aF504",
      "cumulativeGasUsed": "0x10662",
      "gasUsed": "0x7515",
      "contractAddress": null,
      "logs": [
        {
          "address": "0x2525427274ee7Ba2dBABFfa4C813F1630D7aF504",
          "topics": [
            "0x238399d427b947898edb290f5ff0f9109849b1c3ba196a42e35f00c50a54b98b"
          ],
          "data": "0x0000000000000000000000000000000000000000000000000000000000009ce100000000000000000000000065b974b35db51ee52b73391047bcfb43a462e75d",
          "blockHash": "0x313fc16278aba4554b4d44de4d89d297d560e29b8a134f1195ce7d81e51658fe",
          "blockNumber": "0x2ca998a",
          "transactionHash": "0xee81100e7fc7d1d2187c74b7df782b364c4a58d333d8dbbe195cfa42456fb5ed",
          "transactionIndex": "0x1",
          "logIndex": "0x2",
          "removed": false
        },
        {
          "address": "0x0000000000000000000000000000000000001010",
          "topics": [
            "0x4dfe1bbbcf077ddc3e01291eea2d5c70c2b422b415d95645b9adcfd678cb1d63",
            "0x0000000000000000000000000000000000000000000000000000000000001010",
            "0x000000000000000000000000de05a1abb121113a33eed248bd91ddc254d5e9db",
            "0x000000000000000000000000cfef2a3dc244ef7d0fb93c45e762d671445c4569"
          ],
          "data": "0x000000000000000000000000000000000000000000000000000331cefc891c0000000000000000000000000000000000000000000000000014a6c656891746460000000000000000000000000000000000000000000001dac938f7a2a2eceaf300000000000000000000000000000000000000000000000014a394878c8e2a460000000000000000000000000000000000000000000001dac93c29719f7606f3",
          "blockHash": "0x313fc16278aba4554b4d44de4d89d297d560e29b8a134f1195ce7d81e51658fe",
          "blockNumber": "0x2ca998a",
          "transactionHash": "0xee81100e7fc7d1d2187c74b7df782b364c4a58d333d8dbbe195cfa42456fb5ed",
          "transactionIndex": "0x1",
          "logIndex": "0x3",
          "removed": false
        }
      ],
      "status": "0x1",
      "logsBloom": "0x00000000010000000000000000000000000000000000000000100000000000000000000000000000000000000000000000008000800000000800000000000000000000000000000000000000000080800000000000000000020100000000000000000000000000000000000000000000000000000000004080000000000000010000000000000020000000000000000000000000000000000000000000000000200000000000000000000000000000000000000000000000000002000000004000000000000000000001000000000000000000000000000000140000000000000000000000000000000000000000000000000000000000000000040000100000",
      "type": "0x2",
      "effectiveGasPrice": "0x6fc23ac0f"
    }
  ],
  "libraries": [],
  "pending": [],
  "returns": {},
  "timestamp": 1709954497,
  "chain": 80001,
  "multi": false,
  "commit": "0fb095c"
}